{
  "contractName": "SocialNetwork",
  "abi": [
    {
      "inputs": [],
      "stateMutability": "nonpayable",
      "type": "constructor"
    },
    {
      "anonymous": false,
      "inputs": [
        {
          "indexed": true,
          "internalType": "address",
          "name": "sender",
          "type": "address"
        },
        {
          "indexed": false,
          "internalType": "string",
          "name": "message",
          "type": "string"
        }
      ],
      "name": "AutoCreateUser",
      "type": "event"
    },
    {
      "anonymous": false,
      "inputs": [
        {
          "indexed": false,
          "internalType": "uint256",
          "name": "pid",
          "type": "uint256"
        },
        {
          "indexed": false,
          "internalType": "uint256",
          "name": "cid",
          "type": "uint256"
        },
        {
          "indexed": false,
          "internalType": "string",
          "name": "comment",
          "type": "string"
        },
        {
          "indexed": false,
          "internalType": "address",
          "name": "commentedUser",
          "type": "address"
        },
        {
          "indexed": false,
          "internalType": "string",
          "name": "authorName",
          "type": "string"
        }
      ],
      "name": "CommentCreated",
      "type": "event"
    },
    {
      "anonymous": false,
      "inputs": [
        {
          "indexed": false,
          "internalType": "uint256",
          "name": "pid",
          "type": "uint256"
        },
        {
          "indexed": false,
          "internalType": "uint256",
          "name": "cid",
          "type": "uint256"
        },
        {
          "indexed": false,
          "internalType": "string",
          "name": "deletedComment",
          "type": "string"
        },
        {
          "indexed": false,
          "internalType": "address",
          "name": "commentAuthor",
          "type": "address"
        },
        {
          "indexed": false,
          "internalType": "string",
          "name": "authorName",
          "type": "string"
        }
      ],
      "name": "CommentDeleted",
      "type": "event"
    },
    {
      "anonymous": false,
      "inputs": [
        {
          "indexed": false,
          "internalType": "address",
          "name": "sender",
          "type": "address"
        },
        {
          "indexed": false,
          "internalType": "address",
          "name": "caller",
          "type": "address"
        },
        {
          "indexed": false,
          "internalType": "uint256",
          "name": "balance",
          "type": "uint256"
        }
      ],
      "name": "DestroyContract",
      "type": "event"
    },
    {
      "anonymous": false,
      "inputs": [
        {
          "indexed": true,
          "internalType": "address",
          "name": "sender",
          "type": "address"
        },
        {
          "indexed": false,
          "internalType": "uint256[]",
          "name": "followingIds",
          "type": "uint256[]"
        },
        {
          "indexed": false,
          "internalType": "uint256[]",
          "name": "followerIds",
          "type": "uint256[]"
        }
      ],
      "name": "FetchMyNetworkIds",
      "type": "event"
    },
    {
      "anonymous": false,
      "inputs": [
        {
          "indexed": true,
          "internalType": "address",
          "name": "addr",
          "type": "address"
        },
        {
          "indexed": false,
          "internalType": "uint256[]",
          "name": "myPostIds",
          "type": "uint256[]"
        }
      ],
      "name": "FetchMyPosts",
      "type": "event"
    },
    {
      "anonymous": false,
      "inputs": [
        {
          "indexed": true,
          "internalType": "address",
          "name": "sender",
          "type": "address"
        },
        {
          "indexed": false,
          "internalType": "uint256",
          "name": "senderId",
          "type": "uint256"
        },
        {
          "indexed": false,
          "internalType": "uint256",
          "name": "author",
          "type": "uint256"
        },
        {
          "indexed": false,
          "internalType": "string",
          "name": "message",
          "type": "string"
        },
        {
          "indexed": false,
          "internalType": "uint256",
          "name": "count",
          "type": "uint256"
        }
      ],
      "name": "FollowOrUnFollowUser",
      "type": "event"
    },
    {
      "anonymous": false,
      "inputs": [
        {
          "indexed": true,
          "internalType": "address",
          "name": "id",
          "type": "address"
        },
        {
          "indexed": false,
          "internalType": "uint256",
          "name": "pid",
          "type": "uint256"
        },
        {
          "indexed": false,
          "internalType": "string",
          "name": "content",
          "type": "string"
        },
        {
          "indexed": false,
          "internalType": "string",
          "name": "url",
          "type": "string"
        },
        {
          "indexed": false,
          "internalType": "uint256",
          "name": "tipAmount",
          "type": "uint256"
        },
        {
          "indexed": false,
          "internalType": "address",
          "name": "author",
          "type": "address"
        },
        {
          "indexed": false,
          "internalType": "uint256",
          "name": "authorId",
          "type": "uint256"
        },
        {
          "indexed": false,
          "internalType": "string",
          "name": "authorName",
          "type": "string"
        }
      ],
      "name": "PostCreated",
      "type": "event"
    },
    {
      "anonymous": false,
      "inputs": [
        {
          "indexed": false,
          "internalType": "uint256",
          "name": "pid",
          "type": "uint256"
        },
        {
          "indexed": false,
          "internalType": "uint256",
          "name": "tipAmount",
          "type": "uint256"
        },
        {
          "indexed": false,
          "internalType": "address",
          "name": "author",
          "type": "address"
        }
      ],
      "name": "PostTipped",
      "type": "event"
    },
    {
      "inputs": [
        {
          "internalType": "address",
          "name": "",
          "type": "address"
        }
      ],
      "name": "addressToUid",
      "outputs": [
        {
          "internalType": "uint256",
          "name": "",
          "type": "uint256"
        }
      ],
      "stateMutability": "view",
      "type": "function",
      "constant": true
    },
    {
      "inputs": [
        {
          "internalType": "uint256",
          "name": "",
          "type": "uint256"
        },
        {
          "internalType": "uint256",
          "name": "",
          "type": "uint256"
        }
      ],
      "name": "comments",
      "outputs": [
        {
          "internalType": "uint256",
          "name": "postId",
          "type": "uint256"
        },
        {
          "internalType": "uint256",
          "name": "cid",
          "type": "uint256"
        },
        {
          "internalType": "string",
          "name": "comment",
          "type": "string"
        },
        {
          "internalType": "address",
          "name": "author",
          "type": "address"
        },
        {
          "internalType": "uint256",
          "name": "authorId",
          "type": "uint256"
        },
        {
          "internalType": "string",
          "name": "authorName",
          "type": "string"
        }
      ],
      "stateMutability": "view",
      "type": "function",
      "constant": true
    },
    {
      "inputs": [],
      "name": "networkName",
      "outputs": [
        {
          "internalType": "string",
          "name": "",
          "type": "string"
        }
      ],
      "stateMutability": "view",
      "type": "function",
      "constant": true
    },
    {
      "inputs": [],
      "name": "postCount",
      "outputs": [
        {
          "internalType": "uint256",
          "name": "",
          "type": "uint256"
        }
      ],
      "stateMutability": "view",
      "type": "function",
      "constant": true
    },
    {
      "inputs": [
        {
          "internalType": "uint256",
          "name": "",
          "type": "uint256"
        }
      ],
      "name": "posts",
      "outputs": [
        {
          "internalType": "uint256",
          "name": "pid",
          "type": "uint256"
        },
        {
          "internalType": "string",
          "name": "content",
          "type": "string"
        },
        {
          "internalType": "string",
          "name": "url",
          "type": "string"
        },
        {
          "internalType": "uint256",
          "name": "tipAmount",
          "type": "uint256"
        },
        {
          "internalType": "address payable",
          "name": "author",
          "type": "address"
        },
        {
          "internalType": "uint256",
          "name": "authorId",
          "type": "uint256"
        },
        {
          "internalType": "string",
          "name": "authorName",
          "type": "string"
        },
        {
          "internalType": "uint256",
          "name": "commentsCount",
          "type": "uint256"
        }
      ],
      "stateMutability": "view",
      "type": "function",
      "constant": true
    },
    {
      "inputs": [],
      "name": "userCount",
      "outputs": [
        {
          "internalType": "uint16",
          "name": "",
          "type": "uint16"
        }
      ],
      "stateMutability": "view",
      "type": "function",
      "constant": true
    },
    {
      "inputs": [
        {
          "internalType": "uint256",
          "name": "",
          "type": "uint256"
        }
      ],
      "name": "users",
      "outputs": [
        {
          "internalType": "uint256",
          "name": "id",
          "type": "uint256"
        },
        {
          "internalType": "address",
          "name": "userAddress",
          "type": "address"
        },
        {
          "internalType": "string",
          "name": "name",
          "type": "string"
        },
        {
          "internalType": "uint256",
          "name": "followersCount",
          "type": "uint256"
        },
        {
          "internalType": "uint256",
          "name": "followingCount",
          "type": "uint256"
        },
        {
          "internalType": "uint256",
          "name": "tipObtained",
          "type": "uint256"
        },
        {
          "internalType": "uint256",
          "name": "tipDonated",
          "type": "uint256"
        }
      ],
      "stateMutability": "view",
      "type": "function",
      "constant": true
    },
    {
      "inputs": [
        {
          "internalType": "string",
          "name": "_uname",
          "type": "string"
        }
      ],
      "name": "autoCreateUser",
      "outputs": [],
      "stateMutability": "nonpayable",
      "type": "function"
    },
    {
      "inputs": [],
      "name": "getUserInfo",
      "outputs": [
        {
          "internalType": "uint256",
          "name": "",
          "type": "uint256"
        },
        {
          "internalType": "string",
          "name": "",
          "type": "string"
        },
        {
          "internalType": "uint256",
          "name": "",
          "type": "uint256"
        },
        {
          "internalType": "uint256",
          "name": "",
          "type": "uint256"
        },
        {
          "internalType": "uint256",
          "name": "",
          "type": "uint256"
        },
        {
          "internalType": "uint256",
          "name": "",
          "type": "uint256"
        }
      ],
      "stateMutability": "view",
      "type": "function",
      "constant": true
    },
    {
      "inputs": [
        {
          "internalType": "uint256",
          "name": "_authorId",
          "type": "uint256"
        }
      ],
      "name": "followAuthor",
      "outputs": [],
      "stateMutability": "nonpayable",
      "type": "function"
    },
    {
      "inputs": [
        {
          "internalType": "uint256",
          "name": "_authorId",
          "type": "uint256"
        }
      ],
      "name": "unFollowAuthor",
      "outputs": [],
      "stateMutability": "nonpayable",
      "type": "function"
    },
    {
      "inputs": [
        {
          "internalType": "uint256",
          "name": "_id",
          "type": "uint256"
        }
      ],
      "name": "getMyPosts",
      "outputs": [
        {
          "internalType": "uint256[]",
          "name": "",
          "type": "uint256[]"
        },
        {
          "components": [
            {
              "internalType": "uint256",
              "name": "pid",
              "type": "uint256"
            },
            {
              "internalType": "string",
              "name": "content",
              "type": "string"
            },
            {
              "internalType": "string",
              "name": "url",
              "type": "string"
            },
            {
              "internalType": "uint256",
              "name": "tipAmount",
              "type": "uint256"
            },
            {
              "internalType": "address payable",
              "name": "author",
              "type": "address"
            },
            {
              "internalType": "uint256",
              "name": "authorId",
              "type": "uint256"
            },
            {
              "internalType": "string",
              "name": "authorName",
              "type": "string"
            },
            {
              "internalType": "uint256",
              "name": "commentsCount",
              "type": "uint256"
            }
          ],
          "internalType": "struct SocialNetwork.Post[]",
          "name": "",
          "type": "tuple[]"
        }
      ],
      "stateMutability": "nonpayable",
      "type": "function"
    },
    {
      "inputs": [],
      "name": "getAllFollowingIds",
      "outputs": [
        {
          "internalType": "uint256[]",
          "name": "",
          "type": "uint256[]"
        },
        {
          "internalType": "uint256[]",
          "name": "",
          "type": "uint256[]"
        }
      ],
      "stateMutability": "nonpayable",
      "type": "function"
    },
    {
      "inputs": [
        {
          "internalType": "uint256",
          "name": "_uid",
          "type": "uint256"
        }
      ],
      "name": "getUserData",
      "outputs": [
        {
          "internalType": "uint256",
          "name": "",
          "type": "uint256"
        },
        {
          "internalType": "string",
          "name": "",
          "type": "string"
        },
        {
          "internalType": "uint256",
          "name": "",
          "type": "uint256"
        },
        {
          "internalType": "uint256",
          "name": "",
          "type": "uint256"
        },
        {
          "internalType": "uint256",
          "name": "",
          "type": "uint256"
        },
        {
          "internalType": "uint256",
          "name": "",
          "type": "uint256"
        }
      ],
      "stateMutability": "view",
      "type": "function",
      "constant": true
    },
    {
      "inputs": [
        {
          "internalType": "string",
          "name": "_content",
          "type": "string"
        },
        {
          "internalType": "string",
          "name": "_url",
          "type": "string"
        }
      ],
      "name": "createPost",
      "outputs": [],
      "stateMutability": "nonpayable",
      "type": "function"
    },
    {
      "inputs": [
        {
          "internalType": "uint256",
          "name": "_id",
          "type": "uint256"
        }
      ],
      "name": "tipAPost",
      "outputs": [],
      "stateMutability": "payable",
      "type": "function",
      "payable": true
    },
    {
      "inputs": [
        {
          "internalType": "uint256",
          "name": "_pid",
          "type": "uint256"
        },
        {
          "internalType": "string",
          "name": "_comment",
          "type": "string"
        }
      ],
      "name": "createComment",
      "outputs": [],
      "stateMutability": "nonpayable",
      "type": "function"
    },
    {
      "inputs": [
        {
          "internalType": "uint256",
          "name": "_pid",
          "type": "uint256"
        },
        {
          "internalType": "uint256",
          "name": "_cid",
          "type": "uint256"
        }
      ],
      "name": "deleteComment",
      "outputs": [],
      "stateMutability": "nonpayable",
      "type": "function"
    },
    {
      "inputs": [
        {
          "internalType": "uint256",
          "name": "_postId",
          "type": "uint256"
        }
      ],
      "name": "fetchAllComments",
      "outputs": [
        {
          "internalType": "uint256",
          "name": "count",
          "type": "uint256"
        },
        {
          "components": [
            {
              "internalType": "uint256",
              "name": "postId",
              "type": "uint256"
            },
            {
              "internalType": "uint256",
              "name": "cid",
              "type": "uint256"
            },
            {
              "internalType": "string",
              "name": "comment",
              "type": "string"
            },
            {
              "internalType": "address",
              "name": "author",
              "type": "address"
            },
            {
              "internalType": "uint256",
              "name": "authorId",
              "type": "uint256"
            },
            {
              "internalType": "string",
              "name": "authorName",
              "type": "string"
            }
          ],
          "internalType": "struct SocialNetwork.Comment[]",
          "name": "",
          "type": "tuple[]"
        }
      ],
      "stateMutability": "view",
      "type": "function",
      "constant": true
    },
    {
      "inputs": [],
      "name": "destroyContract",
      "outputs": [],
      "stateMutability": "nonpayable",
      "type": "function"
    }
  ],
  "bytecode": "0x608060405260006006556000600760006101000a81548161ffff021916908361ffff1602179055503480156200003457600080fd5b50336000806101000a81548173ffffffffffffffffffffffffffffffffffffffff021916908373ffffffffffffffffffffffffffffffffffffffff1602179055506040518060400160405280601381526020017f455448202d20536f6369616c4e6574776f726b0000000000000000000000000081525060019080519060200190620000c2929190620000c9565b50620001de565b828054620000d79062000179565b90600052602060002090601f016020900481019282620000fb576000855562000147565b82601f106200011657805160ff191683800117855562000147565b8280016001018555821562000147579182015b828111156200014657825182559160200191906001019062000129565b5b5090506200015691906200015a565b5090565b5b80821115620001755760008160009055506001016200015b565b5090565b600060028204905060018216806200019257607f821691505b60208210811415620001a957620001a8620001af565b5b50919050565b7f4e487b7100000000000000000000000000000000000000000000000000000000600052602260045260246000fd5b61472a80620001ee6000396000f3fe60806040526004361061011f5760003560e01c806331a4bcb5116100a057806340a179851161006457806340a17985146103fe5780635d8d158514610427578063ad2c48ef14610457578063d70d88fd14610480578063fc6c776f146104ac5761011f565b806331a4bcb5146103175780633223e4b814610340578063365b98b214610369578063392338f5146103ac578063392cfec7146103d55761011f565b80630fffe86a116100e75780630fffe86a14610226578063107bf28c1461026357806317906c2e1461028e5780631fef580c146102b95780632fc95d71146102fb5761011f565b806307973ccf14610124578063092a5cce1461014f578063096568b4146101665780630b1e7f83146101a45780630c1d50cb146101e8575b600080fd5b34801561013057600080fd5b506101396104ee565b6040516101469190613cab565b60405180910390f35b34801561015b57600080fd5b50610164610502565b005b34801561017257600080fd5b5061018d600480360381019061018891906135ab565b61063b565b60405161019b929190613d57565b60405180910390f35b3480156101b057600080fd5b506101cb60048036038101906101c691906135ab565b610b7f565b6040516101df989796959493929190613e0b565b60405180910390f35b3480156101f457600080fd5b5061020f600480360381019061020a91906135ab565b610d7f565b60405161021d929190613bbb565b60405180910390f35b34801561023257600080fd5b5061024d600480360381019061024891906134d5565b61127c565b60405161025a9190613cc6565b60405180910390f35b34801561026f57600080fd5b50610278611294565b6040516102859190613c29565b60405180910390f35b34801561029a57600080fd5b506102a3611322565b6040516102b09190613cc6565b60405180910390f35b3480156102c557600080fd5b506102e060048036038101906102db91906135ab565b611328565b6040516102f296959493929190613e9e565b60405180910390f35b610315600480360381019061031091906135ab565b611415565b005b34801561032357600080fd5b5061033e60048036038101906103399190613628565b6118b0565b005b34801561034c57600080fd5b50610367600480360381019061036291906135ab565b611e10565b005b34801561037557600080fd5b50610390600480360381019061038b91906135ab565b612003565b6040516103a39796959493929190613ce1565b60405180910390f35b3480156103b857600080fd5b506103d360048036038101906103ce919061353f565b6120ed565b005b3480156103e157600080fd5b506103fc60048036038101906103f791906135ab565b6123f8565b005b34801561040a57600080fd5b50610425600480360381019061042091906135d4565b6125eb565b005b34801561043357600080fd5b5061043c612ac7565b60405161044e96959493929190613e9e565b60405180910390f35b34801561046357600080fd5b5061047e600480360381019061047991906134fe565b612bf8565b005b34801561048c57600080fd5b50610495612e01565b6040516104a3929190613bf2565b60405180910390f35b3480156104b857600080fd5b506104d360048036038101906104ce9190613628565b613140565b6040516104e596959493929190613fff565b60405180910390f35b600760009054906101000a900461ffff1681565b3373ffffffffffffffffffffffffffffffffffffffff1660008054906101000a900473ffffffffffffffffffffffffffffffffffffffff1673ffffffffffffffffffffffffffffffffffffffff1614610590576040517f08c379a000000000000000000000000000000000000000000000000000000000815260040161058790613c8b565b60405180910390fd5b7f1ec0eba9b0e9e969285026819e2b9903c774ac2ea3e68a8123cb3528b39489423360008054906101000a900473ffffffffffffffffffffffffffffffffffffffff1660008054906101000a900473ffffffffffffffffffffffffffffffffffffffff1673ffffffffffffffffffffffffffffffffffffffff163160405161061a93929190613b62565b60405180910390a13373ffffffffffffffffffffffffffffffffffffffff16ff5b6000606060008311801561065157506006548311155b61065a57600080fd5b6000600260008581526020019081526020016000206040518061010001604052908160008201548152602001600182018054610695906143df565b80601f01602080910402602001604051908101604052809291908181526020018280546106c1906143df565b801561070e5780601f106106e35761010080835404028352916020019161070e565b820191906000526020600020905b8154815290600101906020018083116106f157829003601f168201915b50505050508152602001600282018054610727906143df565b80601f0160208091040260200160405190810160405280929190818152602001828054610753906143df565b80156107a05780601f10610775576101008083540402835291602001916107a0565b820191906000526020600020905b81548152906001019060200180831161078357829003601f168201915b50505050508152602001600382015481526020016004820160009054906101000a900473ffffffffffffffffffffffffffffffffffffffff1673ffffffffffffffffffffffffffffffffffffffff1673ffffffffffffffffffffffffffffffffffffffff16815260200160058201548152602001600682018054610823906143df565b80601f016020809104026020016040519081016040528092919081815260200182805461084f906143df565b801561089c5780601f106108715761010080835404028352916020019161089c565b820191906000526020600020905b81548152906001019060200180831161087f57829003601f168201915b50505050508152602001600782015481525050905060008160e00151905060008167ffffffffffffffff8111156108fc577f4e487b7100000000000000000000000000000000000000000000000000000000600052604160045260246000fd5b60405190808252806020026020018201604052801561093557816020015b6109226132b9565b81526020019060019003908161091a5790505b5090506000600190505b828111610b70576005600088815260200190815260200160002060008281526020019081526020016000206040518060c00160405290816000820154815260200160018201548152602001600282018054610999906143df565b80601f01602080910402602001604051908101604052809291908181526020018280546109c5906143df565b8015610a125780601f106109e757610100808354040283529160200191610a12565b820191906000526020600020905b8154815290600101906020018083116109f557829003601f168201915b505050505081526020016003820160009054906101000a900473ffffffffffffffffffffffffffffffffffffffff1673ffffffffffffffffffffffffffffffffffffffff1673ffffffffffffffffffffffffffffffffffffffff16815260200160048201548152602001600582018054610a8b906143df565b80601f0160208091040260200160405190810160405280929190818152602001828054610ab7906143df565b8015610b045780601f10610ad957610100808354040283529160200191610b04565b820191906000526020600020905b815481529060010190602001808311610ae757829003601f168201915b50505050508152505082600183610b1b919061429b565b81518110610b52577f4e487b7100000000000000000000000000000000000000000000000000000000600052603260045260246000fd5b60200260200101819052508080610b689061446d565b91505061093f565b50848194509450505050915091565b6002602052806000526040600020600091509050806000015490806001018054610ba8906143df565b80601f0160208091040260200160405190810160405280929190818152602001828054610bd4906143df565b8015610c215780601f10610bf657610100808354040283529160200191610c21565b820191906000526020600020905b815481529060010190602001808311610c0457829003601f168201915b505050505090806002018054610c36906143df565b80601f0160208091040260200160405190810160405280929190818152602001828054610c62906143df565b8015610caf5780601f10610c8457610100808354040283529160200191610caf565b820191906000526020600020905b815481529060010190602001808311610c9257829003601f168201915b5050505050908060030154908060040160009054906101000a900473ffffffffffffffffffffffffffffffffffffffff1690806005015490806006018054610cf6906143df565b80601f0160208091040260200160405190810160405280929190818152602001828054610d22906143df565b8015610d6f5780601f10610d4457610100808354040283529160200191610d6f565b820191906000526020600020905b815481529060010190602001808311610d5257829003601f168201915b5050505050908060070154905088565b60608060008060006003600087815260200190815260200160002090506000600190505b6006548111610df65781600401600082815260200190815260200160002060009054906101000a900460ff1615610de3578380610ddf9061446d565b9450505b8080610dee9061446d565b915050610da3565b5060008367ffffffffffffffff811115610e39577f4e487b7100000000000000000000000000000000000000000000000000000000600052604160045260246000fd5b604051908082528060200260200182016040528015610e675781602001602082028036833780820191505090505b50905060008467ffffffffffffffff811115610eac577f4e487b7100000000000000000000000000000000000000000000000000000000600052604160045260246000fd5b604051908082528060200260200182016040528015610ee557816020015b610ed2613305565b815260200190600190039081610eca5790505b5090506000600190505b600654811161121d5783600401600082815260200190815260200160002060009054906101000a900460ff161561120a5780838681518110610f5a577f4e487b7100000000000000000000000000000000000000000000000000000000600052603260045260246000fd5b602002602001018181525050600260008281526020019081526020016000206040518061010001604052908160008201548152602001600182018054610f9f906143df565b80601f0160208091040260200160405190810160405280929190818152602001828054610fcb906143df565b80156110185780601f10610fed57610100808354040283529160200191611018565b820191906000526020600020905b815481529060010190602001808311610ffb57829003601f168201915b50505050508152602001600282018054611031906143df565b80601f016020809104026020016040519081016040528092919081815260200182805461105d906143df565b80156110aa5780601f1061107f576101008083540402835291602001916110aa565b820191906000526020600020905b81548152906001019060200180831161108d57829003601f168201915b50505050508152602001600382015481526020016004820160009054906101000a900473ffffffffffffffffffffffffffffffffffffffff1673ffffffffffffffffffffffffffffffffffffffff1673ffffffffffffffffffffffffffffffffffffffff1681526020016005820154815260200160068201805461112d906143df565b80601f0160208091040260200160405190810160405280929190818152602001828054611159906143df565b80156111a65780601f1061117b576101008083540402835291602001916111a6565b820191906000526020600020905b81548152906001019060200180831161118957829003601f168201915b505050505081526020016007820154815250508286806111c59061446d565b9750815181106111fe577f4e487b7100000000000000000000000000000000000000000000000000000000600052603260045260246000fd5b60200260200101819052505b80806112159061446d565b915050610eef565b503373ffffffffffffffffffffffffffffffffffffffff167fd2365500f72e0836a24bca0665a95120d4f6169769a291786d75fa886cd572e0836040516112649190613b99565b60405180910390a28181965096505050505050915091565b60046020528060005260406000206000915090505481565b600180546112a1906143df565b80601f01602080910402602001604051908101604052809291908181526020018280546112cd906143df565b801561131a5780601f106112ef5761010080835404028352916020019161131a565b820191906000526020600020905b8154815290600101906020018083116112fd57829003601f168201915b505050505081565b60065481565b600060606000806000806000871161133f57600080fd5b6000600360008981526020019081526020016000209050806000015481600201826006015483600701548460080154856009015484805461137f906143df565b80601f01602080910402602001604051908101604052809291908181526020018280546113ab906143df565b80156113f85780601f106113cd576101008083540402835291602001916113f8565b820191906000526020600020905b8154815290600101906020018083116113db57829003601f168201915b505050505094509650965096509650965096505091939550919395565b60008111801561142757506006548111155b61143057600080fd5b600060026000838152602001908152602001600020604051806101000160405290816000820154815260200160018201805461146b906143df565b80601f0160208091040260200160405190810160405280929190818152602001828054611497906143df565b80156114e45780601f106114b9576101008083540402835291602001916114e4565b820191906000526020600020905b8154815290600101906020018083116114c757829003601f168201915b505050505081526020016002820180546114fd906143df565b80601f0160208091040260200160405190810160405280929190818152602001828054611529906143df565b80156115765780601f1061154b57610100808354040283529160200191611576565b820191906000526020600020905b81548152906001019060200180831161155957829003601f168201915b50505050508152602001600382015481526020016004820160009054906101000a900473ffffffffffffffffffffffffffffffffffffffff1673ffffffffffffffffffffffffffffffffffffffff1673ffffffffffffffffffffffffffffffffffffffff168152602001600582015481526020016006820180546115f9906143df565b80601f0160208091040260200160405190810160405280929190818152602001828054611625906143df565b80156116725780601f1061164757610100808354040283529160200191611672565b820191906000526020600020905b81548152906001019060200180831161165557829003601f168201915b5050505050815260200160078201548152505090506000816080015190508073ffffffffffffffffffffffffffffffffffffffff166108fc349081150290604051600060405180830381858888f193505050501580156116d6573d6000803e3d6000fd5b503482606001516116e79190614245565b826060018181525050816002600085815260200190815260200160002060008201518160000155602082015181600101908051906020019061172a929190613360565b506040820151816002019080519060200190611747929190613360565b506060820151816003015560808201518160040160006101000a81548173ffffffffffffffffffffffffffffffffffffffff021916908373ffffffffffffffffffffffffffffffffffffffff16021790555060a0820151816005015560c08201518160060190805190602001906117bf929190613360565b5060e082015181600701559050503460036000600460003373ffffffffffffffffffffffffffffffffffffffff1673ffffffffffffffffffffffffffffffffffffffff16815260200190815260200160002054815260200190815260200160002060090160008282546118329190614245565b9250508190555034600360008460a00151815260200190815260200160002060080160008282546118639190614245565b925050819055507f857a474f7d18ba7614a11cc88bce5fd9cf05678441e1cb7c7eac53fecf3a8abd6006548360600151836040516118a393929190613f06565b60405180910390a1505050565b6000821180156118c257506006548211155b6118cb57600080fd5b6000600260008481526020019081526020016000206040518061010001604052908160008201548152602001600182018054611906906143df565b80601f0160208091040260200160405190810160405280929190818152602001828054611932906143df565b801561197f5780601f106119545761010080835404028352916020019161197f565b820191906000526020600020905b81548152906001019060200180831161196257829003601f168201915b50505050508152602001600282018054611998906143df565b80601f01602080910402602001604051908101604052809291908181526020018280546119c4906143df565b8015611a115780601f106119e657610100808354040283529160200191611a11565b820191906000526020600020905b8154815290600101906020018083116119f457829003601f168201915b50505050508152602001600382015481526020016004820160009054906101000a900473ffffffffffffffffffffffffffffffffffffffff1673ffffffffffffffffffffffffffffffffffffffff1673ffffffffffffffffffffffffffffffffffffffff16815260200160058201548152602001600682018054611a94906143df565b80601f0160208091040260200160405190810160405280929190818152602001828054611ac0906143df565b8015611b0d5780601f10611ae257610100808354040283529160200191611b0d565b820191906000526020600020905b815481529060010190602001808311611af057829003601f168201915b50505050508152602001600782015481525050905060008160e001519050600083118015611b3b5750808311155b611b4457600080fd5b60006005600086815260200190815260200160002060008581526020019081526020016000206040518060c00160405290816000820154815260200160018201548152602001600282018054611b99906143df565b80601f0160208091040260200160405190810160405280929190818152602001828054611bc5906143df565b8015611c125780601f10611be757610100808354040283529160200191611c12565b820191906000526020600020905b815481529060010190602001808311611bf557829003601f168201915b505050505081526020016003820160009054906101000a900473ffffffffffffffffffffffffffffffffffffffff1673ffffffffffffffffffffffffffffffffffffffff1673ffffffffffffffffffffffffffffffffffffffff16815260200160048201548152602001600582018054611c8b906143df565b80601f0160208091040260200160405190810160405280929190818152602001828054611cb7906143df565b8015611d045780601f10611cd957610100808354040283529160200191611d04565b820191906000526020600020905b815481529060010190602001808311611ce757829003601f168201915b50505050508152505090506005600086815260200190815260200160002060008581526020019081526020016000206000808201600090556001820160009055600282016000611d5491906133e6565b6003820160006101000a81549073ffffffffffffffffffffffffffffffffffffffff02191690556004820160009055600582016000611d9391906133e6565b50508180611da0906143b5565b9250508160026000878152602001908152602001600020600701819055507fcc1e607b33c7f2773266e79524f3bddbbb33e301633f633e6f4688327395621b8585836040015184606001518560a00151604051611e01959493929190613f3d565b60405180910390a15050505050565b600073ffffffffffffffffffffffffffffffffffffffff163373ffffffffffffffffffffffffffffffffffffffff161415611e4a57600080fd5b6000600460003373ffffffffffffffffffffffffffffffffffffffff1673ffffffffffffffffffffffffffffffffffffffff16815260200190815260200160002054905081811415611e9b57600080fd5b600060036000838152602001908152602001600020600701549050600060036000858152602001908152602001600020600601549050600160036000858152602001908152602001600020600501600086815260200190815260200160002060006101000a81548160ff021916908315150217905550600160036000868152602001908152602001600020600301600085815260200190815260200160002060006101000a81548160ff021916908315150217905550600182611f5e9190614245565b6003600085815260200190815260200160002060070181905550600181611f859190614245565b60036000868152602001908152602001600020600601819055503373ffffffffffffffffffffffffffffffffffffffff167f1284e19801ce3def7f6b0025adef283c3cd9ee9bf4a717df2e7af6153517726b8486600186611fe69190614245565b604051611ff5939291906140b8565b60405180910390a250505050565b60036020528060005260406000206000915090508060000154908060010160009054906101000a900473ffffffffffffffffffffffffffffffffffffffff1690806002018054612052906143df565b80601f016020809104026020016040519081016040528092919081815260200182805461207e906143df565b80156120cb5780601f106120a0576101008083540402835291602001916120cb565b820191906000526020600020905b8154815290600101906020018083116120ae57829003601f168201915b5050505050908060060154908060070154908060080154908060090154905087565b60008251116120fb57600080fd5b6006600081548092919061210e9061446d565b91905055506000600460003373ffffffffffffffffffffffffffffffffffffffff1673ffffffffffffffffffffffffffffffffffffffff16815260200190815260200160002054905060405180610100016040528060065481526020018481526020016040518060600160405280603381526020016146c2603391398152602001600081526020013373ffffffffffffffffffffffffffffffffffffffff1681526020018281526020016003600084815260200190815260200160002060020180546121d9906143df565b80601f0160208091040260200160405190810160405280929190818152602001828054612205906143df565b80156122525780601f1061222757610100808354040283529160200191612252565b820191906000526020600020905b81548152906001019060200180831161223557829003601f168201915b50505050508152602001600081525060026000600654815260200190815260200160002060008201518160000155602082015181600101908051906020019061229c929190613360565b5060408201518160020190805190602001906122b9929190613360565b506060820151816003015560808201518160040160006101000a81548173ffffffffffffffffffffffffffffffffffffffff021916908373ffffffffffffffffffffffffffffffffffffffff16021790555060a0820151816005015560c0820151816006019080519060200190612331929190613360565b5060e082015181600701559050506001600360008381526020019081526020016000206004016000600654815260200190815260200160002060006101000a81548160ff0219169083151502179055503373ffffffffffffffffffffffffffffffffffffffff167f2fab7d22c558b3256207695703b5c832f1a661de05ca9d69c2638097841b60a2600654858560003387600360008a81526020019081526020016000206002016040516123eb9796959493929190613d87565b60405180910390a2505050565b600073ffffffffffffffffffffffffffffffffffffffff163373ffffffffffffffffffffffffffffffffffffffff16141561243257600080fd5b6000600460003373ffffffffffffffffffffffffffffffffffffffff1673ffffffffffffffffffffffffffffffffffffffff1681526020019081526020016000205490508181141561248357600080fd5b600060036000838152602001908152602001600020600701549050600060036000858152602001908152602001600020600601549050600060036000858152602001908152602001600020600501600086815260200190815260200160002060006101000a81548160ff021916908315150217905550600182612506919061429b565b6003600085815260200190815260200160002060070181905550600060036000868152602001908152602001600020600301600085815260200190815260200160002060006101000a81548160ff02191690831515021790555060018161256d919061429b565b60036000868152602001908152602001600020600601819055503373ffffffffffffffffffffffffffffffffffffffff167f1284e19801ce3def7f6b0025adef283c3cd9ee9bf4a717df2e7af6153517726b84866001866125ce919061429b565b6040516125dd9392919061406e565b60405180910390a250505050565b6000821180156125fd57506006548211155b61260657600080fd5b6000600260008481526020019081526020016000206040518061010001604052908160008201548152602001600182018054612641906143df565b80601f016020809104026020016040519081016040528092919081815260200182805461266d906143df565b80156126ba5780601f1061268f576101008083540402835291602001916126ba565b820191906000526020600020905b81548152906001019060200180831161269d57829003601f168201915b505050505081526020016002820180546126d3906143df565b80601f01602080910402602001604051908101604052809291908181526020018280546126ff906143df565b801561274c5780601f106127215761010080835404028352916020019161274c565b820191906000526020600020905b81548152906001019060200180831161272f57829003601f168201915b50505050508152602001600382015481526020016004820160009054906101000a900473ffffffffffffffffffffffffffffffffffffffff1673ffffffffffffffffffffffffffffffffffffffff1673ffffffffffffffffffffffffffffffffffffffff168152602001600582015481526020016006820180546127cf906143df565b80601f01602080910402602001604051908101604052809291908181526020018280546127fb906143df565b80156128485780601f1061281d57610100808354040283529160200191612848565b820191906000526020600020905b81548152906001019060200180831161282b57829003601f168201915b50505050508152602001600782015481525050905060008160e00151905080806128719061446d565b915050600060036000600460003373ffffffffffffffffffffffffffffffffffffffff1673ffffffffffffffffffffffffffffffffffffffff16815260200190815260200160002054815260200190815260200160002090506040518060c001604052808681526020018381526020018581526020013373ffffffffffffffffffffffffffffffffffffffff1681526020018260000154815260200182600201805461291c906143df565b80601f0160208091040260200160405190810160405280929190818152602001828054612948906143df565b80156129955780601f1061296a57610100808354040283529160200191612995565b820191906000526020600020905b81548152906001019060200180831161297857829003601f168201915b5050505050815250600560008781526020019081526020016000206000848152602001908152602001600020600082015181600001556020820151816001015560408201518160020190805190602001906129f1929190613360565b5060608201518160030160006101000a81548173ffffffffffffffffffffffffffffffffffffffff021916908373ffffffffffffffffffffffffffffffffffffffff1602179055506080820151816004015560a0820151816005019080519060200190612a5f929190613360565b509050508160026000878152602001908152602001600020600701819055507f091c43fe8acad66152ac39b09b3cdf1e435cf052695a5020ae486ec31b6537698583863385600201604051612ab8959493929190613f9e565b60405180910390a15050505050565b600060606000806000806000600460003373ffffffffffffffffffffffffffffffffffffffff1673ffffffffffffffffffffffffffffffffffffffff16815260200190815260200160002054905060008111612b2257600080fd5b60006003600083815260200190815260200160002090508060000154816002018260060154836007015484600801548560090154848054612b62906143df565b80601f0160208091040260200160405190810160405280929190818152602001828054612b8e906143df565b8015612bdb5780601f10612bb057610100808354040283529160200191612bdb565b820191906000526020600020905b815481529060010190602001808311612bbe57829003601f168201915b505050505094509750975097509750975097505050909192939495565b6000815111612c0657600080fd5b6007600081819054906101000a900461ffff1680929190612c2690614442565b91906101000a81548161ffff021916908361ffff16021790555050600060036000600760009054906101000a900461ffff1661ffff16815260200190815260200160002090503373ffffffffffffffffffffffffffffffffffffffff167f86bccb58d5cc5d9545f467598d37d93ecb638f74090cce7c33c9d02ea467172b604051612cb090613c6b565b60405180910390a2600760009054906101000a900461ffff1661ffff16816000018190555081816002019080519060200190612ced929190613360565b50338160010160006101000a81548173ffffffffffffffffffffffffffffffffffffffff021916908373ffffffffffffffffffffffffffffffffffffffff16021790555060008160060181905550600081600701819055506000816008018190555060008160090181905550600760009054906101000a900461ffff1661ffff16600460003373ffffffffffffffffffffffffffffffffffffffff1673ffffffffffffffffffffffffffffffffffffffff168152602001908152602001600020819055503373ffffffffffffffffffffffffffffffffffffffff167f86bccb58d5cc5d9545f467598d37d93ecb638f74090cce7c33c9d02ea467172b604051612df590613c4b565b60405180910390a25050565b6060806000600460003373ffffffffffffffffffffffffffffffffffffffff1673ffffffffffffffffffffffffffffffffffffffff168152602001908152602001600020549050600081118015612e6c5750600760009054906101000a900461ffff1661ffff168111155b612e7557600080fd5b60006003600083815260200190815260200160002090506000816007015467ffffffffffffffff811115612ed2577f4e487b7100000000000000000000000000000000000000000000000000000000600052604160045260246000fd5b604051908082528060200260200182016040528015612f005781602001602082028036833780820191505090505b5090506000826006015467ffffffffffffffff811115612f49577f4e487b7100000000000000000000000000000000000000000000000000000000600052604160045260246000fd5b604051908082528060200260200182016040528015612f775781602001602082028036833780820191505090505b509050600080600190505b600760009054906101000a900461ffff1661ffff16811161302b5784600501600082815260200190815260200160002060009054906101000a900460ff16156130185780848380612fd29061446d565b94508151811061300b577f4e487b7100000000000000000000000000000000000000000000000000000000600052603260045260246000fd5b6020026020010181815250505b80806130239061446d565b915050612f82565b50600090506000600190505b600760009054906101000a900461ffff1661ffff1681116130e05784600301600082815260200190815260200160002060009054906101000a900460ff16156130cd57808383806130879061446d565b9450815181106130c0577f4e487b7100000000000000000000000000000000000000000000000000000000600052603260045260246000fd5b6020026020010181815250505b80806130d89061446d565b915050613037565b503373ffffffffffffffffffffffffffffffffffffffff167f7ebbc67615cdacc372a2a97e3016a3233043ce2d9e92b32fbe3390c0c7286e128484604051613129929190613bf2565b60405180910390a282829650965050505050509091565b60056020528160005260406000206020528060005260406000206000915091505080600001549080600101549080600201805461317c906143df565b80601f01602080910402602001604051908101604052809291908181526020018280546131a8906143df565b80156131f55780601f106131ca576101008083540402835291602001916131f5565b820191906000526020600020905b8154815290600101906020018083116131d857829003601f168201915b5050505050908060030160009054906101000a900473ffffffffffffffffffffffffffffffffffffffff1690806004015490806005018054613236906143df565b80601f0160208091040260200160405190810160405280929190818152602001828054613262906143df565b80156132af5780601f10613284576101008083540402835291602001916132af565b820191906000526020600020905b81548152906001019060200180831161329257829003601f168201915b5050505050905086565b6040518060c00160405280600081526020016000815260200160608152602001600073ffffffffffffffffffffffffffffffffffffffff16815260200160008152602001606081525090565b60405180610100016040528060008152602001606081526020016060815260200160008152602001600073ffffffffffffffffffffffffffffffffffffffff1681526020016000815260200160608152602001600081525090565b82805461336c906143df565b90600052602060002090601f01602090048101928261338e57600085556133d5565b82601f106133a757805160ff19168380011785556133d5565b828001600101855582156133d5579182015b828111156133d45782518255916020019190600101906133b9565b5b5090506133e29190613426565b5090565b5080546133f2906143df565b6000825580601f106134045750613423565b601f0160209004906000526020600020908101906134229190613426565b5b50565b5b8082111561343f576000816000905550600101613427565b5090565b600061345661345184614127565b614102565b90508281526020810184848401111561346e57600080fd5b613479848285614373565b509392505050565b60008135905061349081614693565b92915050565b600082601f8301126134a757600080fd5b81356134b7848260208601613443565b91505092915050565b6000813590506134cf816146aa565b92915050565b6000602082840312156134e757600080fd5b60006134f584828501613481565b91505092915050565b60006020828403121561351057600080fd5b600082013567ffffffffffffffff81111561352a57600080fd5b61353684828501613496565b91505092915050565b6000806040838503121561355257600080fd5b600083013567ffffffffffffffff81111561356c57600080fd5b61357885828601613496565b925050602083013567ffffffffffffffff81111561359557600080fd5b6135a185828601613496565b9150509250929050565b6000602082840312156135bd57600080fd5b60006135cb848285016134c0565b91505092915050565b600080604083850312156135e757600080fd5b60006135f5858286016134c0565b925050602083013567ffffffffffffffff81111561361257600080fd5b61361e85828601613496565b9150509250929050565b6000806040838503121561363b57600080fd5b6000613649858286016134c0565b925050602061365a858286016134c0565b9150509250929050565b600061367083836139e7565b905092915050565b60006136848383613a77565b905092915050565b60006136988383613b44565b60208301905092915050565b6136ad8161432b565b82525050565b6136bc816142e1565b82525050565b6136cb816142e1565b82525050565b6136da816142cf565b82525050565b6136e9816142cf565b82525050565b60006136fa8261419d565b61370481856141f0565b93508360208202850161371685614158565b8060005b8581101561375257848403895281516137338582613664565b945061373e836141c9565b925060208a0199505060018101905061371a565b50829750879550505050505092915050565b600061376f826141a8565b6137798185614201565b93508360208202850161378b85614168565b8060005b858110156137c757848403895281516137a88582613678565b94506137b3836141d6565b925060208a0199505060018101905061378f565b50829750879550505050505092915050565b60006137e4826141b3565b6137ee8185614212565b93506137f983614178565b8060005b8381101561382a578151613811888261368c565b975061381c836141e3565b9250506001810190506137fd565b5085935050505092915050565b6138408161433d565b82525050565b6000613851826141be565b61385b8185614223565b935061386b818560208601614382565b61387481614543565b840191505092915050565b600061388a826141be565b6138948185614234565b93506138a4818560208601614382565b6138ad81614543565b840191505092915050565b600081546138c5816143df565b6138cf8186614234565b945060018216600081146138ea57600181146138fc5761392f565b60ff198316865260208601935061392f565b61390585614188565b60005b8381101561392757815481890152600182019150602081019050613908565b808801955050505b50505092915050565b6000613945602583614234565b915061395082614554565b604082019050919050565b6000613968600c83614234565b9150613973826145a3565b602082019050919050565b600061398b602383614234565b9150613996826145cc565b604082019050919050565b60006139ae600d83614234565b91506139b98261461b565b602082019050919050565b60006139d1603083614234565b91506139dc82614644565b604082019050919050565b600060c0830160008301516139ff6000860182613b44565b506020830151613a126020860182613b44565b5060408301518482036040860152613a2a8282613846565b9150506060830151613a3f60608601826136d1565b506080830151613a526080860182613b44565b5060a083015184820360a0860152613a6a8282613846565b9150508091505092915050565b600061010083016000830151613a906000860182613b44565b5060208301518482036020860152613aa88282613846565b91505060408301518482036040860152613ac28282613846565b9150506060830151613ad76060860182613b44565b506080830151613aea60808601826136b3565b5060a0830151613afd60a0860182613b44565b5060c083015184820360c0860152613b158282613846565b91505060e0830151613b2a60e0860182613b44565b508091505092915050565b613b3e816142f3565b82525050565b613b4d81614321565b82525050565b613b5c81614321565b82525050565b6000606082019050613b7760008301866136e0565b613b8460208301856136e0565b613b916040830184613b53565b949350505050565b60006020820190508181036000830152613bb381846137d9565b905092915050565b60006040820190508181036000830152613bd581856137d9565b90508181036020830152613be98184613764565b90509392505050565b60006040820190508181036000830152613c0c81856137d9565b90508181036020830152613c2081846137d9565b90509392505050565b60006020820190508181036000830152613c43818461387f565b905092915050565b60006020820190508181036000830152613c648161395b565b9050919050565b60006020820190508181036000830152613c84816139a1565b9050919050565b60006020820190508181036000830152613ca4816139c4565b9050919050565b6000602082019050613cc06000830184613b35565b92915050565b6000602082019050613cdb6000830184613b53565b92915050565b600060e082019050613cf6600083018a613b53565b613d0360208301896136e0565b8181036040830152613d15818861387f565b9050613d246060830187613b53565b613d316080830186613b53565b613d3e60a0830185613b53565b613d4b60c0830184613b53565b98975050505050505050565b6000604082019050613d6c6000830185613b53565b8181036020830152613d7e81846136ef565b90509392505050565b600060e082019050613d9c600083018a613b53565b8181036020830152613dae818961387f565b90508181036040830152613dc2818861387f565b9050613dd16060830187613837565b613dde60808301866136e0565b613deb60a0830185613b53565b81810360c0830152613dfd81846138b8565b905098975050505050505050565b600061010082019050613e21600083018b613b53565b8181036020830152613e33818a61387f565b90508181036040830152613e47818961387f565b9050613e566060830188613b53565b613e6360808301876136c2565b613e7060a0830186613b53565b81810360c0830152613e82818561387f565b9050613e9160e0830184613b53565b9998505050505050505050565b600060c082019050613eb36000830189613b53565b8181036020830152613ec5818861387f565b9050613ed46040830187613b53565b613ee16060830186613b53565b613eee6080830185613b53565b613efb60a0830184613b53565b979650505050505050565b6000606082019050613f1b6000830186613b53565b613f286020830185613b53565b613f3560408301846136a4565b949350505050565b600060a082019050613f526000830188613b53565b613f5f6020830187613b53565b8181036040830152613f71818661387f565b9050613f8060608301856136e0565b8181036080830152613f92818461387f565b90509695505050505050565b600060a082019050613fb36000830188613b53565b613fc06020830187613b53565b8181036040830152613fd2818661387f565b9050613fe160608301856136e0565b8181036080830152613ff381846138b8565b90509695505050505050565b600060c0820190506140146000830189613b53565b6140216020830188613b53565b8181036040830152614033818761387f565b905061404260608301866136e0565b61404f6080830185613b53565b81810360a0830152614061818461387f565b9050979650505050505050565b60006080820190506140836000830186613b53565b6140906020830185613b53565b81810360408301526140a181613938565b90506140b06060830184613b53565b949350505050565b60006080820190506140cd6000830186613b53565b6140da6020830185613b53565b81810360408301526140eb8161397e565b90506140fa6060830184613b53565b949350505050565b600061410c61411d565b90506141188282614411565b919050565b6000604051905090565b600067ffffffffffffffff82111561414257614141614514565b5b61414b82614543565b9050602081019050919050565b6000819050602082019050919050565b6000819050602082019050919050565b6000819050602082019050919050565b60008190508160005260206000209050919050565b600081519050919050565b600081519050919050565b600081519050919050565b600081519050919050565b6000602082019050919050565b6000602082019050919050565b6000602082019050919050565b600082825260208201905092915050565b600082825260208201905092915050565b600082825260208201905092915050565b600082825260208201905092915050565b600082825260208201905092915050565b600061425082614321565b915061425b83614321565b9250827fffffffffffffffffffffffffffffffffffffffffffffffffffffffffffffffff038211156142905761428f6144b6565b5b828201905092915050565b60006142a682614321565b91506142b183614321565b9250828210156142c4576142c36144b6565b5b828203905092915050565b60006142da82614301565b9050919050565b60006142ec82614301565b9050919050565b600061ffff82169050919050565b600073ffffffffffffffffffffffffffffffffffffffff82169050919050565b6000819050919050565b60006143368261434f565b9050919050565b600061434882614321565b9050919050565b600061435a82614361565b9050919050565b600061436c82614301565b9050919050565b82818337600083830152505050565b60005b838110156143a0578082015181840152602081019050614385565b838111156143af576000848401525b50505050565b60006143c082614321565b915060008214156143d4576143d36144b6565b5b600182039050919050565b600060028204905060018216806143f757607f821691505b6020821081141561440b5761440a6144e5565b5b50919050565b61441a82614543565b810181811067ffffffffffffffff8211171561443957614438614514565b5b80604052505050565b600061444d826142f3565b915061ffff821415614462576144616144b6565b5b600182019050919050565b600061447882614321565b91507fffffffffffffffffffffffffffffffffffffffffffffffffffffffffffffffff8214156144ab576144aa6144b6565b5b600182019050919050565b7f4e487b7100000000000000000000000000000000000000000000000000000000600052601160045260246000fd5b7f4e487b7100000000000000000000000000000000000000000000000000000000600052602260045260246000fd5b7f4e487b7100000000000000000000000000000000000000000000000000000000600052604160045260246000fd5b6000601f19601f8301169050919050565b7f556e466f6c6c6f77696e672074686520617574686f722077697468206e65772060008201527f636f756e74000000000000000000000000000000000000000000000000000000602082015250565b7f5573657220437265617465640000000000000000000000000000000000000000600082015250565b7f466f6c6c6f77696e672074686520617574686f722077697468206e657720636f60008201527f756e740000000000000000000000000000000000000000000000000000000000602082015250565b7f4372656174696e67205573657200000000000000000000000000000000000000600082015250565b7f4f6e6c792074686520636f6e7472616374206f776e65722063616e206465737460008201527f726f792074686520636f6e747261637400000000000000000000000000000000602082015250565b61469c816142cf565b81146146a757600080fd5b50565b6146b381614321565b81146146be57600080fd5b5056fe68747470733a2f2f6769746875622e636f6d2f5072617665656e50696e2f53696d706c652d536f6369616c2d4e6574776f726ba26469706673582212200a3d4c185fb47fcbb0f4c1f6624cfac166a5e12db06c6f541286406fc3bae7e764736f6c63430008010033",
  "immutableReferences": {},
  "source": "pragma solidity ^0.8.0;\r\n\r\nimport './owned.sol';\r\n\r\ncontract SocialNetwork is owned{\r\n    /*Add code */\r\n    string public networkName; /* State variable -> this value gets stored on block chain*/\r\n    // we cannot know the length of any map and cannot iterate over it, we can only fetch individually\r\n    mapping(uint => Post) public posts;/* Key Value Store, gets written to block chain itself */\r\n    mapping(uint => User) public users;\r\n    mapping(address => uint) public addressToUid;\r\n    mapping(uint => mapping(uint => Comment)) public comments;\r\n\r\n    uint public postCount = 0;\r\n    uint16 public userCount = 0;\r\n\r\n    struct User{\r\n        uint id;\r\n        address userAddress;\r\n        string name;        \r\n        mapping(uint => bool) followerIds;\r\n        mapping(uint => bool) myPostIds; //not user's id\r\n        mapping(uint => bool) followingIds;\r\n        uint followersCount;\r\n        uint followingCount;\r\n        uint tipObtained;\r\n        uint tipDonated;\r\n    } \r\n\r\n    struct Post{\r\n        uint pid;\r\n        string content;\r\n        string url;\r\n        uint tipAmount;\r\n        address payable author;\r\n        uint authorId;\r\n        string authorName;\r\n        uint commentsCount;\r\n    }\r\n\r\n    struct Comment{\r\n        uint postId;\r\n        uint cid;\r\n        string comment;\r\n        address author;\r\n        uint authorId;\r\n        string authorName;\r\n    }\r\n\r\n    constructor () {\r\n        networkName = \"ETH - SocialNetwork\";\r\n    }\r\n\r\n    //events for creating user, following a user, unfollowing a user\r\n    event AutoCreateUser(address indexed sender, string message);\r\n    event FollowOrUnFollowUser(address indexed sender, uint senderId, uint author, string message, uint count);\r\n\r\n    function autoCreateUser(string memory _uname) public {        \r\n        require(bytes(_uname).length > 0);\r\n        userCount++;\r\n        User storage _user = users[userCount];\r\n        emit AutoCreateUser(msg.sender, \"Creating User\");            \r\n        _user.id = userCount;\r\n        _user.name = _uname;\r\n        _user.userAddress = msg.sender;\r\n        _user.followersCount = 0;\r\n        _user.followingCount = 0;\r\n        _user.tipObtained = 0;\r\n        _user.tipDonated = 0;\r\n        addressToUid[msg.sender] = userCount;\r\n        emit AutoCreateUser(msg.sender, \"User Created\");\r\n    }\r\n\r\n    function getUserInfo() public view returns (uint, string memory, uint, uint, uint, uint){     \r\n        uint _userId = addressToUid[msg.sender];\r\n        require(_userId > 0);   \r\n        User storage _user = users[_userId];\r\n        return (_user.id, _user.name, _user.followersCount, _user.followingCount, _user.tipObtained, _user.tipDonated);\r\n    }\r\n\r\n    function followAuthor(uint _authorId) public checkAddress{\r\n        uint senderId = addressToUid[msg.sender];\r\n        require(senderId != _authorId);\r\n        uint followingCount = users[senderId].followingCount;\r\n        uint authorsFollowersCount = users[_authorId].followersCount;\r\n        users[senderId].followingIds[_authorId] = true;\r\n        users[_authorId].followerIds[senderId] = true;\r\n        users[senderId].followingCount = followingCount+1;\r\n        users[_authorId].followersCount = authorsFollowersCount+1;\r\n        emit FollowOrUnFollowUser(msg.sender, senderId, _authorId, \"Following the author with new count\", followingCount+1);\r\n    }\r\n\r\n    function unFollowAuthor(uint _authorId) public checkAddress{\r\n        uint senderId = addressToUid[msg.sender];\r\n        require(senderId != _authorId);\r\n        uint followingCount = users[senderId].followingCount;\r\n        uint authorsFollowersCount = users[_authorId].followersCount;\r\n        users[senderId].followingIds[_authorId] = false;\r\n        users[senderId].followingCount = followingCount-1;\r\n        users[_authorId].followerIds[senderId] = false;\r\n        users[_authorId].followersCount = authorsFollowersCount-1;\r\n        emit FollowOrUnFollowUser(msg.sender, senderId, _authorId, \"UnFollowing the author with new count\", followingCount -1);\r\n    }\r\n\r\n    event FetchMyPosts(address indexed addr, uint[] myPostIds);\r\n\r\n    event FetchMyNetworkIds(address indexed sender, uint[] followingIds, uint[] followerIds);\r\n\r\n    function getMyPosts(uint _id) public returns (uint[] memory, Post[] memory){        \r\n        uint myPostCount = 0;\r\n        uint counter = 0;\r\n\r\n        User storage _user = users[_id];\r\n        for (uint i = 1; i <= postCount; i++){\r\n            if(_user.myPostIds[i]){\r\n                myPostCount++;\r\n            }\r\n        }\r\n        \r\n        uint[] memory postIds = new uint[](myPostCount);\r\n        Post[] memory myPosts = new Post[](myPostCount);\r\n        \r\n        for (uint i = 1; i <= postCount; i++){\r\n            if(_user.myPostIds[i]){\r\n                postIds[counter] = i;\r\n                myPosts[counter++] = posts[i];\r\n            }\r\n        }\r\n        emit FetchMyPosts(msg.sender,postIds);\r\n        return (postIds, myPosts);\r\n    }\r\n\r\n    function getAllFollowingIds() public returns (uint[] memory, uint[] memory){\r\n        uint myId = addressToUid[msg.sender];\r\n        require(myId > 0 && myId <= userCount);\r\n        User storage _user = users[myId];\r\n        uint[] memory followingIds = new uint[](_user.followingCount);\r\n        uint[] memory followerIds = new uint[](_user.followersCount);\r\n        uint counter = 0;\r\n        for (uint i = 1; i <= userCount; i++){\r\n            if(_user.followingIds[i]){\r\n                followingIds[counter++] = i;\r\n            }\r\n        }\r\n        counter = 0;\r\n        for (uint i = 1; i <= userCount; i++){\r\n            if(_user.followerIds[i]){\r\n                followerIds[counter++] = i;\r\n            }\r\n        }\r\n        emit FetchMyNetworkIds(msg.sender,followingIds,followerIds);\r\n        return (followingIds,followerIds);\r\n    }\r\n\r\n    function getUserData(uint _uid) public view returns (uint, string memory, uint, uint, uint, uint){     \r\n        require(_uid > 0);   \r\n        User storage _user = users[_uid];\r\n        return (_user.id, _user.name, _user.followersCount, _user.followingCount, _user.tipObtained, _user.tipDonated);\r\n    }\r\n\r\n    event PostCreated(address indexed id, uint pid, string content, string url, uint tipAmount, address author, uint authorId, string authorName);\r\n\r\n    function createPost(string memory _content, string memory _url) public{ \r\n        //require valid content\r\n        require(bytes(_content).length > 0); //if false it stops execution and gas used will be refunded back to caller, else continues execution\r\n        \r\n        /* Here _content is a local var and underscore is just a conventions for local vars*/\r\n        postCount++;        \r\n        uint userId = addressToUid[msg.sender];\r\n        posts[postCount] = Post(postCount, _content, \"https://github.com/PraveenPin/Simple-Social-Network\", 0, payable(msg.sender), userId, users[userId].name, 0); /* Instantiates Post, adds it into map */        \r\n        //adding the post id to the user\r\n        users[userId].myPostIds[postCount] = true;\r\n\r\n        //Trigger event from solidity smart contracts\r\n        //these posts can be open for subscription by consumers\r\n        emit PostCreated(msg.sender,postCount, _content, _url, 0, msg.sender, userId, users[userId].name);\r\n    }\r\n\r\n    event PostTipped(uint pid, uint tipAmount, address author);\r\n\r\n    function tipAPost(uint _id) public payable {\r\n        require(_id > 0 && _id <= postCount);\r\n        Post memory _post = posts[_id];\r\n        address payable _author = _post.author;\r\n        //paying the author by sending ether\r\n        payable(address(_author)).transfer(msg.value);\r\n        //here the tip should be ether, so we use function meta data\r\n        _post.tipAmount = _post.tipAmount + msg.value;\r\n        posts[_id] = _post;\r\n        \r\n        //add tip amount to user donation\r\n        users[addressToUid[msg.sender]].tipDonated += msg.value;\r\n        //add tip amount to author's obtained tip\r\n        users[_post.authorId].tipObtained += msg.value;\r\n        emit PostTipped(postCount, _post.tipAmount, _author);\r\n    }\r\n\r\n    //functions, events to create and delete comments\r\n    event CommentDeleted(uint pid, uint cid, string deletedComment, address commentAuthor, string authorName);\r\n    event CommentCreated(uint pid, uint cid, string comment, address commentedUser, string authorName);\r\n\r\n    function createComment(uint _pid, string memory _comment) public {\r\n        require(_pid > 0 && _pid <= postCount);\r\n        Post memory _post = posts[_pid];\r\n        uint commentsCount = _post.commentsCount;\r\n        commentsCount++;\r\n        User storage _user = users[addressToUid[msg.sender]];\r\n        comments[_pid][commentsCount] = Comment(_pid, commentsCount, _comment, msg.sender, _user.id, _user.name);\r\n        posts[_pid].commentsCount = commentsCount;\r\n        emit CommentCreated(_pid, commentsCount, _comment, msg.sender, _user.name);\r\n    }\r\n\r\n    function deleteComment(uint _pid, uint _cid) public {\r\n        require(_pid > 0 && _pid <= postCount);\r\n        Post memory _post = posts[_pid];\r\n        uint commentsCount = _post.commentsCount;\r\n        require(_cid > 0 && _cid <= commentsCount);\r\n        Comment memory _comment = comments[_pid][_cid];\r\n        delete comments[_pid][_cid];\r\n        commentsCount--;\r\n        posts[_pid].commentsCount = commentsCount;\r\n        emit CommentDeleted(_pid, _cid, _comment.comment, _comment.author, _comment.authorName);\r\n\r\n    }\r\n\r\n    function fetchAllComments(uint _postId) public view returns (uint count, Comment[] memory){\r\n        require(_postId > 0 && _postId <= postCount);\r\n        Post memory _post = posts[_postId];\r\n        uint commentsCount = _post.commentsCount;\r\n        Comment[] memory postComments = new Comment[](commentsCount);\r\n\r\n        for(uint i=1; i<= commentsCount; i++){\r\n            postComments[i-1] = comments[_postId][i];\r\n        }\r\n        return (count,postComments);\r\n    }\r\n\r\n    //self destruct event \r\n    event DestroyContract(address sender, address caller, uint balance);\r\n\r\n    function destroyContract() public onlyOwner{\r\n        emit DestroyContract(msg.sender, owner, owner.balance);\r\n        selfdestruct(payable(msg.sender));\r\n    }\r\n\r\n}",
  "sourcePath": "C:/Users/praveen/Desktop/Eth-Project/Simple-Social-Network/src/contracts/SocialNetwork.sol",
  "compiler": {
    "name": "solc",
    "version": "0.8.1+commit.df193b15.Emscripten.clang"
  },
  "schemaVersion": "3.4.1",
  "updatedAt": "2021-06-08T07:12:00.339Z",
  "networkType": "ethereum",
  "devdoc": {
    "kind": "dev",
    "methods": {},
    "version": 1
  },
  "userdoc": {
    "kind": "user",
    "methods": {},
    "version": 1
  }
}