{
  "contractName": "SocialNetwork",
  "abi": [
    {
      "inputs": [],
      "stateMutability": "nonpayable",
      "type": "constructor"
    },
    {
      "anonymous": false,
      "inputs": [
        {
          "indexed": false,
          "internalType": "string",
          "name": "tag",
          "type": "string"
        },
        {
          "components": [
            {
              "internalType": "uint256",
              "name": "pid",
              "type": "uint256"
            },
            {
              "internalType": "string",
              "name": "content",
              "type": "string"
            },
            {
              "internalType": "string",
              "name": "url",
              "type": "string"
            },
            {
              "internalType": "uint256",
              "name": "tipAmount",
              "type": "uint256"
            },
            {
              "internalType": "address payable",
              "name": "author",
              "type": "address"
            },
            {
              "internalType": "uint256",
              "name": "authorId",
              "type": "uint256"
            },
            {
              "internalType": "string",
              "name": "authorName",
              "type": "string"
            },
            {
              "internalType": "uint256",
              "name": "commentsCount",
              "type": "uint256"
            },
            {
              "internalType": "bytes32",
              "name": "picIpfsHash",
              "type": "bytes32"
            }
          ],
          "indexed": false,
          "internalType": "struct SocialNetwork.Post[]",
          "name": "posts",
          "type": "tuple[]"
        }
      ],
      "name": "AllPostsOfATag",
      "type": "event"
    },
    {
      "anonymous": false,
      "inputs": [
        {
          "indexed": true,
          "internalType": "address",
          "name": "sender",
          "type": "address"
        },
        {
          "indexed": false,
          "internalType": "string",
          "name": "message",
          "type": "string"
        }
      ],
      "name": "AutoCreateUser",
      "type": "event"
    },
    {
      "anonymous": false,
      "inputs": [
        {
          "indexed": false,
          "internalType": "uint256",
          "name": "pid",
          "type": "uint256"
        },
        {
          "indexed": false,
          "internalType": "uint256",
          "name": "cid",
          "type": "uint256"
        },
        {
          "indexed": false,
          "internalType": "string",
          "name": "comment",
          "type": "string"
        },
        {
          "indexed": false,
          "internalType": "address",
          "name": "commentedUser",
          "type": "address"
        },
        {
          "indexed": false,
          "internalType": "string",
          "name": "authorName",
          "type": "string"
        }
      ],
      "name": "CommentCreated",
      "type": "event"
    },
    {
      "anonymous": false,
      "inputs": [
        {
          "indexed": false,
          "internalType": "uint256",
          "name": "pid",
          "type": "uint256"
        },
        {
          "indexed": false,
          "internalType": "uint256",
          "name": "cid",
          "type": "uint256"
        },
        {
          "indexed": false,
          "internalType": "string",
          "name": "deletedComment",
          "type": "string"
        },
        {
          "indexed": false,
          "internalType": "address",
          "name": "commentAuthor",
          "type": "address"
        },
        {
          "indexed": false,
          "internalType": "string",
          "name": "authorName",
          "type": "string"
        }
      ],
      "name": "CommentDeleted",
      "type": "event"
    },
    {
      "anonymous": false,
      "inputs": [
        {
          "indexed": false,
          "internalType": "address",
          "name": "sender",
          "type": "address"
        },
        {
          "indexed": false,
          "internalType": "address",
          "name": "caller",
          "type": "address"
        },
        {
          "indexed": false,
          "internalType": "uint256",
          "name": "balance",
          "type": "uint256"
        }
      ],
      "name": "DestroyContract",
      "type": "event"
    },
    {
      "anonymous": false,
      "inputs": [
        {
          "indexed": true,
          "internalType": "address",
          "name": "sender",
          "type": "address"
        },
        {
          "indexed": false,
          "internalType": "uint256[]",
          "name": "followingIds",
          "type": "uint256[]"
        },
        {
          "indexed": false,
          "internalType": "uint256[]",
          "name": "followerIds",
          "type": "uint256[]"
        }
      ],
      "name": "FetchMyNetworkIds",
      "type": "event"
    },
    {
      "anonymous": false,
      "inputs": [
        {
          "indexed": true,
          "internalType": "address",
          "name": "addr",
          "type": "address"
        },
        {
          "indexed": false,
          "internalType": "uint256[]",
          "name": "myPostIds",
          "type": "uint256[]"
        }
      ],
      "name": "FetchMyPosts",
      "type": "event"
    },
    {
      "anonymous": false,
      "inputs": [
        {
          "indexed": true,
          "internalType": "address",
          "name": "sender",
          "type": "address"
        },
        {
          "indexed": false,
          "internalType": "uint256",
          "name": "senderId",
          "type": "uint256"
        },
        {
          "indexed": false,
          "internalType": "uint256",
          "name": "author",
          "type": "uint256"
        },
        {
          "indexed": false,
          "internalType": "string",
          "name": "message",
          "type": "string"
        },
        {
          "indexed": false,
          "internalType": "uint256",
          "name": "count",
          "type": "uint256"
        }
      ],
      "name": "FollowOrUnFollowUser",
      "type": "event"
    },
    {
      "anonymous": false,
      "inputs": [
        {
          "indexed": true,
          "internalType": "address",
          "name": "id",
          "type": "address"
        },
        {
          "indexed": false,
          "internalType": "uint256",
          "name": "pid",
          "type": "uint256"
        },
        {
          "indexed": false,
          "internalType": "string",
          "name": "content",
          "type": "string"
        },
        {
          "indexed": false,
          "internalType": "string",
          "name": "url",
          "type": "string"
        },
        {
          "indexed": false,
          "internalType": "uint256",
          "name": "tipAmount",
          "type": "uint256"
        },
        {
          "indexed": false,
          "internalType": "address",
          "name": "author",
          "type": "address"
        },
        {
          "indexed": false,
          "internalType": "uint256",
          "name": "authorId",
          "type": "uint256"
        },
        {
          "indexed": false,
          "internalType": "string",
          "name": "authorName",
          "type": "string"
        },
        {
          "indexed": false,
          "internalType": "bytes32",
          "name": "imageHash",
          "type": "bytes32"
        }
      ],
      "name": "PostCreated",
      "type": "event"
    },
    {
      "anonymous": false,
      "inputs": [
        {
          "indexed": false,
          "internalType": "string[]",
          "name": "tags",
          "type": "string[]"
        },
        {
          "indexed": false,
          "internalType": "uint256",
          "name": "postId",
          "type": "uint256"
        }
      ],
      "name": "PostTagsCreated",
      "type": "event"
    },
    {
      "anonymous": false,
      "inputs": [
        {
          "indexed": false,
          "internalType": "uint256",
          "name": "pid",
          "type": "uint256"
        },
        {
          "indexed": false,
          "internalType": "uint256",
          "name": "tipAmount",
          "type": "uint256"
        },
        {
          "indexed": false,
          "internalType": "address",
          "name": "author",
          "type": "address"
        }
      ],
      "name": "PostTipped",
      "type": "event"
    },
    {
      "anonymous": false,
      "inputs": [
        {
          "indexed": false,
          "internalType": "string",
          "name": "tag",
          "type": "string"
        }
      ],
      "name": "emitWord",
      "type": "event"
    },
    {
      "inputs": [],
      "name": "networkName",
      "outputs": [
        {
          "internalType": "string",
          "name": "",
          "type": "string"
        }
      ],
      "stateMutability": "view",
      "type": "function",
      "constant": true
    },
    {
      "inputs": [],
      "name": "postCount",
      "outputs": [
        {
          "internalType": "uint256",
          "name": "",
          "type": "uint256"
        }
      ],
      "stateMutability": "view",
      "type": "function",
      "constant": true
    },
    {
      "inputs": [],
      "name": "userCount",
      "outputs": [
        {
          "internalType": "uint16",
          "name": "",
          "type": "uint16"
        }
      ],
      "stateMutability": "view",
      "type": "function",
      "constant": true
    },
    {
      "inputs": [
        {
          "internalType": "address",
          "name": "_userAddress",
          "type": "address"
        }
      ],
      "name": "getUserIdFromAddress",
      "outputs": [
        {
          "internalType": "uint256",
          "name": "",
          "type": "uint256"
        }
      ],
      "stateMutability": "view",
      "type": "function",
      "constant": true
    },
    {
      "inputs": [
        {
          "internalType": "uint256",
          "name": "_postId",
          "type": "uint256"
        }
      ],
      "name": "getPostFromPostId",
      "outputs": [
        {
          "components": [
            {
              "internalType": "uint256",
              "name": "pid",
              "type": "uint256"
            },
            {
              "internalType": "string",
              "name": "content",
              "type": "string"
            },
            {
              "internalType": "string",
              "name": "url",
              "type": "string"
            },
            {
              "internalType": "uint256",
              "name": "tipAmount",
              "type": "uint256"
            },
            {
              "internalType": "address payable",
              "name": "author",
              "type": "address"
            },
            {
              "internalType": "uint256",
              "name": "authorId",
              "type": "uint256"
            },
            {
              "internalType": "string",
              "name": "authorName",
              "type": "string"
            },
            {
              "internalType": "uint256",
              "name": "commentsCount",
              "type": "uint256"
            },
            {
              "internalType": "bytes32",
              "name": "picIpfsHash",
              "type": "bytes32"
            }
          ],
          "internalType": "struct SocialNetwork.Post",
          "name": "",
          "type": "tuple"
        }
      ],
      "stateMutability": "view",
      "type": "function",
      "constant": true
    },
    {
      "inputs": [
        {
          "internalType": "string",
          "name": "_uname",
          "type": "string"
        }
      ],
      "name": "autoCreateUser",
      "outputs": [],
      "stateMutability": "nonpayable",
      "type": "function"
    },
    {
      "inputs": [],
      "name": "getUserInfo",
      "outputs": [
        {
          "internalType": "uint256",
          "name": "",
          "type": "uint256"
        },
        {
          "internalType": "string",
          "name": "",
          "type": "string"
        },
        {
          "internalType": "uint256",
          "name": "",
          "type": "uint256"
        },
        {
          "internalType": "uint256",
          "name": "",
          "type": "uint256"
        },
        {
          "internalType": "uint256",
          "name": "",
          "type": "uint256"
        },
        {
          "internalType": "uint256",
          "name": "",
          "type": "uint256"
        }
      ],
      "stateMutability": "view",
      "type": "function",
      "constant": true
    },
    {
      "inputs": [
        {
          "internalType": "uint256",
          "name": "_authorId",
          "type": "uint256"
        }
      ],
      "name": "followAuthor",
      "outputs": [],
      "stateMutability": "nonpayable",
      "type": "function"
    },
    {
      "inputs": [
        {
          "internalType": "uint256",
          "name": "_authorId",
          "type": "uint256"
        }
      ],
      "name": "unFollowAuthor",
      "outputs": [],
      "stateMutability": "nonpayable",
      "type": "function"
    },
    {
      "inputs": [
        {
          "internalType": "uint256",
          "name": "_id",
          "type": "uint256"
        }
      ],
      "name": "getMyPosts",
      "outputs": [
        {
          "internalType": "uint256[]",
          "name": "",
          "type": "uint256[]"
        },
        {
          "components": [
            {
              "internalType": "uint256",
              "name": "pid",
              "type": "uint256"
            },
            {
              "internalType": "string",
              "name": "content",
              "type": "string"
            },
            {
              "internalType": "string",
              "name": "url",
              "type": "string"
            },
            {
              "internalType": "uint256",
              "name": "tipAmount",
              "type": "uint256"
            },
            {
              "internalType": "address payable",
              "name": "author",
              "type": "address"
            },
            {
              "internalType": "uint256",
              "name": "authorId",
              "type": "uint256"
            },
            {
              "internalType": "string",
              "name": "authorName",
              "type": "string"
            },
            {
              "internalType": "uint256",
              "name": "commentsCount",
              "type": "uint256"
            },
            {
              "internalType": "bytes32",
              "name": "picIpfsHash",
              "type": "bytes32"
            }
          ],
          "internalType": "struct SocialNetwork.Post[]",
          "name": "",
          "type": "tuple[]"
        }
      ],
      "stateMutability": "nonpayable",
      "type": "function"
    },
    {
      "inputs": [],
      "name": "getAllFollowingIds",
      "outputs": [
        {
          "internalType": "uint256[]",
          "name": "",
          "type": "uint256[]"
        },
        {
          "internalType": "uint256[]",
          "name": "",
          "type": "uint256[]"
        }
      ],
      "stateMutability": "nonpayable",
      "type": "function"
    },
    {
      "inputs": [
        {
          "internalType": "uint256",
          "name": "_uid",
          "type": "uint256"
        }
      ],
      "name": "getUserData",
      "outputs": [
        {
          "internalType": "uint256",
          "name": "",
          "type": "uint256"
        },
        {
          "internalType": "string",
          "name": "",
          "type": "string"
        },
        {
          "internalType": "uint256",
          "name": "",
          "type": "uint256"
        },
        {
          "internalType": "uint256",
          "name": "",
          "type": "uint256"
        },
        {
          "internalType": "uint256",
          "name": "",
          "type": "uint256"
        },
        {
          "internalType": "uint256",
          "name": "",
          "type": "uint256"
        }
      ],
      "stateMutability": "view",
      "type": "function",
      "constant": true
    },
    {
      "inputs": [
        {
          "internalType": "string",
          "name": "_content",
          "type": "string"
        },
        {
          "internalType": "string",
          "name": "_url",
          "type": "string"
        },
        {
          "internalType": "bytes32",
          "name": "_imageHash",
          "type": "bytes32"
        }
      ],
      "name": "createPost",
      "outputs": [],
      "stateMutability": "nonpayable",
      "type": "function"
    },
    {
      "inputs": [
        {
          "internalType": "uint256",
          "name": "_id",
          "type": "uint256"
        }
      ],
      "name": "tipAPost",
      "outputs": [],
      "stateMutability": "payable",
      "type": "function",
      "payable": true
    },
    {
      "inputs": [
        {
          "internalType": "uint256",
          "name": "_pid",
          "type": "uint256"
        },
        {
          "internalType": "string",
          "name": "_comment",
          "type": "string"
        }
      ],
      "name": "createComment",
      "outputs": [],
      "stateMutability": "nonpayable",
      "type": "function"
    },
    {
      "inputs": [
        {
          "internalType": "uint256",
          "name": "_postId",
          "type": "uint256"
        }
      ],
      "name": "fetchAllComments",
      "outputs": [
        {
          "components": [
            {
              "internalType": "uint256",
              "name": "postId",
              "type": "uint256"
            },
            {
              "internalType": "uint256",
              "name": "cid",
              "type": "uint256"
            },
            {
              "internalType": "string",
              "name": "comment",
              "type": "string"
            },
            {
              "internalType": "address",
              "name": "author",
              "type": "address"
            },
            {
              "internalType": "uint256",
              "name": "authorId",
              "type": "uint256"
            },
            {
              "internalType": "string",
              "name": "authorName",
              "type": "string"
            }
          ],
          "internalType": "struct SocialNetwork.Comment[]",
          "name": "",
          "type": "tuple[]"
        }
      ],
      "stateMutability": "view",
      "type": "function",
      "constant": true
    },
    {
      "inputs": [
        {
          "internalType": "string",
          "name": "_content",
          "type": "string"
        },
        {
          "internalType": "uint256",
          "name": "_postId",
          "type": "uint256"
        }
      ],
      "name": "createTag",
      "outputs": [],
      "stateMutability": "nonpayable",
      "type": "function"
    },
    {
      "inputs": [
        {
          "internalType": "bytes1",
          "name": "_char",
          "type": "bytes1"
        }
      ],
      "name": "checkEmptyCharacter",
      "outputs": [
        {
          "internalType": "bool",
          "name": "",
          "type": "bool"
        }
      ],
      "stateMutability": "pure",
      "type": "function",
      "constant": true
    },
    {
      "inputs": [
        {
          "internalType": "string",
          "name": "tag",
          "type": "string"
        }
      ],
      "name": "getPostsFromTag",
      "outputs": [
        {
          "components": [
            {
              "internalType": "uint256",
              "name": "pid",
              "type": "uint256"
            },
            {
              "internalType": "string",
              "name": "content",
              "type": "string"
            },
            {
              "internalType": "string",
              "name": "url",
              "type": "string"
            },
            {
              "internalType": "uint256",
              "name": "tipAmount",
              "type": "uint256"
            },
            {
              "internalType": "address payable",
              "name": "author",
              "type": "address"
            },
            {
              "internalType": "uint256",
              "name": "authorId",
              "type": "uint256"
            },
            {
              "internalType": "string",
              "name": "authorName",
              "type": "string"
            },
            {
              "internalType": "uint256",
              "name": "commentsCount",
              "type": "uint256"
            },
            {
              "internalType": "bytes32",
              "name": "picIpfsHash",
              "type": "bytes32"
            }
          ],
          "internalType": "struct SocialNetwork.Post[]",
          "name": "",
          "type": "tuple[]"
        }
      ],
      "stateMutability": "nonpayable",
      "type": "function"
    },
    {
      "inputs": [],
      "name": "destroyContract",
      "outputs": [],
      "stateMutability": "nonpayable",
      "type": "function"
    }
  ],
  "bytecode": "0x608060405260006008556000600960006101000a81548161ffff021916908361ffff1602179055503480156200003457600080fd5b50336000806101000a81548173ffffffffffffffffffffffffffffffffffffffff021916908373ffffffffffffffffffffffffffffffffffffffff1602179055506040518060400160405280601381526020017f455448202d20536f6369616c4e6574776f726b0000000000000000000000000081525060019080519060200190620000c2929190620000c9565b50620001de565b828054620000d79062000179565b90600052602060002090601f016020900481019282620000fb576000855562000147565b82601f106200011657805160ff191683800117855562000147565b8280016001018555821562000147579182015b828111156200014657825182559160200191906001019062000129565b5b5090506200015691906200015a565b5090565b5b80821115620001755760008160009055506001016200015b565b5090565b600060028204905060018216806200019257607f821691505b60208210811415620001a957620001a8620001af565b5b50919050565b7f4e487b7100000000000000000000000000000000000000000000000000000000600052602260045260246000fd5b61509580620001ee6000396000f3fe60806040526004361061011f5760003560e01c8063392cfec7116100a05780636dc2cc71116100645780636dc2cc71146103e35780638751682a146104205780639cb481b214610449578063ad2c48ef14610486578063d70d88fd146104af5761011f565b8063392cfec7146102fb57806340a17985146103245780634a00eb4f1461034d5780635d10a60d1461038a5780635d8d1585146103b35761011f565b806317906c2e116100e757806317906c2e1461020c5780631c6aff1d146102375780631fef580c146102745780632fc95d71146102b65780633223e4b8146102d25761011f565b806307973ccf14610124578063092a5cce1461014f578063096568b4146101665780630c1d50cb146101a3578063107bf28c146101e1575b600080fd5b34801561013057600080fd5b506101396104db565b6040516101469190614713565b60405180910390f35b34801561015b57600080fd5b506101646104ef565b005b34801561017257600080fd5b5061018d60048036038101906101889190613c8d565b610628565b60405161019a9190614549565b60405180910390f35b3480156101af57600080fd5b506101ca60048036038101906101c59190613c8d565b610b73565b6040516101d89291906145af565b60405180910390f35b3480156101ed57600080fd5b506101f661107a565b6040516102039190614638565b60405180910390f35b34801561021857600080fd5b50610221611108565b60405161022e919061472e565b60405180910390f35b34801561024357600080fd5b5061025e60048036038101906102599190613b50565b61110e565b60405161026b919061461d565b60405180910390f35b34801561028057600080fd5b5061029b60048036038101906102969190613c8d565b611151565b6040516102ad969594939291906147dc565b60405180910390f35b6102d060048036038101906102cb9190613c8d565b61123e565b005b3480156102de57600080fd5b506102f960048036038101906102f49190613c8d565b6116ee565b005b34801561030757600080fd5b50610322600480360381019061031d9190613c8d565b6118e1565b005b34801561033057600080fd5b5061034b60048036038101906103469190613cb6565b611ad4565b005b34801561035957600080fd5b50610374600480360381019061036f9190613c8d565b611fba565b60405161038191906146f1565b60405180910390f35b34801561039657600080fd5b506103b160048036038101906103ac9190613bba565b612241565b005b3480156103bf57600080fd5b506103c861256c565b6040516103da969594939291906147dc565b60405180910390f35b3480156103ef57600080fd5b5061040a60048036038101906104059190613b79565b61269d565b604051610417919061456b565b60405180910390f35b34801561042c57600080fd5b5061044760048036038101906104429190613c39565b612c41565b005b34801561045557600080fd5b50610470600480360381019061046b9190613b27565b612ec4565b60405161047d919061472e565b60405180910390f35b34801561049257600080fd5b506104ad60048036038101906104a89190613b79565b612f46565b005b3480156104bb57600080fd5b506104c461314f565b6040516104d29291906145e6565b60405180910390f35b600960009054906101000a900461ffff1681565b3373ffffffffffffffffffffffffffffffffffffffff1660008054906101000a900473ffffffffffffffffffffffffffffffffffffffff1673ffffffffffffffffffffffffffffffffffffffff161461057d576040517f08c379a0000000000000000000000000000000000000000000000000000000008152600401610574906146d1565b60405180910390fd5b7f1ec0eba9b0e9e969285026819e2b9903c774ac2ea3e68a8123cb3528b39489423360008054906101000a900473ffffffffffffffffffffffffffffffffffffffff1660008054906101000a900473ffffffffffffffffffffffffffffffffffffffff1673ffffffffffffffffffffffffffffffffffffffff1631604051610607939291906144e2565b60405180910390a13373ffffffffffffffffffffffffffffffffffffffff16ff5b606060008211801561063c57506008548211155b61064557600080fd5b600060026000848152602001908152602001600020604051806101200160405290816000820154815260200160018201805461068090614e7f565b80601f01602080910402602001604051908101604052809291908181526020018280546106ac90614e7f565b80156106f95780601f106106ce576101008083540402835291602001916106f9565b820191906000526020600020905b8154815290600101906020018083116106dc57829003601f168201915b5050505050815260200160028201805461071290614e7f565b80601f016020809104026020016040519081016040528092919081815260200182805461073e90614e7f565b801561078b5780601f106107605761010080835404028352916020019161078b565b820191906000526020600020905b81548152906001019060200180831161076e57829003601f168201915b50505050508152602001600382015481526020016004820160009054906101000a900473ffffffffffffffffffffffffffffffffffffffff1673ffffffffffffffffffffffffffffffffffffffff1673ffffffffffffffffffffffffffffffffffffffff1681526020016005820154815260200160068201805461080e90614e7f565b80601f016020809104026020016040519081016040528092919081815260200182805461083a90614e7f565b80156108875780601f1061085c57610100808354040283529160200191610887565b820191906000526020600020905b81548152906001019060200180831161086a57829003601f168201915b5050505050815260200160078201548152602001600882015481525050905060008160e00151905060008167ffffffffffffffff8111156108f1577f4e487b7100000000000000000000000000000000000000000000000000000000600052604160045260246000fd5b60405190808252806020026020018201604052801561092a57816020015b6109176138ab565b81526020019060019003908161090f5790505b509050600080600190505b838111610b66576005600088815260200190815260200160002060008281526020019081526020016000206040518060c0016040529081600082015481526020016001820154815260200160028201805461098f90614e7f565b80601f01602080910402602001604051908101604052809291908181526020018280546109bb90614e7f565b8015610a085780601f106109dd57610100808354040283529160200191610a08565b820191906000526020600020905b8154815290600101906020018083116109eb57829003601f168201915b505050505081526020016003820160009054906101000a900473ffffffffffffffffffffffffffffffffffffffff1673ffffffffffffffffffffffffffffffffffffffff1673ffffffffffffffffffffffffffffffffffffffff16815260200160048201548152602001600582018054610a8190614e7f565b80601f0160208091040260200160405190810160405280929190818152602001828054610aad90614e7f565b8015610afa5780601f10610acf57610100808354040283529160200191610afa565b820191906000526020600020905b815481529060010190602001808311610add57829003601f168201915b505050505081525050838380610b0f90614edc565b945081518110610b48577f4e487b7100000000000000000000000000000000000000000000000000000000600052603260045260246000fd5b60200260200101819052508080610b5e90614edc565b915050610935565b5081945050505050919050565b60608060008060006003600087815260200190815260200160002090506000600190505b6008548111610bea5781600401600082815260200190815260200160002060009054906101000a900460ff1615610bd7578380610bd390614edc565b9450505b8080610be290614edc565b915050610b97565b5060008367ffffffffffffffff811115610c2d577f4e487b7100000000000000000000000000000000000000000000000000000000600052604160045260246000fd5b604051908082528060200260200182016040528015610c5b5781602001602082028036833780820191505090505b50905060008467ffffffffffffffff811115610ca0577f4e487b7100000000000000000000000000000000000000000000000000000000600052604160045260246000fd5b604051908082528060200260200182016040528015610cd957816020015b610cc66138f7565b815260200190600190039081610cbe5790505b5090506000600190505b600854811161101b5783600401600082815260200190815260200160002060009054906101000a900460ff16156110085780838681518110610d4e577f4e487b7100000000000000000000000000000000000000000000000000000000600052603260045260246000fd5b602002602001018181525050600260008281526020019081526020016000206040518061012001604052908160008201548152602001600182018054610d9390614e7f565b80601f0160208091040260200160405190810160405280929190818152602001828054610dbf90614e7f565b8015610e0c5780601f10610de157610100808354040283529160200191610e0c565b820191906000526020600020905b815481529060010190602001808311610def57829003601f168201915b50505050508152602001600282018054610e2590614e7f565b80601f0160208091040260200160405190810160405280929190818152602001828054610e5190614e7f565b8015610e9e5780601f10610e7357610100808354040283529160200191610e9e565b820191906000526020600020905b815481529060010190602001808311610e8157829003601f168201915b50505050508152602001600382015481526020016004820160009054906101000a900473ffffffffffffffffffffffffffffffffffffffff1673ffffffffffffffffffffffffffffffffffffffff1673ffffffffffffffffffffffffffffffffffffffff16815260200160058201548152602001600682018054610f2190614e7f565b80601f0160208091040260200160405190810160405280929190818152602001828054610f4d90614e7f565b8015610f9a5780601f10610f6f57610100808354040283529160200191610f9a565b820191906000526020600020905b815481529060010190602001808311610f7d57829003601f168201915b5050505050815260200160078201548152602001600882015481525050828680610fc390614edc565b975081518110610ffc577f4e487b7100000000000000000000000000000000000000000000000000000000600052603260045260246000fd5b60200260200101819052505b808061101390614edc565b915050610ce3565b503373ffffffffffffffffffffffffffffffffffffffff167fd2365500f72e0836a24bca0665a95120d4f6169769a291786d75fa886cd572e083604051611062919061458d565b60405180910390a28181965096505050505050915091565b6001805461108790614e7f565b80601f01602080910402602001604051908101604052809291908181526020018280546110b390614e7f565b80156111005780601f106110d557610100808354040283529160200191611100565b820191906000526020600020905b8154815290600101906020018083116110e357829003601f168201915b505050505081565b60085481565b6000602060f81b827effffffffffffffffffffffffffffffffffffffffffffffffffffffffffffff19161415611147576001905061114c565b600090505b919050565b600060606000806000806000871161116857600080fd5b600060036000898152602001908152602001600020905080600001548160020182600601548360070154846008015485600901548480546111a890614e7f565b80601f01602080910402602001604051908101604052809291908181526020018280546111d490614e7f565b80156112215780601f106111f657610100808354040283529160200191611221565b820191906000526020600020905b81548152906001019060200180831161120457829003601f168201915b505050505094509650965096509650965096505091939550919395565b60008111801561125057506008548111155b61125957600080fd5b600060026000838152602001908152602001600020604051806101200160405290816000820154815260200160018201805461129490614e7f565b80601f01602080910402602001604051908101604052809291908181526020018280546112c090614e7f565b801561130d5780601f106112e25761010080835404028352916020019161130d565b820191906000526020600020905b8154815290600101906020018083116112f057829003601f168201915b5050505050815260200160028201805461132690614e7f565b80601f016020809104026020016040519081016040528092919081815260200182805461135290614e7f565b801561139f5780601f106113745761010080835404028352916020019161139f565b820191906000526020600020905b81548152906001019060200180831161138257829003601f168201915b50505050508152602001600382015481526020016004820160009054906101000a900473ffffffffffffffffffffffffffffffffffffffff1673ffffffffffffffffffffffffffffffffffffffff1673ffffffffffffffffffffffffffffffffffffffff1681526020016005820154815260200160068201805461142290614e7f565b80601f016020809104026020016040519081016040528092919081815260200182805461144e90614e7f565b801561149b5780601f106114705761010080835404028352916020019161149b565b820191906000526020600020905b81548152906001019060200180831161147e57829003601f168201915b505050505081526020016007820154815260200160088201548152505090506000816080015190508073ffffffffffffffffffffffffffffffffffffffff166108fc349081150290604051600060405180830381858888f19350505050158015611509573d6000803e3d6000fd5b5034826060015161151a9190614b02565b826060018181525050816002600085815260200190815260200160002060008201518160000155602082015181600101908051906020019061155d92919061395c565b50604082015181600201908051906020019061157a92919061395c565b506060820151816003015560808201518160040160006101000a81548173ffffffffffffffffffffffffffffffffffffffff021916908373ffffffffffffffffffffffffffffffffffffffff16021790555060a0820151816005015560c08201518160060190805190602001906115f292919061395c565b5060e0820151816007015561010082015181600801559050503460036000600460003373ffffffffffffffffffffffffffffffffffffffff1673ffffffffffffffffffffffffffffffffffffffff16815260200190815260200160002054815260200190815260200160002060090160008282546116709190614b02565b9250508190555034600360008460a00151815260200190815260200160002060080160008282546116a19190614b02565b925050819055507f857a474f7d18ba7614a11cc88bce5fd9cf05678441e1cb7c7eac53fecf3a8abd6008548360600151836040516116e193929190614844565b60405180910390a1505050565b600073ffffffffffffffffffffffffffffffffffffffff163373ffffffffffffffffffffffffffffffffffffffff16141561172857600080fd5b6000600460003373ffffffffffffffffffffffffffffffffffffffff1673ffffffffffffffffffffffffffffffffffffffff1681526020019081526020016000205490508181141561177957600080fd5b600060036000838152602001908152602001600020600701549050600060036000858152602001908152602001600020600601549050600160036000858152602001908152602001600020600501600086815260200190815260200160002060006101000a81548160ff021916908315150217905550600160036000868152602001908152602001600020600301600085815260200190815260200160002060006101000a81548160ff02191690831515021790555060018261183c9190614b02565b60036000858152602001908152602001600020600701819055506001816118639190614b02565b60036000868152602001908152602001600020600601819055503373ffffffffffffffffffffffffffffffffffffffff167f1284e19801ce3def7f6b0025adef283c3cd9ee9bf4a717df2e7af6153517726b84866001866118c49190614b02565b6040516118d393929190614926565b60405180910390a250505050565b600073ffffffffffffffffffffffffffffffffffffffff163373ffffffffffffffffffffffffffffffffffffffff16141561191b57600080fd5b6000600460003373ffffffffffffffffffffffffffffffffffffffff1673ffffffffffffffffffffffffffffffffffffffff1681526020019081526020016000205490508181141561196c57600080fd5b600060036000838152602001908152602001600020600701549050600060036000858152602001908152602001600020600601549050600060036000858152602001908152602001600020600501600086815260200190815260200160002060006101000a81548160ff0219169083151502179055506001826119ef9190614d23565b6003600085815260200190815260200160002060070181905550600060036000868152602001908152602001600020600301600085815260200190815260200160002060006101000a81548160ff021916908315150217905550600181611a569190614d23565b60036000868152602001908152602001600020600601819055503373ffffffffffffffffffffffffffffffffffffffff167f1284e19801ce3def7f6b0025adef283c3cd9ee9bf4a717df2e7af6153517726b8486600186611ab79190614d23565b604051611ac6939291906148dc565b60405180910390a250505050565b600082118015611ae657506008548211155b611aef57600080fd5b6000600260008481526020019081526020016000206040518061012001604052908160008201548152602001600182018054611b2a90614e7f565b80601f0160208091040260200160405190810160405280929190818152602001828054611b5690614e7f565b8015611ba35780601f10611b7857610100808354040283529160200191611ba3565b820191906000526020600020905b815481529060010190602001808311611b8657829003601f168201915b50505050508152602001600282018054611bbc90614e7f565b80601f0160208091040260200160405190810160405280929190818152602001828054611be890614e7f565b8015611c355780601f10611c0a57610100808354040283529160200191611c35565b820191906000526020600020905b815481529060010190602001808311611c1857829003601f168201915b50505050508152602001600382015481526020016004820160009054906101000a900473ffffffffffffffffffffffffffffffffffffffff1673ffffffffffffffffffffffffffffffffffffffff1673ffffffffffffffffffffffffffffffffffffffff16815260200160058201548152602001600682018054611cb890614e7f565b80601f0160208091040260200160405190810160405280929190818152602001828054611ce490614e7f565b8015611d315780601f10611d0657610100808354040283529160200191611d31565b820191906000526020600020905b815481529060010190602001808311611d1457829003601f168201915b5050505050815260200160078201548152602001600882015481525050905060008160e0015190508080611d6490614edc565b915050600060036000600460003373ffffffffffffffffffffffffffffffffffffffff1673ffffffffffffffffffffffffffffffffffffffff16815260200190815260200160002054815260200190815260200160002090506040518060c001604052808681526020018381526020018581526020013373ffffffffffffffffffffffffffffffffffffffff16815260200182600001548152602001826002018054611e0f90614e7f565b80601f0160208091040260200160405190810160405280929190818152602001828054611e3b90614e7f565b8015611e885780601f10611e5d57610100808354040283529160200191611e88565b820191906000526020600020905b815481529060010190602001808311611e6b57829003601f168201915b505050505081525060056000878152602001908152602001600020600084815260200190815260200160002060008201518160000155602082015181600101556040820151816002019080519060200190611ee492919061395c565b5060608201518160030160006101000a81548173ffffffffffffffffffffffffffffffffffffffff021916908373ffffffffffffffffffffffffffffffffffffffff1602179055506080820151816004015560a0820151816005019080519060200190611f5292919061395c565b509050508160026000878152602001908152602001600020600701819055507f091c43fe8acad66152ac39b09b3cdf1e435cf052695a5020ae486ec31b6537698583863385600201604051611fab95949392919061487b565b60405180910390a15050505050565b611fc26138f7565b600082118015611fd457506008548211155b611fdd57600080fd5b60026000838152602001908152602001600020604051806101200160405290816000820154815260200160018201805461201690614e7f565b80601f016020809104026020016040519081016040528092919081815260200182805461204290614e7f565b801561208f5780601f106120645761010080835404028352916020019161208f565b820191906000526020600020905b81548152906001019060200180831161207257829003601f168201915b505050505081526020016002820180546120a890614e7f565b80601f01602080910402602001604051908101604052809291908181526020018280546120d490614e7f565b80156121215780601f106120f657610100808354040283529160200191612121565b820191906000526020600020905b81548152906001019060200180831161210457829003601f168201915b50505050508152602001600382015481526020016004820160009054906101000a900473ffffffffffffffffffffffffffffffffffffffff1673ffffffffffffffffffffffffffffffffffffffff1673ffffffffffffffffffffffffffffffffffffffff168152602001600582015481526020016006820180546121a490614e7f565b80601f01602080910402602001604051908101604052809291908181526020018280546121d090614e7f565b801561221d5780601f106121f25761010080835404028352916020019161221d565b820191906000526020600020905b81548152906001019060200180831161220057829003601f168201915b50505050508152602001600782015481526020016008820154815250509050919050565b600083511161224f57600080fd5b6008600081548092919061226290614edc565b91905055506000600460003373ffffffffffffffffffffffffffffffffffffffff1673ffffffffffffffffffffffffffffffffffffffff168152602001908152602001600020549050604051806101200160405280600854815260200185815260200160405180606001604052806033815260200161502d603391398152602001600081526020013373ffffffffffffffffffffffffffffffffffffffff16815260200182815260200160036000848152602001908152602001600020600201805461232d90614e7f565b80601f016020809104026020016040519081016040528092919081815260200182805461235990614e7f565b80156123a65780601f1061237b576101008083540402835291602001916123a6565b820191906000526020600020905b81548152906001019060200180831161238957829003601f168201915b5050505050815260200160008152602001838152506002600060085481526020019081526020016000206000820151816000015560208201518160010190805190602001906123f692919061395c565b50604082015181600201908051906020019061241392919061395c565b506060820151816003015560808201518160040160006101000a81548173ffffffffffffffffffffffffffffffffffffffff021916908373ffffffffffffffffffffffffffffffffffffffff16021790555060a0820151816005015560c082015181600601908051906020019061248b92919061395c565b5060e0820151816007015561010082015181600801559050506001600360008381526020019081526020016000206004016000600854815260200190815260200160002060006101000a81548160ff0219169083151502179055503373ffffffffffffffffffffffffffffffffffffffff167f4939c3117187ca7fd8d13368db2b629d4b081a171f4a3e8623497f02433f51a1600854868660003387600360008a81526020019081526020016000206002018a604051612552989796959493929190614749565b60405180910390a261256684600854612c41565b50505050565b600060606000806000806000600460003373ffffffffffffffffffffffffffffffffffffffff1673ffffffffffffffffffffffffffffffffffffffff168152602001908152602001600020549050600081116125c757600080fd5b6000600360008381526020019081526020016000209050806000015481600201826006015483600701548460080154856009015484805461260790614e7f565b80601f016020809104026020016040519081016040528092919081815260200182805461263390614e7f565b80156126805780601f1061265557610100808354040283529160200191612680565b820191906000526020600020905b81548152906001019060200180831161266357829003601f168201915b505050505094509750975097509750975097505050909192939495565b606060006006836040516126b191906144cb565b908152602001604051809103902080548060200260200160405190810160405280929190818152602001828054801561270957602002820191906000526020600020905b8154815260200190600101908083116126f5575b50505050509050600080825167ffffffffffffffff811115612754577f4e487b7100000000000000000000000000000000000000000000000000000000600052604160045260246000fd5b60405190808252806020026020018201604052801561278d57816020015b61277a6138f7565b8152602001906001900390816127725790505b50905060005b8351811015612b7057600760008583815181106127d9577f4e487b7100000000000000000000000000000000000000000000000000000000600052603260045260246000fd5b6020026020010151815260200190815260200160002060009054906101000a900460ff16612b5d57828061280c90614edc565b93505060016007600086848151811061284e577f4e487b7100000000000000000000000000000000000000000000000000000000600052603260045260246000fd5b6020026020010151815260200190815260200160002060006101000a81548160ff021916908315150217905550600260008583815181106128b8577f4e487b7100000000000000000000000000000000000000000000000000000000600052603260045260246000fd5b6020026020010151815260200190815260200160002060405180610120016040529081600082015481526020016001820180546128f490614e7f565b80601f016020809104026020016040519081016040528092919081815260200182805461292090614e7f565b801561296d5780601f106129425761010080835404028352916020019161296d565b820191906000526020600020905b81548152906001019060200180831161295057829003601f168201915b5050505050815260200160028201805461298690614e7f565b80601f01602080910402602001604051908101604052809291908181526020018280546129b290614e7f565b80156129ff5780601f106129d4576101008083540402835291602001916129ff565b820191906000526020600020905b8154815290600101906020018083116129e257829003601f168201915b50505050508152602001600382015481526020016004820160009054906101000a900473ffffffffffffffffffffffffffffffffffffffff1673ffffffffffffffffffffffffffffffffffffffff1673ffffffffffffffffffffffffffffffffffffffff16815260200160058201548152602001600682018054612a8290614e7f565b80601f0160208091040260200160405190810160405280929190818152602001828054612aae90614e7f565b8015612afb5780601f10612ad057610100808354040283529160200191612afb565b820191906000526020600020905b815481529060010190602001808311612ade57829003601f168201915b5050505050815260200160078201548152602001600882015481525050828281518110612b51577f4e487b7100000000000000000000000000000000000000000000000000000000600052603260045260246000fd5b60200260200101819052505b8080612b6890614edc565b915050612793565b5060005b8351811015612bfc57600060076000868481518110612bbc577f4e487b7100000000000000000000000000000000000000000000000000000000600052603260045260246000fd5b6020026020010151815260200190815260200160002060006101000a81548160ff0219169083151502179055508080612bf490614edc565b915050612b74565b507f74c1300619e4280b88be3d51c260624c1631da6c7b55c22bfad9c1759b0088ad8582604051612c2e92919061465a565b60405180910390a1809350505050919050565b6000612c4c8361348e565b90506000612c8e6040518060400160405280600181526020017f200000000000000000000000000000000000000000000000000000000000000081525061348e565b905060006001612ca783856134bc90919063ffffffff16565b612cb19190614b02565b67ffffffffffffffff811115612cf0577f4e487b7100000000000000000000000000000000000000000000000000000000600052604160045260246000fd5b604051908082528060200260200182016040528015612d2357816020015b6060815260200190600190039081612d0e5790505b50905060005b8151811015612da457612d4d612d48848661356490919063ffffffff16565b61357e565b828281518110612d86577f4e487b7100000000000000000000000000000000000000000000000000000000600052603260045260246000fd5b60200260200101819052508080612d9c90614edc565b915050612d29565b5060005b8151811015612e83576000828281518110612dec577f4e487b7100000000000000000000000000000000000000000000000000000000600052603260045260246000fd5b602002602001015190506000600682604051612e0891906144cb565b908152602001604051809103902090508087908060018154018082558091505060019003906000526020600020016000909190919091505580600683604051612e5191906144cb565b9081526020016040518091039020908054612e6d9291906139e2565b5050508080612e7b90614edc565b915050612da8565b507fff7bdb826be905156c9c48f1c8f3c42d75db8c0de8b9ce184021dde9c4d516f48185604051612eb5929190614519565b60405180910390a15050505050565b60008073ffffffffffffffffffffffffffffffffffffffff163373ffffffffffffffffffffffffffffffffffffffff161415612eff57600080fd5b600460008373ffffffffffffffffffffffffffffffffffffffff1673ffffffffffffffffffffffffffffffffffffffff168152602001908152602001600020549050919050565b6000815111612f5457600080fd5b6009600081819054906101000a900461ffff1680929190612f7490614eb1565b91906101000a81548161ffff021916908361ffff16021790555050600060036000600960009054906101000a900461ffff1661ffff16815260200190815260200160002090503373ffffffffffffffffffffffffffffffffffffffff167f86bccb58d5cc5d9545f467598d37d93ecb638f74090cce7c33c9d02ea467172b604051612ffe906146b1565b60405180910390a2600960009054906101000a900461ffff1661ffff1681600001819055508181600201908051906020019061303b92919061395c565b50338160010160006101000a81548173ffffffffffffffffffffffffffffffffffffffff021916908373ffffffffffffffffffffffffffffffffffffffff16021790555060008160060181905550600081600701819055506000816008018190555060008160090181905550600960009054906101000a900461ffff1661ffff16600460003373ffffffffffffffffffffffffffffffffffffffff1673ffffffffffffffffffffffffffffffffffffffff168152602001908152602001600020819055503373ffffffffffffffffffffffffffffffffffffffff167f86bccb58d5cc5d9545f467598d37d93ecb638f74090cce7c33c9d02ea467172b60405161314390614691565b60405180910390a25050565b6060806000600460003373ffffffffffffffffffffffffffffffffffffffff1673ffffffffffffffffffffffffffffffffffffffff1681526020019081526020016000205490506000811180156131ba5750600960009054906101000a900461ffff1661ffff168111155b6131c357600080fd5b60006003600083815260200190815260200160002090506000816007015467ffffffffffffffff811115613220577f4e487b7100000000000000000000000000000000000000000000000000000000600052604160045260246000fd5b60405190808252806020026020018201604052801561324e5781602001602082028036833780820191505090505b5090506000826006015467ffffffffffffffff811115613297577f4e487b7100000000000000000000000000000000000000000000000000000000600052604160045260246000fd5b6040519080825280602002602001820160405280156132c55781602001602082028036833780820191505090505b509050600080600190505b600960009054906101000a900461ffff1661ffff1681116133795784600501600082815260200190815260200160002060009054906101000a900460ff1615613366578084838061332090614edc565b945081518110613359577f4e487b7100000000000000000000000000000000000000000000000000000000600052603260045260246000fd5b6020026020010181815250505b808061337190614edc565b9150506132d0565b50600090506000600190505b600960009054906101000a900461ffff1661ffff16811161342e5784600301600082815260200190815260200160002060009054906101000a900460ff161561341b57808383806133d590614edc565b94508151811061340e577f4e487b7100000000000000000000000000000000000000000000000000000000600052603260045260246000fd5b6020026020010181815250505b808061342690614edc565b915050613385565b503373ffffffffffffffffffffffffffffffffffffffff167f7ebbc67615cdacc372a2a97e3016a3233043ce2d9e92b32fbe3390c0c7286e1284846040516134779291906145e6565b60405180910390a282829650965050505050509091565b613496613a34565b600060208301905060405180604001604052808451815260200182815250915050919050565b60008082600001516134e08560000151866020015186600001518760200151613620565b6134ea9190614b02565b90505b836000015184602001516135019190614b02565b811161355d57818061351290614edc565b925050826000015161354c85602001518361352d9190614d23565b866000015161353c9190614d23565b8386600001518760200151613620565b6135569190614b02565b90506134ed565b5092915050565b61356c613a34565b613577838383613761565b5092915050565b60606000826000015167ffffffffffffffff8111156135c6577f4e487b7100000000000000000000000000000000000000000000000000000000600052604160045260246000fd5b6040519080825280601f01601f1916602001820160405280156135f85781602001600182028036833780820191505090505b5090506000602082019050613616818560200151866000015161382c565b8192505050919050565b600080849050600086851161374857602085116136ea57600060018660206136489190614d23565b60086136549190614cc9565b60026136609190614bab565b61366a9190614d23565b1960001b905060008186511690506000878a8a6136879190614b02565b6136919190614d23565b905060008386511690505b8281146136dc578186106136c3578a8a6136b69190614b02565b9650505050505050613759565b85806136ce90614edc565b96505083865116905061369c565b859650505050505050613759565b60008585209050600091505b85886137029190614d23565b82116137465760008684209050808214156137235783945050505050613759565b6001846137309190614b02565b935050818061373e90614edc565b9250506136f6565b505b86866137549190614b02565b925050505b949350505050565b613769613a34565b60006137878560000151866020015186600001518760200151613620565b905084602001518360200181815250508460200151816137a79190614d23565b836000018181525050846000015185602001516137c49190614b02565b8114156137db576000856000018181525050613821565b836000015183600001516137ef9190614b02565b856000018181516138009190614d23565b915081815250508360000151816138179190614b02565b8560200181815250505b829150509392505050565b5b6020811061386b57815183526020836138469190614b02565b92506020826138559190614b02565b91506020816138649190614d23565b905061382d565b6000600182602061387c9190614d23565b6101006138899190614bab565b6138939190614d23565b90508019835116818551168181178652505050505050565b6040518060c00160405280600081526020016000815260200160608152602001600073ffffffffffffffffffffffffffffffffffffffff16815260200160008152602001606081525090565b60405180610120016040528060008152602001606081526020016060815260200160008152602001600073ffffffffffffffffffffffffffffffffffffffff168152602001600081526020016060815260200160008152602001600080191681525090565b82805461396890614e7f565b90600052602060002090601f01602090048101928261398a57600085556139d1565b82601f106139a357805160ff19168380011785556139d1565b828001600101855582156139d1579182015b828111156139d05782518255916020019190600101906139b5565b5b5090506139de9190613a4e565b5090565b828054828255906000526020600020908101928215613a235760005260206000209182015b82811115613a22578254825591600101919060010190613a07565b5b509050613a309190613a4e565b5090565b604051806040016040528060008152602001600081525090565b5b80821115613a67576000816000905550600101613a4f565b5090565b6000613a7e613a79846149a1565b614970565b905082815260208101848484011115613a9657600080fd5b613aa1848285614e3d565b509392505050565b600081359050613ab881614fd0565b92915050565b600081359050613acd81614fe7565b92915050565b600081359050613ae281614ffe565b92915050565b600082601f830112613af957600080fd5b8135613b09848260208601613a6b565b91505092915050565b600081359050613b2181615015565b92915050565b600060208284031215613b3957600080fd5b6000613b4784828501613aa9565b91505092915050565b600060208284031215613b6257600080fd5b6000613b7084828501613abe565b91505092915050565b600060208284031215613b8b57600080fd5b600082013567ffffffffffffffff811115613ba557600080fd5b613bb184828501613ae8565b91505092915050565b600080600060608486031215613bcf57600080fd5b600084013567ffffffffffffffff811115613be957600080fd5b613bf586828701613ae8565b935050602084013567ffffffffffffffff811115613c1257600080fd5b613c1e86828701613ae8565b9250506040613c2f86828701613ad3565b9150509250925092565b60008060408385031215613c4c57600080fd5b600083013567ffffffffffffffff811115613c6657600080fd5b613c7285828601613ae8565b9250506020613c8385828601613b12565b9150509250929050565b600060208284031215613c9f57600080fd5b6000613cad84828501613b12565b91505092915050565b60008060408385031215613cc957600080fd5b6000613cd785828601613b12565b925050602083013567ffffffffffffffff811115613cf457600080fd5b613d0085828601613ae8565b9150509250929050565b6000613d168383613f93565b905092915050565b6000613d2a8383614268565b905092915050565b6000613d3e83836142f8565b905092915050565b6000613d5283836144ad565b60208301905092915050565b613d6781614df5565b82525050565b613d7681614d69565b82525050565b613d8581614d57565b82525050565b613d9481614d57565b82525050565b6000613da582614a26565b613daf8185614a91565b935083602082028501613dc1856149d1565b8060005b85811015613dfd5784840389528151613dde8582613d0a565b9450613de983614a5d565b925060208a01995050600181019050613dc5565b50829750879550505050505092915050565b6000613e1a82614a31565b613e248185614aa2565b935083602082028501613e36856149e1565b8060005b85811015613e725784840389528151613e538582613d1e565b9450613e5e83614a6a565b925060208a01995050600181019050613e3a565b50829750879550505050505092915050565b6000613e8f82614a3c565b613e998185614ab3565b935083602082028501613eab856149f1565b8060005b85811015613ee75784840389528151613ec88582613d32565b9450613ed383614a77565b925060208a01995050600181019050613eaf565b50829750879550505050505092915050565b6000613f0482614a47565b613f0e8185614ac4565b9350613f1983614a01565b8060005b83811015613f4a578151613f318882613d46565b9750613f3c83614a84565b925050600181019050613f1d565b5085935050505092915050565b613f6081614d7b565b82525050565b613f6f81614db3565b82525050565b613f7e81614db3565b82525050565b613f8d81614e07565b82525050565b6000613f9e82614a52565b613fa88185614ad5565b9350613fb8818560208601614e4c565b613fc181614fb2565b840191505092915050565b6000613fd782614a52565b613fe18185614ae6565b9350613ff1818560208601614e4c565b613ffa81614fb2565b840191505092915050565b600061401082614a52565b61401a8185614af7565b935061402a818560208601614e4c565b80840191505092915050565b6000815461404381614e7f565b61404d8186614ae6565b94506001821660008114614068576001811461407a576140ad565b60ff19831686526020860193506140ad565b61408385614a11565b60005b838110156140a557815481890152600182019150602081019050614086565b808801955050505b50505092915050565b60006140c3602583614ae6565b91507f556e466f6c6c6f77696e672074686520617574686f722077697468206e65772060008301527f636f756e740000000000000000000000000000000000000000000000000000006020830152604082019050919050565b6000614129600c83614ae6565b91507f55736572204372656174656400000000000000000000000000000000000000006000830152602082019050919050565b6000614169602383614ae6565b91507f466f6c6c6f77696e672074686520617574686f722077697468206e657720636f60008301527f756e7400000000000000000000000000000000000000000000000000000000006020830152604082019050919050565b60006141cf600d83614ae6565b91507f4372656174696e672055736572000000000000000000000000000000000000006000830152602082019050919050565b600061420f603083614ae6565b91507f4f6e6c792074686520636f6e7472616374206f776e65722063616e206465737460008301527f726f792074686520636f6e7472616374000000000000000000000000000000006020830152604082019050919050565b600060c08301600083015161428060008601826144ad565b50602083015161429360208601826144ad565b50604083015184820360408601526142ab8282613f93565b91505060608301516142c06060860182613d7c565b5060808301516142d360808601826144ad565b5060a083015184820360a08601526142eb8282613f93565b9150508091505092915050565b60006101208301600083015161431160008601826144ad565b50602083015184820360208601526143298282613f93565b915050604083015184820360408601526143438282613f93565b915050606083015161435860608601826144ad565b50608083015161436b6080860182613d6d565b5060a083015161437e60a08601826144ad565b5060c083015184820360c08601526143968282613f93565b91505060e08301516143ab60e08601826144ad565b506101008301516143c0610100860182613f66565b508091505092915050565b6000610120830160008301516143e460008601826144ad565b50602083015184820360208601526143fc8282613f93565b915050604083015184820360408601526144168282613f93565b915050606083015161442b60608601826144ad565b50608083015161443e6080860182613d6d565b5060a083015161445160a08601826144ad565b5060c083015184820360c08601526144698282613f93565b91505060e083015161447e60e08601826144ad565b50610100830151614493610100860182613f66565b508091505092915050565b6144a781614dbd565b82525050565b6144b681614deb565b82525050565b6144c581614deb565b82525050565b60006144d78284614005565b915081905092915050565b60006060820190506144f76000830186613d8b565b6145046020830185613d8b565b61451160408301846144bc565b949350505050565b600060408201905081810360008301526145338185613d9a565b905061454260208301846144bc565b9392505050565b600060208201905081810360008301526145638184613e0f565b905092915050565b600060208201905081810360008301526145858184613e84565b905092915050565b600060208201905081810360008301526145a78184613ef9565b905092915050565b600060408201905081810360008301526145c98185613ef9565b905081810360208301526145dd8184613e84565b90509392505050565b600060408201905081810360008301526146008185613ef9565b905081810360208301526146148184613ef9565b90509392505050565b60006020820190506146326000830184613f57565b92915050565b600060208201905081810360008301526146528184613fcc565b905092915050565b600060408201905081810360008301526146748185613fcc565b905081810360208301526146888184613e84565b90509392505050565b600060208201905081810360008301526146aa8161411c565b9050919050565b600060208201905081810360008301526146ca816141c2565b9050919050565b600060208201905081810360008301526146ea81614202565b9050919050565b6000602082019050818103600083015261470b81846143cb565b905092915050565b6000602082019050614728600083018461449e565b92915050565b600060208201905061474360008301846144bc565b92915050565b60006101008201905061475f600083018b6144bc565b8181036020830152614771818a613fcc565b905081810360408301526147858189613fcc565b90506147946060830188613f84565b6147a16080830187613d8b565b6147ae60a08301866144bc565b81810360c08301526147c08185614036565b90506147cf60e0830184613f75565b9998505050505050505050565b600060c0820190506147f160008301896144bc565b81810360208301526148038188613fcc565b905061481260408301876144bc565b61481f60608301866144bc565b61482c60808301856144bc565b61483960a08301846144bc565b979650505050505050565b600060608201905061485960008301866144bc565b61486660208301856144bc565b6148736040830184613d5e565b949350505050565b600060a08201905061489060008301886144bc565b61489d60208301876144bc565b81810360408301526148af8186613fcc565b90506148be6060830185613d8b565b81810360808301526148d08184614036565b90509695505050505050565b60006080820190506148f160008301866144bc565b6148fe60208301856144bc565b818103604083015261490f816140b6565b905061491e60608301846144bc565b949350505050565b600060808201905061493b60008301866144bc565b61494860208301856144bc565b81810360408301526149598161415c565b905061496860608301846144bc565b949350505050565b6000604051905081810181811067ffffffffffffffff8211171561499757614996614f83565b5b8060405250919050565b600067ffffffffffffffff8211156149bc576149bb614f83565b5b601f19601f8301169050602081019050919050565b6000819050602082019050919050565b6000819050602082019050919050565b6000819050602082019050919050565b6000819050602082019050919050565b60008190508160005260206000209050919050565b600081519050919050565b600081519050919050565b600081519050919050565b600081519050919050565b600081519050919050565b6000602082019050919050565b6000602082019050919050565b6000602082019050919050565b6000602082019050919050565b600082825260208201905092915050565b600082825260208201905092915050565b600082825260208201905092915050565b600082825260208201905092915050565b600082825260208201905092915050565b600082825260208201905092915050565b600081905092915050565b6000614b0d82614deb565b9150614b1883614deb565b9250827fffffffffffffffffffffffffffffffffffffffffffffffffffffffffffffffff03821115614b4d57614b4c614f25565b5b828201905092915050565b6000808291508390505b6001851115614ba257808604811115614b7e57614b7d614f25565b5b6001851615614b8d5780820291505b8081029050614b9b85614fc3565b9450614b62565b94509492505050565b6000614bb682614deb565b9150614bc183614deb565b9250614bee7fffffffffffffffffffffffffffffffffffffffffffffffffffffffffffffffff8484614bf6565b905092915050565b600082614c065760019050614cc2565b81614c145760009050614cc2565b8160018114614c2a5760028114614c3457614c63565b6001915050614cc2565b60ff841115614c4657614c45614f25565b5b8360020a915084821115614c5d57614c5c614f25565b5b50614cc2565b5060208310610133831016604e8410600b8410161715614c985782820a905083811115614c9357614c92614f25565b5b614cc2565b614ca58484846001614b58565b92509050818404811115614cbc57614cbb614f25565b5b81810290505b9392505050565b6000614cd482614deb565b9150614cdf83614deb565b9250817fffffffffffffffffffffffffffffffffffffffffffffffffffffffffffffffff0483118215151615614d1857614d17614f25565b5b828202905092915050565b6000614d2e82614deb565b9150614d3983614deb565b925082821015614d4c57614d4b614f25565b5b828203905092915050565b6000614d6282614dcb565b9050919050565b6000614d7482614dcb565b9050919050565b60008115159050919050565b60007fff0000000000000000000000000000000000000000000000000000000000000082169050919050565b6000819050919050565b600061ffff82169050919050565b600073ffffffffffffffffffffffffffffffffffffffff82169050919050565b6000819050919050565b6000614e0082614e19565b9050919050565b6000614e1282614deb565b9050919050565b6000614e2482614e2b565b9050919050565b6000614e3682614dcb565b9050919050565b82818337600083830152505050565b60005b83811015614e6a578082015181840152602081019050614e4f565b83811115614e79576000848401525b50505050565b60006002820490506001821680614e9757607f821691505b60208210811415614eab57614eaa614f54565b5b50919050565b6000614ebc82614dbd565b915061ffff821415614ed157614ed0614f25565b5b600182019050919050565b6000614ee782614deb565b91507fffffffffffffffffffffffffffffffffffffffffffffffffffffffffffffffff821415614f1a57614f19614f25565b5b600182019050919050565b7f4e487b7100000000000000000000000000000000000000000000000000000000600052601160045260246000fd5b7f4e487b7100000000000000000000000000000000000000000000000000000000600052602260045260246000fd5b7f4e487b7100000000000000000000000000000000000000000000000000000000600052604160045260246000fd5b6000601f19601f8301169050919050565b60008160011c9050919050565b614fd981614d57565b8114614fe457600080fd5b50565b614ff081614d87565b8114614ffb57600080fd5b50565b61500781614db3565b811461501257600080fd5b50565b61501e81614deb565b811461502957600080fd5b5056fe68747470733a2f2f6769746875622e636f6d2f5072617665656e50696e2f53696d706c652d536f6369616c2d4e6574776f726ba2646970667358221220a523c8b218725af35a9306c20c1ddca03008ab930389c81f10a6276cb1cb34c664736f6c63430008000033",
  "immutableReferences": {},
  "source": "pragma solidity ^0.8.0;\r\n\r\nimport './owned.sol';\r\nimport \"./StringsLib.sol\";\r\npragma abicoder v2;\r\n\r\ncontract SocialNetwork is owned{\r\n    /*Add code */\r\n    using strings for *;\r\n\r\n    string public networkName; /* State variable -> this value gets stored on block chain*/\r\n    // we cannot know the length of any map and cannot iterate over it, we can only fetch individually\r\n    mapping(uint => Post) posts;/* Key Value Store, gets written to block chain itself */\r\n    mapping(uint => User) users;\r\n    mapping(address => uint) addressToUid;\r\n    mapping(uint => mapping(uint => Comment)) comments;\r\n    mapping(string => uint[]) postsFromTags;\r\n    mapping(uint256 => bool) helperMap;\r\n\r\n    uint public postCount = 0;\r\n    uint16 public userCount = 0;\r\n\r\n    struct User{\r\n        uint id;\r\n        address userAddress;\r\n        string name;        \r\n        mapping(uint => bool) followerIds;\r\n        mapping(uint => bool) myPostIds; //not user's id\r\n        mapping(uint => bool) followingIds;\r\n        uint followersCount;\r\n        uint followingCount;\r\n        uint tipObtained;\r\n        uint tipDonated;\r\n    } \r\n\r\n    struct Post{\r\n        uint pid;\r\n        string content;\r\n        string url;\r\n        uint tipAmount;\r\n        address payable author;\r\n        uint authorId;\r\n        string authorName;\r\n        uint commentsCount;\r\n        bytes32 picIpfsHash;\r\n    }\r\n\r\n    struct Comment{\r\n        uint postId;\r\n        uint cid;\r\n        string comment;\r\n        address author;\r\n        uint authorId;\r\n        string authorName;\r\n    }\r\n\r\n    constructor () public {\r\n        networkName = \"ETH - SocialNetwork\";\r\n    }\r\n\r\n    //events for creating user, following a user, unfollowing a user\r\n    event AutoCreateUser(address indexed sender, string message);\r\n    event FollowOrUnFollowUser(address indexed sender, uint senderId, uint author, string message, uint count);\r\n\r\n    function getUserIdFromAddress(address _userAddress) public checkAddress view returns (uint){\r\n        return addressToUid[_userAddress];\r\n    }\r\n\r\n    function getPostFromPostId(uint _postId) public view returns (Post memory){\r\n        require(_postId > 0 && _postId <= postCount);\r\n        return posts[_postId];\r\n    }\r\n\r\n    function autoCreateUser(string memory _uname) public {        \r\n        require(bytes(_uname).length > 0);\r\n        userCount++;\r\n        User storage _user = users[userCount];\r\n        emit AutoCreateUser(msg.sender, \"Creating User\");            \r\n        _user.id = userCount;\r\n        _user.name = _uname;\r\n        _user.userAddress = msg.sender;\r\n        _user.followersCount = 0;\r\n        _user.followingCount = 0;\r\n        _user.tipObtained = 0;\r\n        _user.tipDonated = 0;\r\n        addressToUid[msg.sender] = userCount;\r\n        emit AutoCreateUser(msg.sender, \"User Created\");\r\n    }\r\n\r\n    function getUserInfo() public view returns (uint, string memory, uint, uint, uint, uint){     \r\n        uint _userId = addressToUid[msg.sender];\r\n        require(_userId > 0);   \r\n        User storage _user = users[_userId];\r\n        return (_user.id, _user.name, _user.followersCount, _user.followingCount, _user.tipObtained, _user.tipDonated);\r\n    }\r\n\r\n    function followAuthor(uint _authorId) public checkAddress{\r\n        uint senderId = addressToUid[msg.sender];\r\n        require(senderId != _authorId);\r\n        uint followingCount = users[senderId].followingCount;\r\n        uint authorsFollowersCount = users[_authorId].followersCount;\r\n        users[senderId].followingIds[_authorId] = true;\r\n        users[_authorId].followerIds[senderId] = true;\r\n        users[senderId].followingCount = followingCount+1;\r\n        users[_authorId].followersCount = authorsFollowersCount+1;\r\n        emit FollowOrUnFollowUser(msg.sender, senderId, _authorId, \"Following the author with new count\", followingCount+1);\r\n    }\r\n\r\n    function unFollowAuthor(uint _authorId) public checkAddress{\r\n        uint senderId = addressToUid[msg.sender];\r\n        require(senderId != _authorId);\r\n        uint followingCount = users[senderId].followingCount;\r\n        uint authorsFollowersCount = users[_authorId].followersCount;\r\n        users[senderId].followingIds[_authorId] = false;\r\n        users[senderId].followingCount = followingCount-1;\r\n        users[_authorId].followerIds[senderId] = false;\r\n        users[_authorId].followersCount = authorsFollowersCount-1;\r\n        emit FollowOrUnFollowUser(msg.sender, senderId, _authorId, \"UnFollowing the author with new count\", followingCount -1);\r\n    }\r\n\r\n    event FetchMyPosts(address indexed addr, uint[] myPostIds);\r\n\r\n    event FetchMyNetworkIds(address indexed sender, uint[] followingIds, uint[] followerIds);\r\n\r\n    function getMyPosts(uint _id) public returns (uint[] memory, Post[] memory){        \r\n        uint myPostCount = 0;\r\n        uint counter = 0;\r\n\r\n        User storage _user = users[_id];\r\n        for (uint i = 1; i <= postCount; i++){\r\n            if(_user.myPostIds[i]){\r\n                myPostCount++;\r\n            }\r\n        }\r\n        \r\n        uint[] memory postIds = new uint[](myPostCount);\r\n        Post[] memory myPosts = new Post[](myPostCount);\r\n        \r\n        for (uint i = 1; i <= postCount; i++){\r\n            if(_user.myPostIds[i]){\r\n                postIds[counter] = i;\r\n                myPosts[counter++] = posts[i];\r\n            }\r\n        }\r\n        emit FetchMyPosts(msg.sender,postIds);\r\n        return (postIds, myPosts);\r\n    }\r\n\r\n    function getAllFollowingIds() public returns (uint[] memory, uint[] memory){\r\n        uint myId = addressToUid[msg.sender];\r\n        require(myId > 0 && myId <= userCount);\r\n        User storage _user = users[myId];\r\n        uint[] memory followingIds = new uint[](_user.followingCount);\r\n        uint[] memory followerIds = new uint[](_user.followersCount);\r\n        uint counter = 0;\r\n        for (uint i = 1; i <= userCount; i++){\r\n            if(_user.followingIds[i]){\r\n                followingIds[counter++] = i;\r\n            }\r\n        }\r\n        counter = 0;\r\n        for (uint i = 1; i <= userCount; i++){\r\n            if(_user.followerIds[i]){\r\n                followerIds[counter++] = i;\r\n            }\r\n        }\r\n        emit FetchMyNetworkIds(msg.sender,followingIds,followerIds);\r\n        return (followingIds,followerIds);\r\n    }\r\n\r\n    function getUserData(uint _uid) public view returns (uint, string memory, uint, uint, uint, uint){     \r\n        require(_uid > 0);   \r\n        User storage _user = users[_uid];\r\n        return (_user.id, _user.name, _user.followersCount, _user.followingCount, _user.tipObtained, _user.tipDonated);\r\n    }\r\n\r\n    event PostCreated(address indexed id, uint pid, string content, string url, uint tipAmount, address author, uint authorId, string authorName, bytes32 imageHash);\r\n\r\n    function createPost(string memory _content, string memory _url, bytes32 _imageHash ) public{ \r\n        //require valid content\r\n        require(bytes(_content).length > 0); //if false it stops execution and gas used will be refunded back to caller, else continues execution\r\n        \r\n        /* Here _content is a local var and underscore is just a conventions for local vars*/\r\n        postCount++;        \r\n        uint userId = addressToUid[msg.sender];\r\n        posts[postCount] = Post(postCount, _content, \"https://github.com/PraveenPin/Simple-Social-Network\", 0, payable(msg.sender), userId, users[userId].name, 0, _imageHash); /* Instantiates Post, adds it into map */        \r\n        //adding the post id to the user\r\n        users[userId].myPostIds[postCount] = true;\r\n        //Trigger event from solidity smart contracts\r\n        //these posts can be open for subscription by consumers\r\n        emit PostCreated(msg.sender,postCount, _content, _url, 0, msg.sender, userId, users[userId].name, _imageHash);        \r\n        createTag(_content, postCount);\r\n    }\r\n\r\n    event PostTipped(uint pid, uint tipAmount, address author);\r\n\r\n    function tipAPost(uint _id) public payable {\r\n        require(_id > 0 && _id <= postCount);\r\n        Post memory _post = posts[_id];\r\n        address payable _author = _post.author;\r\n        //paying the author by sending ether\r\n        payable(address(_author)).transfer(msg.value);\r\n        //here the tip should be ether, so we use function meta data\r\n        _post.tipAmount = _post.tipAmount + msg.value;\r\n        posts[_id] = _post;\r\n        \r\n        //add tip amount to user donation\r\n        users[addressToUid[msg.sender]].tipDonated += msg.value;\r\n        //add tip amount to author's obtained tip\r\n        users[_post.authorId].tipObtained += msg.value;\r\n        emit PostTipped(postCount, _post.tipAmount, _author);\r\n    }\r\n\r\n    //functions, events to create and delete comments\r\n    event CommentDeleted(uint pid, uint cid, string deletedComment, address commentAuthor, string authorName);\r\n    event CommentCreated(uint pid, uint cid, string comment, address commentedUser, string authorName);\r\n\r\n    function createComment(uint _pid, string memory _comment) public {\r\n        require(_pid > 0 && _pid <= postCount);\r\n        Post memory _post = posts[_pid];\r\n        uint commentsCount = _post.commentsCount;\r\n        commentsCount++;\r\n        User storage _user = users[addressToUid[msg.sender]];\r\n        comments[_pid][commentsCount] = Comment(_pid, commentsCount, _comment, msg.sender, _user.id, _user.name);\r\n        posts[_pid].commentsCount = commentsCount;\r\n        emit CommentCreated(_pid, commentsCount, _comment, msg.sender, _user.name);\r\n    }\r\n\r\n    function fetchAllComments(uint _postId) public view returns (Comment[] memory){\r\n        require(_postId > 0 && _postId <= postCount);\r\n        Post memory _post = posts[_postId];\r\n        uint commentsCount = _post.commentsCount;\r\n        Comment[] memory postComments = new Comment[](commentsCount);\r\n        uint counter = 0;\r\n        for(uint i=1; i<= commentsCount; i++){\r\n            postComments[counter++] = comments[_postId][i];\r\n        }\r\n        return postComments;\r\n    }\r\n\r\n    //event for tag creation\r\n    event PostTagsCreated(string[] tags, uint postId);\r\n    event AllPostsOfATag(string tag, Post[] posts);\r\n    event emitWord(string tag);\r\n\r\n    function createTag(string memory _content, uint _postId) public {       \r\n        \r\n        strings.slice memory s  = _content.toSlice();\r\n        strings.slice memory delim = \" \".toSlice();\r\n        string[] memory parts = new string[](s.count(delim) + 1);\r\n        for(uint i = 0; i < parts.length; i++) {\r\n            parts[i] = s.split(delim).toString();\r\n        }\r\n\r\n        for(uint i = 0; i<parts.length;i++){\r\n            string memory tag = parts[i];\r\n            uint[] storage postIds = postsFromTags[tag];\r\n            postIds.push(_postId);\r\n            postsFromTags[tag] = postIds;\r\n            // bool found = false;\r\n            // for(uint j=0; j<postIds.length; i++){\r\n            //     if(!found && postIds[j] == _postId){\r\n            //         found = true;\r\n            //         break;\r\n            //     }\r\n            // }\r\n            // if(!found){\r\n            // }\r\n        }\r\n\r\n\r\n        emit PostTagsCreated(parts, _postId);\r\n    }\r\n\r\n    function checkEmptyCharacter(bytes1 _char) public pure returns (bool){\r\n        if(_char == 0x20){\r\n            return true;\r\n        }\r\n        return false;\r\n    }\r\n\r\n    function getPostsFromTag(string memory tag) public returns (Post[] memory){\r\n        uint[] memory postIds = postsFromTags[tag];\r\n        uint counter = 0;\r\n        Post[] memory postsOfTag = new Post[](postIds.length);\r\n        for(uint i=0;i< postIds.length;i++){\r\n            if(!helperMap[postIds[i]]){\r\n                counter++;\r\n                helperMap[postIds[i]] = true;\r\n                postsOfTag[i] = posts[postIds[i]];\r\n            }\r\n        }\r\n\r\n        //nullify helper map\r\n        for(uint i=0;i< postIds.length;i++){\r\n            helperMap[postIds[i]] = false;\r\n        }\r\n        emit AllPostsOfATag(tag, postsOfTag);\r\n        return postsOfTag;\r\n    }\r\n\r\n    //self destruct event \r\n    event DestroyContract(address sender, address caller, uint balance);\r\n\r\n    function destroyContract() public onlyOwner{\r\n        emit DestroyContract(msg.sender, owner, owner.balance);\r\n        selfdestruct(payable(msg.sender));\r\n    }\r\n\r\n}",
  "sourcePath": "C:/Users/praveen/Desktop/Eth-Project/Simple-Social-Network/src/contracts/SocialNetwork.sol",
  "compiler": {
    "name": "solc",
    "version": "0.8.0+commit.c7dfd78e.Emscripten.clang"
  },
  "schemaVersion": "3.4.1",
  "updatedAt": "2021-06-18T04:04:30.456Z",
  "networkType": "ethereum",
  "devdoc": {
    "kind": "dev",
    "methods": {},
    "version": 1
  },
  "userdoc": {
    "kind": "user",
    "methods": {},
    "version": 1
  }
}