{
  "contractName": "SocialNetwork",
  "abi": [
    {
      "inputs": [],
      "stateMutability": "nonpayable",
      "type": "constructor"
    },
    {
      "anonymous": false,
      "inputs": [
        {
          "indexed": true,
          "internalType": "address",
          "name": "sender",
          "type": "address"
        },
        {
          "indexed": false,
          "internalType": "string",
          "name": "message",
          "type": "string"
        }
      ],
      "name": "AutoCreateUser",
      "type": "event"
    },
    {
      "anonymous": false,
      "inputs": [
        {
          "indexed": false,
          "internalType": "address",
          "name": "sender",
          "type": "address"
        },
        {
          "indexed": false,
          "internalType": "address",
          "name": "caller",
          "type": "address"
        },
        {
          "indexed": false,
          "internalType": "uint256",
          "name": "balance",
          "type": "uint256"
        }
      ],
      "name": "DestroyContract",
      "type": "event"
    },
    {
      "anonymous": false,
      "inputs": [
        {
          "indexed": true,
          "internalType": "address",
          "name": "sender",
          "type": "address"
        },
        {
          "indexed": false,
          "internalType": "uint256[]",
          "name": "postIds",
          "type": "uint256[]"
        }
      ],
      "name": "FetchFollowingPosts",
      "type": "event"
    },
    {
      "anonymous": false,
      "inputs": [
        {
          "indexed": true,
          "internalType": "address",
          "name": "addr",
          "type": "address"
        },
        {
          "indexed": false,
          "internalType": "uint256[]",
          "name": "myPostIds",
          "type": "uint256[]"
        }
      ],
      "name": "FetchMyPosts",
      "type": "event"
    },
    {
      "anonymous": false,
      "inputs": [
        {
          "indexed": true,
          "internalType": "address",
          "name": "sender",
          "type": "address"
        },
        {
          "indexed": false,
          "internalType": "uint256",
          "name": "senderId",
          "type": "uint256"
        },
        {
          "indexed": false,
          "internalType": "uint256",
          "name": "author",
          "type": "uint256"
        },
        {
          "indexed": false,
          "internalType": "string",
          "name": "message",
          "type": "string"
        },
        {
          "indexed": false,
          "internalType": "uint256",
          "name": "count",
          "type": "uint256"
        }
      ],
      "name": "FollowOrUnFollowUser",
      "type": "event"
    },
    {
      "anonymous": false,
      "inputs": [
        {
          "indexed": true,
          "internalType": "address",
          "name": "id",
          "type": "address"
        },
        {
          "indexed": false,
          "internalType": "uint256",
          "name": "pid",
          "type": "uint256"
        },
        {
          "indexed": false,
          "internalType": "string",
          "name": "content",
          "type": "string"
        },
        {
          "indexed": false,
          "internalType": "string",
          "name": "url",
          "type": "string"
        },
        {
          "indexed": false,
          "internalType": "uint256",
          "name": "tipAmount",
          "type": "uint256"
        },
        {
          "indexed": false,
          "internalType": "address",
          "name": "author",
          "type": "address"
        }
      ],
      "name": "PostCreated",
      "type": "event"
    },
    {
      "anonymous": false,
      "inputs": [
        {
          "indexed": false,
          "internalType": "uint256",
          "name": "pid",
          "type": "uint256"
        },
        {
          "indexed": false,
          "internalType": "uint256",
          "name": "tipAmount",
          "type": "uint256"
        },
        {
          "indexed": false,
          "internalType": "address",
          "name": "author",
          "type": "address"
        }
      ],
      "name": "PostTipped",
      "type": "event"
    },
    {
      "inputs": [
        {
          "internalType": "address",
          "name": "",
          "type": "address"
        }
      ],
      "name": "addressToUid",
      "outputs": [
        {
          "internalType": "uint256",
          "name": "",
          "type": "uint256"
        }
      ],
      "stateMutability": "view",
      "type": "function",
      "constant": true
    },
    {
      "inputs": [],
      "name": "networkName",
      "outputs": [
        {
          "internalType": "string",
          "name": "",
          "type": "string"
        }
      ],
      "stateMutability": "view",
      "type": "function",
      "constant": true
    },
    {
      "inputs": [],
      "name": "postCount",
      "outputs": [
        {
          "internalType": "uint256",
          "name": "",
          "type": "uint256"
        }
      ],
      "stateMutability": "view",
      "type": "function",
      "constant": true
    },
    {
      "inputs": [
        {
          "internalType": "uint256",
          "name": "",
          "type": "uint256"
        }
      ],
      "name": "posts",
      "outputs": [
        {
          "internalType": "uint256",
          "name": "pid",
          "type": "uint256"
        },
        {
          "internalType": "string",
          "name": "content",
          "type": "string"
        },
        {
          "internalType": "string",
          "name": "url",
          "type": "string"
        },
        {
          "internalType": "uint256",
          "name": "tipAmount",
          "type": "uint256"
        },
        {
          "internalType": "address payable",
          "name": "author",
          "type": "address"
        },
        {
          "internalType": "uint256",
          "name": "authorId",
          "type": "uint256"
        }
      ],
      "stateMutability": "view",
      "type": "function",
      "constant": true
    },
    {
      "inputs": [],
      "name": "userCount",
      "outputs": [
        {
          "internalType": "uint16",
          "name": "",
          "type": "uint16"
        }
      ],
      "stateMutability": "view",
      "type": "function",
      "constant": true
    },
    {
      "inputs": [
        {
          "internalType": "uint256",
          "name": "",
          "type": "uint256"
        }
      ],
      "name": "users",
      "outputs": [
        {
          "internalType": "uint256",
          "name": "id",
          "type": "uint256"
        },
        {
          "internalType": "address",
          "name": "userAddress",
          "type": "address"
        },
        {
          "internalType": "string",
          "name": "name",
          "type": "string"
        },
        {
          "internalType": "uint256",
          "name": "followersCount",
          "type": "uint256"
        },
        {
          "internalType": "uint256",
          "name": "followingCount",
          "type": "uint256"
        },
        {
          "internalType": "uint256",
          "name": "tipObtained",
          "type": "uint256"
        },
        {
          "internalType": "uint256",
          "name": "tipDonated",
          "type": "uint256"
        }
      ],
      "stateMutability": "view",
      "type": "function",
      "constant": true
    },
    {
      "inputs": [
        {
          "internalType": "string",
          "name": "_uname",
          "type": "string"
        }
      ],
      "name": "autoCreateUser",
      "outputs": [],
      "stateMutability": "nonpayable",
      "type": "function"
    },
    {
      "inputs": [],
      "name": "getUserInfo",
      "outputs": [
        {
          "internalType": "uint256",
          "name": "",
          "type": "uint256"
        },
        {
          "internalType": "string",
          "name": "",
          "type": "string"
        },
        {
          "internalType": "uint256",
          "name": "",
          "type": "uint256"
        },
        {
          "internalType": "uint256",
          "name": "",
          "type": "uint256"
        },
        {
          "internalType": "uint256",
          "name": "",
          "type": "uint256"
        },
        {
          "internalType": "uint256",
          "name": "",
          "type": "uint256"
        }
      ],
      "stateMutability": "view",
      "type": "function",
      "constant": true
    },
    {
      "inputs": [
        {
          "internalType": "uint256",
          "name": "_authorId",
          "type": "uint256"
        }
      ],
      "name": "followAuthor",
      "outputs": [],
      "stateMutability": "nonpayable",
      "type": "function"
    },
    {
      "inputs": [
        {
          "internalType": "uint256",
          "name": "_authorId",
          "type": "uint256"
        }
      ],
      "name": "unFollowAuthor",
      "outputs": [],
      "stateMutability": "nonpayable",
      "type": "function"
    },
    {
      "inputs": [
        {
          "internalType": "uint256",
          "name": "_id",
          "type": "uint256"
        }
      ],
      "name": "getMyPosts",
      "outputs": [
        {
          "components": [
            {
              "internalType": "uint256",
              "name": "pid",
              "type": "uint256"
            },
            {
              "internalType": "string",
              "name": "content",
              "type": "string"
            },
            {
              "internalType": "string",
              "name": "url",
              "type": "string"
            },
            {
              "internalType": "uint256",
              "name": "tipAmount",
              "type": "uint256"
            },
            {
              "internalType": "address payable",
              "name": "author",
              "type": "address"
            },
            {
              "internalType": "uint256",
              "name": "authorId",
              "type": "uint256"
            }
          ],
          "internalType": "struct SocialNetwork.Post[]",
          "name": "",
          "type": "tuple[]"
        }
      ],
      "stateMutability": "nonpayable",
      "type": "function"
    },
    {
      "inputs": [],
      "name": "getFollowingPosts",
      "outputs": [
        {
          "components": [
            {
              "internalType": "uint256",
              "name": "pid",
              "type": "uint256"
            },
            {
              "internalType": "string",
              "name": "content",
              "type": "string"
            },
            {
              "internalType": "string",
              "name": "url",
              "type": "string"
            },
            {
              "internalType": "uint256",
              "name": "tipAmount",
              "type": "uint256"
            },
            {
              "internalType": "address payable",
              "name": "author",
              "type": "address"
            },
            {
              "internalType": "uint256",
              "name": "authorId",
              "type": "uint256"
            }
          ],
          "internalType": "struct SocialNetwork.Post[]",
          "name": "",
          "type": "tuple[]"
        }
      ],
      "stateMutability": "nonpayable",
      "type": "function"
    },
    {
      "inputs": [
        {
          "internalType": "string",
          "name": "_content",
          "type": "string"
        },
        {
          "internalType": "string",
          "name": "_url",
          "type": "string"
        }
      ],
      "name": "createPost",
      "outputs": [],
      "stateMutability": "nonpayable",
      "type": "function"
    },
    {
      "inputs": [
        {
          "internalType": "uint256",
          "name": "_id",
          "type": "uint256"
        }
      ],
      "name": "tipAPost",
      "outputs": [],
      "stateMutability": "payable",
      "type": "function",
      "payable": true
    },
    {
      "inputs": [],
      "name": "destroyContract",
      "outputs": [],
      "stateMutability": "nonpayable",
      "type": "function"
    }
  ],
  "bytecode": "0x608060405260006005556000600660006101000a81548161ffff021916908361ffff1602179055503480156200003457600080fd5b50336000806101000a81548173ffffffffffffffffffffffffffffffffffffffff021916908373ffffffffffffffffffffffffffffffffffffffff1602179055506040518060400160405280601381526020017f455448202d20536f6369616c4e6574776f726b0000000000000000000000000081525060019080519060200190620000c2929190620000c9565b50620001de565b828054620000d79062000179565b90600052602060002090601f016020900481019282620000fb576000855562000147565b82601f106200011657805160ff191683800117855562000147565b8280016001018555821562000147579182015b828111156200014657825182559160200191906001019062000129565b5b5090506200015691906200015a565b5090565b5b80821115620001755760008160009055506001016200015b565b5090565b600060028204905060018216806200019257607f821691505b60208210811415620001a957620001a8620001af565b5b50919050565b7f4e487b7100000000000000000000000000000000000000000000000000000000600052602260045260246000fd5b612ba280620001ee6000396000f3fe6080604052600436106100e85760003560e01c80632fc95d711161008a578063392cfec711610059578063392cfec7146102f25780635bc31dad1461031b5780635d8d158514610346578063ad2c48ef14610376576100e8565b80632fc95d71146102415780633223e4b81461025d578063365b98b214610286578063392338f5146102c9576100e8565b80630c1d50cb116100c65780630c1d50cb146101715780630fffe86a146101ae578063107bf28c146101eb57806317906c2e14610216576100e8565b806307973ccf146100ed578063092a5cce146101185780630b1e7f831461012f575b600080fd5b3480156100f957600080fd5b5061010261039f565b60405161010f9190612343565b60405180910390f35b34801561012457600080fd5b5061012d6103b3565b005b34801561013b57600080fd5b5061015660048036038101906101519190611ef5565b6104ec565b60405161016896959493929190612450565b60405180910390f35b34801561017d57600080fd5b5061019860048036038101906101939190611ef5565b610658565b6040516101a5919061227d565b60405180910390f35b3480156101ba57600080fd5b506101d560048036038101906101d09190611e1f565b610a80565b6040516101e2919061235e565b60405180910390f35b3480156101f757600080fd5b50610200610a98565b60405161020d91906122c1565b60405180910390f35b34801561022257600080fd5b5061022b610b26565b604051610238919061235e565b60405180910390f35b61025b60048036038101906102569190611ef5565b610b2c565b005b34801561026957600080fd5b50610284600480360381019061027f9190611ef5565b610f03565b005b34801561029257600080fd5b506102ad60048036038101906102a89190611ef5565b6110f6565b6040516102c09796959493929190612379565b60405180910390f35b3480156102d557600080fd5b506102f060048036038101906102eb9190611e89565b6111e0565b005b3480156102fe57600080fd5b5061031960048036038101906103149190611ef5565b6113ff565b005b34801561032757600080fd5b506103306115e5565b60405161033d919061227d565b60405180910390f35b34801561035257600080fd5b5061035b611964565b60405161036d969594939291906124bf565b60405180910390f35b34801561038257600080fd5b5061039d60048036038101906103989190611e48565b611a95565b005b600660009054906101000a900461ffff1681565b3373ffffffffffffffffffffffffffffffffffffffff1660008054906101000a900473ffffffffffffffffffffffffffffffffffffffff1673ffffffffffffffffffffffffffffffffffffffff1614610441576040517f08c379a000000000000000000000000000000000000000000000000000000000815260040161043890612323565b60405180910390fd5b7f1ec0eba9b0e9e969285026819e2b9903c774ac2ea3e68a8123cb3528b39489423360008054906101000a900473ffffffffffffffffffffffffffffffffffffffff1660008054906101000a900473ffffffffffffffffffffffffffffffffffffffff1673ffffffffffffffffffffffffffffffffffffffff16316040516104cb93929190612246565b60405180910390a13373ffffffffffffffffffffffffffffffffffffffff16ff5b600260205280600052604060002060009150905080600001549080600101805461051590612857565b80601f016020809104026020016040519081016040528092919081815260200182805461054190612857565b801561058e5780601f106105635761010080835404028352916020019161058e565b820191906000526020600020905b81548152906001019060200180831161057157829003601f168201915b5050505050908060020180546105a390612857565b80601f01602080910402602001604051908101604052809291908181526020018280546105cf90612857565b801561061c5780601f106105f15761010080835404028352916020019161061c565b820191906000526020600020905b8154815290600101906020018083116105ff57829003601f168201915b5050505050908060030154908060040160009054906101000a900473ffffffffffffffffffffffffffffffffffffffff16908060050154905086565b6060600060055467ffffffffffffffff81111561069e577f4e487b7100000000000000000000000000000000000000000000000000000000600052604160045260246000fd5b6040519080825280602002602001820160405280156106cc5781602001602082028036833780820191505090505b509050600060055467ffffffffffffffff811115610713577f4e487b7100000000000000000000000000000000000000000000000000000000600052604160045260246000fd5b60405190808252806020026020018201604052801561074c57816020015b610739611c9e565b8152602001906001900390816107315790505b5090506000806003600087815260200190815260200160002090506000600190505b6005548111610a25576001151582600401600083815260200190815260200160002060009054906101000a900460ff1615151415610a1257808584815181106107e0577f4e487b7100000000000000000000000000000000000000000000000000000000600052603260045260246000fd5b6020026020010181815250506000600260008381526020019081526020016000206005015414610a1157600260008281526020019081526020016000206040518060c00160405290816000820154815260200160018201805461084290612857565b80601f016020809104026020016040519081016040528092919081815260200182805461086e90612857565b80156108bb5780601f10610890576101008083540402835291602001916108bb565b820191906000526020600020905b81548152906001019060200180831161089e57829003601f168201915b505050505081526020016002820180546108d490612857565b80601f016020809104026020016040519081016040528092919081815260200182805461090090612857565b801561094d5780601f106109225761010080835404028352916020019161094d565b820191906000526020600020905b81548152906001019060200180831161093057829003601f168201915b50505050508152602001600382015481526020016004820160009054906101000a900473ffffffffffffffffffffffffffffffffffffffff1673ffffffffffffffffffffffffffffffffffffffff1673ffffffffffffffffffffffffffffffffffffffff1681526020016005820154815250508484806109cc906128e5565b955081518110610a05577f4e487b7100000000000000000000000000000000000000000000000000000000600052603260045260246000fd5b60200260200101819052505b5b8080610a1d906128e5565b91505061076e565b503373ffffffffffffffffffffffffffffffffffffffff167fd2365500f72e0836a24bca0665a95120d4f6169769a291786d75fa886cd572e085604051610a6c919061229f565b60405180910390a282945050505050919050565b60046020528060005260406000206000915090505481565b60018054610aa590612857565b80601f0160208091040260200160405190810160405280929190818152602001828054610ad190612857565b8015610b1e5780601f10610af357610100808354040283529160200191610b1e565b820191906000526020600020905b815481529060010190602001808311610b0157829003601f168201915b505050505081565b60055481565b600081118015610b3e57506005548111155b610b4757600080fd5b6000600260008381526020019081526020016000206040518060c001604052908160008201548152602001600182018054610b8190612857565b80601f0160208091040260200160405190810160405280929190818152602001828054610bad90612857565b8015610bfa5780601f10610bcf57610100808354040283529160200191610bfa565b820191906000526020600020905b815481529060010190602001808311610bdd57829003601f168201915b50505050508152602001600282018054610c1390612857565b80601f0160208091040260200160405190810160405280929190818152602001828054610c3f90612857565b8015610c8c5780601f10610c6157610100808354040283529160200191610c8c565b820191906000526020600020905b815481529060010190602001808311610c6f57829003601f168201915b50505050508152602001600382015481526020016004820160009054906101000a900473ffffffffffffffffffffffffffffffffffffffff1673ffffffffffffffffffffffffffffffffffffffff1673ffffffffffffffffffffffffffffffffffffffff16815260200160058201548152505090506000816080015190508073ffffffffffffffffffffffffffffffffffffffff166108fc349081150290604051600060405180830381858888f19350505050158015610d50573d6000803e3d6000fd5b50348260600151610d6191906126e7565b8260600181815250508160026000858152602001908152602001600020600082015181600001556020820151816001019080519060200190610da4929190611cea565b506040820151816002019080519060200190610dc1929190611cea565b506060820151816003015560808201518160040160006101000a81548173ffffffffffffffffffffffffffffffffffffffff021916908373ffffffffffffffffffffffffffffffffffffffff16021790555060a082015181600501559050503460036000600460003373ffffffffffffffffffffffffffffffffffffffff1673ffffffffffffffffffffffffffffffffffffffff1681526020019081526020016000205481526020019081526020016000206009016000828254610e8591906126e7565b9250508190555034600360008460a0015181526020019081526020016000206008016000828254610eb691906126e7565b925050819055507f857a474f7d18ba7614a11cc88bce5fd9cf05678441e1cb7c7eac53fecf3a8abd600554836060015183604051610ef693929190612527565b60405180910390a1505050565b600073ffffffffffffffffffffffffffffffffffffffff163373ffffffffffffffffffffffffffffffffffffffff161415610f3d57600080fd5b6000600460003373ffffffffffffffffffffffffffffffffffffffff1673ffffffffffffffffffffffffffffffffffffffff16815260200190815260200160002054905081811415610f8e57600080fd5b600060036000838152602001908152602001600020600701549050600060036000858152602001908152602001600020600601549050600160036000858152602001908152602001600020600501600086815260200190815260200160002060006101000a81548160ff021916908315150217905550600160036000868152602001908152602001600020600301600085815260200190815260200160002060006101000a81548160ff02191690831515021790555060018261105191906126e7565b600360008581526020019081526020016000206007018190555060018161107891906126e7565b60036000868152602001908152602001600020600601819055503373ffffffffffffffffffffffffffffffffffffffff167f1284e19801ce3def7f6b0025adef283c3cd9ee9bf4a717df2e7af6153517726b84866001866110d991906126e7565b6040516110e8939291906125a8565b60405180910390a250505050565b60036020528060005260406000206000915090508060000154908060010160009054906101000a900473ffffffffffffffffffffffffffffffffffffffff169080600201805461114590612857565b80601f016020809104026020016040519081016040528092919081815260200182805461117190612857565b80156111be5780601f10611193576101008083540402835291602001916111be565b820191906000526020600020905b8154815290600101906020018083116111a157829003601f168201915b5050505050908060060154908060070154908060080154908060090154905087565b60008251116111ee57600080fd5b60056000815480929190611201906128e5565b91905055506000600460003373ffffffffffffffffffffffffffffffffffffffff1673ffffffffffffffffffffffffffffffffffffffff1681526020019081526020016000205490506040518060c001604052806005548152602001848152602001604051806060016040528060338152602001612b3a603391398152602001600081526020013373ffffffffffffffffffffffffffffffffffffffff168152602001828152506002600060055481526020019081526020016000206000820151816000015560208201518160010190805190602001906112e3929190611cea565b506040820151816002019080519060200190611300929190611cea565b506060820151816003015560808201518160040160006101000a81548173ffffffffffffffffffffffffffffffffffffffff021916908373ffffffffffffffffffffffffffffffffffffffff16021790555060a082015181600501559050506001600360008381526020019081526020016000206004016000600554815260200190815260200160002060006101000a81548160ff0219169083151502179055503373ffffffffffffffffffffffffffffffffffffffff167fc139bc56bb962f7e6adeb9a2a9b67b1bd7a165b617c8231f120a4f4b0a09cfdc60055485856000336040516113f29594939291906123ef565b60405180910390a2505050565b600073ffffffffffffffffffffffffffffffffffffffff163373ffffffffffffffffffffffffffffffffffffffff16141561143957600080fd5b6000600460003373ffffffffffffffffffffffffffffffffffffffff1673ffffffffffffffffffffffffffffffffffffffff168152602001908152602001600020549050600060036000838152602001908152602001600020600701549050600060036000858152602001908152602001600020600601549050600060036000858152602001908152602001600020600501600086815260200190815260200160002060006101000a81548160ff021916908315150217905550600060036000868152602001908152602001600020600301600085815260200190815260200160002060006101000a81548160ff021916908315150217905550600182611540919061273d565b6003600085815260200190815260200160002060070181905550600181611567919061273d565b60036000868152602001908152602001600020600601819055503373ffffffffffffffffffffffffffffffffffffffff167f1284e19801ce3def7f6b0025adef283c3cd9ee9bf4a717df2e7af6153517726b84866001866115c8919061273d565b6040516115d79392919061255e565b60405180910390a250505050565b6060806060600080600190505b600660009054906101000a900461ffff1661ffff16811161190c57600060036000838152602001908152602001600020905080600501600083815260200190815260200160002060009054906101000a900460ff16156118f8576000600190505b60055481116118f65760036000848152602001908152602001600020600401600082815260200190815260200160002060009054906101000a900460ff16156118e357808685815181106116d0577f4e487b7100000000000000000000000000000000000000000000000000000000600052603260045260246000fd5b602002602001018181525050600260008281526020019081526020016000206040518060c00160405290816000820154815260200160018201805461171490612857565b80601f016020809104026020016040519081016040528092919081815260200182805461174090612857565b801561178d5780601f106117625761010080835404028352916020019161178d565b820191906000526020600020905b81548152906001019060200180831161177057829003601f168201915b505050505081526020016002820180546117a690612857565b80601f01602080910402602001604051908101604052809291908181526020018280546117d290612857565b801561181f5780601f106117f45761010080835404028352916020019161181f565b820191906000526020600020905b81548152906001019060200180831161180257829003601f168201915b50505050508152602001600382015481526020016004820160009054906101000a900473ffffffffffffffffffffffffffffffffffffffff1673ffffffffffffffffffffffffffffffffffffffff1673ffffffffffffffffffffffffffffffffffffffff16815260200160058201548152505085858061189e906128e5565b9650815181106118d7577f4e487b7100000000000000000000000000000000000000000000000000000000600052603260045260246000fd5b60200260200101819052505b80806118ee906128e5565b915050611653565b505b508080611904906128e5565b9150506115f2565b503373ffffffffffffffffffffffffffffffffffffffff167faa4181e53d676c5ba1ba9674818a0f5c9a8c410a6bf10c0e3258ee208ff70be484604051611953919061229f565b60405180910390a281935050505090565b600060606000806000806000600460003373ffffffffffffffffffffffffffffffffffffffff1673ffffffffffffffffffffffffffffffffffffffff168152602001908152602001600020549050600081116119bf57600080fd5b600060036000838152602001908152602001600020905080600001548160020182600601548360070154846008015485600901548480546119ff90612857565b80601f0160208091040260200160405190810160405280929190818152602001828054611a2b90612857565b8015611a785780601f10611a4d57610100808354040283529160200191611a78565b820191906000526020600020905b815481529060010190602001808311611a5b57829003601f168201915b505050505094509750975097509750975097505050909192939495565b6000815111611aa357600080fd5b600060036000600660009054906101000a900461ffff1661ffff16815260200190815260200160002090503373ffffffffffffffffffffffffffffffffffffffff167f86bccb58d5cc5d9545f467598d37d93ecb638f74090cce7c33c9d02ea467172b604051611b1290612303565b60405180910390a2600660009054906101000a900461ffff1661ffff16816000018190555081816002019080519060200190611b4f929190611cea565b50338160010160006101000a81548173ffffffffffffffffffffffffffffffffffffffff021916908373ffffffffffffffffffffffffffffffffffffffff16021790555060008160060181905550600081600701819055506000816008018190555060008160090181905550600660009054906101000a900461ffff1661ffff16600460003373ffffffffffffffffffffffffffffffffffffffff1673ffffffffffffffffffffffffffffffffffffffff168152602001908152602001600020819055506006600081819054906101000a900461ffff1680929190611c33906128ba565b91906101000a81548161ffff021916908361ffff160217905550503373ffffffffffffffffffffffffffffffffffffffff167f86bccb58d5cc5d9545f467598d37d93ecb638f74090cce7c33c9d02ea467172b604051611c92906122e3565b60405180910390a25050565b6040518060c0016040528060008152602001606081526020016060815260200160008152602001600073ffffffffffffffffffffffffffffffffffffffff168152602001600081525090565b828054611cf690612857565b90600052602060002090601f016020900481019282611d185760008555611d5f565b82601f10611d3157805160ff1916838001178555611d5f565b82800160010185558215611d5f579182015b82811115611d5e578251825591602001919060010190611d43565b5b509050611d6c9190611d70565b5090565b5b80821115611d89576000816000905550600101611d71565b5090565b6000611da0611d9b84612617565b6125f2565b905082815260208101848484011115611db857600080fd5b611dc3848285612815565b509392505050565b600081359050611dda81612b0b565b92915050565b600082601f830112611df157600080fd5b8135611e01848260208601611d8d565b91505092915050565b600081359050611e1981612b22565b92915050565b600060208284031215611e3157600080fd5b6000611e3f84828501611dcb565b91505092915050565b600060208284031215611e5a57600080fd5b600082013567ffffffffffffffff811115611e7457600080fd5b611e8084828501611de0565b91505092915050565b60008060408385031215611e9c57600080fd5b600083013567ffffffffffffffff811115611eb657600080fd5b611ec285828601611de0565b925050602083013567ffffffffffffffff811115611edf57600080fd5b611eeb85828601611de0565b9150509250929050565b600060208284031215611f0757600080fd5b6000611f1584828501611e0a565b91505092915050565b6000611f2a8383612189565b905092915050565b6000611f3e8383612228565b60208301905092915050565b611f53816127cd565b82525050565b611f6281612783565b82525050565b611f7181612783565b82525050565b611f8081612771565b82525050565b6000611f9182612668565b611f9b81856126a3565b935083602082028501611fad85612648565b8060005b85811015611fe95784840389528151611fca8582611f1e565b9450611fd583612689565b925060208a01995050600181019050611fb1565b50829750879550505050505092915050565b600061200682612673565b61201081856126b4565b935061201b83612658565b8060005b8381101561204c5781516120338882611f32565b975061203e83612696565b92505060018101905061201f565b5085935050505092915050565b612062816127df565b82525050565b60006120738261267e565b61207d81856126c5565b935061208d818560208601612824565b612096816129bb565b840191505092915050565b60006120ac8261267e565b6120b681856126d6565b93506120c6818560208601612824565b6120cf816129bb565b840191505092915050565b60006120e76025836126d6565b91506120f2826129cc565b604082019050919050565b600061210a600c836126d6565b915061211582612a1b565b602082019050919050565b600061212d6023836126d6565b915061213882612a44565b604082019050919050565b6000612150600d836126d6565b915061215b82612a93565b602082019050919050565b60006121736030836126d6565b915061217e82612abc565b604082019050919050565b600060c0830160008301516121a16000860182612228565b50602083015184820360208601526121b98282612068565b915050604083015184820360408601526121d38282612068565b91505060608301516121e86060860182612228565b5060808301516121fb6080860182611f59565b5060a083015161220e60a0860182612228565b508091505092915050565b61222281612795565b82525050565b612231816127c3565b82525050565b612240816127c3565b82525050565b600060608201905061225b6000830186611f77565b6122686020830185611f77565b6122756040830184612237565b949350505050565b600060208201905081810360008301526122978184611f86565b905092915050565b600060208201905081810360008301526122b98184611ffb565b905092915050565b600060208201905081810360008301526122db81846120a1565b905092915050565b600060208201905081810360008301526122fc816120fd565b9050919050565b6000602082019050818103600083015261231c81612143565b9050919050565b6000602082019050818103600083015261233c81612166565b9050919050565b60006020820190506123586000830184612219565b92915050565b60006020820190506123736000830184612237565b92915050565b600060e08201905061238e600083018a612237565b61239b6020830189611f77565b81810360408301526123ad81886120a1565b90506123bc6060830187612237565b6123c96080830186612237565b6123d660a0830185612237565b6123e360c0830184612237565b98975050505050505050565b600060a0820190506124046000830188612237565b818103602083015261241681876120a1565b9050818103604083015261242a81866120a1565b90506124396060830185612059565b6124466080830184611f77565b9695505050505050565b600060c0820190506124656000830189612237565b818103602083015261247781886120a1565b9050818103604083015261248b81876120a1565b905061249a6060830186612237565b6124a76080830185611f68565b6124b460a0830184612237565b979650505050505050565b600060c0820190506124d46000830189612237565b81810360208301526124e681886120a1565b90506124f56040830187612237565b6125026060830186612237565b61250f6080830185612237565b61251c60a0830184612237565b979650505050505050565b600060608201905061253c6000830186612237565b6125496020830185612237565b6125566040830184611f4a565b949350505050565b60006080820190506125736000830186612237565b6125806020830185612237565b8181036040830152612591816120da565b90506125a06060830184612237565b949350505050565b60006080820190506125bd6000830186612237565b6125ca6020830185612237565b81810360408301526125db81612120565b90506125ea6060830184612237565b949350505050565b60006125fc61260d565b90506126088282612889565b919050565b6000604051905090565b600067ffffffffffffffff8211156126325761263161298c565b5b61263b826129bb565b9050602081019050919050565b6000819050602082019050919050565b6000819050602082019050919050565b600081519050919050565b600081519050919050565b600081519050919050565b6000602082019050919050565b6000602082019050919050565b600082825260208201905092915050565b600082825260208201905092915050565b600082825260208201905092915050565b600082825260208201905092915050565b60006126f2826127c3565b91506126fd836127c3565b9250827fffffffffffffffffffffffffffffffffffffffffffffffffffffffffffffffff038211156127325761273161292e565b5b828201905092915050565b6000612748826127c3565b9150612753836127c3565b9250828210156127665761276561292e565b5b828203905092915050565b600061277c826127a3565b9050919050565b600061278e826127a3565b9050919050565b600061ffff82169050919050565b600073ffffffffffffffffffffffffffffffffffffffff82169050919050565b6000819050919050565b60006127d8826127f1565b9050919050565b60006127ea826127c3565b9050919050565b60006127fc82612803565b9050919050565b600061280e826127a3565b9050919050565b82818337600083830152505050565b60005b83811015612842578082015181840152602081019050612827565b83811115612851576000848401525b50505050565b6000600282049050600182168061286f57607f821691505b602082108114156128835761288261295d565b5b50919050565b612892826129bb565b810181811067ffffffffffffffff821117156128b1576128b061298c565b5b80604052505050565b60006128c582612795565b915061ffff8214156128da576128d961292e565b5b600182019050919050565b60006128f0826127c3565b91507fffffffffffffffffffffffffffffffffffffffffffffffffffffffffffffffff8214156129235761292261292e565b5b600182019050919050565b7f4e487b7100000000000000000000000000000000000000000000000000000000600052601160045260246000fd5b7f4e487b7100000000000000000000000000000000000000000000000000000000600052602260045260246000fd5b7f4e487b7100000000000000000000000000000000000000000000000000000000600052604160045260246000fd5b6000601f19601f8301169050919050565b7f556e466f6c6c6f77696e672074686520617574686f722077697468206e65772060008201527f636f756e74000000000000000000000000000000000000000000000000000000602082015250565b7f5573657220437265617465640000000000000000000000000000000000000000600082015250565b7f466f6c6c6f77696e672074686520617574686f722077697468206e657720636f60008201527f756e740000000000000000000000000000000000000000000000000000000000602082015250565b7f4372656174696e67205573657200000000000000000000000000000000000000600082015250565b7f4f6e6c792074686520636f6e7472616374206f776e65722063616e206465737460008201527f726f792074686520636f6e747261637400000000000000000000000000000000602082015250565b612b1481612771565b8114612b1f57600080fd5b50565b612b2b816127c3565b8114612b3657600080fd5b5056fe68747470733a2f2f6769746875622e636f6d2f5072617665656e50696e2f53696d706c652d536f6369616c2d4e6574776f726ba2646970667358221220a89fd93a172db548c94dc2e8193673c0435dd512d5eea2ab026798338899e95364736f6c63430008010033",
  "immutableReferences": {},
  "source": "pragma solidity ^0.8.0;\r\n\r\nimport './owned.sol';\r\n\r\ncontract SocialNetwork is owned{\r\n    /*Add code */\r\n    string public networkName; /* State variable -> this value gets stored on block chain*/\r\n    // we cannot know the length of any map and cannot iterate over it, we can only fetch individually\r\n    mapping(uint => Post) public posts;/* Key Value Store, gets written to block chain itself */\r\n    mapping(uint => User) public users;\r\n    mapping(address => uint) public addressToUid;\r\n\r\n    uint public postCount = 0;\r\n    uint16 public userCount = 0;\r\n\r\n    struct User{\r\n        uint id;\r\n        address userAddress;\r\n        string name;        \r\n        mapping(uint => bool) followerIds;\r\n        mapping(uint => bool) myPostIds; //not user's id\r\n        mapping(uint => bool) followingIds;\r\n        uint followersCount;\r\n        uint followingCount;\r\n        uint tipObtained;\r\n        uint tipDonated;\r\n    } \r\n\r\n    struct Post{\r\n        uint pid;\r\n        string content;\r\n        string url;\r\n        uint tipAmount;\r\n        address payable author;\r\n        uint authorId;\r\n    }\r\n\r\n    constructor () {\r\n        networkName = \"ETH - SocialNetwork\";\r\n    }\r\n\r\n    //events for creating user, following a user, unfollowing a user\r\n    event AutoCreateUser(address indexed sender, string message);\r\n    event FollowOrUnFollowUser(address indexed sender, uint senderId, uint author, string message, uint count);\r\n\r\n    function autoCreateUser(string memory _uname) public {        \r\n        require(bytes(_uname).length > 0);\r\n        User storage _user = users[userCount];\r\n        emit AutoCreateUser(msg.sender, \"Creating User\");            \r\n        _user.id = userCount;\r\n        _user.name = _uname;\r\n        _user.userAddress = msg.sender;\r\n        _user.followersCount = 0;\r\n        _user.followingCount = 0;\r\n        _user.tipObtained = 0;\r\n        _user.tipDonated = 0;\r\n        addressToUid[msg.sender] = userCount;\r\n        userCount++;\r\n        emit AutoCreateUser(msg.sender, \"User Created\");\r\n    }\r\n\r\n    function getUserInfo() public view returns (uint, string memory, uint, uint, uint, uint){     \r\n        uint _userId = addressToUid[msg.sender];\r\n        require(_userId > 0);   \r\n        User storage _user = users[_userId];\r\n        return (_user.id, _user.name, _user.followersCount, _user.followingCount, _user.tipObtained, _user.tipDonated);\r\n    }\r\n\r\n    function followAuthor(uint _authorId) public checkAddress{\r\n        uint senderId = addressToUid[msg.sender];\r\n        require(senderId != _authorId);\r\n        uint followingCount = users[senderId].followingCount;\r\n        uint authorsFollowersCount = users[_authorId].followersCount;\r\n        users[senderId].followingIds[_authorId] = true;\r\n        users[_authorId].followerIds[senderId] = true;\r\n        users[senderId].followingCount = followingCount+1;\r\n        users[_authorId].followersCount = authorsFollowersCount+1;\r\n        emit FollowOrUnFollowUser(msg.sender,senderId, _authorId, \"Following the author with new count\",followingCount+1);\r\n    }\r\n\r\n    function unFollowAuthor(uint _authorId) public checkAddress{\r\n        uint senderId = addressToUid[msg.sender];\r\n        uint followingCount = users[senderId].followingCount;\r\n        uint authorsFollowersCount = users[_authorId].followersCount;\r\n        users[senderId].followingIds[_authorId] = false;\r\n        users[_authorId].followerIds[senderId] = false;\r\n        users[senderId].followingCount = followingCount-1;\r\n        users[_authorId].followersCount = authorsFollowersCount-1;\r\n        emit FollowOrUnFollowUser(msg.sender, senderId, _authorId, \"UnFollowing the author with new count\",followingCount -1);\r\n    }\r\n\r\n    event FetchMyPosts(address indexed addr, uint[] myPostIds);\r\n\r\n    event FetchFollowingPosts(address indexed sender, uint[] postIds);\r\n\r\n    function getMyPosts(uint _id) public returns (Post[] memory){\r\n        uint[] memory postIds = new uint[](postCount);\r\n        Post[] memory myPosts = new Post[](postCount);\r\n        uint counter = 0;\r\n        User storage _user = users[_id];\r\n        \r\n        for (uint i = 1; i <= postCount; i++){\r\n            if(_user.myPostIds[i] == true){\r\n                postIds[counter] = i;\r\n                if(posts[i].authorId != 0){\r\n                    myPosts[counter++] = posts[i];\r\n                }\r\n            }\r\n        }\r\n        emit FetchMyPosts(msg.sender,postIds);\r\n        return myPosts;\r\n    }\r\n\r\n    function getFollowingPosts() public returns (Post[] memory){\r\n        uint[] memory postIds;\r\n        Post[] memory allPosts;\r\n        uint counter = 0;\r\n        for(uint userId = 1; userId <= userCount; userId++){\r\n            User storage _user = users[userId];\r\n            if(_user.followingIds[userId]){\r\n                for (uint i = 1; i <= postCount; i++){\r\n                    if(users[userId].myPostIds[i]){\r\n                        postIds[counter] = i;\r\n                        allPosts[counter++] = posts[i];\r\n                    }\r\n                }\r\n            }\r\n        }\r\n        emit FetchFollowingPosts(msg.sender,postIds);\r\n        return allPosts;\r\n    }\r\n\r\n    event PostCreated(address indexed id, uint pid, string content, string url, uint tipAmount, address author);\r\n\r\n    function createPost(string memory _content, string memory _url) public{ \r\n        //require valid content\r\n        require(bytes(_content).length > 0); //if false it stops execution and gas used will be refunded back to caller, else continues execution\r\n        \r\n        /* Here _content is a local var and underscore is just a conventions for local vars*/\r\n        postCount++;        \r\n        uint userId = addressToUid[msg.sender];\r\n        posts[postCount] = Post(postCount, _content, \"https://github.com/PraveenPin/Simple-Social-Network\", 0, payable(msg.sender), userId); /* Instantiates Post, adds it into map */        \r\n        //adding the post id to the user\r\n        users[userId].myPostIds[postCount] = true;\r\n\r\n        //Trigger event from solidity smart contracts\r\n        //these posts can be open for subscription by consumers\r\n        emit PostCreated(msg.sender,postCount, _content, _url, 0, msg.sender);\r\n    }\r\n\r\n    event PostTipped(uint pid, uint tipAmount, address author);\r\n\r\n    function tipAPost(uint _id) public payable {\r\n        require(_id > 0 && _id <= postCount);\r\n        Post memory _post = posts[_id];\r\n        address payable _author = _post.author;\r\n        //paying the author by sending ether\r\n        payable(address(_author)).transfer(msg.value);\r\n        //here the tip should be ether, so we use function meta data\r\n        _post.tipAmount = _post.tipAmount + msg.value;\r\n        posts[_id] = _post;\r\n        \r\n        //add tip amount to user donation\r\n        users[addressToUid[msg.sender]].tipDonated += msg.value;\r\n        //add tip amount to author's obtained tip\r\n        users[_post.authorId].tipObtained += msg.value;\r\n        emit PostTipped(postCount, _post.tipAmount, _author);\r\n    }\r\n\r\n    //self destruct event \r\n    event DestroyContract(address sender, address caller, uint balance);\r\n\r\n    function destroyContract() public onlyOwner{\r\n        emit DestroyContract(msg.sender, owner, owner.balance);\r\n        selfdestruct(payable(msg.sender));\r\n    }\r\n\r\n}",
  "sourcePath": "C:/Users/praveen/Desktop/Eth-Project/Simple-Social-Network/src/contracts/SocialNetwork.sol",
  "compiler": {
    "name": "solc",
    "version": "0.8.1+commit.df193b15.Emscripten.clang"
  },
  "schemaVersion": "3.4.1",
  "updatedAt": "2021-06-04T19:18:27.616Z",
  "networkType": "ethereum",
  "devdoc": {
    "kind": "dev",
    "methods": {},
    "version": 1
  },
  "userdoc": {
    "kind": "user",
    "methods": {},
    "version": 1
  }
}