{
  "contractName": "SocialNetwork",
  "abi": [
    {
      "inputs": [],
      "stateMutability": "nonpayable",
      "type": "constructor"
    },
    {
      "anonymous": false,
      "inputs": [
        {
          "indexed": true,
          "internalType": "address",
          "name": "sender",
          "type": "address"
        },
        {
          "indexed": false,
          "internalType": "string",
          "name": "message",
          "type": "string"
        }
      ],
      "name": "AutoCreateUser",
      "type": "event"
    },
    {
      "anonymous": false,
      "inputs": [
        {
          "indexed": false,
          "internalType": "uint256",
          "name": "pid",
          "type": "uint256"
        },
        {
          "indexed": false,
          "internalType": "uint256",
          "name": "cid",
          "type": "uint256"
        },
        {
          "indexed": false,
          "internalType": "string",
          "name": "comment",
          "type": "string"
        },
        {
          "indexed": false,
          "internalType": "address",
          "name": "commentedUser",
          "type": "address"
        },
        {
          "indexed": false,
          "internalType": "string",
          "name": "authorName",
          "type": "string"
        }
      ],
      "name": "CommentCreated",
      "type": "event"
    },
    {
      "anonymous": false,
      "inputs": [
        {
          "indexed": false,
          "internalType": "uint256",
          "name": "pid",
          "type": "uint256"
        },
        {
          "indexed": false,
          "internalType": "uint256",
          "name": "cid",
          "type": "uint256"
        },
        {
          "indexed": false,
          "internalType": "string",
          "name": "deletedComment",
          "type": "string"
        },
        {
          "indexed": false,
          "internalType": "address",
          "name": "commentAuthor",
          "type": "address"
        },
        {
          "indexed": false,
          "internalType": "string",
          "name": "authorName",
          "type": "string"
        }
      ],
      "name": "CommentDeleted",
      "type": "event"
    },
    {
      "anonymous": false,
      "inputs": [
        {
          "indexed": false,
          "internalType": "address",
          "name": "sender",
          "type": "address"
        },
        {
          "indexed": false,
          "internalType": "address",
          "name": "caller",
          "type": "address"
        },
        {
          "indexed": false,
          "internalType": "uint256",
          "name": "balance",
          "type": "uint256"
        }
      ],
      "name": "DestroyContract",
      "type": "event"
    },
    {
      "anonymous": false,
      "inputs": [
        {
          "indexed": true,
          "internalType": "address",
          "name": "sender",
          "type": "address"
        },
        {
          "indexed": false,
          "internalType": "uint256[]",
          "name": "followingIds",
          "type": "uint256[]"
        },
        {
          "indexed": false,
          "internalType": "uint256[]",
          "name": "followerIds",
          "type": "uint256[]"
        }
      ],
      "name": "FetchMyNetworkIds",
      "type": "event"
    },
    {
      "anonymous": false,
      "inputs": [
        {
          "indexed": true,
          "internalType": "address",
          "name": "addr",
          "type": "address"
        },
        {
          "indexed": false,
          "internalType": "uint256[]",
          "name": "myPostIds",
          "type": "uint256[]"
        }
      ],
      "name": "FetchMyPosts",
      "type": "event"
    },
    {
      "anonymous": false,
      "inputs": [
        {
          "indexed": true,
          "internalType": "address",
          "name": "sender",
          "type": "address"
        },
        {
          "indexed": false,
          "internalType": "uint256",
          "name": "senderId",
          "type": "uint256"
        },
        {
          "indexed": false,
          "internalType": "uint256",
          "name": "author",
          "type": "uint256"
        },
        {
          "indexed": false,
          "internalType": "string",
          "name": "message",
          "type": "string"
        },
        {
          "indexed": false,
          "internalType": "uint256",
          "name": "count",
          "type": "uint256"
        }
      ],
      "name": "FollowOrUnFollowUser",
      "type": "event"
    },
    {
      "anonymous": false,
      "inputs": [
        {
          "indexed": true,
          "internalType": "address",
          "name": "id",
          "type": "address"
        },
        {
          "indexed": false,
          "internalType": "uint256",
          "name": "pid",
          "type": "uint256"
        },
        {
          "indexed": false,
          "internalType": "string",
          "name": "content",
          "type": "string"
        },
        {
          "indexed": false,
          "internalType": "string",
          "name": "url",
          "type": "string"
        },
        {
          "indexed": false,
          "internalType": "uint256",
          "name": "tipAmount",
          "type": "uint256"
        },
        {
          "indexed": false,
          "internalType": "address",
          "name": "author",
          "type": "address"
        },
        {
          "indexed": false,
          "internalType": "uint256",
          "name": "authorId",
          "type": "uint256"
        },
        {
          "indexed": false,
          "internalType": "string",
          "name": "authorName",
          "type": "string"
        }
      ],
      "name": "PostCreated",
      "type": "event"
    },
    {
      "anonymous": false,
      "inputs": [
        {
          "indexed": false,
          "internalType": "uint256",
          "name": "pid",
          "type": "uint256"
        },
        {
          "indexed": false,
          "internalType": "uint256",
          "name": "tipAmount",
          "type": "uint256"
        },
        {
          "indexed": false,
          "internalType": "address",
          "name": "author",
          "type": "address"
        }
      ],
      "name": "PostTipped",
      "type": "event"
    },
    {
      "inputs": [],
      "name": "networkName",
      "outputs": [
        {
          "internalType": "string",
          "name": "",
          "type": "string"
        }
      ],
      "stateMutability": "view",
      "type": "function",
      "constant": true
    },
    {
      "inputs": [],
      "name": "postCount",
      "outputs": [
        {
          "internalType": "uint256",
          "name": "",
          "type": "uint256"
        }
      ],
      "stateMutability": "view",
      "type": "function",
      "constant": true
    },
    {
      "inputs": [],
      "name": "userCount",
      "outputs": [
        {
          "internalType": "uint16",
          "name": "",
          "type": "uint16"
        }
      ],
      "stateMutability": "view",
      "type": "function",
      "constant": true
    },
    {
      "inputs": [
        {
          "internalType": "address",
          "name": "_userAddress",
          "type": "address"
        }
      ],
      "name": "getUserIdFromAddress",
      "outputs": [
        {
          "internalType": "uint256",
          "name": "",
          "type": "uint256"
        }
      ],
      "stateMutability": "view",
      "type": "function",
      "constant": true
    },
    {
      "inputs": [
        {
          "internalType": "uint256",
          "name": "_postId",
          "type": "uint256"
        }
      ],
      "name": "getPostFromPostId",
      "outputs": [
        {
          "components": [
            {
              "internalType": "uint256",
              "name": "pid",
              "type": "uint256"
            },
            {
              "internalType": "string",
              "name": "content",
              "type": "string"
            },
            {
              "internalType": "string",
              "name": "url",
              "type": "string"
            },
            {
              "internalType": "uint256",
              "name": "tipAmount",
              "type": "uint256"
            },
            {
              "internalType": "address payable",
              "name": "author",
              "type": "address"
            },
            {
              "internalType": "uint256",
              "name": "authorId",
              "type": "uint256"
            },
            {
              "internalType": "string",
              "name": "authorName",
              "type": "string"
            },
            {
              "internalType": "uint256",
              "name": "commentsCount",
              "type": "uint256"
            }
          ],
          "internalType": "struct SocialNetwork.Post",
          "name": "",
          "type": "tuple"
        }
      ],
      "stateMutability": "view",
      "type": "function",
      "constant": true
    },
    {
      "inputs": [
        {
          "internalType": "string",
          "name": "_uname",
          "type": "string"
        }
      ],
      "name": "autoCreateUser",
      "outputs": [],
      "stateMutability": "nonpayable",
      "type": "function"
    },
    {
      "inputs": [],
      "name": "getUserInfo",
      "outputs": [
        {
          "internalType": "uint256",
          "name": "",
          "type": "uint256"
        },
        {
          "internalType": "string",
          "name": "",
          "type": "string"
        },
        {
          "internalType": "uint256",
          "name": "",
          "type": "uint256"
        },
        {
          "internalType": "uint256",
          "name": "",
          "type": "uint256"
        },
        {
          "internalType": "uint256",
          "name": "",
          "type": "uint256"
        },
        {
          "internalType": "uint256",
          "name": "",
          "type": "uint256"
        }
      ],
      "stateMutability": "view",
      "type": "function",
      "constant": true
    },
    {
      "inputs": [
        {
          "internalType": "uint256",
          "name": "_authorId",
          "type": "uint256"
        }
      ],
      "name": "followAuthor",
      "outputs": [],
      "stateMutability": "nonpayable",
      "type": "function"
    },
    {
      "inputs": [
        {
          "internalType": "uint256",
          "name": "_authorId",
          "type": "uint256"
        }
      ],
      "name": "unFollowAuthor",
      "outputs": [],
      "stateMutability": "nonpayable",
      "type": "function"
    },
    {
      "inputs": [
        {
          "internalType": "uint256",
          "name": "_id",
          "type": "uint256"
        }
      ],
      "name": "getMyPosts",
      "outputs": [
        {
          "internalType": "uint256[]",
          "name": "",
          "type": "uint256[]"
        },
        {
          "components": [
            {
              "internalType": "uint256",
              "name": "pid",
              "type": "uint256"
            },
            {
              "internalType": "string",
              "name": "content",
              "type": "string"
            },
            {
              "internalType": "string",
              "name": "url",
              "type": "string"
            },
            {
              "internalType": "uint256",
              "name": "tipAmount",
              "type": "uint256"
            },
            {
              "internalType": "address payable",
              "name": "author",
              "type": "address"
            },
            {
              "internalType": "uint256",
              "name": "authorId",
              "type": "uint256"
            },
            {
              "internalType": "string",
              "name": "authorName",
              "type": "string"
            },
            {
              "internalType": "uint256",
              "name": "commentsCount",
              "type": "uint256"
            }
          ],
          "internalType": "struct SocialNetwork.Post[]",
          "name": "",
          "type": "tuple[]"
        }
      ],
      "stateMutability": "nonpayable",
      "type": "function"
    },
    {
      "inputs": [],
      "name": "getAllFollowingIds",
      "outputs": [
        {
          "internalType": "uint256[]",
          "name": "",
          "type": "uint256[]"
        },
        {
          "internalType": "uint256[]",
          "name": "",
          "type": "uint256[]"
        }
      ],
      "stateMutability": "nonpayable",
      "type": "function"
    },
    {
      "inputs": [
        {
          "internalType": "uint256",
          "name": "_uid",
          "type": "uint256"
        }
      ],
      "name": "getUserData",
      "outputs": [
        {
          "internalType": "uint256",
          "name": "",
          "type": "uint256"
        },
        {
          "internalType": "string",
          "name": "",
          "type": "string"
        },
        {
          "internalType": "uint256",
          "name": "",
          "type": "uint256"
        },
        {
          "internalType": "uint256",
          "name": "",
          "type": "uint256"
        },
        {
          "internalType": "uint256",
          "name": "",
          "type": "uint256"
        },
        {
          "internalType": "uint256",
          "name": "",
          "type": "uint256"
        }
      ],
      "stateMutability": "view",
      "type": "function",
      "constant": true
    },
    {
      "inputs": [
        {
          "internalType": "string",
          "name": "_content",
          "type": "string"
        },
        {
          "internalType": "string",
          "name": "_url",
          "type": "string"
        }
      ],
      "name": "createPost",
      "outputs": [],
      "stateMutability": "nonpayable",
      "type": "function"
    },
    {
      "inputs": [
        {
          "internalType": "uint256",
          "name": "_id",
          "type": "uint256"
        }
      ],
      "name": "tipAPost",
      "outputs": [],
      "stateMutability": "payable",
      "type": "function",
      "payable": true
    },
    {
      "inputs": [
        {
          "internalType": "uint256",
          "name": "_pid",
          "type": "uint256"
        },
        {
          "internalType": "string",
          "name": "_comment",
          "type": "string"
        }
      ],
      "name": "createComment",
      "outputs": [],
      "stateMutability": "nonpayable",
      "type": "function"
    },
    {
      "inputs": [
        {
          "internalType": "uint256",
          "name": "_postId",
          "type": "uint256"
        }
      ],
      "name": "fetchAllComments",
      "outputs": [
        {
          "components": [
            {
              "internalType": "uint256",
              "name": "postId",
              "type": "uint256"
            },
            {
              "internalType": "uint256",
              "name": "cid",
              "type": "uint256"
            },
            {
              "internalType": "string",
              "name": "comment",
              "type": "string"
            },
            {
              "internalType": "address",
              "name": "author",
              "type": "address"
            },
            {
              "internalType": "uint256",
              "name": "authorId",
              "type": "uint256"
            },
            {
              "internalType": "string",
              "name": "authorName",
              "type": "string"
            }
          ],
          "internalType": "struct SocialNetwork.Comment[]",
          "name": "",
          "type": "tuple[]"
        }
      ],
      "stateMutability": "view",
      "type": "function",
      "constant": true
    },
    {
      "inputs": [],
      "name": "destroyContract",
      "outputs": [],
      "stateMutability": "nonpayable",
      "type": "function"
    }
  ],
  "bytecode": "0x608060405260006006556000600760006101000a81548161ffff021916908361ffff1602179055503480156200003457600080fd5b50336000806101000a81548173ffffffffffffffffffffffffffffffffffffffff021916908373ffffffffffffffffffffffffffffffffffffffff1602179055506040518060400160405280601381526020017f455448202d20536f6369616c4e6574776f726b0000000000000000000000000081525060019080519060200190620000c2929190620000c9565b50620001de565b828054620000d79062000179565b90600052602060002090601f016020900481019282620000fb576000855562000147565b82601f106200011657805160ff191683800117855562000147565b8280016001018555821562000147579182015b828111156200014657825182559160200191906001019062000129565b5b5090506200015691906200015a565b5090565b5b80821115620001755760008160009055506001016200015b565b5090565b600060028204905060018216806200019257607f821691505b60208210811415620001a957620001a8620001af565b5b50919050565b7f4e487b7100000000000000000000000000000000000000000000000000000000600052602260045260246000fd5b613db880620001ee6000396000f3fe6080604052600436106100fe5760003560e01c80633223e4b8116100955780634a00eb4f116100645780634a00eb4f146103185780635d8d1585146103555780639cb481b214610385578063ad2c48ef146103c2578063d70d88fd146103eb576100fe565b80633223e4b814610274578063392338f51461029d578063392cfec7146102c657806340a17985146102ef576100fe565b8063107bf28c116100d1578063107bf28c146101c057806317906c2e146101eb5780631fef580c146102165780632fc95d7114610258576100fe565b806307973ccf14610103578063092a5cce1461012e578063096568b4146101455780630c1d50cb14610182575b600080fd5b34801561010f57600080fd5b50610118610417565b604051610125919061356c565b60405180910390f35b34801561013a57600080fd5b5061014361042b565b005b34801561015157600080fd5b5061016c60048036038101906101679190612db5565b610564565b6040516101799190613416565b60405180910390f35b34801561018e57600080fd5b506101a960048036038101906101a49190612db5565b610aa5565b6040516101b792919061345a565b60405180910390f35b3480156101cc57600080fd5b506101d5610fa2565b6040516101e291906134c8565b60405180910390f35b3480156101f757600080fd5b50610200611030565b60405161020d9190613587565b60405180910390f35b34801561022257600080fd5b5061023d60048036038101906102389190612db5565b611036565b60405161024f96959493929190613626565b60405180910390f35b610272600480360381019061026d9190612db5565b611123565b005b34801561028057600080fd5b5061029b60048036038101906102969190612db5565b6115be565b005b3480156102a957600080fd5b506102c460048036038101906102bf9190612d49565b6117b1565b005b3480156102d257600080fd5b506102ed60048036038101906102e89190612db5565b611abc565b005b3480156102fb57600080fd5b5061031660048036038101906103119190612dde565b611caf565b005b34801561032457600080fd5b5061033f600480360381019061033a9190612db5565b61218b565b60405161034c919061354a565b60405180910390f35b34801561036157600080fd5b5061036a612408565b60405161037c96959493929190613626565b60405180910390f35b34801561039157600080fd5b506103ac60048036038101906103a79190612cdf565b612539565b6040516103b99190613587565b60405180910390f35b3480156103ce57600080fd5b506103e960048036038101906103e49190612d08565b6125bb565b005b3480156103f757600080fd5b506104006127c4565b60405161040e929190613491565b60405180910390f35b600760009054906101000a900461ffff1681565b3373ffffffffffffffffffffffffffffffffffffffff1660008054906101000a900473ffffffffffffffffffffffffffffffffffffffff1673ffffffffffffffffffffffffffffffffffffffff16146104b9576040517f08c379a00000000000000000000000000000000000000000000000000000000081526004016104b09061352a565b60405180910390fd5b7f1ec0eba9b0e9e969285026819e2b9903c774ac2ea3e68a8123cb3528b39489423360008054906101000a900473ffffffffffffffffffffffffffffffffffffffff1660008054906101000a900473ffffffffffffffffffffffffffffffffffffffff1673ffffffffffffffffffffffffffffffffffffffff1631604051610543939291906133df565b60405180910390a13373ffffffffffffffffffffffffffffffffffffffff16ff5b606060008211801561057857506006548211155b61058157600080fd5b60006002600084815260200190815260200160002060405180610100016040529081600082015481526020016001820180546105bc90613a6d565b80601f01602080910402602001604051908101604052809291908181526020018280546105e890613a6d565b80156106355780601f1061060a57610100808354040283529160200191610635565b820191906000526020600020905b81548152906001019060200180831161061857829003601f168201915b5050505050815260200160028201805461064e90613a6d565b80601f016020809104026020016040519081016040528092919081815260200182805461067a90613a6d565b80156106c75780601f1061069c576101008083540402835291602001916106c7565b820191906000526020600020905b8154815290600101906020018083116106aa57829003601f168201915b50505050508152602001600382015481526020016004820160009054906101000a900473ffffffffffffffffffffffffffffffffffffffff1673ffffffffffffffffffffffffffffffffffffffff1673ffffffffffffffffffffffffffffffffffffffff1681526020016005820154815260200160068201805461074a90613a6d565b80601f016020809104026020016040519081016040528092919081815260200182805461077690613a6d565b80156107c35780601f10610798576101008083540402835291602001916107c3565b820191906000526020600020905b8154815290600101906020018083116107a657829003601f168201915b50505050508152602001600782015481525050905060008160e00151905060008167ffffffffffffffff811115610823577f4e487b7100000000000000000000000000000000000000000000000000000000600052604160045260246000fd5b60405190808252806020026020018201604052801561085c57816020015b610849612b03565b8152602001906001900390816108415790505b509050600080600190505b838111610a98576005600088815260200190815260200160002060008281526020019081526020016000206040518060c001604052908160008201548152602001600182015481526020016002820180546108c190613a6d565b80601f01602080910402602001604051908101604052809291908181526020018280546108ed90613a6d565b801561093a5780601f1061090f5761010080835404028352916020019161093a565b820191906000526020600020905b81548152906001019060200180831161091d57829003601f168201915b505050505081526020016003820160009054906101000a900473ffffffffffffffffffffffffffffffffffffffff1673ffffffffffffffffffffffffffffffffffffffff1673ffffffffffffffffffffffffffffffffffffffff168152602001600482015481526020016005820180546109b390613a6d565b80601f01602080910402602001604051908101604052809291908181526020018280546109df90613a6d565b8015610a2c5780601f10610a0157610100808354040283529160200191610a2c565b820191906000526020600020905b815481529060010190602001808311610a0f57829003601f168201915b505050505081525050838380610a4190613afb565b945081518110610a7a577f4e487b7100000000000000000000000000000000000000000000000000000000600052603260045260246000fd5b60200260200101819052508080610a9090613afb565b915050610867565b5081945050505050919050565b60608060008060006003600087815260200190815260200160002090506000600190505b6006548111610b1c5781600401600082815260200190815260200160002060009054906101000a900460ff1615610b09578380610b0590613afb565b9450505b8080610b1490613afb565b915050610ac9565b5060008367ffffffffffffffff811115610b5f577f4e487b7100000000000000000000000000000000000000000000000000000000600052604160045260246000fd5b604051908082528060200260200182016040528015610b8d5781602001602082028036833780820191505090505b50905060008467ffffffffffffffff811115610bd2577f4e487b7100000000000000000000000000000000000000000000000000000000600052604160045260246000fd5b604051908082528060200260200182016040528015610c0b57816020015b610bf8612b4f565b815260200190600190039081610bf05790505b5090506000600190505b6006548111610f435783600401600082815260200190815260200160002060009054906101000a900460ff1615610f305780838681518110610c80577f4e487b7100000000000000000000000000000000000000000000000000000000600052603260045260246000fd5b602002602001018181525050600260008281526020019081526020016000206040518061010001604052908160008201548152602001600182018054610cc590613a6d565b80601f0160208091040260200160405190810160405280929190818152602001828054610cf190613a6d565b8015610d3e5780601f10610d1357610100808354040283529160200191610d3e565b820191906000526020600020905b815481529060010190602001808311610d2157829003601f168201915b50505050508152602001600282018054610d5790613a6d565b80601f0160208091040260200160405190810160405280929190818152602001828054610d8390613a6d565b8015610dd05780601f10610da557610100808354040283529160200191610dd0565b820191906000526020600020905b815481529060010190602001808311610db357829003601f168201915b50505050508152602001600382015481526020016004820160009054906101000a900473ffffffffffffffffffffffffffffffffffffffff1673ffffffffffffffffffffffffffffffffffffffff1673ffffffffffffffffffffffffffffffffffffffff16815260200160058201548152602001600682018054610e5390613a6d565b80601f0160208091040260200160405190810160405280929190818152602001828054610e7f90613a6d565b8015610ecc5780601f10610ea157610100808354040283529160200191610ecc565b820191906000526020600020905b815481529060010190602001808311610eaf57829003601f168201915b50505050508152602001600782015481525050828680610eeb90613afb565b975081518110610f24577f4e487b7100000000000000000000000000000000000000000000000000000000600052603260045260246000fd5b60200260200101819052505b8080610f3b90613afb565b915050610c15565b503373ffffffffffffffffffffffffffffffffffffffff167fd2365500f72e0836a24bca0665a95120d4f6169769a291786d75fa886cd572e083604051610f8a9190613438565b60405180910390a28181965096505050505050915091565b60018054610faf90613a6d565b80601f0160208091040260200160405190810160405280929190818152602001828054610fdb90613a6d565b80156110285780601f10610ffd57610100808354040283529160200191611028565b820191906000526020600020905b81548152906001019060200180831161100b57829003601f168201915b505050505081565b60065481565b600060606000806000806000871161104d57600080fd5b6000600360008981526020019081526020016000209050806000015481600201826006015483600701548460080154856009015484805461108d90613a6d565b80601f01602080910402602001604051908101604052809291908181526020018280546110b990613a6d565b80156111065780601f106110db57610100808354040283529160200191611106565b820191906000526020600020905b8154815290600101906020018083116110e957829003601f168201915b505050505094509650965096509650965096505091939550919395565b60008111801561113557506006548111155b61113e57600080fd5b600060026000838152602001908152602001600020604051806101000160405290816000820154815260200160018201805461117990613a6d565b80601f01602080910402602001604051908101604052809291908181526020018280546111a590613a6d565b80156111f25780601f106111c7576101008083540402835291602001916111f2565b820191906000526020600020905b8154815290600101906020018083116111d557829003601f168201915b5050505050815260200160028201805461120b90613a6d565b80601f016020809104026020016040519081016040528092919081815260200182805461123790613a6d565b80156112845780601f1061125957610100808354040283529160200191611284565b820191906000526020600020905b81548152906001019060200180831161126757829003601f168201915b50505050508152602001600382015481526020016004820160009054906101000a900473ffffffffffffffffffffffffffffffffffffffff1673ffffffffffffffffffffffffffffffffffffffff1673ffffffffffffffffffffffffffffffffffffffff1681526020016005820154815260200160068201805461130790613a6d565b80601f016020809104026020016040519081016040528092919081815260200182805461133390613a6d565b80156113805780601f1061135557610100808354040283529160200191611380565b820191906000526020600020905b81548152906001019060200180831161136357829003601f168201915b5050505050815260200160078201548152505090506000816080015190508073ffffffffffffffffffffffffffffffffffffffff166108fc349081150290604051600060405180830381858888f193505050501580156113e4573d6000803e3d6000fd5b503482606001516113f591906138fd565b8260600181815250508160026000858152602001908152602001600020600082015181600001556020820151816001019080519060200190611438929190612baa565b506040820151816002019080519060200190611455929190612baa565b506060820151816003015560808201518160040160006101000a81548173ffffffffffffffffffffffffffffffffffffffff021916908373ffffffffffffffffffffffffffffffffffffffff16021790555060a0820151816005015560c08201518160060190805190602001906114cd929190612baa565b5060e082015181600701559050503460036000600460003373ffffffffffffffffffffffffffffffffffffffff1673ffffffffffffffffffffffffffffffffffffffff168152602001908152602001600020548152602001908152602001600020600901600082825461154091906138fd565b9250508190555034600360008460a001518152602001908152602001600020600801600082825461157191906138fd565b925050819055507f857a474f7d18ba7614a11cc88bce5fd9cf05678441e1cb7c7eac53fecf3a8abd6006548360600151836040516115b19392919061368e565b60405180910390a1505050565b600073ffffffffffffffffffffffffffffffffffffffff163373ffffffffffffffffffffffffffffffffffffffff1614156115f857600080fd5b6000600460003373ffffffffffffffffffffffffffffffffffffffff1673ffffffffffffffffffffffffffffffffffffffff1681526020019081526020016000205490508181141561164957600080fd5b600060036000838152602001908152602001600020600701549050600060036000858152602001908152602001600020600601549050600160036000858152602001908152602001600020600501600086815260200190815260200160002060006101000a81548160ff021916908315150217905550600160036000868152602001908152602001600020600301600085815260200190815260200160002060006101000a81548160ff02191690831515021790555060018261170c91906138fd565b600360008581526020019081526020016000206007018190555060018161173391906138fd565b60036000868152602001908152602001600020600601819055503373ffffffffffffffffffffffffffffffffffffffff167f1284e19801ce3def7f6b0025adef283c3cd9ee9bf4a717df2e7af6153517726b848660018661179491906138fd565b6040516117a393929190613770565b60405180910390a250505050565b60008251116117bf57600080fd5b600660008154809291906117d290613afb565b91905055506000600460003373ffffffffffffffffffffffffffffffffffffffff1673ffffffffffffffffffffffffffffffffffffffff1681526020019081526020016000205490506040518061010001604052806006548152602001848152602001604051806060016040528060338152602001613d50603391398152602001600081526020013373ffffffffffffffffffffffffffffffffffffffff16815260200182815260200160036000848152602001908152602001600020600201805461189d90613a6d565b80601f01602080910402602001604051908101604052809291908181526020018280546118c990613a6d565b80156119165780601f106118eb57610100808354040283529160200191611916565b820191906000526020600020905b8154815290600101906020018083116118f957829003601f168201915b505050505081526020016000815250600260006006548152602001908152602001600020600082015181600001556020820151816001019080519060200190611960929190612baa565b50604082015181600201908051906020019061197d929190612baa565b506060820151816003015560808201518160040160006101000a81548173ffffffffffffffffffffffffffffffffffffffff021916908373ffffffffffffffffffffffffffffffffffffffff16021790555060a0820151816005015560c08201518160060190805190602001906119f5929190612baa565b5060e082015181600701559050506001600360008381526020019081526020016000206004016000600654815260200190815260200160002060006101000a81548160ff0219169083151502179055503373ffffffffffffffffffffffffffffffffffffffff167f2fab7d22c558b3256207695703b5c832f1a661de05ca9d69c2638097841b60a2600654858560003387600360008a8152602001908152602001600020600201604051611aaf97969594939291906135a2565b60405180910390a2505050565b600073ffffffffffffffffffffffffffffffffffffffff163373ffffffffffffffffffffffffffffffffffffffff161415611af657600080fd5b6000600460003373ffffffffffffffffffffffffffffffffffffffff1673ffffffffffffffffffffffffffffffffffffffff16815260200190815260200160002054905081811415611b4757600080fd5b600060036000838152602001908152602001600020600701549050600060036000858152602001908152602001600020600601549050600060036000858152602001908152602001600020600501600086815260200190815260200160002060006101000a81548160ff021916908315150217905550600182611bca9190613953565b6003600085815260200190815260200160002060070181905550600060036000868152602001908152602001600020600301600085815260200190815260200160002060006101000a81548160ff021916908315150217905550600181611c319190613953565b60036000868152602001908152602001600020600601819055503373ffffffffffffffffffffffffffffffffffffffff167f1284e19801ce3def7f6b0025adef283c3cd9ee9bf4a717df2e7af6153517726b8486600186611c929190613953565b604051611ca193929190613726565b60405180910390a250505050565b600082118015611cc157506006548211155b611cca57600080fd5b6000600260008481526020019081526020016000206040518061010001604052908160008201548152602001600182018054611d0590613a6d565b80601f0160208091040260200160405190810160405280929190818152602001828054611d3190613a6d565b8015611d7e5780601f10611d5357610100808354040283529160200191611d7e565b820191906000526020600020905b815481529060010190602001808311611d6157829003601f168201915b50505050508152602001600282018054611d9790613a6d565b80601f0160208091040260200160405190810160405280929190818152602001828054611dc390613a6d565b8015611e105780601f10611de557610100808354040283529160200191611e10565b820191906000526020600020905b815481529060010190602001808311611df357829003601f168201915b50505050508152602001600382015481526020016004820160009054906101000a900473ffffffffffffffffffffffffffffffffffffffff1673ffffffffffffffffffffffffffffffffffffffff1673ffffffffffffffffffffffffffffffffffffffff16815260200160058201548152602001600682018054611e9390613a6d565b80601f0160208091040260200160405190810160405280929190818152602001828054611ebf90613a6d565b8015611f0c5780601f10611ee157610100808354040283529160200191611f0c565b820191906000526020600020905b815481529060010190602001808311611eef57829003601f168201915b50505050508152602001600782015481525050905060008160e0015190508080611f3590613afb565b915050600060036000600460003373ffffffffffffffffffffffffffffffffffffffff1673ffffffffffffffffffffffffffffffffffffffff16815260200190815260200160002054815260200190815260200160002090506040518060c001604052808681526020018381526020018581526020013373ffffffffffffffffffffffffffffffffffffffff16815260200182600001548152602001826002018054611fe090613a6d565b80601f016020809104026020016040519081016040528092919081815260200182805461200c90613a6d565b80156120595780601f1061202e57610100808354040283529160200191612059565b820191906000526020600020905b81548152906001019060200180831161203c57829003601f168201915b5050505050815250600560008781526020019081526020016000206000848152602001908152602001600020600082015181600001556020820151816001015560408201518160020190805190602001906120b5929190612baa565b5060608201518160030160006101000a81548173ffffffffffffffffffffffffffffffffffffffff021916908373ffffffffffffffffffffffffffffffffffffffff1602179055506080820151816004015560a0820151816005019080519060200190612123929190612baa565b509050508160026000878152602001908152602001600020600701819055507f091c43fe8acad66152ac39b09b3cdf1e435cf052695a5020ae486ec31b653769858386338560020160405161217c9594939291906136c5565b60405180910390a15050505050565b612193612b4f565b6000821180156121a557506006548211155b6121ae57600080fd5b6002600083815260200190815260200160002060405180610100016040529081600082015481526020016001820180546121e790613a6d565b80601f016020809104026020016040519081016040528092919081815260200182805461221390613a6d565b80156122605780601f1061223557610100808354040283529160200191612260565b820191906000526020600020905b81548152906001019060200180831161224357829003601f168201915b5050505050815260200160028201805461227990613a6d565b80601f01602080910402602001604051908101604052809291908181526020018280546122a590613a6d565b80156122f25780601f106122c7576101008083540402835291602001916122f2565b820191906000526020600020905b8154815290600101906020018083116122d557829003601f168201915b50505050508152602001600382015481526020016004820160009054906101000a900473ffffffffffffffffffffffffffffffffffffffff1673ffffffffffffffffffffffffffffffffffffffff1673ffffffffffffffffffffffffffffffffffffffff1681526020016005820154815260200160068201805461237590613a6d565b80601f01602080910402602001604051908101604052809291908181526020018280546123a190613a6d565b80156123ee5780601f106123c3576101008083540402835291602001916123ee565b820191906000526020600020905b8154815290600101906020018083116123d157829003601f168201915b505050505081526020016007820154815250509050919050565b600060606000806000806000600460003373ffffffffffffffffffffffffffffffffffffffff1673ffffffffffffffffffffffffffffffffffffffff1681526020019081526020016000205490506000811161246357600080fd5b600060036000838152602001908152602001600020905080600001548160020182600601548360070154846008015485600901548480546124a390613a6d565b80601f01602080910402602001604051908101604052809291908181526020018280546124cf90613a6d565b801561251c5780601f106124f15761010080835404028352916020019161251c565b820191906000526020600020905b8154815290600101906020018083116124ff57829003601f168201915b505050505094509750975097509750975097505050909192939495565b60008073ffffffffffffffffffffffffffffffffffffffff163373ffffffffffffffffffffffffffffffffffffffff16141561257457600080fd5b600460008373ffffffffffffffffffffffffffffffffffffffff1673ffffffffffffffffffffffffffffffffffffffff168152602001908152602001600020549050919050565b60008151116125c957600080fd5b6007600081819054906101000a900461ffff16809291906125e990613ad0565b91906101000a81548161ffff021916908361ffff16021790555050600060036000600760009054906101000a900461ffff1661ffff16815260200190815260200160002090503373ffffffffffffffffffffffffffffffffffffffff167f86bccb58d5cc5d9545f467598d37d93ecb638f74090cce7c33c9d02ea467172b6040516126739061350a565b60405180910390a2600760009054906101000a900461ffff1661ffff168160000181905550818160020190805190602001906126b0929190612baa565b50338160010160006101000a81548173ffffffffffffffffffffffffffffffffffffffff021916908373ffffffffffffffffffffffffffffffffffffffff16021790555060008160060181905550600081600701819055506000816008018190555060008160090181905550600760009054906101000a900461ffff1661ffff16600460003373ffffffffffffffffffffffffffffffffffffffff1673ffffffffffffffffffffffffffffffffffffffff168152602001908152602001600020819055503373ffffffffffffffffffffffffffffffffffffffff167f86bccb58d5cc5d9545f467598d37d93ecb638f74090cce7c33c9d02ea467172b6040516127b8906134ea565b60405180910390a25050565b6060806000600460003373ffffffffffffffffffffffffffffffffffffffff1673ffffffffffffffffffffffffffffffffffffffff16815260200190815260200160002054905060008111801561282f5750600760009054906101000a900461ffff1661ffff168111155b61283857600080fd5b60006003600083815260200190815260200160002090506000816007015467ffffffffffffffff811115612895577f4e487b7100000000000000000000000000000000000000000000000000000000600052604160045260246000fd5b6040519080825280602002602001820160405280156128c35781602001602082028036833780820191505090505b5090506000826006015467ffffffffffffffff81111561290c577f4e487b7100000000000000000000000000000000000000000000000000000000600052604160045260246000fd5b60405190808252806020026020018201604052801561293a5781602001602082028036833780820191505090505b509050600080600190505b600760009054906101000a900461ffff1661ffff1681116129ee5784600501600082815260200190815260200160002060009054906101000a900460ff16156129db578084838061299590613afb565b9450815181106129ce577f4e487b7100000000000000000000000000000000000000000000000000000000600052603260045260246000fd5b6020026020010181815250505b80806129e690613afb565b915050612945565b50600090506000600190505b600760009054906101000a900461ffff1661ffff168111612aa35784600301600082815260200190815260200160002060009054906101000a900460ff1615612a905780838380612a4a90613afb565b945081518110612a83577f4e487b7100000000000000000000000000000000000000000000000000000000600052603260045260246000fd5b6020026020010181815250505b8080612a9b90613afb565b9150506129fa565b503373ffffffffffffffffffffffffffffffffffffffff167f7ebbc67615cdacc372a2a97e3016a3233043ce2d9e92b32fbe3390c0c7286e128484604051612aec929190613491565b60405180910390a282829650965050505050509091565b6040518060c00160405280600081526020016000815260200160608152602001600073ffffffffffffffffffffffffffffffffffffffff16815260200160008152602001606081525090565b60405180610100016040528060008152602001606081526020016060815260200160008152602001600073ffffffffffffffffffffffffffffffffffffffff1681526020016000815260200160608152602001600081525090565b828054612bb690613a6d565b90600052602060002090601f016020900481019282612bd85760008555612c1f565b82601f10612bf157805160ff1916838001178555612c1f565b82800160010185558215612c1f579182015b82811115612c1e578251825591602001919060010190612c03565b5b509050612c2c9190612c30565b5090565b5b80821115612c49576000816000905550600101612c31565b5090565b6000612c60612c5b846137df565b6137ba565b905082815260208101848484011115612c7857600080fd5b612c83848285613a2b565b509392505050565b600081359050612c9a81613d21565b92915050565b600082601f830112612cb157600080fd5b8135612cc1848260208601612c4d565b91505092915050565b600081359050612cd981613d38565b92915050565b600060208284031215612cf157600080fd5b6000612cff84828501612c8b565b91505092915050565b600060208284031215612d1a57600080fd5b600082013567ffffffffffffffff811115612d3457600080fd5b612d4084828501612ca0565b91505092915050565b60008060408385031215612d5c57600080fd5b600083013567ffffffffffffffff811115612d7657600080fd5b612d8285828601612ca0565b925050602083013567ffffffffffffffff811115612d9f57600080fd5b612dab85828601612ca0565b9150509250929050565b600060208284031215612dc757600080fd5b6000612dd584828501612cca565b91505092915050565b60008060408385031215612df157600080fd5b6000612dff85828601612cca565b925050602083013567ffffffffffffffff811115612e1c57600080fd5b612e2885828601612ca0565b9150509250929050565b6000612e3e83836131a6565b905092915050565b6000612e528383613236565b905092915050565b6000612e6683836133c1565b60208301905092915050565b612e7b816139e3565b82525050565b612e8a81613999565b82525050565b612e9981613987565b82525050565b612ea881613987565b82525050565b6000612eb982613855565b612ec381856138a8565b935083602082028501612ed585613810565b8060005b85811015612f115784840389528151612ef28582612e32565b9450612efd83613881565b925060208a01995050600181019050612ed9565b50829750879550505050505092915050565b6000612f2e82613860565b612f3881856138b9565b935083602082028501612f4a85613820565b8060005b85811015612f865784840389528151612f678582612e46565b9450612f728361388e565b925060208a01995050600181019050612f4e565b50829750879550505050505092915050565b6000612fa38261386b565b612fad81856138ca565b9350612fb883613830565b8060005b83811015612fe9578151612fd08882612e5a565b9750612fdb8361389b565b925050600181019050612fbc565b5085935050505092915050565b612fff816139f5565b82525050565b600061301082613876565b61301a81856138db565b935061302a818560208601613a3a565b61303381613bd1565b840191505092915050565b600061304982613876565b61305381856138ec565b9350613063818560208601613a3a565b61306c81613bd1565b840191505092915050565b6000815461308481613a6d565b61308e81866138ec565b945060018216600081146130a957600181146130bb576130ee565b60ff19831686526020860193506130ee565b6130c485613840565b60005b838110156130e6578154818901526001820191506020810190506130c7565b808801955050505b50505092915050565b60006131046025836138ec565b915061310f82613be2565b604082019050919050565b6000613127600c836138ec565b915061313282613c31565b602082019050919050565b600061314a6023836138ec565b915061315582613c5a565b604082019050919050565b600061316d600d836138ec565b915061317882613ca9565b602082019050919050565b60006131906030836138ec565b915061319b82613cd2565b604082019050919050565b600060c0830160008301516131be60008601826133c1565b5060208301516131d160208601826133c1565b50604083015184820360408601526131e98282613005565b91505060608301516131fe6060860182612e90565b50608083015161321160808601826133c1565b5060a083015184820360a08601526132298282613005565b9150508091505092915050565b60006101008301600083015161324f60008601826133c1565b50602083015184820360208601526132678282613005565b915050604083015184820360408601526132818282613005565b915050606083015161329660608601826133c1565b5060808301516132a96080860182612e81565b5060a08301516132bc60a08601826133c1565b5060c083015184820360c08601526132d48282613005565b91505060e08301516132e960e08601826133c1565b508091505092915050565b60006101008301600083015161330d60008601826133c1565b50602083015184820360208601526133258282613005565b9150506040830151848203604086015261333f8282613005565b915050606083015161335460608601826133c1565b5060808301516133676080860182612e81565b5060a083015161337a60a08601826133c1565b5060c083015184820360c08601526133928282613005565b91505060e08301516133a760e08601826133c1565b508091505092915050565b6133bb816139ab565b82525050565b6133ca816139d9565b82525050565b6133d9816139d9565b82525050565b60006060820190506133f46000830186612e9f565b6134016020830185612e9f565b61340e60408301846133d0565b949350505050565b600060208201905081810360008301526134308184612eae565b905092915050565b600060208201905081810360008301526134528184612f98565b905092915050565b600060408201905081810360008301526134748185612f98565b905081810360208301526134888184612f23565b90509392505050565b600060408201905081810360008301526134ab8185612f98565b905081810360208301526134bf8184612f98565b90509392505050565b600060208201905081810360008301526134e2818461303e565b905092915050565b600060208201905081810360008301526135038161311a565b9050919050565b6000602082019050818103600083015261352381613160565b9050919050565b6000602082019050818103600083015261354381613183565b9050919050565b6000602082019050818103600083015261356481846132f4565b905092915050565b600060208201905061358160008301846133b2565b92915050565b600060208201905061359c60008301846133d0565b92915050565b600060e0820190506135b7600083018a6133d0565b81810360208301526135c9818961303e565b905081810360408301526135dd818861303e565b90506135ec6060830187612ff6565b6135f96080830186612e9f565b61360660a08301856133d0565b81810360c08301526136188184613077565b905098975050505050505050565b600060c08201905061363b60008301896133d0565b818103602083015261364d818861303e565b905061365c60408301876133d0565b61366960608301866133d0565b61367660808301856133d0565b61368360a08301846133d0565b979650505050505050565b60006060820190506136a360008301866133d0565b6136b060208301856133d0565b6136bd6040830184612e72565b949350505050565b600060a0820190506136da60008301886133d0565b6136e760208301876133d0565b81810360408301526136f9818661303e565b90506137086060830185612e9f565b818103608083015261371a8184613077565b90509695505050505050565b600060808201905061373b60008301866133d0565b61374860208301856133d0565b8181036040830152613759816130f7565b905061376860608301846133d0565b949350505050565b600060808201905061378560008301866133d0565b61379260208301856133d0565b81810360408301526137a38161313d565b90506137b260608301846133d0565b949350505050565b60006137c46137d5565b90506137d08282613a9f565b919050565b6000604051905090565b600067ffffffffffffffff8211156137fa576137f9613ba2565b5b61380382613bd1565b9050602081019050919050565b6000819050602082019050919050565b6000819050602082019050919050565b6000819050602082019050919050565b60008190508160005260206000209050919050565b600081519050919050565b600081519050919050565b600081519050919050565b600081519050919050565b6000602082019050919050565b6000602082019050919050565b6000602082019050919050565b600082825260208201905092915050565b600082825260208201905092915050565b600082825260208201905092915050565b600082825260208201905092915050565b600082825260208201905092915050565b6000613908826139d9565b9150613913836139d9565b9250827fffffffffffffffffffffffffffffffffffffffffffffffffffffffffffffffff0382111561394857613947613b44565b5b828201905092915050565b600061395e826139d9565b9150613969836139d9565b92508282101561397c5761397b613b44565b5b828203905092915050565b6000613992826139b9565b9050919050565b60006139a4826139b9565b9050919050565b600061ffff82169050919050565b600073ffffffffffffffffffffffffffffffffffffffff82169050919050565b6000819050919050565b60006139ee82613a07565b9050919050565b6000613a00826139d9565b9050919050565b6000613a1282613a19565b9050919050565b6000613a24826139b9565b9050919050565b82818337600083830152505050565b60005b83811015613a58578082015181840152602081019050613a3d565b83811115613a67576000848401525b50505050565b60006002820490506001821680613a8557607f821691505b60208210811415613a9957613a98613b73565b5b50919050565b613aa882613bd1565b810181811067ffffffffffffffff82111715613ac757613ac6613ba2565b5b80604052505050565b6000613adb826139ab565b915061ffff821415613af057613aef613b44565b5b600182019050919050565b6000613b06826139d9565b91507fffffffffffffffffffffffffffffffffffffffffffffffffffffffffffffffff821415613b3957613b38613b44565b5b600182019050919050565b7f4e487b7100000000000000000000000000000000000000000000000000000000600052601160045260246000fd5b7f4e487b7100000000000000000000000000000000000000000000000000000000600052602260045260246000fd5b7f4e487b7100000000000000000000000000000000000000000000000000000000600052604160045260246000fd5b6000601f19601f8301169050919050565b7f556e466f6c6c6f77696e672074686520617574686f722077697468206e65772060008201527f636f756e74000000000000000000000000000000000000000000000000000000602082015250565b7f5573657220437265617465640000000000000000000000000000000000000000600082015250565b7f466f6c6c6f77696e672074686520617574686f722077697468206e657720636f60008201527f756e740000000000000000000000000000000000000000000000000000000000602082015250565b7f4372656174696e67205573657200000000000000000000000000000000000000600082015250565b7f4f6e6c792074686520636f6e7472616374206f776e65722063616e206465737460008201527f726f792074686520636f6e747261637400000000000000000000000000000000602082015250565b613d2a81613987565b8114613d3557600080fd5b50565b613d41816139d9565b8114613d4c57600080fd5b5056fe68747470733a2f2f6769746875622e636f6d2f5072617665656e50696e2f53696d706c652d536f6369616c2d4e6574776f726ba26469706673582212201af2ab17c79e7485608a2cfa059653313942df86580e68d2bb139ae8b887e8cf64736f6c63430008010033",
  "immutableReferences": {},
  "source": "pragma solidity ^0.8.0;\r\n\r\nimport './owned.sol';\r\n\r\ncontract SocialNetwork is owned{\r\n    /*Add code */\r\n    string public networkName; /* State variable -> this value gets stored on block chain*/\r\n    // we cannot know the length of any map and cannot iterate over it, we can only fetch individually\r\n    mapping(uint => Post) posts;/* Key Value Store, gets written to block chain itself */\r\n    mapping(uint => User) users;\r\n    mapping(address => uint) addressToUid;\r\n    mapping(uint => mapping(uint => Comment)) comments;\r\n\r\n    uint public postCount = 0;\r\n    uint16 public userCount = 0;\r\n\r\n    struct User{\r\n        uint id;\r\n        address userAddress;\r\n        string name;        \r\n        mapping(uint => bool) followerIds;\r\n        mapping(uint => bool) myPostIds; //not user's id\r\n        mapping(uint => bool) followingIds;\r\n        uint followersCount;\r\n        uint followingCount;\r\n        uint tipObtained;\r\n        uint tipDonated;\r\n    } \r\n\r\n    struct Post{\r\n        uint pid;\r\n        string content;\r\n        string url;\r\n        uint tipAmount;\r\n        address payable author;\r\n        uint authorId;\r\n        string authorName;\r\n        uint commentsCount;\r\n    }\r\n\r\n    struct Comment{\r\n        uint postId;\r\n        uint cid;\r\n        string comment;\r\n        address author;\r\n        uint authorId;\r\n        string authorName;\r\n    }\r\n\r\n    constructor () {\r\n        networkName = \"ETH - SocialNetwork\";\r\n    }\r\n\r\n    //events for creating user, following a user, unfollowing a user\r\n    event AutoCreateUser(address indexed sender, string message);\r\n    event FollowOrUnFollowUser(address indexed sender, uint senderId, uint author, string message, uint count);\r\n\r\n    function getUserIdFromAddress(address _userAddress) public checkAddress view returns (uint){\r\n        return addressToUid[_userAddress];\r\n    }\r\n\r\n    function getPostFromPostId(uint _postId) public view returns (Post memory){\r\n        require(_postId > 0 && _postId <= postCount);\r\n        return posts[_postId];\r\n    }\r\n\r\n    function autoCreateUser(string memory _uname) public {        \r\n        require(bytes(_uname).length > 0);\r\n        userCount++;\r\n        User storage _user = users[userCount];\r\n        emit AutoCreateUser(msg.sender, \"Creating User\");            \r\n        _user.id = userCount;\r\n        _user.name = _uname;\r\n        _user.userAddress = msg.sender;\r\n        _user.followersCount = 0;\r\n        _user.followingCount = 0;\r\n        _user.tipObtained = 0;\r\n        _user.tipDonated = 0;\r\n        addressToUid[msg.sender] = userCount;\r\n        emit AutoCreateUser(msg.sender, \"User Created\");\r\n    }\r\n\r\n    function getUserInfo() public view returns (uint, string memory, uint, uint, uint, uint){     \r\n        uint _userId = addressToUid[msg.sender];\r\n        require(_userId > 0);   \r\n        User storage _user = users[_userId];\r\n        return (_user.id, _user.name, _user.followersCount, _user.followingCount, _user.tipObtained, _user.tipDonated);\r\n    }\r\n\r\n    function followAuthor(uint _authorId) public checkAddress{\r\n        uint senderId = addressToUid[msg.sender];\r\n        require(senderId != _authorId);\r\n        uint followingCount = users[senderId].followingCount;\r\n        uint authorsFollowersCount = users[_authorId].followersCount;\r\n        users[senderId].followingIds[_authorId] = true;\r\n        users[_authorId].followerIds[senderId] = true;\r\n        users[senderId].followingCount = followingCount+1;\r\n        users[_authorId].followersCount = authorsFollowersCount+1;\r\n        emit FollowOrUnFollowUser(msg.sender, senderId, _authorId, \"Following the author with new count\", followingCount+1);\r\n    }\r\n\r\n    function unFollowAuthor(uint _authorId) public checkAddress{\r\n        uint senderId = addressToUid[msg.sender];\r\n        require(senderId != _authorId);\r\n        uint followingCount = users[senderId].followingCount;\r\n        uint authorsFollowersCount = users[_authorId].followersCount;\r\n        users[senderId].followingIds[_authorId] = false;\r\n        users[senderId].followingCount = followingCount-1;\r\n        users[_authorId].followerIds[senderId] = false;\r\n        users[_authorId].followersCount = authorsFollowersCount-1;\r\n        emit FollowOrUnFollowUser(msg.sender, senderId, _authorId, \"UnFollowing the author with new count\", followingCount -1);\r\n    }\r\n\r\n    event FetchMyPosts(address indexed addr, uint[] myPostIds);\r\n\r\n    event FetchMyNetworkIds(address indexed sender, uint[] followingIds, uint[] followerIds);\r\n\r\n    function getMyPosts(uint _id) public returns (uint[] memory, Post[] memory){        \r\n        uint myPostCount = 0;\r\n        uint counter = 0;\r\n\r\n        User storage _user = users[_id];\r\n        for (uint i = 1; i <= postCount; i++){\r\n            if(_user.myPostIds[i]){\r\n                myPostCount++;\r\n            }\r\n        }\r\n        \r\n        uint[] memory postIds = new uint[](myPostCount);\r\n        Post[] memory myPosts = new Post[](myPostCount);\r\n        \r\n        for (uint i = 1; i <= postCount; i++){\r\n            if(_user.myPostIds[i]){\r\n                postIds[counter] = i;\r\n                myPosts[counter++] = posts[i];\r\n            }\r\n        }\r\n        emit FetchMyPosts(msg.sender,postIds);\r\n        return (postIds, myPosts);\r\n    }\r\n\r\n    function getAllFollowingIds() public returns (uint[] memory, uint[] memory){\r\n        uint myId = addressToUid[msg.sender];\r\n        require(myId > 0 && myId <= userCount);\r\n        User storage _user = users[myId];\r\n        uint[] memory followingIds = new uint[](_user.followingCount);\r\n        uint[] memory followerIds = new uint[](_user.followersCount);\r\n        uint counter = 0;\r\n        for (uint i = 1; i <= userCount; i++){\r\n            if(_user.followingIds[i]){\r\n                followingIds[counter++] = i;\r\n            }\r\n        }\r\n        counter = 0;\r\n        for (uint i = 1; i <= userCount; i++){\r\n            if(_user.followerIds[i]){\r\n                followerIds[counter++] = i;\r\n            }\r\n        }\r\n        emit FetchMyNetworkIds(msg.sender,followingIds,followerIds);\r\n        return (followingIds,followerIds);\r\n    }\r\n\r\n    function getUserData(uint _uid) public view returns (uint, string memory, uint, uint, uint, uint){     \r\n        require(_uid > 0);   \r\n        User storage _user = users[_uid];\r\n        return (_user.id, _user.name, _user.followersCount, _user.followingCount, _user.tipObtained, _user.tipDonated);\r\n    }\r\n\r\n    event PostCreated(address indexed id, uint pid, string content, string url, uint tipAmount, address author, uint authorId, string authorName);\r\n\r\n    function createPost(string memory _content, string memory _url) public{ \r\n        //require valid content\r\n        require(bytes(_content).length > 0); //if false it stops execution and gas used will be refunded back to caller, else continues execution\r\n        \r\n        /* Here _content is a local var and underscore is just a conventions for local vars*/\r\n        postCount++;        \r\n        uint userId = addressToUid[msg.sender];\r\n        posts[postCount] = Post(postCount, _content, \"https://github.com/PraveenPin/Simple-Social-Network\", 0, payable(msg.sender), userId, users[userId].name, 0); /* Instantiates Post, adds it into map */        \r\n        //adding the post id to the user\r\n        users[userId].myPostIds[postCount] = true;\r\n\r\n        //Trigger event from solidity smart contracts\r\n        //these posts can be open for subscription by consumers\r\n        emit PostCreated(msg.sender,postCount, _content, _url, 0, msg.sender, userId, users[userId].name);\r\n    }\r\n\r\n    event PostTipped(uint pid, uint tipAmount, address author);\r\n\r\n    function tipAPost(uint _id) public payable {\r\n        require(_id > 0 && _id <= postCount);\r\n        Post memory _post = posts[_id];\r\n        address payable _author = _post.author;\r\n        //paying the author by sending ether\r\n        payable(address(_author)).transfer(msg.value);\r\n        //here the tip should be ether, so we use function meta data\r\n        _post.tipAmount = _post.tipAmount + msg.value;\r\n        posts[_id] = _post;\r\n        \r\n        //add tip amount to user donation\r\n        users[addressToUid[msg.sender]].tipDonated += msg.value;\r\n        //add tip amount to author's obtained tip\r\n        users[_post.authorId].tipObtained += msg.value;\r\n        emit PostTipped(postCount, _post.tipAmount, _author);\r\n    }\r\n\r\n    //functions, events to create and delete comments\r\n    event CommentDeleted(uint pid, uint cid, string deletedComment, address commentAuthor, string authorName);\r\n    event CommentCreated(uint pid, uint cid, string comment, address commentedUser, string authorName);\r\n\r\n    function createComment(uint _pid, string memory _comment) public {\r\n        require(_pid > 0 && _pid <= postCount);\r\n        Post memory _post = posts[_pid];\r\n        uint commentsCount = _post.commentsCount;\r\n        commentsCount++;\r\n        User storage _user = users[addressToUid[msg.sender]];\r\n        comments[_pid][commentsCount] = Comment(_pid, commentsCount, _comment, msg.sender, _user.id, _user.name);\r\n        posts[_pid].commentsCount = commentsCount;\r\n        emit CommentCreated(_pid, commentsCount, _comment, msg.sender, _user.name);\r\n    }\r\n\r\n    function fetchAllComments(uint _postId) public view returns (Comment[] memory){\r\n        require(_postId > 0 && _postId <= postCount);\r\n        Post memory _post = posts[_postId];\r\n        uint commentsCount = _post.commentsCount;\r\n        Comment[] memory postComments = new Comment[](commentsCount);\r\n        uint counter = 0;\r\n        for(uint i=1; i<= commentsCount; i++){\r\n            postComments[counter++] = comments[_postId][i];\r\n        }\r\n        return postComments;\r\n    }\r\n\r\n    //self destruct event \r\n    event DestroyContract(address sender, address caller, uint balance);\r\n\r\n    function destroyContract() public onlyOwner{\r\n        emit DestroyContract(msg.sender, owner, owner.balance);\r\n        selfdestruct(payable(msg.sender));\r\n    }\r\n\r\n}",
  "sourcePath": "C:/Users/praveen/Desktop/Eth-Project/Simple-Social-Network/src/contracts/SocialNetwork.sol",
  "compiler": {
    "name": "solc",
    "version": "0.8.1+commit.df193b15.Emscripten.clang"
  },
  "schemaVersion": "3.4.1",
  "updatedAt": "2021-06-09T05:08:11.482Z",
  "networkType": "ethereum",
  "devdoc": {
    "kind": "dev",
    "methods": {},
    "version": 1
  },
  "userdoc": {
    "kind": "user",
    "methods": {},
    "version": 1
  }
}