{
  "contractName": "SocialNetwork",
  "abi": [
    {
      "inputs": [],
      "stateMutability": "nonpayable",
      "type": "constructor"
    },
    {
      "anonymous": false,
      "inputs": [
        {
          "indexed": true,
          "internalType": "address",
          "name": "sender",
          "type": "address"
        },
        {
          "indexed": false,
          "internalType": "string",
          "name": "message",
          "type": "string"
        }
      ],
      "name": "AutoCreateUser",
      "type": "event"
    },
    {
      "anonymous": false,
      "inputs": [
        {
          "indexed": false,
          "internalType": "address",
          "name": "sender",
          "type": "address"
        },
        {
          "indexed": false,
          "internalType": "address",
          "name": "caller",
          "type": "address"
        },
        {
          "indexed": false,
          "internalType": "uint256",
          "name": "balance",
          "type": "uint256"
        }
      ],
      "name": "DestroyContract",
      "type": "event"
    },
    {
      "anonymous": false,
      "inputs": [
        {
          "indexed": true,
          "internalType": "address",
          "name": "sender",
          "type": "address"
        },
        {
          "indexed": false,
          "internalType": "uint256[]",
          "name": "followingIds",
          "type": "uint256[]"
        },
        {
          "indexed": false,
          "internalType": "uint256[]",
          "name": "followerIds",
          "type": "uint256[]"
        }
      ],
      "name": "FetchMyNetworkIds",
      "type": "event"
    },
    {
      "anonymous": false,
      "inputs": [
        {
          "indexed": true,
          "internalType": "address",
          "name": "addr",
          "type": "address"
        },
        {
          "indexed": false,
          "internalType": "uint256[]",
          "name": "myPostIds",
          "type": "uint256[]"
        }
      ],
      "name": "FetchMyPosts",
      "type": "event"
    },
    {
      "anonymous": false,
      "inputs": [
        {
          "indexed": true,
          "internalType": "address",
          "name": "sender",
          "type": "address"
        },
        {
          "indexed": false,
          "internalType": "uint256",
          "name": "senderId",
          "type": "uint256"
        },
        {
          "indexed": false,
          "internalType": "uint256",
          "name": "author",
          "type": "uint256"
        },
        {
          "indexed": false,
          "internalType": "string",
          "name": "message",
          "type": "string"
        },
        {
          "indexed": false,
          "internalType": "uint256",
          "name": "count",
          "type": "uint256"
        }
      ],
      "name": "FollowOrUnFollowUser",
      "type": "event"
    },
    {
      "anonymous": false,
      "inputs": [
        {
          "indexed": true,
          "internalType": "address",
          "name": "id",
          "type": "address"
        },
        {
          "indexed": false,
          "internalType": "uint256",
          "name": "pid",
          "type": "uint256"
        },
        {
          "indexed": false,
          "internalType": "string",
          "name": "content",
          "type": "string"
        },
        {
          "indexed": false,
          "internalType": "string",
          "name": "url",
          "type": "string"
        },
        {
          "indexed": false,
          "internalType": "uint256",
          "name": "tipAmount",
          "type": "uint256"
        },
        {
          "indexed": false,
          "internalType": "address",
          "name": "author",
          "type": "address"
        }
      ],
      "name": "PostCreated",
      "type": "event"
    },
    {
      "anonymous": false,
      "inputs": [
        {
          "indexed": false,
          "internalType": "uint256",
          "name": "pid",
          "type": "uint256"
        },
        {
          "indexed": false,
          "internalType": "uint256",
          "name": "tipAmount",
          "type": "uint256"
        },
        {
          "indexed": false,
          "internalType": "address",
          "name": "author",
          "type": "address"
        }
      ],
      "name": "PostTipped",
      "type": "event"
    },
    {
      "inputs": [
        {
          "internalType": "address",
          "name": "",
          "type": "address"
        }
      ],
      "name": "addressToUid",
      "outputs": [
        {
          "internalType": "uint256",
          "name": "",
          "type": "uint256"
        }
      ],
      "stateMutability": "view",
      "type": "function",
      "constant": true
    },
    {
      "inputs": [],
      "name": "networkName",
      "outputs": [
        {
          "internalType": "string",
          "name": "",
          "type": "string"
        }
      ],
      "stateMutability": "view",
      "type": "function",
      "constant": true
    },
    {
      "inputs": [],
      "name": "postCount",
      "outputs": [
        {
          "internalType": "uint256",
          "name": "",
          "type": "uint256"
        }
      ],
      "stateMutability": "view",
      "type": "function",
      "constant": true
    },
    {
      "inputs": [
        {
          "internalType": "uint256",
          "name": "",
          "type": "uint256"
        }
      ],
      "name": "posts",
      "outputs": [
        {
          "internalType": "uint256",
          "name": "pid",
          "type": "uint256"
        },
        {
          "internalType": "string",
          "name": "content",
          "type": "string"
        },
        {
          "internalType": "string",
          "name": "url",
          "type": "string"
        },
        {
          "internalType": "uint256",
          "name": "tipAmount",
          "type": "uint256"
        },
        {
          "internalType": "address payable",
          "name": "author",
          "type": "address"
        },
        {
          "internalType": "uint256",
          "name": "authorId",
          "type": "uint256"
        }
      ],
      "stateMutability": "view",
      "type": "function",
      "constant": true
    },
    {
      "inputs": [],
      "name": "userCount",
      "outputs": [
        {
          "internalType": "uint16",
          "name": "",
          "type": "uint16"
        }
      ],
      "stateMutability": "view",
      "type": "function",
      "constant": true
    },
    {
      "inputs": [
        {
          "internalType": "uint256",
          "name": "",
          "type": "uint256"
        }
      ],
      "name": "users",
      "outputs": [
        {
          "internalType": "uint256",
          "name": "id",
          "type": "uint256"
        },
        {
          "internalType": "address",
          "name": "userAddress",
          "type": "address"
        },
        {
          "internalType": "string",
          "name": "name",
          "type": "string"
        },
        {
          "internalType": "uint256",
          "name": "followersCount",
          "type": "uint256"
        },
        {
          "internalType": "uint256",
          "name": "followingCount",
          "type": "uint256"
        },
        {
          "internalType": "uint256",
          "name": "tipObtained",
          "type": "uint256"
        },
        {
          "internalType": "uint256",
          "name": "tipDonated",
          "type": "uint256"
        }
      ],
      "stateMutability": "view",
      "type": "function",
      "constant": true
    },
    {
      "inputs": [
        {
          "internalType": "string",
          "name": "_uname",
          "type": "string"
        }
      ],
      "name": "autoCreateUser",
      "outputs": [],
      "stateMutability": "nonpayable",
      "type": "function"
    },
    {
      "inputs": [],
      "name": "getUserInfo",
      "outputs": [
        {
          "internalType": "uint256",
          "name": "",
          "type": "uint256"
        },
        {
          "internalType": "string",
          "name": "",
          "type": "string"
        },
        {
          "internalType": "uint256",
          "name": "",
          "type": "uint256"
        },
        {
          "internalType": "uint256",
          "name": "",
          "type": "uint256"
        },
        {
          "internalType": "uint256",
          "name": "",
          "type": "uint256"
        },
        {
          "internalType": "uint256",
          "name": "",
          "type": "uint256"
        }
      ],
      "stateMutability": "view",
      "type": "function",
      "constant": true
    },
    {
      "inputs": [
        {
          "internalType": "uint256",
          "name": "_authorId",
          "type": "uint256"
        }
      ],
      "name": "followAuthor",
      "outputs": [],
      "stateMutability": "nonpayable",
      "type": "function"
    },
    {
      "inputs": [
        {
          "internalType": "uint256",
          "name": "_authorId",
          "type": "uint256"
        }
      ],
      "name": "unFollowAuthor",
      "outputs": [],
      "stateMutability": "nonpayable",
      "type": "function"
    },
    {
      "inputs": [
        {
          "internalType": "uint256",
          "name": "_id",
          "type": "uint256"
        }
      ],
      "name": "getMyPosts",
      "outputs": [
        {
          "internalType": "uint256[]",
          "name": "",
          "type": "uint256[]"
        },
        {
          "components": [
            {
              "internalType": "uint256",
              "name": "pid",
              "type": "uint256"
            },
            {
              "internalType": "string",
              "name": "content",
              "type": "string"
            },
            {
              "internalType": "string",
              "name": "url",
              "type": "string"
            },
            {
              "internalType": "uint256",
              "name": "tipAmount",
              "type": "uint256"
            },
            {
              "internalType": "address payable",
              "name": "author",
              "type": "address"
            },
            {
              "internalType": "uint256",
              "name": "authorId",
              "type": "uint256"
            }
          ],
          "internalType": "struct SocialNetwork.Post[]",
          "name": "",
          "type": "tuple[]"
        }
      ],
      "stateMutability": "nonpayable",
      "type": "function"
    },
    {
      "inputs": [],
      "name": "getAllFollowingIds",
      "outputs": [
        {
          "internalType": "uint256[]",
          "name": "",
          "type": "uint256[]"
        },
        {
          "internalType": "uint256[]",
          "name": "",
          "type": "uint256[]"
        }
      ],
      "stateMutability": "nonpayable",
      "type": "function"
    },
    {
      "inputs": [
        {
          "internalType": "uint256",
          "name": "_uid",
          "type": "uint256"
        }
      ],
      "name": "getUserData",
      "outputs": [
        {
          "internalType": "uint256",
          "name": "",
          "type": "uint256"
        },
        {
          "internalType": "string",
          "name": "",
          "type": "string"
        },
        {
          "internalType": "uint256",
          "name": "",
          "type": "uint256"
        },
        {
          "internalType": "uint256",
          "name": "",
          "type": "uint256"
        },
        {
          "internalType": "uint256",
          "name": "",
          "type": "uint256"
        },
        {
          "internalType": "uint256",
          "name": "",
          "type": "uint256"
        }
      ],
      "stateMutability": "view",
      "type": "function",
      "constant": true
    },
    {
      "inputs": [
        {
          "internalType": "string",
          "name": "_content",
          "type": "string"
        },
        {
          "internalType": "string",
          "name": "_url",
          "type": "string"
        }
      ],
      "name": "createPost",
      "outputs": [],
      "stateMutability": "nonpayable",
      "type": "function"
    },
    {
      "inputs": [
        {
          "internalType": "uint256",
          "name": "_id",
          "type": "uint256"
        }
      ],
      "name": "tipAPost",
      "outputs": [],
      "stateMutability": "payable",
      "type": "function",
      "payable": true
    },
    {
      "inputs": [],
      "name": "destroyContract",
      "outputs": [],
      "stateMutability": "nonpayable",
      "type": "function"
    }
  ],
  "bytecode": "0x608060405260006005556000600660006101000a81548161ffff021916908361ffff1602179055503480156200003457600080fd5b50336000806101000a81548173ffffffffffffffffffffffffffffffffffffffff021916908373ffffffffffffffffffffffffffffffffffffffff1602179055506040518060400160405280601381526020017f455448202d20536f6369616c4e6574776f726b0000000000000000000000000081525060019080519060200190620000c2929190620000c9565b50620001de565b828054620000d79062000179565b90600052602060002090601f016020900481019282620000fb576000855562000147565b82601f106200011657805160ff191683800117855562000147565b8280016001018555821562000147579182015b828111156200014657825182559160200191906001019062000129565b5b5090506200015691906200015a565b5090565b5b80821115620001755760008160009055506001016200015b565b5090565b600060028204905060018216806200019257607f821691505b60208210811415620001a957620001a8620001af565b5b50919050565b7f4e487b7100000000000000000000000000000000000000000000000000000000600052602260045260246000fd5b612d2f80620001ee6000396000f3fe6080604052600436106100f35760003560e01c80632fc95d711161008a578063392cfec711610059578063392cfec7146103405780635d8d158514610369578063ad2c48ef14610399578063d70d88fd146103c2576100f3565b80632fc95d711461028f5780633223e4b8146102ab578063365b98b2146102d4578063392338f514610317576100f3565b80630fffe86a116100c65780630fffe86a146101ba578063107bf28c146101f757806317906c2e146102225780631fef580c1461024d576100f3565b806307973ccf146100f8578063092a5cce146101235780630b1e7f831461013a5780630c1d50cb1461017c575b600080fd5b34801561010457600080fd5b5061010d6103ee565b60405161011a91906124d0565b60405180910390f35b34801561012f57600080fd5b50610138610402565b005b34801561014657600080fd5b50610161600480360381019061015c9190612036565b61053b565b604051610173969594939291906125dd565b60405180910390f35b34801561018857600080fd5b506101a3600480360381019061019e9190612036565b6106a7565b6040516101b19291906123e0565b60405180910390f35b3480156101c657600080fd5b506101e160048036038101906101dc9190611f60565b610b07565b6040516101ee91906124eb565b60405180910390f35b34801561020357600080fd5b5061020c610b1f565b604051610219919061244e565b60405180910390f35b34801561022e57600080fd5b50610237610bad565b60405161024491906124eb565b60405180910390f35b34801561025957600080fd5b50610274600480360381019061026f9190612036565b610bb3565b6040516102869695949392919061264c565b60405180910390f35b6102a960048036038101906102a49190612036565b610ca0565b005b3480156102b757600080fd5b506102d260048036038101906102cd9190612036565b611077565b005b3480156102e057600080fd5b506102fb60048036038101906102f69190612036565b61126a565b60405161030e9796959493929190612506565b60405180910390f35b34801561032357600080fd5b5061033e60048036038101906103399190611fca565b611354565b005b34801561034c57600080fd5b5061036760048036038101906103629190612036565b611573565b005b34801561037557600080fd5b5061037e611766565b6040516103909695949392919061264c565b60405180910390f35b3480156103a557600080fd5b506103c060048036038101906103bb9190611f89565b611897565b005b3480156103ce57600080fd5b506103d7611aa0565b6040516103e5929190612417565b60405180910390f35b600660009054906101000a900461ffff1681565b3373ffffffffffffffffffffffffffffffffffffffff1660008054906101000a900473ffffffffffffffffffffffffffffffffffffffff1673ffffffffffffffffffffffffffffffffffffffff1614610490576040517f08c379a0000000000000000000000000000000000000000000000000000000008152600401610487906124b0565b60405180910390fd5b7f1ec0eba9b0e9e969285026819e2b9903c774ac2ea3e68a8123cb3528b39489423360008054906101000a900473ffffffffffffffffffffffffffffffffffffffff1660008054906101000a900473ffffffffffffffffffffffffffffffffffffffff1673ffffffffffffffffffffffffffffffffffffffff163160405161051a93929190612387565b60405180910390a13373ffffffffffffffffffffffffffffffffffffffff16ff5b6002602052806000526040600020600091509050806000015490806001018054610564906129e4565b80601f0160208091040260200160405190810160405280929190818152602001828054610590906129e4565b80156105dd5780601f106105b2576101008083540402835291602001916105dd565b820191906000526020600020905b8154815290600101906020018083116105c057829003601f168201915b5050505050908060020180546105f2906129e4565b80601f016020809104026020016040519081016040528092919081815260200182805461061e906129e4565b801561066b5780601f106106405761010080835404028352916020019161066b565b820191906000526020600020905b81548152906001019060200180831161064e57829003601f168201915b5050505050908060030154908060040160009054906101000a900473ffffffffffffffffffffffffffffffffffffffff16908060050154905086565b60608060008060006003600087815260200190815260200160002090506000600190505b600554811161071e5781600401600082815260200190815260200160002060009054906101000a900460ff161561070b57838061070790612a72565b9450505b808061071690612a72565b9150506106cb565b5060008367ffffffffffffffff811115610761577f4e487b7100000000000000000000000000000000000000000000000000000000600052604160045260246000fd5b60405190808252806020026020018201604052801561078f5781602001602082028036833780820191505090505b50905060008467ffffffffffffffff8111156107d4577f4e487b7100000000000000000000000000000000000000000000000000000000600052604160045260246000fd5b60405190808252806020026020018201604052801561080d57816020015b6107fa611ddf565b8152602001906001900390816107f25790505b5090506000600190505b6005548111610aa85783600401600082815260200190815260200160002060009054906101000a900460ff1615610a955780838681518110610882577f4e487b7100000000000000000000000000000000000000000000000000000000600052603260045260246000fd5b602002602001018181525050600260008281526020019081526020016000206040518060c0016040529081600082015481526020016001820180546108c6906129e4565b80601f01602080910402602001604051908101604052809291908181526020018280546108f2906129e4565b801561093f5780601f106109145761010080835404028352916020019161093f565b820191906000526020600020905b81548152906001019060200180831161092257829003601f168201915b50505050508152602001600282018054610958906129e4565b80601f0160208091040260200160405190810160405280929190818152602001828054610984906129e4565b80156109d15780601f106109a6576101008083540402835291602001916109d1565b820191906000526020600020905b8154815290600101906020018083116109b457829003601f168201915b50505050508152602001600382015481526020016004820160009054906101000a900473ffffffffffffffffffffffffffffffffffffffff1673ffffffffffffffffffffffffffffffffffffffff1673ffffffffffffffffffffffffffffffffffffffff168152602001600582015481525050828680610a5090612a72565b975081518110610a89577f4e487b7100000000000000000000000000000000000000000000000000000000600052603260045260246000fd5b60200260200101819052505b8080610aa090612a72565b915050610817565b503373ffffffffffffffffffffffffffffffffffffffff167fd2365500f72e0836a24bca0665a95120d4f6169769a291786d75fa886cd572e083604051610aef91906123be565b60405180910390a28181965096505050505050915091565b60046020528060005260406000206000915090505481565b60018054610b2c906129e4565b80601f0160208091040260200160405190810160405280929190818152602001828054610b58906129e4565b8015610ba55780601f10610b7a57610100808354040283529160200191610ba5565b820191906000526020600020905b815481529060010190602001808311610b8857829003601f168201915b505050505081565b60055481565b6000606060008060008060008711610bca57600080fd5b60006003600089815260200190815260200160002090508060000154816002018260060154836007015484600801548560090154848054610c0a906129e4565b80601f0160208091040260200160405190810160405280929190818152602001828054610c36906129e4565b8015610c835780601f10610c5857610100808354040283529160200191610c83565b820191906000526020600020905b815481529060010190602001808311610c6657829003601f168201915b505050505094509650965096509650965096505091939550919395565b600081118015610cb257506005548111155b610cbb57600080fd5b6000600260008381526020019081526020016000206040518060c001604052908160008201548152602001600182018054610cf5906129e4565b80601f0160208091040260200160405190810160405280929190818152602001828054610d21906129e4565b8015610d6e5780601f10610d4357610100808354040283529160200191610d6e565b820191906000526020600020905b815481529060010190602001808311610d5157829003601f168201915b50505050508152602001600282018054610d87906129e4565b80601f0160208091040260200160405190810160405280929190818152602001828054610db3906129e4565b8015610e005780601f10610dd557610100808354040283529160200191610e00565b820191906000526020600020905b815481529060010190602001808311610de357829003601f168201915b50505050508152602001600382015481526020016004820160009054906101000a900473ffffffffffffffffffffffffffffffffffffffff1673ffffffffffffffffffffffffffffffffffffffff1673ffffffffffffffffffffffffffffffffffffffff16815260200160058201548152505090506000816080015190508073ffffffffffffffffffffffffffffffffffffffff166108fc349081150290604051600060405180830381858888f19350505050158015610ec4573d6000803e3d6000fd5b50348260600151610ed59190612874565b8260600181815250508160026000858152602001908152602001600020600082015181600001556020820151816001019080519060200190610f18929190611e2b565b506040820151816002019080519060200190610f35929190611e2b565b506060820151816003015560808201518160040160006101000a81548173ffffffffffffffffffffffffffffffffffffffff021916908373ffffffffffffffffffffffffffffffffffffffff16021790555060a082015181600501559050503460036000600460003373ffffffffffffffffffffffffffffffffffffffff1673ffffffffffffffffffffffffffffffffffffffff1681526020019081526020016000205481526020019081526020016000206009016000828254610ff99190612874565b9250508190555034600360008460a001518152602001908152602001600020600801600082825461102a9190612874565b925050819055507f857a474f7d18ba7614a11cc88bce5fd9cf05678441e1cb7c7eac53fecf3a8abd60055483606001518360405161106a939291906126b4565b60405180910390a1505050565b600073ffffffffffffffffffffffffffffffffffffffff163373ffffffffffffffffffffffffffffffffffffffff1614156110b157600080fd5b6000600460003373ffffffffffffffffffffffffffffffffffffffff1673ffffffffffffffffffffffffffffffffffffffff1681526020019081526020016000205490508181141561110257600080fd5b600060036000838152602001908152602001600020600701549050600060036000858152602001908152602001600020600601549050600160036000858152602001908152602001600020600501600086815260200190815260200160002060006101000a81548160ff021916908315150217905550600160036000868152602001908152602001600020600301600085815260200190815260200160002060006101000a81548160ff0219169083151502179055506001826111c59190612874565b60036000858152602001908152602001600020600701819055506001816111ec9190612874565b60036000868152602001908152602001600020600601819055503373ffffffffffffffffffffffffffffffffffffffff167f1284e19801ce3def7f6b0025adef283c3cd9ee9bf4a717df2e7af6153517726b848660018661124d9190612874565b60405161125c93929190612735565b60405180910390a250505050565b60036020528060005260406000206000915090508060000154908060010160009054906101000a900473ffffffffffffffffffffffffffffffffffffffff16908060020180546112b9906129e4565b80601f01602080910402602001604051908101604052809291908181526020018280546112e5906129e4565b80156113325780601f1061130757610100808354040283529160200191611332565b820191906000526020600020905b81548152906001019060200180831161131557829003601f168201915b5050505050908060060154908060070154908060080154908060090154905087565b600082511161136257600080fd5b6005600081548092919061137590612a72565b91905055506000600460003373ffffffffffffffffffffffffffffffffffffffff1673ffffffffffffffffffffffffffffffffffffffff1681526020019081526020016000205490506040518060c001604052806005548152602001848152602001604051806060016040528060338152602001612cc7603391398152602001600081526020013373ffffffffffffffffffffffffffffffffffffffff16815260200182815250600260006005548152602001908152602001600020600082015181600001556020820151816001019080519060200190611457929190611e2b565b506040820151816002019080519060200190611474929190611e2b565b506060820151816003015560808201518160040160006101000a81548173ffffffffffffffffffffffffffffffffffffffff021916908373ffffffffffffffffffffffffffffffffffffffff16021790555060a082015181600501559050506001600360008381526020019081526020016000206004016000600554815260200190815260200160002060006101000a81548160ff0219169083151502179055503373ffffffffffffffffffffffffffffffffffffffff167fc139bc56bb962f7e6adeb9a2a9b67b1bd7a165b617c8231f120a4f4b0a09cfdc600554858560003360405161156695949392919061257c565b60405180910390a2505050565b600073ffffffffffffffffffffffffffffffffffffffff163373ffffffffffffffffffffffffffffffffffffffff1614156115ad57600080fd5b6000600460003373ffffffffffffffffffffffffffffffffffffffff1673ffffffffffffffffffffffffffffffffffffffff168152602001908152602001600020549050818114156115fe57600080fd5b600060036000838152602001908152602001600020600701549050600060036000858152602001908152602001600020600601549050600060036000858152602001908152602001600020600501600086815260200190815260200160002060006101000a81548160ff02191690831515021790555060018261168191906128ca565b6003600085815260200190815260200160002060070181905550600060036000868152602001908152602001600020600301600085815260200190815260200160002060006101000a81548160ff0219169083151502179055506001816116e891906128ca565b60036000868152602001908152602001600020600601819055503373ffffffffffffffffffffffffffffffffffffffff167f1284e19801ce3def7f6b0025adef283c3cd9ee9bf4a717df2e7af6153517726b848660018661174991906128ca565b604051611758939291906126eb565b60405180910390a250505050565b600060606000806000806000600460003373ffffffffffffffffffffffffffffffffffffffff1673ffffffffffffffffffffffffffffffffffffffff168152602001908152602001600020549050600081116117c157600080fd5b60006003600083815260200190815260200160002090508060000154816002018260060154836007015484600801548560090154848054611801906129e4565b80601f016020809104026020016040519081016040528092919081815260200182805461182d906129e4565b801561187a5780601f1061184f5761010080835404028352916020019161187a565b820191906000526020600020905b81548152906001019060200180831161185d57829003601f168201915b505050505094509750975097509750975097505050909192939495565b60008151116118a557600080fd5b6006600081819054906101000a900461ffff16809291906118c590612a47565b91906101000a81548161ffff021916908361ffff16021790555050600060036000600660009054906101000a900461ffff1661ffff16815260200190815260200160002090503373ffffffffffffffffffffffffffffffffffffffff167f86bccb58d5cc5d9545f467598d37d93ecb638f74090cce7c33c9d02ea467172b60405161194f90612490565b60405180910390a2600660009054906101000a900461ffff1661ffff1681600001819055508181600201908051906020019061198c929190611e2b565b50338160010160006101000a81548173ffffffffffffffffffffffffffffffffffffffff021916908373ffffffffffffffffffffffffffffffffffffffff16021790555060008160060181905550600081600701819055506000816008018190555060008160090181905550600660009054906101000a900461ffff1661ffff16600460003373ffffffffffffffffffffffffffffffffffffffff1673ffffffffffffffffffffffffffffffffffffffff168152602001908152602001600020819055503373ffffffffffffffffffffffffffffffffffffffff167f86bccb58d5cc5d9545f467598d37d93ecb638f74090cce7c33c9d02ea467172b604051611a9490612470565b60405180910390a25050565b6060806000600460003373ffffffffffffffffffffffffffffffffffffffff1673ffffffffffffffffffffffffffffffffffffffff168152602001908152602001600020549050600081118015611b0b5750600660009054906101000a900461ffff1661ffff168111155b611b1457600080fd5b60006003600083815260200190815260200160002090506000816007015467ffffffffffffffff811115611b71577f4e487b7100000000000000000000000000000000000000000000000000000000600052604160045260246000fd5b604051908082528060200260200182016040528015611b9f5781602001602082028036833780820191505090505b5090506000826006015467ffffffffffffffff811115611be8577f4e487b7100000000000000000000000000000000000000000000000000000000600052604160045260246000fd5b604051908082528060200260200182016040528015611c165781602001602082028036833780820191505090505b509050600080600190505b600660009054906101000a900461ffff1661ffff168111611cca5784600501600082815260200190815260200160002060009054906101000a900460ff1615611cb75780848380611c7190612a72565b945081518110611caa577f4e487b7100000000000000000000000000000000000000000000000000000000600052603260045260246000fd5b6020026020010181815250505b8080611cc290612a72565b915050611c21565b50600090506000600190505b600660009054906101000a900461ffff1661ffff168111611d7f5784600301600082815260200190815260200160002060009054906101000a900460ff1615611d6c5780838380611d2690612a72565b945081518110611d5f577f4e487b7100000000000000000000000000000000000000000000000000000000600052603260045260246000fd5b6020026020010181815250505b8080611d7790612a72565b915050611cd6565b503373ffffffffffffffffffffffffffffffffffffffff167f7ebbc67615cdacc372a2a97e3016a3233043ce2d9e92b32fbe3390c0c7286e128484604051611dc8929190612417565b60405180910390a282829650965050505050509091565b6040518060c0016040528060008152602001606081526020016060815260200160008152602001600073ffffffffffffffffffffffffffffffffffffffff168152602001600081525090565b828054611e37906129e4565b90600052602060002090601f016020900481019282611e595760008555611ea0565b82601f10611e7257805160ff1916838001178555611ea0565b82800160010185558215611ea0579182015b82811115611e9f578251825591602001919060010190611e84565b5b509050611ead9190611eb1565b5090565b5b80821115611eca576000816000905550600101611eb2565b5090565b6000611ee1611edc846127a4565b61277f565b905082815260208101848484011115611ef957600080fd5b611f048482856129a2565b509392505050565b600081359050611f1b81612c98565b92915050565b600082601f830112611f3257600080fd5b8135611f42848260208601611ece565b91505092915050565b600081359050611f5a81612caf565b92915050565b600060208284031215611f7257600080fd5b6000611f8084828501611f0c565b91505092915050565b600060208284031215611f9b57600080fd5b600082013567ffffffffffffffff811115611fb557600080fd5b611fc184828501611f21565b91505092915050565b60008060408385031215611fdd57600080fd5b600083013567ffffffffffffffff811115611ff757600080fd5b61200385828601611f21565b925050602083013567ffffffffffffffff81111561202057600080fd5b61202c85828601611f21565b9150509250929050565b60006020828403121561204857600080fd5b600061205684828501611f4b565b91505092915050565b600061206b83836122ca565b905092915050565b600061207f8383612369565b60208301905092915050565b6120948161295a565b82525050565b6120a381612910565b82525050565b6120b281612910565b82525050565b6120c1816128fe565b82525050565b60006120d2826127f5565b6120dc8185612830565b9350836020820285016120ee856127d5565b8060005b8581101561212a578484038952815161210b858261205f565b945061211683612816565b925060208a019950506001810190506120f2565b50829750879550505050505092915050565b600061214782612800565b6121518185612841565b935061215c836127e5565b8060005b8381101561218d5781516121748882612073565b975061217f83612823565b925050600181019050612160565b5085935050505092915050565b6121a38161296c565b82525050565b60006121b48261280b565b6121be8185612852565b93506121ce8185602086016129b1565b6121d781612b48565b840191505092915050565b60006121ed8261280b565b6121f78185612863565b93506122078185602086016129b1565b61221081612b48565b840191505092915050565b6000612228602583612863565b915061223382612b59565b604082019050919050565b600061224b600c83612863565b915061225682612ba8565b602082019050919050565b600061226e602383612863565b915061227982612bd1565b604082019050919050565b6000612291600d83612863565b915061229c82612c20565b602082019050919050565b60006122b4603083612863565b91506122bf82612c49565b604082019050919050565b600060c0830160008301516122e26000860182612369565b50602083015184820360208601526122fa82826121a9565b9150506040830151848203604086015261231482826121a9565b91505060608301516123296060860182612369565b50608083015161233c608086018261209a565b5060a083015161234f60a0860182612369565b508091505092915050565b61236381612922565b82525050565b61237281612950565b82525050565b61238181612950565b82525050565b600060608201905061239c60008301866120b8565b6123a960208301856120b8565b6123b66040830184612378565b949350505050565b600060208201905081810360008301526123d8818461213c565b905092915050565b600060408201905081810360008301526123fa818561213c565b9050818103602083015261240e81846120c7565b90509392505050565b60006040820190508181036000830152612431818561213c565b90508181036020830152612445818461213c565b90509392505050565b6000602082019050818103600083015261246881846121e2565b905092915050565b600060208201905081810360008301526124898161223e565b9050919050565b600060208201905081810360008301526124a981612284565b9050919050565b600060208201905081810360008301526124c9816122a7565b9050919050565b60006020820190506124e5600083018461235a565b92915050565b60006020820190506125006000830184612378565b92915050565b600060e08201905061251b600083018a612378565b61252860208301896120b8565b818103604083015261253a81886121e2565b90506125496060830187612378565b6125566080830186612378565b61256360a0830185612378565b61257060c0830184612378565b98975050505050505050565b600060a0820190506125916000830188612378565b81810360208301526125a381876121e2565b905081810360408301526125b781866121e2565b90506125c6606083018561219a565b6125d360808301846120b8565b9695505050505050565b600060c0820190506125f26000830189612378565b818103602083015261260481886121e2565b9050818103604083015261261881876121e2565b90506126276060830186612378565b61263460808301856120a9565b61264160a0830184612378565b979650505050505050565b600060c0820190506126616000830189612378565b818103602083015261267381886121e2565b90506126826040830187612378565b61268f6060830186612378565b61269c6080830185612378565b6126a960a0830184612378565b979650505050505050565b60006060820190506126c96000830186612378565b6126d66020830185612378565b6126e3604083018461208b565b949350505050565b60006080820190506127006000830186612378565b61270d6020830185612378565b818103604083015261271e8161221b565b905061272d6060830184612378565b949350505050565b600060808201905061274a6000830186612378565b6127576020830185612378565b818103604083015261276881612261565b90506127776060830184612378565b949350505050565b600061278961279a565b90506127958282612a16565b919050565b6000604051905090565b600067ffffffffffffffff8211156127bf576127be612b19565b5b6127c882612b48565b9050602081019050919050565b6000819050602082019050919050565b6000819050602082019050919050565b600081519050919050565b600081519050919050565b600081519050919050565b6000602082019050919050565b6000602082019050919050565b600082825260208201905092915050565b600082825260208201905092915050565b600082825260208201905092915050565b600082825260208201905092915050565b600061287f82612950565b915061288a83612950565b9250827fffffffffffffffffffffffffffffffffffffffffffffffffffffffffffffffff038211156128bf576128be612abb565b5b828201905092915050565b60006128d582612950565b91506128e083612950565b9250828210156128f3576128f2612abb565b5b828203905092915050565b600061290982612930565b9050919050565b600061291b82612930565b9050919050565b600061ffff82169050919050565b600073ffffffffffffffffffffffffffffffffffffffff82169050919050565b6000819050919050565b60006129658261297e565b9050919050565b600061297782612950565b9050919050565b600061298982612990565b9050919050565b600061299b82612930565b9050919050565b82818337600083830152505050565b60005b838110156129cf5780820151818401526020810190506129b4565b838111156129de576000848401525b50505050565b600060028204905060018216806129fc57607f821691505b60208210811415612a1057612a0f612aea565b5b50919050565b612a1f82612b48565b810181811067ffffffffffffffff82111715612a3e57612a3d612b19565b5b80604052505050565b6000612a5282612922565b915061ffff821415612a6757612a66612abb565b5b600182019050919050565b6000612a7d82612950565b91507fffffffffffffffffffffffffffffffffffffffffffffffffffffffffffffffff821415612ab057612aaf612abb565b5b600182019050919050565b7f4e487b7100000000000000000000000000000000000000000000000000000000600052601160045260246000fd5b7f4e487b7100000000000000000000000000000000000000000000000000000000600052602260045260246000fd5b7f4e487b7100000000000000000000000000000000000000000000000000000000600052604160045260246000fd5b6000601f19601f8301169050919050565b7f556e466f6c6c6f77696e672074686520617574686f722077697468206e65772060008201527f636f756e74000000000000000000000000000000000000000000000000000000602082015250565b7f5573657220437265617465640000000000000000000000000000000000000000600082015250565b7f466f6c6c6f77696e672074686520617574686f722077697468206e657720636f60008201527f756e740000000000000000000000000000000000000000000000000000000000602082015250565b7f4372656174696e67205573657200000000000000000000000000000000000000600082015250565b7f4f6e6c792074686520636f6e7472616374206f776e65722063616e206465737460008201527f726f792074686520636f6e747261637400000000000000000000000000000000602082015250565b612ca1816128fe565b8114612cac57600080fd5b50565b612cb881612950565b8114612cc357600080fd5b5056fe68747470733a2f2f6769746875622e636f6d2f5072617665656e50696e2f53696d706c652d536f6369616c2d4e6574776f726ba26469706673582212207b0fd199a1845b8a856fd4ae5607f4e0e703a1ffecaef0bcdb2f8ac744ecd91964736f6c63430008010033",
  "immutableReferences": {},
  "source": "pragma solidity ^0.8.0;\r\n\r\nimport './owned.sol';\r\n\r\ncontract SocialNetwork is owned{\r\n    /*Add code */\r\n    string public networkName; /* State variable -> this value gets stored on block chain*/\r\n    // we cannot know the length of any map and cannot iterate over it, we can only fetch individually\r\n    mapping(uint => Post) public posts;/* Key Value Store, gets written to block chain itself */\r\n    mapping(uint => User) public users;\r\n    mapping(address => uint) public addressToUid;\r\n\r\n    uint public postCount = 0;\r\n    uint16 public userCount = 0;\r\n\r\n    struct User{\r\n        uint id;\r\n        address userAddress;\r\n        string name;        \r\n        mapping(uint => bool) followerIds;\r\n        mapping(uint => bool) myPostIds; //not user's id\r\n        mapping(uint => bool) followingIds;\r\n        uint followersCount;\r\n        uint followingCount;\r\n        uint tipObtained;\r\n        uint tipDonated;\r\n    } \r\n\r\n    struct Post{\r\n        uint pid;\r\n        string content;\r\n        string url;\r\n        uint tipAmount;\r\n        address payable author;\r\n        uint authorId;\r\n    }\r\n\r\n    constructor () {\r\n        networkName = \"ETH - SocialNetwork\";\r\n    }\r\n\r\n    //events for creating user, following a user, unfollowing a user\r\n    event AutoCreateUser(address indexed sender, string message);\r\n    event FollowOrUnFollowUser(address indexed sender, uint senderId, uint author, string message, uint count);\r\n\r\n    function autoCreateUser(string memory _uname) public {        \r\n        require(bytes(_uname).length > 0);\r\n        userCount++;\r\n        User storage _user = users[userCount];\r\n        emit AutoCreateUser(msg.sender, \"Creating User\");            \r\n        _user.id = userCount;\r\n        _user.name = _uname;\r\n        _user.userAddress = msg.sender;\r\n        _user.followersCount = 0;\r\n        _user.followingCount = 0;\r\n        _user.tipObtained = 0;\r\n        _user.tipDonated = 0;\r\n        addressToUid[msg.sender] = userCount;\r\n        emit AutoCreateUser(msg.sender, \"User Created\");\r\n    }\r\n\r\n    function getUserInfo() public view returns (uint, string memory, uint, uint, uint, uint){     \r\n        uint _userId = addressToUid[msg.sender];\r\n        require(_userId > 0);   \r\n        User storage _user = users[_userId];\r\n        return (_user.id, _user.name, _user.followersCount, _user.followingCount, _user.tipObtained, _user.tipDonated);\r\n    }\r\n\r\n    function followAuthor(uint _authorId) public checkAddress{\r\n        uint senderId = addressToUid[msg.sender];\r\n        require(senderId != _authorId);\r\n        uint followingCount = users[senderId].followingCount;\r\n        uint authorsFollowersCount = users[_authorId].followersCount;\r\n        users[senderId].followingIds[_authorId] = true;\r\n        users[_authorId].followerIds[senderId] = true;\r\n        users[senderId].followingCount = followingCount+1;\r\n        users[_authorId].followersCount = authorsFollowersCount+1;\r\n        emit FollowOrUnFollowUser(msg.sender, senderId, _authorId, \"Following the author with new count\", followingCount+1);\r\n    }\r\n\r\n    function unFollowAuthor(uint _authorId) public checkAddress{\r\n        uint senderId = addressToUid[msg.sender];\r\n        require(senderId != _authorId);\r\n        uint followingCount = users[senderId].followingCount;\r\n        uint authorsFollowersCount = users[_authorId].followersCount;\r\n        users[senderId].followingIds[_authorId] = false;\r\n        users[senderId].followingCount = followingCount-1;\r\n        users[_authorId].followerIds[senderId] = false;\r\n        users[_authorId].followersCount = authorsFollowersCount-1;\r\n        emit FollowOrUnFollowUser(msg.sender, senderId, _authorId, \"UnFollowing the author with new count\", followingCount -1);\r\n    }\r\n\r\n    event FetchMyPosts(address indexed addr, uint[] myPostIds);\r\n\r\n    event FetchMyNetworkIds(address indexed sender, uint[] followingIds, uint[] followerIds);\r\n\r\n    function getMyPosts(uint _id) public returns (uint[] memory, Post[] memory){        \r\n        uint myPostCount = 0;\r\n        uint counter = 0;\r\n\r\n        User storage _user = users[_id];\r\n        for (uint i = 1; i <= postCount; i++){\r\n            if(_user.myPostIds[i]){\r\n                myPostCount++;\r\n            }\r\n        }\r\n        \r\n        uint[] memory postIds = new uint[](myPostCount);\r\n        Post[] memory myPosts = new Post[](myPostCount);\r\n        \r\n        for (uint i = 1; i <= postCount; i++){\r\n            if(_user.myPostIds[i]){\r\n                postIds[counter] = i;\r\n                myPosts[counter++] = posts[i];\r\n            }\r\n        }\r\n        emit FetchMyPosts(msg.sender,postIds);\r\n        return (postIds, myPosts);\r\n    }\r\n\r\n    function getAllFollowingIds() public returns (uint[] memory, uint[] memory){\r\n        uint myId = addressToUid[msg.sender];\r\n        require(myId > 0 && myId <= userCount);\r\n        User storage _user = users[myId];\r\n        uint[] memory followingIds = new uint[](_user.followingCount);\r\n        uint[] memory followerIds = new uint[](_user.followersCount);\r\n        uint counter = 0;\r\n        for (uint i = 1; i <= userCount; i++){\r\n            if(_user.followingIds[i]){\r\n                followingIds[counter++] = i;\r\n            }\r\n        }\r\n        counter = 0;\r\n        for (uint i = 1; i <= userCount; i++){\r\n            if(_user.followerIds[i]){\r\n                followerIds[counter++] = i;\r\n            }\r\n        }\r\n        emit FetchMyNetworkIds(msg.sender,followingIds,followerIds);\r\n        return (followingIds,followerIds);\r\n    }\r\n\r\n    function getUserData(uint _uid) public view returns (uint, string memory, uint, uint, uint, uint){     \r\n        require(_uid > 0);   \r\n        User storage _user = users[_uid];\r\n        return (_user.id, _user.name, _user.followersCount, _user.followingCount, _user.tipObtained, _user.tipDonated);\r\n    }\r\n\r\n    event PostCreated(address indexed id, uint pid, string content, string url, uint tipAmount, address author);\r\n\r\n    function createPost(string memory _content, string memory _url) public{ \r\n        //require valid content\r\n        require(bytes(_content).length > 0); //if false it stops execution and gas used will be refunded back to caller, else continues execution\r\n        \r\n        /* Here _content is a local var and underscore is just a conventions for local vars*/\r\n        postCount++;        \r\n        uint userId = addressToUid[msg.sender];\r\n        posts[postCount] = Post(postCount, _content, \"https://github.com/PraveenPin/Simple-Social-Network\", 0, payable(msg.sender), userId); /* Instantiates Post, adds it into map */        \r\n        //adding the post id to the user\r\n        users[userId].myPostIds[postCount] = true;\r\n\r\n        //Trigger event from solidity smart contracts\r\n        //these posts can be open for subscription by consumers\r\n        emit PostCreated(msg.sender,postCount, _content, _url, 0, msg.sender);\r\n    }\r\n\r\n    event PostTipped(uint pid, uint tipAmount, address author);\r\n\r\n    function tipAPost(uint _id) public payable {\r\n        require(_id > 0 && _id <= postCount);\r\n        Post memory _post = posts[_id];\r\n        address payable _author = _post.author;\r\n        //paying the author by sending ether\r\n        payable(address(_author)).transfer(msg.value);\r\n        //here the tip should be ether, so we use function meta data\r\n        _post.tipAmount = _post.tipAmount + msg.value;\r\n        posts[_id] = _post;\r\n        \r\n        //add tip amount to user donation\r\n        users[addressToUid[msg.sender]].tipDonated += msg.value;\r\n        //add tip amount to author's obtained tip\r\n        users[_post.authorId].tipObtained += msg.value;\r\n        emit PostTipped(postCount, _post.tipAmount, _author);\r\n    }\r\n\r\n    //self destruct event \r\n    event DestroyContract(address sender, address caller, uint balance);\r\n\r\n    function destroyContract() public onlyOwner{\r\n        emit DestroyContract(msg.sender, owner, owner.balance);\r\n        selfdestruct(payable(msg.sender));\r\n    }\r\n\r\n}",
  "sourcePath": "C:/Users/praveen/Desktop/Eth-Project/Simple-Social-Network/src/contracts/SocialNetwork.sol",
  "compiler": {
    "name": "solc",
    "version": "0.8.1+commit.df193b15.Emscripten.clang"
  },
  "schemaVersion": "3.4.1",
  "updatedAt": "2021-06-07T16:41:49.311Z",
  "networkType": "ethereum",
  "devdoc": {
    "kind": "dev",
    "methods": {},
    "version": 1
  },
  "userdoc": {
    "kind": "user",
    "methods": {},
    "version": 1
  }
}