{
  "contractName": "SocialNetwork",
  "abi": [
    {
      "inputs": [],
      "stateMutability": "nonpayable",
      "type": "constructor"
    },
    {
      "anonymous": false,
      "inputs": [
        {
          "indexed": false,
          "internalType": "string",
          "name": "tag",
          "type": "string"
        },
        {
          "components": [
            {
              "internalType": "uint256",
              "name": "pid",
              "type": "uint256"
            },
            {
              "internalType": "string",
              "name": "content",
              "type": "string"
            },
            {
              "internalType": "string",
              "name": "url",
              "type": "string"
            },
            {
              "internalType": "uint256",
              "name": "tipAmount",
              "type": "uint256"
            },
            {
              "internalType": "address payable",
              "name": "author",
              "type": "address"
            },
            {
              "internalType": "uint256",
              "name": "authorId",
              "type": "uint256"
            },
            {
              "internalType": "string",
              "name": "authorName",
              "type": "string"
            },
            {
              "internalType": "uint256",
              "name": "commentsCount",
              "type": "uint256"
            },
            {
              "internalType": "string",
              "name": "picIpfsHash",
              "type": "string"
            }
          ],
          "indexed": false,
          "internalType": "struct SocialNetwork.Post[]",
          "name": "posts",
          "type": "tuple[]"
        }
      ],
      "name": "AllPostsOfATag",
      "type": "event"
    },
    {
      "anonymous": false,
      "inputs": [
        {
          "indexed": true,
          "internalType": "address",
          "name": "sender",
          "type": "address"
        },
        {
          "indexed": false,
          "internalType": "string",
          "name": "message",
          "type": "string"
        }
      ],
      "name": "AutoCreateUser",
      "type": "event"
    },
    {
      "anonymous": false,
      "inputs": [
        {
          "indexed": false,
          "internalType": "uint256",
          "name": "pid",
          "type": "uint256"
        },
        {
          "indexed": false,
          "internalType": "uint256",
          "name": "cid",
          "type": "uint256"
        },
        {
          "indexed": false,
          "internalType": "string",
          "name": "comment",
          "type": "string"
        },
        {
          "indexed": false,
          "internalType": "address",
          "name": "commentedUser",
          "type": "address"
        },
        {
          "indexed": false,
          "internalType": "string",
          "name": "authorName",
          "type": "string"
        }
      ],
      "name": "CommentCreated",
      "type": "event"
    },
    {
      "anonymous": false,
      "inputs": [
        {
          "indexed": false,
          "internalType": "uint256",
          "name": "pid",
          "type": "uint256"
        },
        {
          "indexed": false,
          "internalType": "uint256",
          "name": "cid",
          "type": "uint256"
        },
        {
          "indexed": false,
          "internalType": "string",
          "name": "deletedComment",
          "type": "string"
        },
        {
          "indexed": false,
          "internalType": "address",
          "name": "commentAuthor",
          "type": "address"
        },
        {
          "indexed": false,
          "internalType": "string",
          "name": "authorName",
          "type": "string"
        }
      ],
      "name": "CommentDeleted",
      "type": "event"
    },
    {
      "anonymous": false,
      "inputs": [
        {
          "indexed": false,
          "internalType": "address",
          "name": "sender",
          "type": "address"
        },
        {
          "indexed": false,
          "internalType": "address",
          "name": "caller",
          "type": "address"
        },
        {
          "indexed": false,
          "internalType": "uint256",
          "name": "balance",
          "type": "uint256"
        }
      ],
      "name": "DestroyContract",
      "type": "event"
    },
    {
      "anonymous": false,
      "inputs": [
        {
          "indexed": true,
          "internalType": "address",
          "name": "sender",
          "type": "address"
        },
        {
          "indexed": false,
          "internalType": "uint256[]",
          "name": "followingIds",
          "type": "uint256[]"
        },
        {
          "indexed": false,
          "internalType": "uint256[]",
          "name": "followerIds",
          "type": "uint256[]"
        }
      ],
      "name": "FetchMyNetworkIds",
      "type": "event"
    },
    {
      "anonymous": false,
      "inputs": [
        {
          "indexed": true,
          "internalType": "address",
          "name": "addr",
          "type": "address"
        },
        {
          "indexed": false,
          "internalType": "uint256[]",
          "name": "myPostIds",
          "type": "uint256[]"
        }
      ],
      "name": "FetchMyPosts",
      "type": "event"
    },
    {
      "anonymous": false,
      "inputs": [
        {
          "indexed": true,
          "internalType": "address",
          "name": "sender",
          "type": "address"
        },
        {
          "indexed": false,
          "internalType": "uint256",
          "name": "senderId",
          "type": "uint256"
        },
        {
          "indexed": false,
          "internalType": "uint256",
          "name": "author",
          "type": "uint256"
        },
        {
          "indexed": false,
          "internalType": "string",
          "name": "message",
          "type": "string"
        },
        {
          "indexed": false,
          "internalType": "uint256",
          "name": "count",
          "type": "uint256"
        }
      ],
      "name": "FollowOrUnFollowUser",
      "type": "event"
    },
    {
      "anonymous": false,
      "inputs": [
        {
          "indexed": true,
          "internalType": "address",
          "name": "id",
          "type": "address"
        },
        {
          "indexed": false,
          "internalType": "uint256",
          "name": "pid",
          "type": "uint256"
        },
        {
          "indexed": false,
          "internalType": "string",
          "name": "content",
          "type": "string"
        },
        {
          "indexed": false,
          "internalType": "string",
          "name": "url",
          "type": "string"
        },
        {
          "indexed": false,
          "internalType": "uint256",
          "name": "tipAmount",
          "type": "uint256"
        },
        {
          "indexed": false,
          "internalType": "address",
          "name": "author",
          "type": "address"
        },
        {
          "indexed": false,
          "internalType": "uint256",
          "name": "authorId",
          "type": "uint256"
        },
        {
          "indexed": false,
          "internalType": "string",
          "name": "authorName",
          "type": "string"
        },
        {
          "indexed": false,
          "internalType": "string",
          "name": "imageHash",
          "type": "string"
        }
      ],
      "name": "PostCreated",
      "type": "event"
    },
    {
      "anonymous": false,
      "inputs": [
        {
          "indexed": false,
          "internalType": "string[]",
          "name": "tags",
          "type": "string[]"
        },
        {
          "indexed": false,
          "internalType": "uint256",
          "name": "postId",
          "type": "uint256"
        }
      ],
      "name": "PostTagsCreated",
      "type": "event"
    },
    {
      "anonymous": false,
      "inputs": [
        {
          "indexed": false,
          "internalType": "uint256",
          "name": "pid",
          "type": "uint256"
        },
        {
          "indexed": false,
          "internalType": "uint256",
          "name": "tipAmount",
          "type": "uint256"
        },
        {
          "indexed": false,
          "internalType": "address",
          "name": "author",
          "type": "address"
        }
      ],
      "name": "PostTipped",
      "type": "event"
    },
    {
      "anonymous": false,
      "inputs": [
        {
          "indexed": false,
          "internalType": "string",
          "name": "tag",
          "type": "string"
        }
      ],
      "name": "emitWord",
      "type": "event"
    },
    {
      "inputs": [],
      "name": "networkName",
      "outputs": [
        {
          "internalType": "string",
          "name": "",
          "type": "string"
        }
      ],
      "stateMutability": "view",
      "type": "function",
      "constant": true
    },
    {
      "inputs": [],
      "name": "postCount",
      "outputs": [
        {
          "internalType": "uint256",
          "name": "",
          "type": "uint256"
        }
      ],
      "stateMutability": "view",
      "type": "function",
      "constant": true
    },
    {
      "inputs": [],
      "name": "userCount",
      "outputs": [
        {
          "internalType": "uint16",
          "name": "",
          "type": "uint16"
        }
      ],
      "stateMutability": "view",
      "type": "function",
      "constant": true
    },
    {
      "inputs": [
        {
          "internalType": "address",
          "name": "_userAddress",
          "type": "address"
        }
      ],
      "name": "getUserIdFromAddress",
      "outputs": [
        {
          "internalType": "uint256",
          "name": "",
          "type": "uint256"
        }
      ],
      "stateMutability": "view",
      "type": "function",
      "constant": true
    },
    {
      "inputs": [
        {
          "internalType": "uint256",
          "name": "_postId",
          "type": "uint256"
        }
      ],
      "name": "getPostFromPostId",
      "outputs": [
        {
          "components": [
            {
              "internalType": "uint256",
              "name": "pid",
              "type": "uint256"
            },
            {
              "internalType": "string",
              "name": "content",
              "type": "string"
            },
            {
              "internalType": "string",
              "name": "url",
              "type": "string"
            },
            {
              "internalType": "uint256",
              "name": "tipAmount",
              "type": "uint256"
            },
            {
              "internalType": "address payable",
              "name": "author",
              "type": "address"
            },
            {
              "internalType": "uint256",
              "name": "authorId",
              "type": "uint256"
            },
            {
              "internalType": "string",
              "name": "authorName",
              "type": "string"
            },
            {
              "internalType": "uint256",
              "name": "commentsCount",
              "type": "uint256"
            },
            {
              "internalType": "string",
              "name": "picIpfsHash",
              "type": "string"
            }
          ],
          "internalType": "struct SocialNetwork.Post",
          "name": "",
          "type": "tuple"
        }
      ],
      "stateMutability": "view",
      "type": "function",
      "constant": true
    },
    {
      "inputs": [
        {
          "internalType": "string",
          "name": "_uname",
          "type": "string"
        }
      ],
      "name": "autoCreateUser",
      "outputs": [],
      "stateMutability": "nonpayable",
      "type": "function"
    },
    {
      "inputs": [],
      "name": "getUserInfo",
      "outputs": [
        {
          "internalType": "uint256",
          "name": "",
          "type": "uint256"
        },
        {
          "internalType": "string",
          "name": "",
          "type": "string"
        },
        {
          "internalType": "uint256",
          "name": "",
          "type": "uint256"
        },
        {
          "internalType": "uint256",
          "name": "",
          "type": "uint256"
        },
        {
          "internalType": "uint256",
          "name": "",
          "type": "uint256"
        },
        {
          "internalType": "uint256",
          "name": "",
          "type": "uint256"
        }
      ],
      "stateMutability": "view",
      "type": "function",
      "constant": true
    },
    {
      "inputs": [
        {
          "internalType": "uint256",
          "name": "_authorId",
          "type": "uint256"
        }
      ],
      "name": "followAuthor",
      "outputs": [],
      "stateMutability": "nonpayable",
      "type": "function"
    },
    {
      "inputs": [
        {
          "internalType": "uint256",
          "name": "_authorId",
          "type": "uint256"
        }
      ],
      "name": "unFollowAuthor",
      "outputs": [],
      "stateMutability": "nonpayable",
      "type": "function"
    },
    {
      "inputs": [
        {
          "internalType": "uint256",
          "name": "_id",
          "type": "uint256"
        }
      ],
      "name": "getMyPosts",
      "outputs": [
        {
          "internalType": "uint256[]",
          "name": "",
          "type": "uint256[]"
        },
        {
          "components": [
            {
              "internalType": "uint256",
              "name": "pid",
              "type": "uint256"
            },
            {
              "internalType": "string",
              "name": "content",
              "type": "string"
            },
            {
              "internalType": "string",
              "name": "url",
              "type": "string"
            },
            {
              "internalType": "uint256",
              "name": "tipAmount",
              "type": "uint256"
            },
            {
              "internalType": "address payable",
              "name": "author",
              "type": "address"
            },
            {
              "internalType": "uint256",
              "name": "authorId",
              "type": "uint256"
            },
            {
              "internalType": "string",
              "name": "authorName",
              "type": "string"
            },
            {
              "internalType": "uint256",
              "name": "commentsCount",
              "type": "uint256"
            },
            {
              "internalType": "string",
              "name": "picIpfsHash",
              "type": "string"
            }
          ],
          "internalType": "struct SocialNetwork.Post[]",
          "name": "",
          "type": "tuple[]"
        }
      ],
      "stateMutability": "nonpayable",
      "type": "function"
    },
    {
      "inputs": [],
      "name": "getAllFollowingIds",
      "outputs": [
        {
          "internalType": "uint256[]",
          "name": "",
          "type": "uint256[]"
        },
        {
          "internalType": "uint256[]",
          "name": "",
          "type": "uint256[]"
        }
      ],
      "stateMutability": "nonpayable",
      "type": "function"
    },
    {
      "inputs": [
        {
          "internalType": "uint256",
          "name": "_uid",
          "type": "uint256"
        }
      ],
      "name": "getUserData",
      "outputs": [
        {
          "internalType": "uint256",
          "name": "",
          "type": "uint256"
        },
        {
          "internalType": "string",
          "name": "",
          "type": "string"
        },
        {
          "internalType": "uint256",
          "name": "",
          "type": "uint256"
        },
        {
          "internalType": "uint256",
          "name": "",
          "type": "uint256"
        },
        {
          "internalType": "uint256",
          "name": "",
          "type": "uint256"
        },
        {
          "internalType": "uint256",
          "name": "",
          "type": "uint256"
        }
      ],
      "stateMutability": "view",
      "type": "function",
      "constant": true
    },
    {
      "inputs": [
        {
          "internalType": "string",
          "name": "_content",
          "type": "string"
        },
        {
          "internalType": "string",
          "name": "_url",
          "type": "string"
        },
        {
          "internalType": "string",
          "name": "_imageHash",
          "type": "string"
        }
      ],
      "name": "createPost",
      "outputs": [],
      "stateMutability": "nonpayable",
      "type": "function"
    },
    {
      "inputs": [
        {
          "internalType": "uint256",
          "name": "_id",
          "type": "uint256"
        }
      ],
      "name": "tipAPost",
      "outputs": [],
      "stateMutability": "payable",
      "type": "function",
      "payable": true
    },
    {
      "inputs": [
        {
          "internalType": "uint256",
          "name": "_pid",
          "type": "uint256"
        },
        {
          "internalType": "string",
          "name": "_comment",
          "type": "string"
        }
      ],
      "name": "createComment",
      "outputs": [],
      "stateMutability": "nonpayable",
      "type": "function"
    },
    {
      "inputs": [
        {
          "internalType": "uint256",
          "name": "_postId",
          "type": "uint256"
        }
      ],
      "name": "fetchAllComments",
      "outputs": [
        {
          "components": [
            {
              "internalType": "uint256",
              "name": "postId",
              "type": "uint256"
            },
            {
              "internalType": "uint256",
              "name": "cid",
              "type": "uint256"
            },
            {
              "internalType": "string",
              "name": "comment",
              "type": "string"
            },
            {
              "internalType": "address",
              "name": "author",
              "type": "address"
            },
            {
              "internalType": "uint256",
              "name": "authorId",
              "type": "uint256"
            },
            {
              "internalType": "string",
              "name": "authorName",
              "type": "string"
            }
          ],
          "internalType": "struct SocialNetwork.Comment[]",
          "name": "",
          "type": "tuple[]"
        }
      ],
      "stateMutability": "view",
      "type": "function",
      "constant": true
    },
    {
      "inputs": [
        {
          "internalType": "string",
          "name": "_content",
          "type": "string"
        },
        {
          "internalType": "uint256",
          "name": "_postId",
          "type": "uint256"
        }
      ],
      "name": "createTag",
      "outputs": [],
      "stateMutability": "nonpayable",
      "type": "function"
    },
    {
      "inputs": [
        {
          "internalType": "bytes1",
          "name": "_char",
          "type": "bytes1"
        }
      ],
      "name": "checkEmptyCharacter",
      "outputs": [
        {
          "internalType": "bool",
          "name": "",
          "type": "bool"
        }
      ],
      "stateMutability": "pure",
      "type": "function",
      "constant": true
    },
    {
      "inputs": [
        {
          "internalType": "string",
          "name": "tag",
          "type": "string"
        }
      ],
      "name": "getPostsFromTag",
      "outputs": [
        {
          "components": [
            {
              "internalType": "uint256",
              "name": "pid",
              "type": "uint256"
            },
            {
              "internalType": "string",
              "name": "content",
              "type": "string"
            },
            {
              "internalType": "string",
              "name": "url",
              "type": "string"
            },
            {
              "internalType": "uint256",
              "name": "tipAmount",
              "type": "uint256"
            },
            {
              "internalType": "address payable",
              "name": "author",
              "type": "address"
            },
            {
              "internalType": "uint256",
              "name": "authorId",
              "type": "uint256"
            },
            {
              "internalType": "string",
              "name": "authorName",
              "type": "string"
            },
            {
              "internalType": "uint256",
              "name": "commentsCount",
              "type": "uint256"
            },
            {
              "internalType": "string",
              "name": "picIpfsHash",
              "type": "string"
            }
          ],
          "internalType": "struct SocialNetwork.Post[]",
          "name": "",
          "type": "tuple[]"
        }
      ],
      "stateMutability": "nonpayable",
      "type": "function"
    },
    {
      "inputs": [],
      "name": "destroyContract",
      "outputs": [],
      "stateMutability": "nonpayable",
      "type": "function"
    }
  ],
  "bytecode": "0x608060405260006008556000600960006101000a81548161ffff021916908361ffff1602179055503480156200003457600080fd5b50336000806101000a81548173ffffffffffffffffffffffffffffffffffffffff021916908373ffffffffffffffffffffffffffffffffffffffff1602179055506040518060400160405280601381526020017f455448202d20536f6369616c4e6574776f726b0000000000000000000000000081525060019080519060200190620000c2929190620000c9565b50620001de565b828054620000d79062000179565b90600052602060002090601f016020900481019282620000fb576000855562000147565b82601f106200011657805160ff191683800117855562000147565b8280016001018555821562000147579182015b828111156200014657825182559160200191906001019062000129565b5b5090506200015691906200015a565b5090565b5b80821115620001755760008160009055506001016200015b565b5090565b600060028204905060018216806200019257607f821691505b60208210811415620001a957620001a8620001af565b5b50919050565b7f4e487b7100000000000000000000000000000000000000000000000000000000600052602260045260246000fd5b6153c180620001ee6000396000f3fe60806040526004361061011f5760003560e01c8063392cfec7116100a05780638751682a116100645780638751682a146103f75780639cb481b214610420578063ad2c48ef1461045d578063d70d88fd14610486578063e8a4a1eb146104b25761011f565b8063392cfec7146102fb57806340a17985146103245780634a00eb4f1461034d5780635d8d15851461038a5780636dc2cc71146103ba5761011f565b806317906c2e116100e757806317906c2e1461020c5780631c6aff1d146102375780631fef580c146102745780632fc95d71146102b65780633223e4b8146102d25761011f565b806307973ccf14610124578063092a5cce1461014f578063096568b4146101665780630c1d50cb146101a3578063107bf28c146101e1575b600080fd5b34801561013057600080fd5b506101396104db565b6040516101469190614a59565b60405180910390f35b34801561015b57600080fd5b506101646104ef565b005b34801561017257600080fd5b5061018d60048036038101906101889190613fe3565b610628565b60405161019a919061488f565b60405180910390f35b3480156101af57600080fd5b506101ca60048036038101906101c59190613fe3565b610bfb565b6040516101d89291906148f5565b60405180910390f35b3480156101ed57600080fd5b506101f661118a565b604051610203919061497e565b60405180910390f35b34801561021857600080fd5b50610221611218565b60405161022e9190614a74565b60405180910390f35b34801561024357600080fd5b5061025e60048036038101906102599190613e8e565b61121e565b60405161026b9190614963565b60405180910390f35b34801561028057600080fd5b5061029b60048036038101906102969190613fe3565b611261565b6040516102ad96959493929190614b29565b60405180910390f35b6102d060048036038101906102cb9190613fe3565b61134e565b005b3480156102de57600080fd5b506102f960048036038101906102f49190613fe3565b611899565b005b34801561030757600080fd5b50610322600480360381019061031d9190613fe3565b611a8c565b005b34801561033057600080fd5b5061034b6004803603810190610346919061400c565b611c7f565b005b34801561035957600080fd5b50610374600480360381019061036f9190613fe3565b6121ed565b6040516103819190614a37565b60405180910390f35b34801561039657600080fd5b5061039f6124fc565b6040516103b196959493929190614b29565b60405180910390f35b3480156103c657600080fd5b506103e160048036038101906103dc9190613eb7565b61262d565b6040516103ee91906148b1565b60405180910390f35b34801561040357600080fd5b5061041e60048036038101906104199190613f8f565b612c59565b005b34801561042c57600080fd5b5061044760048036038101906104429190613e65565b612edc565b6040516104549190614a74565b60405180910390f35b34801561046957600080fd5b50610484600480360381019061047f9190613eb7565b612f5e565b005b34801561049257600080fd5b5061049b613167565b6040516104a992919061492c565b60405180910390f35b3480156104be57600080fd5b506104d960048036038101906104d49190613ef8565b6134a6565b005b600960009054906101000a900461ffff1681565b3373ffffffffffffffffffffffffffffffffffffffff1660008054906101000a900473ffffffffffffffffffffffffffffffffffffffff1673ffffffffffffffffffffffffffffffffffffffff161461057d576040517f08c379a000000000000000000000000000000000000000000000000000000000815260040161057490614a17565b60405180910390fd5b7f1ec0eba9b0e9e969285026819e2b9903c774ac2ea3e68a8123cb3528b39489423360008054906101000a900473ffffffffffffffffffffffffffffffffffffffff1660008054906101000a900473ffffffffffffffffffffffffffffffffffffffff1673ffffffffffffffffffffffffffffffffffffffff163160405161060793929190614828565b60405180910390a13373ffffffffffffffffffffffffffffffffffffffff16ff5b606060008211801561063c57506008548211155b61064557600080fd5b6000600260008481526020019081526020016000206040518061012001604052908160008201548152602001600182018054610680906151c2565b80601f01602080910402602001604051908101604052809291908181526020018280546106ac906151c2565b80156106f95780601f106106ce576101008083540402835291602001916106f9565b820191906000526020600020905b8154815290600101906020018083116106dc57829003601f168201915b50505050508152602001600282018054610712906151c2565b80601f016020809104026020016040519081016040528092919081815260200182805461073e906151c2565b801561078b5780601f106107605761010080835404028352916020019161078b565b820191906000526020600020905b81548152906001019060200180831161076e57829003601f168201915b50505050508152602001600382015481526020016004820160009054906101000a900473ffffffffffffffffffffffffffffffffffffffff1673ffffffffffffffffffffffffffffffffffffffff1673ffffffffffffffffffffffffffffffffffffffff1681526020016005820154815260200160068201805461080e906151c2565b80601f016020809104026020016040519081016040528092919081815260200182805461083a906151c2565b80156108875780601f1061085c57610100808354040283529160200191610887565b820191906000526020600020905b81548152906001019060200180831161086a57829003601f168201915b50505050508152602001600782015481526020016008820180546108aa906151c2565b80601f01602080910402602001604051908101604052809291908181526020018280546108d6906151c2565b80156109235780601f106108f857610100808354040283529160200191610923565b820191906000526020600020905b81548152906001019060200180831161090657829003601f168201915b505050505081525050905060008160e00151905060008167ffffffffffffffff811115610979577f4e487b7100000000000000000000000000000000000000000000000000000000600052604160045260246000fd5b6040519080825280602002602001820160405280156109b257816020015b61099f613c01565b8152602001906001900390816109975790505b509050600080600190505b838111610bee576005600088815260200190815260200160002060008281526020019081526020016000206040518060c00160405290816000820154815260200160018201548152602001600282018054610a17906151c2565b80601f0160208091040260200160405190810160405280929190818152602001828054610a43906151c2565b8015610a905780601f10610a6557610100808354040283529160200191610a90565b820191906000526020600020905b815481529060010190602001808311610a7357829003601f168201915b505050505081526020016003820160009054906101000a900473ffffffffffffffffffffffffffffffffffffffff1673ffffffffffffffffffffffffffffffffffffffff1673ffffffffffffffffffffffffffffffffffffffff16815260200160048201548152602001600582018054610b09906151c2565b80601f0160208091040260200160405190810160405280929190818152602001828054610b35906151c2565b8015610b825780601f10610b5757610100808354040283529160200191610b82565b820191906000526020600020905b815481529060010190602001808311610b6557829003601f168201915b505050505081525050838380610b979061521f565b945081518110610bd0577f4e487b7100000000000000000000000000000000000000000000000000000000600052603260045260246000fd5b60200260200101819052508080610be69061521f565b9150506109bd565b5081945050505050919050565b60608060008060006003600087815260200190815260200160002090506000600190505b6008548111610c725781600401600082815260200190815260200160002060009054906101000a900460ff1615610c5f578380610c5b9061521f565b9450505b8080610c6a9061521f565b915050610c1f565b5060008367ffffffffffffffff811115610cb5577f4e487b7100000000000000000000000000000000000000000000000000000000600052604160045260246000fd5b604051908082528060200260200182016040528015610ce35781602001602082028036833780820191505090505b50905060008467ffffffffffffffff811115610d28577f4e487b7100000000000000000000000000000000000000000000000000000000600052604160045260246000fd5b604051908082528060200260200182016040528015610d6157816020015b610d4e613c4d565b815260200190600190039081610d465790505b5090506000600190505b600854811161112b5783600401600082815260200190815260200160002060009054906101000a900460ff16156111185780838681518110610dd6577f4e487b7100000000000000000000000000000000000000000000000000000000600052603260045260246000fd5b602002602001018181525050600260008281526020019081526020016000206040518061012001604052908160008201548152602001600182018054610e1b906151c2565b80601f0160208091040260200160405190810160405280929190818152602001828054610e47906151c2565b8015610e945780601f10610e6957610100808354040283529160200191610e94565b820191906000526020600020905b815481529060010190602001808311610e7757829003601f168201915b50505050508152602001600282018054610ead906151c2565b80601f0160208091040260200160405190810160405280929190818152602001828054610ed9906151c2565b8015610f265780601f10610efb57610100808354040283529160200191610f26565b820191906000526020600020905b815481529060010190602001808311610f0957829003601f168201915b50505050508152602001600382015481526020016004820160009054906101000a900473ffffffffffffffffffffffffffffffffffffffff1673ffffffffffffffffffffffffffffffffffffffff1673ffffffffffffffffffffffffffffffffffffffff16815260200160058201548152602001600682018054610fa9906151c2565b80601f0160208091040260200160405190810160405280929190818152602001828054610fd5906151c2565b80156110225780601f10610ff757610100808354040283529160200191611022565b820191906000526020600020905b81548152906001019060200180831161100557829003601f168201915b5050505050815260200160078201548152602001600882018054611045906151c2565b80601f0160208091040260200160405190810160405280929190818152602001828054611071906151c2565b80156110be5780601f10611093576101008083540402835291602001916110be565b820191906000526020600020905b8154815290600101906020018083116110a157829003601f168201915b5050505050815250508286806110d39061521f565b97508151811061110c577f4e487b7100000000000000000000000000000000000000000000000000000000600052603260045260246000fd5b60200260200101819052505b80806111239061521f565b915050610d6b565b503373ffffffffffffffffffffffffffffffffffffffff167fd2365500f72e0836a24bca0665a95120d4f6169769a291786d75fa886cd572e08360405161117291906148d3565b60405180910390a28181965096505050505050915091565b60018054611197906151c2565b80601f01602080910402602001604051908101604052809291908181526020018280546111c3906151c2565b80156112105780601f106111e557610100808354040283529160200191611210565b820191906000526020600020905b8154815290600101906020018083116111f357829003601f168201915b505050505081565b60085481565b6000602060f81b827effffffffffffffffffffffffffffffffffffffffffffffffffffffffffffff19161415611257576001905061125c565b600090505b919050565b600060606000806000806000871161127857600080fd5b600060036000898152602001908152602001600020905080600001548160020182600601548360070154846008015485600901548480546112b8906151c2565b80601f01602080910402602001604051908101604052809291908181526020018280546112e4906151c2565b80156113315780601f1061130657610100808354040283529160200191611331565b820191906000526020600020905b81548152906001019060200180831161131457829003601f168201915b505050505094509650965096509650965096505091939550919395565b60008111801561136057506008548111155b61136957600080fd5b60006002600083815260200190815260200160002060405180610120016040529081600082015481526020016001820180546113a4906151c2565b80601f01602080910402602001604051908101604052809291908181526020018280546113d0906151c2565b801561141d5780601f106113f25761010080835404028352916020019161141d565b820191906000526020600020905b81548152906001019060200180831161140057829003601f168201915b50505050508152602001600282018054611436906151c2565b80601f0160208091040260200160405190810160405280929190818152602001828054611462906151c2565b80156114af5780601f10611484576101008083540402835291602001916114af565b820191906000526020600020905b81548152906001019060200180831161149257829003601f168201915b50505050508152602001600382015481526020016004820160009054906101000a900473ffffffffffffffffffffffffffffffffffffffff1673ffffffffffffffffffffffffffffffffffffffff1673ffffffffffffffffffffffffffffffffffffffff16815260200160058201548152602001600682018054611532906151c2565b80601f016020809104026020016040519081016040528092919081815260200182805461155e906151c2565b80156115ab5780601f10611580576101008083540402835291602001916115ab565b820191906000526020600020905b81548152906001019060200180831161158e57829003601f168201915b50505050508152602001600782015481526020016008820180546115ce906151c2565b80601f01602080910402602001604051908101604052809291908181526020018280546115fa906151c2565b80156116475780601f1061161c57610100808354040283529160200191611647565b820191906000526020600020905b81548152906001019060200180831161162a57829003601f168201915b50505050508152505090506000816080015190508073ffffffffffffffffffffffffffffffffffffffff166108fc349081150290604051600060405180830381858888f193505050501580156116a1573d6000803e3d6000fd5b503482606001516116b29190614e4f565b82606001818152505081600260008581526020019081526020016000206000820151816000015560208201518160010190805190602001906116f5929190613caf565b506040820151816002019080519060200190611712929190613caf565b506060820151816003015560808201518160040160006101000a81548173ffffffffffffffffffffffffffffffffffffffff021916908373ffffffffffffffffffffffffffffffffffffffff16021790555060a0820151816005015560c082015181600601908051906020019061178a929190613caf565b5060e082015181600701556101008201518160080190805190602001906117b2929190613caf565b509050503460036000600460003373ffffffffffffffffffffffffffffffffffffffff1673ffffffffffffffffffffffffffffffffffffffff168152602001908152602001600020548152602001908152602001600020600901600082825461181b9190614e4f565b9250508190555034600360008460a001518152602001908152602001600020600801600082825461184c9190614e4f565b925050819055507f857a474f7d18ba7614a11cc88bce5fd9cf05678441e1cb7c7eac53fecf3a8abd60085483606001518360405161188c93929190614b91565b60405180910390a1505050565b600073ffffffffffffffffffffffffffffffffffffffff163373ffffffffffffffffffffffffffffffffffffffff1614156118d357600080fd5b6000600460003373ffffffffffffffffffffffffffffffffffffffff1673ffffffffffffffffffffffffffffffffffffffff1681526020019081526020016000205490508181141561192457600080fd5b600060036000838152602001908152602001600020600701549050600060036000858152602001908152602001600020600601549050600160036000858152602001908152602001600020600501600086815260200190815260200160002060006101000a81548160ff021916908315150217905550600160036000868152602001908152602001600020600301600085815260200190815260200160002060006101000a81548160ff0219169083151502179055506001826119e79190614e4f565b6003600085815260200190815260200160002060070181905550600181611a0e9190614e4f565b60036000868152602001908152602001600020600601819055503373ffffffffffffffffffffffffffffffffffffffff167f1284e19801ce3def7f6b0025adef283c3cd9ee9bf4a717df2e7af6153517726b8486600186611a6f9190614e4f565b604051611a7e93929190614c73565b60405180910390a250505050565b600073ffffffffffffffffffffffffffffffffffffffff163373ffffffffffffffffffffffffffffffffffffffff161415611ac657600080fd5b6000600460003373ffffffffffffffffffffffffffffffffffffffff1673ffffffffffffffffffffffffffffffffffffffff16815260200190815260200160002054905081811415611b1757600080fd5b600060036000838152602001908152602001600020600701549050600060036000858152602001908152602001600020600601549050600060036000858152602001908152602001600020600501600086815260200190815260200160002060006101000a81548160ff021916908315150217905550600182611b9a9190615070565b6003600085815260200190815260200160002060070181905550600060036000868152602001908152602001600020600301600085815260200190815260200160002060006101000a81548160ff021916908315150217905550600181611c019190615070565b60036000868152602001908152602001600020600601819055503373ffffffffffffffffffffffffffffffffffffffff167f1284e19801ce3def7f6b0025adef283c3cd9ee9bf4a717df2e7af6153517726b8486600186611c629190615070565b604051611c7193929190614c29565b60405180910390a250505050565b600082118015611c9157506008548211155b611c9a57600080fd5b6000600260008481526020019081526020016000206040518061012001604052908160008201548152602001600182018054611cd5906151c2565b80601f0160208091040260200160405190810160405280929190818152602001828054611d01906151c2565b8015611d4e5780601f10611d2357610100808354040283529160200191611d4e565b820191906000526020600020905b815481529060010190602001808311611d3157829003601f168201915b50505050508152602001600282018054611d67906151c2565b80601f0160208091040260200160405190810160405280929190818152602001828054611d93906151c2565b8015611de05780601f10611db557610100808354040283529160200191611de0565b820191906000526020600020905b815481529060010190602001808311611dc357829003601f168201915b50505050508152602001600382015481526020016004820160009054906101000a900473ffffffffffffffffffffffffffffffffffffffff1673ffffffffffffffffffffffffffffffffffffffff1673ffffffffffffffffffffffffffffffffffffffff16815260200160058201548152602001600682018054611e63906151c2565b80601f0160208091040260200160405190810160405280929190818152602001828054611e8f906151c2565b8015611edc5780601f10611eb157610100808354040283529160200191611edc565b820191906000526020600020905b815481529060010190602001808311611ebf57829003601f168201915b5050505050815260200160078201548152602001600882018054611eff906151c2565b80601f0160208091040260200160405190810160405280929190818152602001828054611f2b906151c2565b8015611f785780601f10611f4d57610100808354040283529160200191611f78565b820191906000526020600020905b815481529060010190602001808311611f5b57829003601f168201915b505050505081525050905060008160e0015190508080611f979061521f565b915050600060036000600460003373ffffffffffffffffffffffffffffffffffffffff1673ffffffffffffffffffffffffffffffffffffffff16815260200190815260200160002054815260200190815260200160002090506040518060c001604052808681526020018381526020018581526020013373ffffffffffffffffffffffffffffffffffffffff16815260200182600001548152602001826002018054612042906151c2565b80601f016020809104026020016040519081016040528092919081815260200182805461206e906151c2565b80156120bb5780601f10612090576101008083540402835291602001916120bb565b820191906000526020600020905b81548152906001019060200180831161209e57829003601f168201915b505050505081525060056000878152602001908152602001600020600084815260200190815260200160002060008201518160000155602082015181600101556040820151816002019080519060200190612117929190613caf565b5060608201518160030160006101000a81548173ffffffffffffffffffffffffffffffffffffffff021916908373ffffffffffffffffffffffffffffffffffffffff1602179055506080820151816004015560a0820151816005019080519060200190612185929190613caf565b509050508160026000878152602001908152602001600020600701819055507f091c43fe8acad66152ac39b09b3cdf1e435cf052695a5020ae486ec31b65376985838633856002016040516121de959493929190614bc8565b60405180910390a15050505050565b6121f5613c4d565b60008211801561220757506008548211155b61221057600080fd5b600260008381526020019081526020016000206040518061012001604052908160008201548152602001600182018054612249906151c2565b80601f0160208091040260200160405190810160405280929190818152602001828054612275906151c2565b80156122c25780601f10612297576101008083540402835291602001916122c2565b820191906000526020600020905b8154815290600101906020018083116122a557829003601f168201915b505050505081526020016002820180546122db906151c2565b80601f0160208091040260200160405190810160405280929190818152602001828054612307906151c2565b80156123545780601f1061232957610100808354040283529160200191612354565b820191906000526020600020905b81548152906001019060200180831161233757829003601f168201915b50505050508152602001600382015481526020016004820160009054906101000a900473ffffffffffffffffffffffffffffffffffffffff1673ffffffffffffffffffffffffffffffffffffffff1673ffffffffffffffffffffffffffffffffffffffff168152602001600582015481526020016006820180546123d7906151c2565b80601f0160208091040260200160405190810160405280929190818152602001828054612403906151c2565b80156124505780601f1061242557610100808354040283529160200191612450565b820191906000526020600020905b81548152906001019060200180831161243357829003601f168201915b5050505050815260200160078201548152602001600882018054612473906151c2565b80601f016020809104026020016040519081016040528092919081815260200182805461249f906151c2565b80156124ec5780601f106124c1576101008083540402835291602001916124ec565b820191906000526020600020905b8154815290600101906020018083116124cf57829003601f168201915b5050505050815250509050919050565b600060606000806000806000600460003373ffffffffffffffffffffffffffffffffffffffff1673ffffffffffffffffffffffffffffffffffffffff1681526020019081526020016000205490506000811161255757600080fd5b60006003600083815260200190815260200160002090508060000154816002018260060154836007015484600801548560090154848054612597906151c2565b80601f01602080910402602001604051908101604052809291908181526020018280546125c3906151c2565b80156126105780601f106125e557610100808354040283529160200191612610565b820191906000526020600020905b8154815290600101906020018083116125f357829003601f168201915b505050505094509750975097509750975097505050909192939495565b606060006006836040516126419190614811565b908152602001604051809103902080548060200260200160405190810160405280929190818152602001828054801561269957602002820191906000526020600020905b815481526020019060010190808311612685575b50505050509050600080825167ffffffffffffffff8111156126e4577f4e487b7100000000000000000000000000000000000000000000000000000000600052604160045260246000fd5b60405190808252806020026020018201604052801561271d57816020015b61270a613c4d565b8152602001906001900390816127025790505b50905060005b8351811015612b885760076000858381518110612769577f4e487b7100000000000000000000000000000000000000000000000000000000600052603260045260246000fd5b6020026020010151815260200190815260200160002060009054906101000a900460ff16612b7557828061279c9061521f565b9350506001600760008684815181106127de577f4e487b7100000000000000000000000000000000000000000000000000000000600052603260045260246000fd5b6020026020010151815260200190815260200160002060006101000a81548160ff02191690831515021790555060026000858381518110612848577f4e487b7100000000000000000000000000000000000000000000000000000000600052603260045260246000fd5b602002602001015181526020019081526020016000206040518061012001604052908160008201548152602001600182018054612884906151c2565b80601f01602080910402602001604051908101604052809291908181526020018280546128b0906151c2565b80156128fd5780601f106128d2576101008083540402835291602001916128fd565b820191906000526020600020905b8154815290600101906020018083116128e057829003601f168201915b50505050508152602001600282018054612916906151c2565b80601f0160208091040260200160405190810160405280929190818152602001828054612942906151c2565b801561298f5780601f106129645761010080835404028352916020019161298f565b820191906000526020600020905b81548152906001019060200180831161297257829003601f168201915b50505050508152602001600382015481526020016004820160009054906101000a900473ffffffffffffffffffffffffffffffffffffffff1673ffffffffffffffffffffffffffffffffffffffff1673ffffffffffffffffffffffffffffffffffffffff16815260200160058201548152602001600682018054612a12906151c2565b80601f0160208091040260200160405190810160405280929190818152602001828054612a3e906151c2565b8015612a8b5780601f10612a6057610100808354040283529160200191612a8b565b820191906000526020600020905b815481529060010190602001808311612a6e57829003601f168201915b5050505050815260200160078201548152602001600882018054612aae906151c2565b80601f0160208091040260200160405190810160405280929190818152602001828054612ada906151c2565b8015612b275780601f10612afc57610100808354040283529160200191612b27565b820191906000526020600020905b815481529060010190602001808311612b0a57829003601f168201915b505050505081525050828281518110612b69577f4e487b7100000000000000000000000000000000000000000000000000000000600052603260045260246000fd5b60200260200101819052505b8080612b809061521f565b915050612723565b5060005b8351811015612c1457600060076000868481518110612bd4577f4e487b7100000000000000000000000000000000000000000000000000000000600052603260045260246000fd5b6020026020010151815260200190815260200160002060006101000a81548160ff0219169083151502179055508080612c0c9061521f565b915050612b8c565b507f0e3d6a9bec30dea5e3882c7ff90f9bab6a98dfcd9d767484b0058ecc1eeb32558582604051612c469291906149a0565b60405180910390a1809350505050919050565b6000612c64836137e4565b90506000612ca66040518060400160405280600181526020017f20000000000000000000000000000000000000000000000000000000000000008152506137e4565b905060006001612cbf838561381290919063ffffffff16565b612cc99190614e4f565b67ffffffffffffffff811115612d08577f4e487b7100000000000000000000000000000000000000000000000000000000600052604160045260246000fd5b604051908082528060200260200182016040528015612d3b57816020015b6060815260200190600190039081612d265790505b50905060005b8151811015612dbc57612d65612d6084866138ba90919063ffffffff16565b6138d4565b828281518110612d9e577f4e487b7100000000000000000000000000000000000000000000000000000000600052603260045260246000fd5b60200260200101819052508080612db49061521f565b915050612d41565b5060005b8151811015612e9b576000828281518110612e04577f4e487b7100000000000000000000000000000000000000000000000000000000600052603260045260246000fd5b602002602001015190506000600682604051612e209190614811565b908152602001604051809103902090508087908060018154018082558091505060019003906000526020600020016000909190919091505580600683604051612e699190614811565b9081526020016040518091039020908054612e85929190613d35565b5050508080612e939061521f565b915050612dc0565b507fff7bdb826be905156c9c48f1c8f3c42d75db8c0de8b9ce184021dde9c4d516f48185604051612ecd92919061485f565b60405180910390a15050505050565b60008073ffffffffffffffffffffffffffffffffffffffff163373ffffffffffffffffffffffffffffffffffffffff161415612f1757600080fd5b600460008373ffffffffffffffffffffffffffffffffffffffff1673ffffffffffffffffffffffffffffffffffffffff168152602001908152602001600020549050919050565b6000815111612f6c57600080fd5b6009600081819054906101000a900461ffff1680929190612f8c906151f4565b91906101000a81548161ffff021916908361ffff16021790555050600060036000600960009054906101000a900461ffff1661ffff16815260200190815260200160002090503373ffffffffffffffffffffffffffffffffffffffff167f86bccb58d5cc5d9545f467598d37d93ecb638f74090cce7c33c9d02ea467172b604051613016906149f7565b60405180910390a2600960009054906101000a900461ffff1661ffff16816000018190555081816002019080519060200190613053929190613caf565b50338160010160006101000a81548173ffffffffffffffffffffffffffffffffffffffff021916908373ffffffffffffffffffffffffffffffffffffffff16021790555060008160060181905550600081600701819055506000816008018190555060008160090181905550600960009054906101000a900461ffff1661ffff16600460003373ffffffffffffffffffffffffffffffffffffffff1673ffffffffffffffffffffffffffffffffffffffff168152602001908152602001600020819055503373ffffffffffffffffffffffffffffffffffffffff167f86bccb58d5cc5d9545f467598d37d93ecb638f74090cce7c33c9d02ea467172b60405161315b906149d7565b60405180910390a25050565b6060806000600460003373ffffffffffffffffffffffffffffffffffffffff1673ffffffffffffffffffffffffffffffffffffffff1681526020019081526020016000205490506000811180156131d25750600960009054906101000a900461ffff1661ffff168111155b6131db57600080fd5b60006003600083815260200190815260200160002090506000816007015467ffffffffffffffff811115613238577f4e487b7100000000000000000000000000000000000000000000000000000000600052604160045260246000fd5b6040519080825280602002602001820160405280156132665781602001602082028036833780820191505090505b5090506000826006015467ffffffffffffffff8111156132af577f4e487b7100000000000000000000000000000000000000000000000000000000600052604160045260246000fd5b6040519080825280602002602001820160405280156132dd5781602001602082028036833780820191505090505b509050600080600190505b600960009054906101000a900461ffff1661ffff1681116133915784600501600082815260200190815260200160002060009054906101000a900460ff161561337e57808483806133389061521f565b945081518110613371577f4e487b7100000000000000000000000000000000000000000000000000000000600052603260045260246000fd5b6020026020010181815250505b80806133899061521f565b9150506132e8565b50600090506000600190505b600960009054906101000a900461ffff1661ffff1681116134465784600301600082815260200190815260200160002060009054906101000a900460ff161561343357808383806133ed9061521f565b945081518110613426577f4e487b7100000000000000000000000000000000000000000000000000000000600052603260045260246000fd5b6020026020010181815250505b808061343e9061521f565b91505061339d565b503373ffffffffffffffffffffffffffffffffffffffff167f7ebbc67615cdacc372a2a97e3016a3233043ce2d9e92b32fbe3390c0c7286e12848460405161348f92919061492c565b60405180910390a282829650965050505050509091565b60008351116134b457600080fd5b600860008154809291906134c79061521f565b91905055506000600460003373ffffffffffffffffffffffffffffffffffffffff1673ffffffffffffffffffffffffffffffffffffffff1681526020019081526020016000205490506040518061012001604052806008548152602001858152602001604051806060016040528060338152602001615359603391398152602001600081526020013373ffffffffffffffffffffffffffffffffffffffff168152602001828152602001600360008481526020019081526020016000206002018054613592906151c2565b80601f01602080910402602001604051908101604052809291908181526020018280546135be906151c2565b801561360b5780601f106135e05761010080835404028352916020019161360b565b820191906000526020600020905b8154815290600101906020018083116135ee57829003601f168201915b50505050508152602001600081526020018381525060026000600854815260200190815260200160002060008201518160000155602082015181600101908051906020019061365b929190613caf565b506040820151816002019080519060200190613678929190613caf565b506060820151816003015560808201518160040160006101000a81548173ffffffffffffffffffffffffffffffffffffffff021916908373ffffffffffffffffffffffffffffffffffffffff16021790555060a0820151816005015560c08201518160060190805190602001906136f0929190613caf565b5060e08201518160070155610100820151816008019080519060200190613718929190613caf565b509050506001600360008381526020019081526020016000206004016000600854815260200190815260200160002060006101000a81548160ff0219169083151502179055503373ffffffffffffffffffffffffffffffffffffffff167f698f6f9ae0f46119b727d515a5cdd1c7e2583ba7ec76b87e3aa33ef87b252e8b600854868660003387600360008a81526020019081526020016000206002018a6040516137ca989796959493929190614a8f565b60405180910390a26137de84600854612c59565b50505050565b6137ec613d87565b600060208301905060405180604001604052808451815260200182815250915050919050565b60008082600001516138368560000151866020015186600001518760200151613976565b6138409190614e4f565b90505b836000015184602001516138579190614e4f565b81116138b35781806138689061521f565b92505082600001516138a28560200151836138839190615070565b86600001516138929190615070565b8386600001518760200151613976565b6138ac9190614e4f565b9050613843565b5092915050565b6138c2613d87565b6138cd838383613ab7565b5092915050565b60606000826000015167ffffffffffffffff81111561391c577f4e487b7100000000000000000000000000000000000000000000000000000000600052604160045260246000fd5b6040519080825280601f01601f19166020018201604052801561394e5781602001600182028036833780820191505090505b509050600060208201905061396c8185602001518660000151613b82565b8192505050919050565b6000808490506000868511613a9e5760208511613a40576000600186602061399e9190615070565b60086139aa9190615016565b60026139b69190614ef8565b6139c09190615070565b1960001b905060008186511690506000878a8a6139dd9190614e4f565b6139e79190615070565b905060008386511690505b828114613a3257818610613a19578a8a613a0c9190614e4f565b9650505050505050613aaf565b8580613a249061521f565b9650508386511690506139f2565b859650505050505050613aaf565b60008585209050600091505b8588613a589190615070565b8211613a9c576000868420905080821415613a795783945050505050613aaf565b600184613a869190614e4f565b9350508180613a949061521f565b925050613a4c565b505b8686613aaa9190614e4f565b925050505b949350505050565b613abf613d87565b6000613add8560000151866020015186600001518760200151613976565b90508460200151836020018181525050846020015181613afd9190615070565b83600001818152505084600001518560200151613b1a9190614e4f565b811415613b31576000856000018181525050613b77565b83600001518360000151613b459190614e4f565b85600001818151613b569190615070565b91508181525050836000015181613b6d9190614e4f565b8560200181815250505b829150509392505050565b5b60208110613bc15781518352602083613b9c9190614e4f565b9250602082613bab9190614e4f565b9150602081613bba9190615070565b9050613b83565b60006001826020613bd29190615070565b610100613bdf9190614ef8565b613be99190615070565b90508019835116818551168181178652505050505050565b6040518060c00160405280600081526020016000815260200160608152602001600073ffffffffffffffffffffffffffffffffffffffff16815260200160008152602001606081525090565b60405180610120016040528060008152602001606081526020016060815260200160008152602001600073ffffffffffffffffffffffffffffffffffffffff168152602001600081526020016060815260200160008152602001606081525090565b828054613cbb906151c2565b90600052602060002090601f016020900481019282613cdd5760008555613d24565b82601f10613cf657805160ff1916838001178555613d24565b82800160010185558215613d24579182015b82811115613d23578251825591602001919060010190613d08565b5b509050613d319190613da1565b5090565b828054828255906000526020600020908101928215613d765760005260206000209182015b82811115613d75578254825591600101919060010190613d5a565b5b509050613d839190613da1565b5090565b604051806040016040528060008152602001600081525090565b5b80821115613dba576000816000905550600101613da2565b5090565b6000613dd1613dcc84614cee565b614cbd565b905082815260208101848484011115613de957600080fd5b613df4848285615180565b509392505050565b600081359050613e0b81615313565b92915050565b600081359050613e208161532a565b92915050565b600082601f830112613e3757600080fd5b8135613e47848260208601613dbe565b91505092915050565b600081359050613e5f81615341565b92915050565b600060208284031215613e7757600080fd5b6000613e8584828501613dfc565b91505092915050565b600060208284031215613ea057600080fd5b6000613eae84828501613e11565b91505092915050565b600060208284031215613ec957600080fd5b600082013567ffffffffffffffff811115613ee357600080fd5b613eef84828501613e26565b91505092915050565b600080600060608486031215613f0d57600080fd5b600084013567ffffffffffffffff811115613f2757600080fd5b613f3386828701613e26565b935050602084013567ffffffffffffffff811115613f5057600080fd5b613f5c86828701613e26565b925050604084013567ffffffffffffffff811115613f7957600080fd5b613f8586828701613e26565b9150509250925092565b60008060408385031215613fa257600080fd5b600083013567ffffffffffffffff811115613fbc57600080fd5b613fc885828601613e26565b9250506020613fd985828601613e50565b9150509250929050565b600060208284031215613ff557600080fd5b600061400384828501613e50565b91505092915050565b6000806040838503121561401f57600080fd5b600061402d85828601613e50565b925050602083013567ffffffffffffffff81111561404a57600080fd5b61405685828601613e26565b9150509250929050565b600061406c83836142cb565b905092915050565b600061408083836145a0565b905092915050565b60006140948383614630565b905092915050565b60006140a883836147f3565b60208301905092915050565b6140bd81615138565b82525050565b6140cc816150b6565b82525050565b6140db816150a4565b82525050565b6140ea816150a4565b82525050565b60006140fb82614d73565b6141058185614dde565b93508360208202850161411785614d1e565b8060005b8581101561415357848403895281516141348582614060565b945061413f83614daa565b925060208a0199505060018101905061411b565b50829750879550505050505092915050565b600061417082614d7e565b61417a8185614def565b93508360208202850161418c85614d2e565b8060005b858110156141c857848403895281516141a98582614074565b94506141b483614db7565b925060208a01995050600181019050614190565b50829750879550505050505092915050565b60006141e582614d89565b6141ef8185614e00565b93508360208202850161420185614d3e565b8060005b8581101561423d578484038952815161421e8582614088565b945061422983614dc4565b925060208a01995050600181019050614205565b50829750879550505050505092915050565b600061425a82614d94565b6142648185614e11565b935061426f83614d4e565b8060005b838110156142a0578151614287888261409c565b975061429283614dd1565b925050600181019050614273565b5085935050505092915050565b6142b6816150c8565b82525050565b6142c58161514a565b82525050565b60006142d682614d9f565b6142e08185614e22565b93506142f081856020860161518f565b6142f9816152f5565b840191505092915050565b600061430f82614d9f565b6143198185614e33565b935061432981856020860161518f565b614332816152f5565b840191505092915050565b600061434882614d9f565b6143528185614e44565b935061436281856020860161518f565b80840191505092915050565b6000815461437b816151c2565b6143858186614e33565b945060018216600081146143a057600181146143b2576143e5565b60ff19831686526020860193506143e5565b6143bb85614d5e565b60005b838110156143dd578154818901526001820191506020810190506143be565b808801955050505b50505092915050565b60006143fb602583614e33565b91507f556e466f6c6c6f77696e672074686520617574686f722077697468206e65772060008301527f636f756e740000000000000000000000000000000000000000000000000000006020830152604082019050919050565b6000614461600c83614e33565b91507f55736572204372656174656400000000000000000000000000000000000000006000830152602082019050919050565b60006144a1602383614e33565b91507f466f6c6c6f77696e672074686520617574686f722077697468206e657720636f60008301527f756e7400000000000000000000000000000000000000000000000000000000006020830152604082019050919050565b6000614507600d83614e33565b91507f4372656174696e672055736572000000000000000000000000000000000000006000830152602082019050919050565b6000614547603083614e33565b91507f4f6e6c792074686520636f6e7472616374206f776e65722063616e206465737460008301527f726f792074686520636f6e7472616374000000000000000000000000000000006020830152604082019050919050565b600060c0830160008301516145b860008601826147f3565b5060208301516145cb60208601826147f3565b50604083015184820360408601526145e382826142cb565b91505060608301516145f860608601826140d2565b50608083015161460b60808601826147f3565b5060a083015184820360a086015261462382826142cb565b9150508091505092915050565b60006101208301600083015161464960008601826147f3565b506020830151848203602086015261466182826142cb565b9150506040830151848203604086015261467b82826142cb565b915050606083015161469060608601826147f3565b5060808301516146a360808601826140c3565b5060a08301516146b660a08601826147f3565b5060c083015184820360c08601526146ce82826142cb565b91505060e08301516146e360e08601826147f3565b506101008301518482036101008601526146fd82826142cb565b9150508091505092915050565b60006101208301600083015161472360008601826147f3565b506020830151848203602086015261473b82826142cb565b9150506040830151848203604086015261475582826142cb565b915050606083015161476a60608601826147f3565b50608083015161477d60808601826140c3565b5060a083015161479060a08601826147f3565b5060c083015184820360c08601526147a882826142cb565b91505060e08301516147bd60e08601826147f3565b506101008301518482036101008601526147d782826142cb565b9150508091505092915050565b6147ed81615100565b82525050565b6147fc8161512e565b82525050565b61480b8161512e565b82525050565b600061481d828461433d565b915081905092915050565b600060608201905061483d60008301866140e1565b61484a60208301856140e1565b6148576040830184614802565b949350505050565b6000604082019050818103600083015261487981856140f0565b90506148886020830184614802565b9392505050565b600060208201905081810360008301526148a98184614165565b905092915050565b600060208201905081810360008301526148cb81846141da565b905092915050565b600060208201905081810360008301526148ed818461424f565b905092915050565b6000604082019050818103600083015261490f818561424f565b9050818103602083015261492381846141da565b90509392505050565b60006040820190508181036000830152614946818561424f565b9050818103602083015261495a818461424f565b90509392505050565b600060208201905061497860008301846142ad565b92915050565b600060208201905081810360008301526149988184614304565b905092915050565b600060408201905081810360008301526149ba8185614304565b905081810360208301526149ce81846141da565b90509392505050565b600060208201905081810360008301526149f081614454565b9050919050565b60006020820190508181036000830152614a10816144fa565b9050919050565b60006020820190508181036000830152614a308161453a565b9050919050565b60006020820190508181036000830152614a51818461470a565b905092915050565b6000602082019050614a6e60008301846147e4565b92915050565b6000602082019050614a896000830184614802565b92915050565b600061010082019050614aa5600083018b614802565b8181036020830152614ab7818a614304565b90508181036040830152614acb8189614304565b9050614ada60608301886142bc565b614ae760808301876140e1565b614af460a0830186614802565b81810360c0830152614b06818561436e565b905081810360e0830152614b1a8184614304565b90509998505050505050505050565b600060c082019050614b3e6000830189614802565b8181036020830152614b508188614304565b9050614b5f6040830187614802565b614b6c6060830186614802565b614b796080830185614802565b614b8660a0830184614802565b979650505050505050565b6000606082019050614ba66000830186614802565b614bb36020830185614802565b614bc060408301846140b4565b949350505050565b600060a082019050614bdd6000830188614802565b614bea6020830187614802565b8181036040830152614bfc8186614304565b9050614c0b60608301856140e1565b8181036080830152614c1d818461436e565b90509695505050505050565b6000608082019050614c3e6000830186614802565b614c4b6020830185614802565b8181036040830152614c5c816143ee565b9050614c6b6060830184614802565b949350505050565b6000608082019050614c886000830186614802565b614c956020830185614802565b8181036040830152614ca681614494565b9050614cb56060830184614802565b949350505050565b6000604051905081810181811067ffffffffffffffff82111715614ce457614ce36152c6565b5b8060405250919050565b600067ffffffffffffffff821115614d0957614d086152c6565b5b601f19601f8301169050602081019050919050565b6000819050602082019050919050565b6000819050602082019050919050565b6000819050602082019050919050565b6000819050602082019050919050565b60008190508160005260206000209050919050565b600081519050919050565b600081519050919050565b600081519050919050565b600081519050919050565b600081519050919050565b6000602082019050919050565b6000602082019050919050565b6000602082019050919050565b6000602082019050919050565b600082825260208201905092915050565b600082825260208201905092915050565b600082825260208201905092915050565b600082825260208201905092915050565b600082825260208201905092915050565b600082825260208201905092915050565b600081905092915050565b6000614e5a8261512e565b9150614e658361512e565b9250827fffffffffffffffffffffffffffffffffffffffffffffffffffffffffffffffff03821115614e9a57614e99615268565b5b828201905092915050565b6000808291508390505b6001851115614eef57808604811115614ecb57614eca615268565b5b6001851615614eda5780820291505b8081029050614ee885615306565b9450614eaf565b94509492505050565b6000614f038261512e565b9150614f0e8361512e565b9250614f3b7fffffffffffffffffffffffffffffffffffffffffffffffffffffffffffffffff8484614f43565b905092915050565b600082614f53576001905061500f565b81614f61576000905061500f565b8160018114614f775760028114614f8157614fb0565b600191505061500f565b60ff841115614f9357614f92615268565b5b8360020a915084821115614faa57614fa9615268565b5b5061500f565b5060208310610133831016604e8410600b8410161715614fe55782820a905083811115614fe057614fdf615268565b5b61500f565b614ff28484846001614ea5565b9250905081840481111561500957615008615268565b5b81810290505b9392505050565b60006150218261512e565b915061502c8361512e565b9250817fffffffffffffffffffffffffffffffffffffffffffffffffffffffffffffffff048311821515161561506557615064615268565b5b828202905092915050565b600061507b8261512e565b91506150868361512e565b92508282101561509957615098615268565b5b828203905092915050565b60006150af8261510e565b9050919050565b60006150c18261510e565b9050919050565b60008115159050919050565b60007fff0000000000000000000000000000000000000000000000000000000000000082169050919050565b600061ffff82169050919050565b600073ffffffffffffffffffffffffffffffffffffffff82169050919050565b6000819050919050565b60006151438261515c565b9050919050565b60006151558261512e565b9050919050565b60006151678261516e565b9050919050565b60006151798261510e565b9050919050565b82818337600083830152505050565b60005b838110156151ad578082015181840152602081019050615192565b838111156151bc576000848401525b50505050565b600060028204905060018216806151da57607f821691505b602082108114156151ee576151ed615297565b5b50919050565b60006151ff82615100565b915061ffff82141561521457615213615268565b5b600182019050919050565b600061522a8261512e565b91507fffffffffffffffffffffffffffffffffffffffffffffffffffffffffffffffff82141561525d5761525c615268565b5b600182019050919050565b7f4e487b7100000000000000000000000000000000000000000000000000000000600052601160045260246000fd5b7f4e487b7100000000000000000000000000000000000000000000000000000000600052602260045260246000fd5b7f4e487b7100000000000000000000000000000000000000000000000000000000600052604160045260246000fd5b6000601f19601f8301169050919050565b60008160011c9050919050565b61531c816150a4565b811461532757600080fd5b50565b615333816150d4565b811461533e57600080fd5b50565b61534a8161512e565b811461535557600080fd5b5056fe68747470733a2f2f6769746875622e636f6d2f5072617665656e50696e2f53696d706c652d536f6369616c2d4e6574776f726ba2646970667358221220edea91bdcc2988ca19a45dd73e0665a9c7f3352e53c0b8d09965c3db3d52e28264736f6c63430008000033",
  "immutableReferences": {},
  "source": "pragma solidity ^0.8.0;\r\n\r\nimport './owned.sol';\r\nimport \"./StringsLib.sol\";\r\npragma abicoder v2;\r\n\r\ncontract SocialNetwork is owned{\r\n    /*Add code */\r\n    using strings for *;\r\n\r\n    string public networkName; /* State variable -> this value gets stored on block chain*/\r\n    // we cannot know the length of any map and cannot iterate over it, we can only fetch individually\r\n    mapping(uint => Post) posts;/* Key Value Store, gets written to block chain itself */\r\n    mapping(uint => User) users;\r\n    mapping(address => uint) addressToUid;\r\n    mapping(uint => mapping(uint => Comment)) comments;\r\n    mapping(string => uint[]) postsFromTags;\r\n    mapping(uint256 => bool) helperMap;\r\n\r\n    uint public postCount = 0;\r\n    uint16 public userCount = 0;\r\n\r\n    struct User{\r\n        uint id;\r\n        address userAddress;\r\n        string name;        \r\n        mapping(uint => bool) followerIds;\r\n        mapping(uint => bool) myPostIds; //not user's id\r\n        mapping(uint => bool) followingIds;\r\n        uint followersCount;\r\n        uint followingCount;\r\n        uint tipObtained;\r\n        uint tipDonated;\r\n    } \r\n\r\n    struct Post{\r\n        uint pid;\r\n        string content;\r\n        string url;\r\n        uint tipAmount;\r\n        address payable author;\r\n        uint authorId;\r\n        string authorName;\r\n        uint commentsCount;\r\n        string picIpfsHash;\r\n    }\r\n\r\n    struct Comment{\r\n        uint postId;\r\n        uint cid;\r\n        string comment;\r\n        address author;\r\n        uint authorId;\r\n        string authorName;\r\n    }\r\n\r\n    constructor () public {\r\n        networkName = \"ETH - SocialNetwork\";\r\n    }\r\n\r\n    //events for creating user, following a user, unfollowing a user\r\n    event AutoCreateUser(address indexed sender, string message);\r\n    event FollowOrUnFollowUser(address indexed sender, uint senderId, uint author, string message, uint count);\r\n\r\n    function getUserIdFromAddress(address _userAddress) public checkAddress view returns (uint){\r\n        return addressToUid[_userAddress];\r\n    }\r\n\r\n    function getPostFromPostId(uint _postId) public view returns (Post memory){\r\n        require(_postId > 0 && _postId <= postCount);\r\n        return posts[_postId];\r\n    }\r\n\r\n    function autoCreateUser(string memory _uname) public {        \r\n        require(bytes(_uname).length > 0);\r\n        userCount++;\r\n        User storage _user = users[userCount];\r\n        emit AutoCreateUser(msg.sender, \"Creating User\");            \r\n        _user.id = userCount;\r\n        _user.name = _uname;\r\n        _user.userAddress = msg.sender;\r\n        _user.followersCount = 0;\r\n        _user.followingCount = 0;\r\n        _user.tipObtained = 0;\r\n        _user.tipDonated = 0;\r\n        addressToUid[msg.sender] = userCount;\r\n        emit AutoCreateUser(msg.sender, \"User Created\");\r\n    }\r\n\r\n    function getUserInfo() public view returns (uint, string memory, uint, uint, uint, uint){     \r\n        uint _userId = addressToUid[msg.sender];\r\n        require(_userId > 0);   \r\n        User storage _user = users[_userId];\r\n        return (_user.id, _user.name, _user.followersCount, _user.followingCount, _user.tipObtained, _user.tipDonated);\r\n    }\r\n\r\n    function followAuthor(uint _authorId) public checkAddress{\r\n        uint senderId = addressToUid[msg.sender];\r\n        require(senderId != _authorId);\r\n        uint followingCount = users[senderId].followingCount;\r\n        uint authorsFollowersCount = users[_authorId].followersCount;\r\n        users[senderId].followingIds[_authorId] = true;\r\n        users[_authorId].followerIds[senderId] = true;\r\n        users[senderId].followingCount = followingCount+1;\r\n        users[_authorId].followersCount = authorsFollowersCount+1;\r\n        emit FollowOrUnFollowUser(msg.sender, senderId, _authorId, \"Following the author with new count\", followingCount+1);\r\n    }\r\n\r\n    function unFollowAuthor(uint _authorId) public checkAddress{\r\n        uint senderId = addressToUid[msg.sender];\r\n        require(senderId != _authorId);\r\n        uint followingCount = users[senderId].followingCount;\r\n        uint authorsFollowersCount = users[_authorId].followersCount;\r\n        users[senderId].followingIds[_authorId] = false;\r\n        users[senderId].followingCount = followingCount-1;\r\n        users[_authorId].followerIds[senderId] = false;\r\n        users[_authorId].followersCount = authorsFollowersCount-1;\r\n        emit FollowOrUnFollowUser(msg.sender, senderId, _authorId, \"UnFollowing the author with new count\", followingCount -1);\r\n    }\r\n\r\n    event FetchMyPosts(address indexed addr, uint[] myPostIds);\r\n\r\n    event FetchMyNetworkIds(address indexed sender, uint[] followingIds, uint[] followerIds);\r\n\r\n    function getMyPosts(uint _id) public returns (uint[] memory, Post[] memory){        \r\n        uint myPostCount = 0;\r\n        uint counter = 0;\r\n\r\n        User storage _user = users[_id];\r\n        for (uint i = 1; i <= postCount; i++){\r\n            if(_user.myPostIds[i]){\r\n                myPostCount++;\r\n            }\r\n        }\r\n        \r\n        uint[] memory postIds = new uint[](myPostCount);\r\n        Post[] memory myPosts = new Post[](myPostCount);\r\n        \r\n        for (uint i = 1; i <= postCount; i++){\r\n            if(_user.myPostIds[i]){\r\n                postIds[counter] = i;\r\n                myPosts[counter++] = posts[i];\r\n            }\r\n        }\r\n        emit FetchMyPosts(msg.sender,postIds);\r\n        return (postIds, myPosts);\r\n    }\r\n\r\n    function getAllFollowingIds() public returns (uint[] memory, uint[] memory){\r\n        uint myId = addressToUid[msg.sender];\r\n        require(myId > 0 && myId <= userCount);\r\n        User storage _user = users[myId];\r\n        uint[] memory followingIds = new uint[](_user.followingCount);\r\n        uint[] memory followerIds = new uint[](_user.followersCount);\r\n        uint counter = 0;\r\n        for (uint i = 1; i <= userCount; i++){\r\n            if(_user.followingIds[i]){\r\n                followingIds[counter++] = i;\r\n            }\r\n        }\r\n        counter = 0;\r\n        for (uint i = 1; i <= userCount; i++){\r\n            if(_user.followerIds[i]){\r\n                followerIds[counter++] = i;\r\n            }\r\n        }\r\n        emit FetchMyNetworkIds(msg.sender,followingIds,followerIds);\r\n        return (followingIds,followerIds);\r\n    }\r\n\r\n    function getUserData(uint _uid) public view returns (uint, string memory, uint, uint, uint, uint){     \r\n        require(_uid > 0);   \r\n        User storage _user = users[_uid];\r\n        return (_user.id, _user.name, _user.followersCount, _user.followingCount, _user.tipObtained, _user.tipDonated);\r\n    }\r\n\r\n    event PostCreated(address indexed id, uint pid, string content, string url, uint tipAmount, address author, uint authorId, string authorName, string imageHash);\r\n\r\n    function createPost(string memory _content, string memory _url, string memory _imageHash ) public{ \r\n        //require valid content\r\n        require(bytes(_content).length > 0); //if false it stops execution and gas used will be refunded back to caller, else continues execution\r\n        \r\n        /* Here _content is a local var and underscore is just a conventions for local vars*/\r\n        postCount++;        \r\n        uint userId = addressToUid[msg.sender];\r\n        posts[postCount] = Post(postCount, _content, \"https://github.com/PraveenPin/Simple-Social-Network\", 0, payable(msg.sender), userId, users[userId].name, 0, _imageHash); /* Instantiates Post, adds it into map */        \r\n        //adding the post id to the user\r\n        users[userId].myPostIds[postCount] = true;\r\n        //Trigger event from solidity smart contracts\r\n        //these posts can be open for subscription by consumers\r\n        emit PostCreated(msg.sender,postCount, _content, _url, 0, msg.sender, userId, users[userId].name, _imageHash);        \r\n        createTag(_content, postCount);\r\n    }\r\n\r\n    event PostTipped(uint pid, uint tipAmount, address author);\r\n\r\n    function tipAPost(uint _id) public payable {\r\n        require(_id > 0 && _id <= postCount);\r\n        Post memory _post = posts[_id];\r\n        address payable _author = _post.author;\r\n        //paying the author by sending ether\r\n        payable(address(_author)).transfer(msg.value);\r\n        //here the tip should be ether, so we use function meta data\r\n        _post.tipAmount = _post.tipAmount + msg.value;\r\n        posts[_id] = _post;\r\n        \r\n        //add tip amount to user donation\r\n        users[addressToUid[msg.sender]].tipDonated += msg.value;\r\n        //add tip amount to author's obtained tip\r\n        users[_post.authorId].tipObtained += msg.value;\r\n        emit PostTipped(postCount, _post.tipAmount, _author);\r\n    }\r\n\r\n    //functions, events to create and delete comments\r\n    event CommentDeleted(uint pid, uint cid, string deletedComment, address commentAuthor, string authorName);\r\n    event CommentCreated(uint pid, uint cid, string comment, address commentedUser, string authorName);\r\n\r\n    function createComment(uint _pid, string memory _comment) public {\r\n        require(_pid > 0 && _pid <= postCount);\r\n        Post memory _post = posts[_pid];\r\n        uint commentsCount = _post.commentsCount;\r\n        commentsCount++;\r\n        User storage _user = users[addressToUid[msg.sender]];\r\n        comments[_pid][commentsCount] = Comment(_pid, commentsCount, _comment, msg.sender, _user.id, _user.name);\r\n        posts[_pid].commentsCount = commentsCount;\r\n        emit CommentCreated(_pid, commentsCount, _comment, msg.sender, _user.name);\r\n    }\r\n\r\n    function fetchAllComments(uint _postId) public view returns (Comment[] memory){\r\n        require(_postId > 0 && _postId <= postCount);\r\n        Post memory _post = posts[_postId];\r\n        uint commentsCount = _post.commentsCount;\r\n        Comment[] memory postComments = new Comment[](commentsCount);\r\n        uint counter = 0;\r\n        for(uint i=1; i<= commentsCount; i++){\r\n            postComments[counter++] = comments[_postId][i];\r\n        }\r\n        return postComments;\r\n    }\r\n\r\n    //event for tag creation\r\n    event PostTagsCreated(string[] tags, uint postId);\r\n    event AllPostsOfATag(string tag, Post[] posts);\r\n    event emitWord(string tag);\r\n\r\n    function createTag(string memory _content, uint _postId) public {       \r\n        \r\n        strings.slice memory s  = _content.toSlice();\r\n        strings.slice memory delim = \" \".toSlice();\r\n        string[] memory parts = new string[](s.count(delim) + 1);\r\n        for(uint i = 0; i < parts.length; i++) {\r\n            parts[i] = s.split(delim).toString();\r\n        }\r\n\r\n        for(uint i = 0; i<parts.length;i++){\r\n            string memory tag = parts[i];\r\n            uint[] storage postIds = postsFromTags[tag];\r\n            postIds.push(_postId);\r\n            postsFromTags[tag] = postIds;\r\n            // bool found = false;\r\n            // for(uint j=0; j<postIds.length; i++){\r\n            //     if(!found && postIds[j] == _postId){\r\n            //         found = true;\r\n            //         break;\r\n            //     }\r\n            // }\r\n            // if(!found){\r\n            // }\r\n        }\r\n\r\n\r\n        emit PostTagsCreated(parts, _postId);\r\n    }\r\n\r\n    function checkEmptyCharacter(bytes1 _char) public pure returns (bool){\r\n        if(_char == 0x20){\r\n            return true;\r\n        }\r\n        return false;\r\n    }\r\n\r\n    function getPostsFromTag(string memory tag) public returns (Post[] memory){\r\n        uint[] memory postIds = postsFromTags[tag];\r\n        uint counter = 0;\r\n        Post[] memory postsOfTag = new Post[](postIds.length);\r\n        for(uint i=0;i< postIds.length;i++){\r\n            if(!helperMap[postIds[i]]){\r\n                counter++;\r\n                helperMap[postIds[i]] = true;\r\n                postsOfTag[i] = posts[postIds[i]];\r\n            }\r\n        }\r\n\r\n        //nullify helper map\r\n        for(uint i=0;i< postIds.length;i++){\r\n            helperMap[postIds[i]] = false;\r\n        }\r\n        emit AllPostsOfATag(tag, postsOfTag);\r\n        return postsOfTag;\r\n    }\r\n\r\n    //self destruct event \r\n    event DestroyContract(address sender, address caller, uint balance);\r\n\r\n    function destroyContract() public onlyOwner{\r\n        emit DestroyContract(msg.sender, owner, owner.balance);\r\n        selfdestruct(payable(msg.sender));\r\n    }\r\n\r\n}",
  "sourcePath": "C:/Users/praveen/Desktop/Eth-Project/Simple-Social-Network/src/contracts/SocialNetwork.sol",
  "compiler": {
    "name": "solc",
    "version": "0.8.0+commit.c7dfd78e.Emscripten.clang"
  },
  "schemaVersion": "3.4.1",
  "updatedAt": "2021-06-16T06:19:04.268Z",
  "networkType": "ethereum",
  "devdoc": {
    "kind": "dev",
    "methods": {},
    "version": 1
  },
  "userdoc": {
    "kind": "user",
    "methods": {},
    "version": 1
  }
}