{
  "contractName": "SocialNetwork",
  "abi": [
    {
      "inputs": [],
      "stateMutability": "nonpayable",
      "type": "constructor"
    },
    {
      "anonymous": false,
      "inputs": [
        {
          "indexed": true,
          "internalType": "address",
          "name": "sender",
          "type": "address"
        },
        {
          "indexed": false,
          "internalType": "string",
          "name": "message",
          "type": "string"
        }
      ],
      "name": "AutoCreateUser",
      "type": "event"
    },
    {
      "anonymous": false,
      "inputs": [
        {
          "indexed": false,
          "internalType": "uint256",
          "name": "pid",
          "type": "uint256"
        },
        {
          "indexed": false,
          "internalType": "uint256",
          "name": "cid",
          "type": "uint256"
        },
        {
          "indexed": false,
          "internalType": "string",
          "name": "comment",
          "type": "string"
        },
        {
          "indexed": false,
          "internalType": "address",
          "name": "commentedUser",
          "type": "address"
        },
        {
          "indexed": false,
          "internalType": "string",
          "name": "authorName",
          "type": "string"
        }
      ],
      "name": "CommentCreated",
      "type": "event"
    },
    {
      "anonymous": false,
      "inputs": [
        {
          "indexed": false,
          "internalType": "uint256",
          "name": "pid",
          "type": "uint256"
        },
        {
          "indexed": false,
          "internalType": "uint256",
          "name": "cid",
          "type": "uint256"
        },
        {
          "indexed": false,
          "internalType": "string",
          "name": "deletedComment",
          "type": "string"
        },
        {
          "indexed": false,
          "internalType": "address",
          "name": "commentAuthor",
          "type": "address"
        },
        {
          "indexed": false,
          "internalType": "string",
          "name": "authorName",
          "type": "string"
        }
      ],
      "name": "CommentDeleted",
      "type": "event"
    },
    {
      "anonymous": false,
      "inputs": [
        {
          "indexed": false,
          "internalType": "address",
          "name": "sender",
          "type": "address"
        },
        {
          "indexed": false,
          "internalType": "address",
          "name": "caller",
          "type": "address"
        },
        {
          "indexed": false,
          "internalType": "uint256",
          "name": "balance",
          "type": "uint256"
        }
      ],
      "name": "DestroyContract",
      "type": "event"
    },
    {
      "anonymous": false,
      "inputs": [
        {
          "indexed": true,
          "internalType": "address",
          "name": "sender",
          "type": "address"
        },
        {
          "indexed": false,
          "internalType": "uint256[]",
          "name": "followingIds",
          "type": "uint256[]"
        },
        {
          "indexed": false,
          "internalType": "uint256[]",
          "name": "followerIds",
          "type": "uint256[]"
        }
      ],
      "name": "FetchMyNetworkIds",
      "type": "event"
    },
    {
      "anonymous": false,
      "inputs": [
        {
          "indexed": true,
          "internalType": "address",
          "name": "addr",
          "type": "address"
        },
        {
          "indexed": false,
          "internalType": "uint256[]",
          "name": "myPostIds",
          "type": "uint256[]"
        }
      ],
      "name": "FetchMyPosts",
      "type": "event"
    },
    {
      "anonymous": false,
      "inputs": [
        {
          "indexed": true,
          "internalType": "address",
          "name": "sender",
          "type": "address"
        },
        {
          "indexed": false,
          "internalType": "uint256",
          "name": "senderId",
          "type": "uint256"
        },
        {
          "indexed": false,
          "internalType": "uint256",
          "name": "author",
          "type": "uint256"
        },
        {
          "indexed": false,
          "internalType": "string",
          "name": "message",
          "type": "string"
        },
        {
          "indexed": false,
          "internalType": "uint256",
          "name": "count",
          "type": "uint256"
        }
      ],
      "name": "FollowOrUnFollowUser",
      "type": "event"
    },
    {
      "anonymous": false,
      "inputs": [
        {
          "indexed": true,
          "internalType": "address",
          "name": "id",
          "type": "address"
        },
        {
          "indexed": false,
          "internalType": "uint256",
          "name": "pid",
          "type": "uint256"
        },
        {
          "indexed": false,
          "internalType": "string",
          "name": "content",
          "type": "string"
        },
        {
          "indexed": false,
          "internalType": "string",
          "name": "url",
          "type": "string"
        },
        {
          "indexed": false,
          "internalType": "uint256",
          "name": "tipAmount",
          "type": "uint256"
        },
        {
          "indexed": false,
          "internalType": "address",
          "name": "author",
          "type": "address"
        },
        {
          "indexed": false,
          "internalType": "uint256",
          "name": "authorId",
          "type": "uint256"
        },
        {
          "indexed": false,
          "internalType": "string",
          "name": "authorName",
          "type": "string"
        }
      ],
      "name": "PostCreated",
      "type": "event"
    },
    {
      "anonymous": false,
      "inputs": [
        {
          "indexed": false,
          "internalType": "uint256",
          "name": "pid",
          "type": "uint256"
        },
        {
          "indexed": false,
          "internalType": "uint256",
          "name": "tipAmount",
          "type": "uint256"
        },
        {
          "indexed": false,
          "internalType": "address",
          "name": "author",
          "type": "address"
        }
      ],
      "name": "PostTipped",
      "type": "event"
    },
    {
      "inputs": [
        {
          "internalType": "address",
          "name": "",
          "type": "address"
        }
      ],
      "name": "addressToUid",
      "outputs": [
        {
          "internalType": "uint256",
          "name": "",
          "type": "uint256"
        }
      ],
      "stateMutability": "view",
      "type": "function",
      "constant": true
    },
    {
      "inputs": [
        {
          "internalType": "uint256",
          "name": "",
          "type": "uint256"
        },
        {
          "internalType": "uint256",
          "name": "",
          "type": "uint256"
        }
      ],
      "name": "comments",
      "outputs": [
        {
          "internalType": "uint256",
          "name": "postId",
          "type": "uint256"
        },
        {
          "internalType": "uint256",
          "name": "cid",
          "type": "uint256"
        },
        {
          "internalType": "string",
          "name": "comment",
          "type": "string"
        },
        {
          "internalType": "address",
          "name": "author",
          "type": "address"
        },
        {
          "internalType": "uint256",
          "name": "authorId",
          "type": "uint256"
        },
        {
          "internalType": "string",
          "name": "authorName",
          "type": "string"
        }
      ],
      "stateMutability": "view",
      "type": "function",
      "constant": true
    },
    {
      "inputs": [],
      "name": "networkName",
      "outputs": [
        {
          "internalType": "string",
          "name": "",
          "type": "string"
        }
      ],
      "stateMutability": "view",
      "type": "function",
      "constant": true
    },
    {
      "inputs": [],
      "name": "postCount",
      "outputs": [
        {
          "internalType": "uint256",
          "name": "",
          "type": "uint256"
        }
      ],
      "stateMutability": "view",
      "type": "function",
      "constant": true
    },
    {
      "inputs": [
        {
          "internalType": "uint256",
          "name": "",
          "type": "uint256"
        }
      ],
      "name": "posts",
      "outputs": [
        {
          "internalType": "uint256",
          "name": "pid",
          "type": "uint256"
        },
        {
          "internalType": "string",
          "name": "content",
          "type": "string"
        },
        {
          "internalType": "string",
          "name": "url",
          "type": "string"
        },
        {
          "internalType": "uint256",
          "name": "tipAmount",
          "type": "uint256"
        },
        {
          "internalType": "address payable",
          "name": "author",
          "type": "address"
        },
        {
          "internalType": "uint256",
          "name": "authorId",
          "type": "uint256"
        },
        {
          "internalType": "string",
          "name": "authorName",
          "type": "string"
        },
        {
          "internalType": "uint256",
          "name": "commentsCount",
          "type": "uint256"
        }
      ],
      "stateMutability": "view",
      "type": "function",
      "constant": true
    },
    {
      "inputs": [],
      "name": "userCount",
      "outputs": [
        {
          "internalType": "uint16",
          "name": "",
          "type": "uint16"
        }
      ],
      "stateMutability": "view",
      "type": "function",
      "constant": true
    },
    {
      "inputs": [
        {
          "internalType": "uint256",
          "name": "",
          "type": "uint256"
        }
      ],
      "name": "users",
      "outputs": [
        {
          "internalType": "uint256",
          "name": "id",
          "type": "uint256"
        },
        {
          "internalType": "address",
          "name": "userAddress",
          "type": "address"
        },
        {
          "internalType": "string",
          "name": "name",
          "type": "string"
        },
        {
          "internalType": "uint256",
          "name": "followersCount",
          "type": "uint256"
        },
        {
          "internalType": "uint256",
          "name": "followingCount",
          "type": "uint256"
        },
        {
          "internalType": "uint256",
          "name": "tipObtained",
          "type": "uint256"
        },
        {
          "internalType": "uint256",
          "name": "tipDonated",
          "type": "uint256"
        }
      ],
      "stateMutability": "view",
      "type": "function",
      "constant": true
    },
    {
      "inputs": [
        {
          "internalType": "string",
          "name": "_uname",
          "type": "string"
        }
      ],
      "name": "autoCreateUser",
      "outputs": [],
      "stateMutability": "nonpayable",
      "type": "function"
    },
    {
      "inputs": [],
      "name": "getUserInfo",
      "outputs": [
        {
          "internalType": "uint256",
          "name": "",
          "type": "uint256"
        },
        {
          "internalType": "string",
          "name": "",
          "type": "string"
        },
        {
          "internalType": "uint256",
          "name": "",
          "type": "uint256"
        },
        {
          "internalType": "uint256",
          "name": "",
          "type": "uint256"
        },
        {
          "internalType": "uint256",
          "name": "",
          "type": "uint256"
        },
        {
          "internalType": "uint256",
          "name": "",
          "type": "uint256"
        }
      ],
      "stateMutability": "view",
      "type": "function",
      "constant": true
    },
    {
      "inputs": [
        {
          "internalType": "uint256",
          "name": "_authorId",
          "type": "uint256"
        }
      ],
      "name": "followAuthor",
      "outputs": [],
      "stateMutability": "nonpayable",
      "type": "function"
    },
    {
      "inputs": [
        {
          "internalType": "uint256",
          "name": "_authorId",
          "type": "uint256"
        }
      ],
      "name": "unFollowAuthor",
      "outputs": [],
      "stateMutability": "nonpayable",
      "type": "function"
    },
    {
      "inputs": [
        {
          "internalType": "uint256",
          "name": "_id",
          "type": "uint256"
        }
      ],
      "name": "getMyPosts",
      "outputs": [
        {
          "internalType": "uint256[]",
          "name": "",
          "type": "uint256[]"
        },
        {
          "components": [
            {
              "internalType": "uint256",
              "name": "pid",
              "type": "uint256"
            },
            {
              "internalType": "string",
              "name": "content",
              "type": "string"
            },
            {
              "internalType": "string",
              "name": "url",
              "type": "string"
            },
            {
              "internalType": "uint256",
              "name": "tipAmount",
              "type": "uint256"
            },
            {
              "internalType": "address payable",
              "name": "author",
              "type": "address"
            },
            {
              "internalType": "uint256",
              "name": "authorId",
              "type": "uint256"
            },
            {
              "internalType": "string",
              "name": "authorName",
              "type": "string"
            },
            {
              "internalType": "uint256",
              "name": "commentsCount",
              "type": "uint256"
            }
          ],
          "internalType": "struct SocialNetwork.Post[]",
          "name": "",
          "type": "tuple[]"
        }
      ],
      "stateMutability": "nonpayable",
      "type": "function"
    },
    {
      "inputs": [],
      "name": "getAllFollowingIds",
      "outputs": [
        {
          "internalType": "uint256[]",
          "name": "",
          "type": "uint256[]"
        },
        {
          "internalType": "uint256[]",
          "name": "",
          "type": "uint256[]"
        }
      ],
      "stateMutability": "nonpayable",
      "type": "function"
    },
    {
      "inputs": [
        {
          "internalType": "uint256",
          "name": "_uid",
          "type": "uint256"
        }
      ],
      "name": "getUserData",
      "outputs": [
        {
          "internalType": "uint256",
          "name": "",
          "type": "uint256"
        },
        {
          "internalType": "string",
          "name": "",
          "type": "string"
        },
        {
          "internalType": "uint256",
          "name": "",
          "type": "uint256"
        },
        {
          "internalType": "uint256",
          "name": "",
          "type": "uint256"
        },
        {
          "internalType": "uint256",
          "name": "",
          "type": "uint256"
        },
        {
          "internalType": "uint256",
          "name": "",
          "type": "uint256"
        }
      ],
      "stateMutability": "view",
      "type": "function",
      "constant": true
    },
    {
      "inputs": [
        {
          "internalType": "string",
          "name": "_content",
          "type": "string"
        },
        {
          "internalType": "string",
          "name": "_url",
          "type": "string"
        }
      ],
      "name": "createPost",
      "outputs": [],
      "stateMutability": "nonpayable",
      "type": "function"
    },
    {
      "inputs": [
        {
          "internalType": "uint256",
          "name": "_id",
          "type": "uint256"
        }
      ],
      "name": "tipAPost",
      "outputs": [],
      "stateMutability": "payable",
      "type": "function",
      "payable": true
    },
    {
      "inputs": [
        {
          "internalType": "uint256",
          "name": "_pid",
          "type": "uint256"
        },
        {
          "internalType": "string",
          "name": "_comment",
          "type": "string"
        }
      ],
      "name": "createComment",
      "outputs": [],
      "stateMutability": "nonpayable",
      "type": "function"
    },
    {
      "inputs": [
        {
          "internalType": "uint256",
          "name": "_postId",
          "type": "uint256"
        }
      ],
      "name": "fetchAllComments",
      "outputs": [
        {
          "components": [
            {
              "internalType": "uint256",
              "name": "postId",
              "type": "uint256"
            },
            {
              "internalType": "uint256",
              "name": "cid",
              "type": "uint256"
            },
            {
              "internalType": "string",
              "name": "comment",
              "type": "string"
            },
            {
              "internalType": "address",
              "name": "author",
              "type": "address"
            },
            {
              "internalType": "uint256",
              "name": "authorId",
              "type": "uint256"
            },
            {
              "internalType": "string",
              "name": "authorName",
              "type": "string"
            }
          ],
          "internalType": "struct SocialNetwork.Comment[]",
          "name": "",
          "type": "tuple[]"
        }
      ],
      "stateMutability": "view",
      "type": "function",
      "constant": true
    },
    {
      "inputs": [],
      "name": "destroyContract",
      "outputs": [],
      "stateMutability": "nonpayable",
      "type": "function"
    }
  ],
  "bytecode": "0x608060405260006006556000600760006101000a81548161ffff021916908361ffff1602179055503480156200003457600080fd5b50336000806101000a81548173ffffffffffffffffffffffffffffffffffffffff021916908373ffffffffffffffffffffffffffffffffffffffff1602179055506040518060400160405280601381526020017f455448202d20536f6369616c4e6574776f726b0000000000000000000000000081525060019080519060200190620000c2929190620000c9565b50620001de565b828054620000d79062000179565b90600052602060002090601f016020900481019282620000fb576000855562000147565b82601f106200011657805160ff191683800117855562000147565b8280016001018555821562000147579182015b828111156200014657825182559160200191906001019062000129565b5b5090506200015691906200015a565b5090565b5b80821115620001755760008160009055506001016200015b565b5090565b600060028204905060018216806200019257607f821691505b60208210811415620001a957620001a8620001af565b5b50919050565b7f4e487b7100000000000000000000000000000000000000000000000000000000600052602260045260246000fd5b6140b980620001ee6000396000f3fe6080604052600436106101145760003560e01c80632fc95d71116100a057806340a179851161006457806340a17985146103c95780635d8d1585146103f2578063ad2c48ef14610422578063d70d88fd1461044b578063fc6c776f1461047757610114565b80632fc95d71146102ef5780633223e4b81461030b578063365b98b214610334578063392338f514610377578063392cfec7146103a057610114565b80630c1d50cb116100e75780630c1d50cb146101dc5780630fffe86a1461021a578063107bf28c1461025757806317906c2e146102825780631fef580c146102ad57610114565b806307973ccf14610119578063092a5cce14610144578063096568b41461015b5780630b1e7f8314610198575b600080fd5b34801561012557600080fd5b5061012e6104b9565b60405161013b91906136f5565b60405180910390f35b34801561015057600080fd5b506101596104cd565b005b34801561016757600080fd5b50610182600480360381019061017d9190612fd3565b610606565b60405161018f91906135c1565b60405180910390f35b3480156101a457600080fd5b506101bf60048036038101906101ba9190612fd3565b610b47565b6040516101d3989796959493929190613825565b60405180910390f35b3480156101e857600080fd5b5061020360048036038101906101fe9190612fd3565b610d47565b604051610211929190613605565b60405180910390f35b34801561022657600080fd5b50610241600480360381019061023c9190612efd565b611244565b60405161024e9190613710565b60405180910390f35b34801561026357600080fd5b5061026c61125c565b6040516102799190613673565b60405180910390f35b34801561028e57600080fd5b506102976112ea565b6040516102a49190613710565b60405180910390f35b3480156102b957600080fd5b506102d460048036038101906102cf9190612fd3565b6112f0565b6040516102e6969594939291906138b8565b60405180910390f35b61030960048036038101906103049190612fd3565b6113dd565b005b34801561031757600080fd5b50610332600480360381019061032d9190612fd3565b611878565b005b34801561034057600080fd5b5061035b60048036038101906103569190612fd3565b611a6b565b60405161036e979695949392919061372b565b60405180910390f35b34801561038357600080fd5b5061039e60048036038101906103999190612f67565b611b55565b005b3480156103ac57600080fd5b506103c760048036038101906103c29190612fd3565b611e60565b005b3480156103d557600080fd5b506103f060048036038101906103eb9190612ffc565b612053565b005b3480156103fe57600080fd5b5061040761252f565b604051610419969594939291906138b8565b60405180910390f35b34801561042e57600080fd5b5061044960048036038101906104449190612f26565b612660565b005b34801561045757600080fd5b50610460612869565b60405161046e92919061363c565b60405180910390f35b34801561048357600080fd5b5061049e60048036038101906104999190613050565b612ba8565b6040516104b0969594939291906139b8565b60405180910390f35b600760009054906101000a900461ffff1681565b3373ffffffffffffffffffffffffffffffffffffffff1660008054906101000a900473ffffffffffffffffffffffffffffffffffffffff1673ffffffffffffffffffffffffffffffffffffffff161461055b576040517f08c379a0000000000000000000000000000000000000000000000000000000008152600401610552906136d5565b60405180910390fd5b7f1ec0eba9b0e9e969285026819e2b9903c774ac2ea3e68a8123cb3528b39489423360008054906101000a900473ffffffffffffffffffffffffffffffffffffffff1660008054906101000a900473ffffffffffffffffffffffffffffffffffffffff1673ffffffffffffffffffffffffffffffffffffffff16316040516105e59392919061358a565b60405180910390a13373ffffffffffffffffffffffffffffffffffffffff16ff5b606060008211801561061a57506006548211155b61062357600080fd5b600060026000848152602001908152602001600020604051806101000160405290816000820154815260200160018201805461065e90613d6e565b80601f016020809104026020016040519081016040528092919081815260200182805461068a90613d6e565b80156106d75780601f106106ac576101008083540402835291602001916106d7565b820191906000526020600020905b8154815290600101906020018083116106ba57829003601f168201915b505050505081526020016002820180546106f090613d6e565b80601f016020809104026020016040519081016040528092919081815260200182805461071c90613d6e565b80156107695780601f1061073e57610100808354040283529160200191610769565b820191906000526020600020905b81548152906001019060200180831161074c57829003601f168201915b50505050508152602001600382015481526020016004820160009054906101000a900473ffffffffffffffffffffffffffffffffffffffff1673ffffffffffffffffffffffffffffffffffffffff1673ffffffffffffffffffffffffffffffffffffffff168152602001600582015481526020016006820180546107ec90613d6e565b80601f016020809104026020016040519081016040528092919081815260200182805461081890613d6e565b80156108655780601f1061083a57610100808354040283529160200191610865565b820191906000526020600020905b81548152906001019060200180831161084857829003601f168201915b50505050508152602001600782015481525050905060008160e00151905060008167ffffffffffffffff8111156108c5577f4e487b7100000000000000000000000000000000000000000000000000000000600052604160045260246000fd5b6040519080825280602002602001820160405280156108fe57816020015b6108eb612d21565b8152602001906001900390816108e35790505b509050600080600190505b838111610b3a576005600088815260200190815260200160002060008281526020019081526020016000206040518060c0016040529081600082015481526020016001820154815260200160028201805461096390613d6e565b80601f016020809104026020016040519081016040528092919081815260200182805461098f90613d6e565b80156109dc5780601f106109b1576101008083540402835291602001916109dc565b820191906000526020600020905b8154815290600101906020018083116109bf57829003601f168201915b505050505081526020016003820160009054906101000a900473ffffffffffffffffffffffffffffffffffffffff1673ffffffffffffffffffffffffffffffffffffffff1673ffffffffffffffffffffffffffffffffffffffff16815260200160048201548152602001600582018054610a5590613d6e565b80601f0160208091040260200160405190810160405280929190818152602001828054610a8190613d6e565b8015610ace5780601f10610aa357610100808354040283529160200191610ace565b820191906000526020600020905b815481529060010190602001808311610ab157829003601f168201915b505050505081525050838380610ae390613dfc565b945081518110610b1c577f4e487b7100000000000000000000000000000000000000000000000000000000600052603260045260246000fd5b60200260200101819052508080610b3290613dfc565b915050610909565b5081945050505050919050565b6002602052806000526040600020600091509050806000015490806001018054610b7090613d6e565b80601f0160208091040260200160405190810160405280929190818152602001828054610b9c90613d6e565b8015610be95780601f10610bbe57610100808354040283529160200191610be9565b820191906000526020600020905b815481529060010190602001808311610bcc57829003601f168201915b505050505090806002018054610bfe90613d6e565b80601f0160208091040260200160405190810160405280929190818152602001828054610c2a90613d6e565b8015610c775780601f10610c4c57610100808354040283529160200191610c77565b820191906000526020600020905b815481529060010190602001808311610c5a57829003601f168201915b5050505050908060030154908060040160009054906101000a900473ffffffffffffffffffffffffffffffffffffffff1690806005015490806006018054610cbe90613d6e565b80601f0160208091040260200160405190810160405280929190818152602001828054610cea90613d6e565b8015610d375780601f10610d0c57610100808354040283529160200191610d37565b820191906000526020600020905b815481529060010190602001808311610d1a57829003601f168201915b5050505050908060070154905088565b60608060008060006003600087815260200190815260200160002090506000600190505b6006548111610dbe5781600401600082815260200190815260200160002060009054906101000a900460ff1615610dab578380610da790613dfc565b9450505b8080610db690613dfc565b915050610d6b565b5060008367ffffffffffffffff811115610e01577f4e487b7100000000000000000000000000000000000000000000000000000000600052604160045260246000fd5b604051908082528060200260200182016040528015610e2f5781602001602082028036833780820191505090505b50905060008467ffffffffffffffff811115610e74577f4e487b7100000000000000000000000000000000000000000000000000000000600052604160045260246000fd5b604051908082528060200260200182016040528015610ead57816020015b610e9a612d6d565b815260200190600190039081610e925790505b5090506000600190505b60065481116111e55783600401600082815260200190815260200160002060009054906101000a900460ff16156111d25780838681518110610f22577f4e487b7100000000000000000000000000000000000000000000000000000000600052603260045260246000fd5b602002602001018181525050600260008281526020019081526020016000206040518061010001604052908160008201548152602001600182018054610f6790613d6e565b80601f0160208091040260200160405190810160405280929190818152602001828054610f9390613d6e565b8015610fe05780601f10610fb557610100808354040283529160200191610fe0565b820191906000526020600020905b815481529060010190602001808311610fc357829003601f168201915b50505050508152602001600282018054610ff990613d6e565b80601f016020809104026020016040519081016040528092919081815260200182805461102590613d6e565b80156110725780601f1061104757610100808354040283529160200191611072565b820191906000526020600020905b81548152906001019060200180831161105557829003601f168201915b50505050508152602001600382015481526020016004820160009054906101000a900473ffffffffffffffffffffffffffffffffffffffff1673ffffffffffffffffffffffffffffffffffffffff1673ffffffffffffffffffffffffffffffffffffffff168152602001600582015481526020016006820180546110f590613d6e565b80601f016020809104026020016040519081016040528092919081815260200182805461112190613d6e565b801561116e5780601f106111435761010080835404028352916020019161116e565b820191906000526020600020905b81548152906001019060200180831161115157829003601f168201915b5050505050815260200160078201548152505082868061118d90613dfc565b9750815181106111c6577f4e487b7100000000000000000000000000000000000000000000000000000000600052603260045260246000fd5b60200260200101819052505b80806111dd90613dfc565b915050610eb7565b503373ffffffffffffffffffffffffffffffffffffffff167fd2365500f72e0836a24bca0665a95120d4f6169769a291786d75fa886cd572e08360405161122c91906135e3565b60405180910390a28181965096505050505050915091565b60046020528060005260406000206000915090505481565b6001805461126990613d6e565b80601f016020809104026020016040519081016040528092919081815260200182805461129590613d6e565b80156112e25780601f106112b7576101008083540402835291602001916112e2565b820191906000526020600020905b8154815290600101906020018083116112c557829003601f168201915b505050505081565b60065481565b600060606000806000806000871161130757600080fd5b6000600360008981526020019081526020016000209050806000015481600201826006015483600701548460080154856009015484805461134790613d6e565b80601f016020809104026020016040519081016040528092919081815260200182805461137390613d6e565b80156113c05780601f10611395576101008083540402835291602001916113c0565b820191906000526020600020905b8154815290600101906020018083116113a357829003601f168201915b505050505094509650965096509650965096505091939550919395565b6000811180156113ef57506006548111155b6113f857600080fd5b600060026000838152602001908152602001600020604051806101000160405290816000820154815260200160018201805461143390613d6e565b80601f016020809104026020016040519081016040528092919081815260200182805461145f90613d6e565b80156114ac5780601f10611481576101008083540402835291602001916114ac565b820191906000526020600020905b81548152906001019060200180831161148f57829003601f168201915b505050505081526020016002820180546114c590613d6e565b80601f01602080910402602001604051908101604052809291908181526020018280546114f190613d6e565b801561153e5780601f106115135761010080835404028352916020019161153e565b820191906000526020600020905b81548152906001019060200180831161152157829003601f168201915b50505050508152602001600382015481526020016004820160009054906101000a900473ffffffffffffffffffffffffffffffffffffffff1673ffffffffffffffffffffffffffffffffffffffff1673ffffffffffffffffffffffffffffffffffffffff168152602001600582015481526020016006820180546115c190613d6e565b80601f01602080910402602001604051908101604052809291908181526020018280546115ed90613d6e565b801561163a5780601f1061160f5761010080835404028352916020019161163a565b820191906000526020600020905b81548152906001019060200180831161161d57829003601f168201915b5050505050815260200160078201548152505090506000816080015190508073ffffffffffffffffffffffffffffffffffffffff166108fc349081150290604051600060405180830381858888f1935050505015801561169e573d6000803e3d6000fd5b503482606001516116af9190613bfe565b82606001818152505081600260008581526020019081526020016000206000820151816000015560208201518160010190805190602001906116f2929190612dc8565b50604082015181600201908051906020019061170f929190612dc8565b506060820151816003015560808201518160040160006101000a81548173ffffffffffffffffffffffffffffffffffffffff021916908373ffffffffffffffffffffffffffffffffffffffff16021790555060a0820151816005015560c0820151816006019080519060200190611787929190612dc8565b5060e082015181600701559050503460036000600460003373ffffffffffffffffffffffffffffffffffffffff1673ffffffffffffffffffffffffffffffffffffffff16815260200190815260200160002054815260200190815260200160002060090160008282546117fa9190613bfe565b9250508190555034600360008460a001518152602001908152602001600020600801600082825461182b9190613bfe565b925050819055507f857a474f7d18ba7614a11cc88bce5fd9cf05678441e1cb7c7eac53fecf3a8abd60065483606001518360405161186b93929190613920565b60405180910390a1505050565b600073ffffffffffffffffffffffffffffffffffffffff163373ffffffffffffffffffffffffffffffffffffffff1614156118b257600080fd5b6000600460003373ffffffffffffffffffffffffffffffffffffffff1673ffffffffffffffffffffffffffffffffffffffff1681526020019081526020016000205490508181141561190357600080fd5b600060036000838152602001908152602001600020600701549050600060036000858152602001908152602001600020600601549050600160036000858152602001908152602001600020600501600086815260200190815260200160002060006101000a81548160ff021916908315150217905550600160036000868152602001908152602001600020600301600085815260200190815260200160002060006101000a81548160ff0219169083151502179055506001826119c69190613bfe565b60036000858152602001908152602001600020600701819055506001816119ed9190613bfe565b60036000868152602001908152602001600020600601819055503373ffffffffffffffffffffffffffffffffffffffff167f1284e19801ce3def7f6b0025adef283c3cd9ee9bf4a717df2e7af6153517726b8486600186611a4e9190613bfe565b604051611a5d93929190613a71565b60405180910390a250505050565b60036020528060005260406000206000915090508060000154908060010160009054906101000a900473ffffffffffffffffffffffffffffffffffffffff1690806002018054611aba90613d6e565b80601f0160208091040260200160405190810160405280929190818152602001828054611ae690613d6e565b8015611b335780601f10611b0857610100808354040283529160200191611b33565b820191906000526020600020905b815481529060010190602001808311611b1657829003601f168201915b5050505050908060060154908060070154908060080154908060090154905087565b6000825111611b6357600080fd5b60066000815480929190611b7690613dfc565b91905055506000600460003373ffffffffffffffffffffffffffffffffffffffff1673ffffffffffffffffffffffffffffffffffffffff1681526020019081526020016000205490506040518061010001604052806006548152602001848152602001604051806060016040528060338152602001614051603391398152602001600081526020013373ffffffffffffffffffffffffffffffffffffffff168152602001828152602001600360008481526020019081526020016000206002018054611c4190613d6e565b80601f0160208091040260200160405190810160405280929190818152602001828054611c6d90613d6e565b8015611cba5780601f10611c8f57610100808354040283529160200191611cba565b820191906000526020600020905b815481529060010190602001808311611c9d57829003601f168201915b505050505081526020016000815250600260006006548152602001908152602001600020600082015181600001556020820151816001019080519060200190611d04929190612dc8565b506040820151816002019080519060200190611d21929190612dc8565b506060820151816003015560808201518160040160006101000a81548173ffffffffffffffffffffffffffffffffffffffff021916908373ffffffffffffffffffffffffffffffffffffffff16021790555060a0820151816005015560c0820151816006019080519060200190611d99929190612dc8565b5060e082015181600701559050506001600360008381526020019081526020016000206004016000600654815260200190815260200160002060006101000a81548160ff0219169083151502179055503373ffffffffffffffffffffffffffffffffffffffff167f2fab7d22c558b3256207695703b5c832f1a661de05ca9d69c2638097841b60a2600654858560003387600360008a8152602001908152602001600020600201604051611e5397969594939291906137a1565b60405180910390a2505050565b600073ffffffffffffffffffffffffffffffffffffffff163373ffffffffffffffffffffffffffffffffffffffff161415611e9a57600080fd5b6000600460003373ffffffffffffffffffffffffffffffffffffffff1673ffffffffffffffffffffffffffffffffffffffff16815260200190815260200160002054905081811415611eeb57600080fd5b600060036000838152602001908152602001600020600701549050600060036000858152602001908152602001600020600601549050600060036000858152602001908152602001600020600501600086815260200190815260200160002060006101000a81548160ff021916908315150217905550600182611f6e9190613c54565b6003600085815260200190815260200160002060070181905550600060036000868152602001908152602001600020600301600085815260200190815260200160002060006101000a81548160ff021916908315150217905550600181611fd59190613c54565b60036000868152602001908152602001600020600601819055503373ffffffffffffffffffffffffffffffffffffffff167f1284e19801ce3def7f6b0025adef283c3cd9ee9bf4a717df2e7af6153517726b84866001866120369190613c54565b60405161204593929190613a27565b60405180910390a250505050565b60008211801561206557506006548211155b61206e57600080fd5b60006002600084815260200190815260200160002060405180610100016040529081600082015481526020016001820180546120a990613d6e565b80601f01602080910402602001604051908101604052809291908181526020018280546120d590613d6e565b80156121225780601f106120f757610100808354040283529160200191612122565b820191906000526020600020905b81548152906001019060200180831161210557829003601f168201915b5050505050815260200160028201805461213b90613d6e565b80601f016020809104026020016040519081016040528092919081815260200182805461216790613d6e565b80156121b45780601f10612189576101008083540402835291602001916121b4565b820191906000526020600020905b81548152906001019060200180831161219757829003601f168201915b50505050508152602001600382015481526020016004820160009054906101000a900473ffffffffffffffffffffffffffffffffffffffff1673ffffffffffffffffffffffffffffffffffffffff1673ffffffffffffffffffffffffffffffffffffffff1681526020016005820154815260200160068201805461223790613d6e565b80601f016020809104026020016040519081016040528092919081815260200182805461226390613d6e565b80156122b05780601f10612285576101008083540402835291602001916122b0565b820191906000526020600020905b81548152906001019060200180831161229357829003601f168201915b50505050508152602001600782015481525050905060008160e00151905080806122d990613dfc565b915050600060036000600460003373ffffffffffffffffffffffffffffffffffffffff1673ffffffffffffffffffffffffffffffffffffffff16815260200190815260200160002054815260200190815260200160002090506040518060c001604052808681526020018381526020018581526020013373ffffffffffffffffffffffffffffffffffffffff1681526020018260000154815260200182600201805461238490613d6e565b80601f01602080910402602001604051908101604052809291908181526020018280546123b090613d6e565b80156123fd5780601f106123d2576101008083540402835291602001916123fd565b820191906000526020600020905b8154815290600101906020018083116123e057829003601f168201915b505050505081525060056000878152602001908152602001600020600084815260200190815260200160002060008201518160000155602082015181600101556040820151816002019080519060200190612459929190612dc8565b5060608201518160030160006101000a81548173ffffffffffffffffffffffffffffffffffffffff021916908373ffffffffffffffffffffffffffffffffffffffff1602179055506080820151816004015560a08201518160050190805190602001906124c7929190612dc8565b509050508160026000878152602001908152602001600020600701819055507f091c43fe8acad66152ac39b09b3cdf1e435cf052695a5020ae486ec31b6537698583863385600201604051612520959493929190613957565b60405180910390a15050505050565b600060606000806000806000600460003373ffffffffffffffffffffffffffffffffffffffff1673ffffffffffffffffffffffffffffffffffffffff1681526020019081526020016000205490506000811161258a57600080fd5b600060036000838152602001908152602001600020905080600001548160020182600601548360070154846008015485600901548480546125ca90613d6e565b80601f01602080910402602001604051908101604052809291908181526020018280546125f690613d6e565b80156126435780601f1061261857610100808354040283529160200191612643565b820191906000526020600020905b81548152906001019060200180831161262657829003601f168201915b505050505094509750975097509750975097505050909192939495565b600081511161266e57600080fd5b6007600081819054906101000a900461ffff168092919061268e90613dd1565b91906101000a81548161ffff021916908361ffff16021790555050600060036000600760009054906101000a900461ffff1661ffff16815260200190815260200160002090503373ffffffffffffffffffffffffffffffffffffffff167f86bccb58d5cc5d9545f467598d37d93ecb638f74090cce7c33c9d02ea467172b604051612718906136b5565b60405180910390a2600760009054906101000a900461ffff1661ffff16816000018190555081816002019080519060200190612755929190612dc8565b50338160010160006101000a81548173ffffffffffffffffffffffffffffffffffffffff021916908373ffffffffffffffffffffffffffffffffffffffff16021790555060008160060181905550600081600701819055506000816008018190555060008160090181905550600760009054906101000a900461ffff1661ffff16600460003373ffffffffffffffffffffffffffffffffffffffff1673ffffffffffffffffffffffffffffffffffffffff168152602001908152602001600020819055503373ffffffffffffffffffffffffffffffffffffffff167f86bccb58d5cc5d9545f467598d37d93ecb638f74090cce7c33c9d02ea467172b60405161285d90613695565b60405180910390a25050565b6060806000600460003373ffffffffffffffffffffffffffffffffffffffff1673ffffffffffffffffffffffffffffffffffffffff1681526020019081526020016000205490506000811180156128d45750600760009054906101000a900461ffff1661ffff168111155b6128dd57600080fd5b60006003600083815260200190815260200160002090506000816007015467ffffffffffffffff81111561293a577f4e487b7100000000000000000000000000000000000000000000000000000000600052604160045260246000fd5b6040519080825280602002602001820160405280156129685781602001602082028036833780820191505090505b5090506000826006015467ffffffffffffffff8111156129b1577f4e487b7100000000000000000000000000000000000000000000000000000000600052604160045260246000fd5b6040519080825280602002602001820160405280156129df5781602001602082028036833780820191505090505b509050600080600190505b600760009054906101000a900461ffff1661ffff168111612a935784600501600082815260200190815260200160002060009054906101000a900460ff1615612a805780848380612a3a90613dfc565b945081518110612a73577f4e487b7100000000000000000000000000000000000000000000000000000000600052603260045260246000fd5b6020026020010181815250505b8080612a8b90613dfc565b9150506129ea565b50600090506000600190505b600760009054906101000a900461ffff1661ffff168111612b485784600301600082815260200190815260200160002060009054906101000a900460ff1615612b355780838380612aef90613dfc565b945081518110612b28577f4e487b7100000000000000000000000000000000000000000000000000000000600052603260045260246000fd5b6020026020010181815250505b8080612b4090613dfc565b915050612a9f565b503373ffffffffffffffffffffffffffffffffffffffff167f7ebbc67615cdacc372a2a97e3016a3233043ce2d9e92b32fbe3390c0c7286e128484604051612b9192919061363c565b60405180910390a282829650965050505050509091565b600560205281600052604060002060205280600052604060002060009150915050806000015490806001015490806002018054612be490613d6e565b80601f0160208091040260200160405190810160405280929190818152602001828054612c1090613d6e565b8015612c5d5780601f10612c3257610100808354040283529160200191612c5d565b820191906000526020600020905b815481529060010190602001808311612c4057829003601f168201915b5050505050908060030160009054906101000a900473ffffffffffffffffffffffffffffffffffffffff1690806004015490806005018054612c9e90613d6e565b80601f0160208091040260200160405190810160405280929190818152602001828054612cca90613d6e565b8015612d175780601f10612cec57610100808354040283529160200191612d17565b820191906000526020600020905b815481529060010190602001808311612cfa57829003601f168201915b5050505050905086565b6040518060c00160405280600081526020016000815260200160608152602001600073ffffffffffffffffffffffffffffffffffffffff16815260200160008152602001606081525090565b60405180610100016040528060008152602001606081526020016060815260200160008152602001600073ffffffffffffffffffffffffffffffffffffffff1681526020016000815260200160608152602001600081525090565b828054612dd490613d6e565b90600052602060002090601f016020900481019282612df65760008555612e3d565b82601f10612e0f57805160ff1916838001178555612e3d565b82800160010185558215612e3d579182015b82811115612e3c578251825591602001919060010190612e21565b5b509050612e4a9190612e4e565b5090565b5b80821115612e67576000816000905550600101612e4f565b5090565b6000612e7e612e7984613ae0565b613abb565b905082815260208101848484011115612e9657600080fd5b612ea1848285613d2c565b509392505050565b600081359050612eb881614022565b92915050565b600082601f830112612ecf57600080fd5b8135612edf848260208601612e6b565b91505092915050565b600081359050612ef781614039565b92915050565b600060208284031215612f0f57600080fd5b6000612f1d84828501612ea9565b91505092915050565b600060208284031215612f3857600080fd5b600082013567ffffffffffffffff811115612f5257600080fd5b612f5e84828501612ebe565b91505092915050565b60008060408385031215612f7a57600080fd5b600083013567ffffffffffffffff811115612f9457600080fd5b612fa085828601612ebe565b925050602083013567ffffffffffffffff811115612fbd57600080fd5b612fc985828601612ebe565b9150509250929050565b600060208284031215612fe557600080fd5b6000612ff384828501612ee8565b91505092915050565b6000806040838503121561300f57600080fd5b600061301d85828601612ee8565b925050602083013567ffffffffffffffff81111561303a57600080fd5b61304685828601612ebe565b9150509250929050565b6000806040838503121561306357600080fd5b600061307185828601612ee8565b925050602061308285828601612ee8565b9150509250929050565b6000613098838361340f565b905092915050565b60006130ac838361349f565b905092915050565b60006130c0838361356c565b60208301905092915050565b6130d581613ce4565b82525050565b6130e481613c9a565b82525050565b6130f381613c9a565b82525050565b61310281613c88565b82525050565b61311181613c88565b82525050565b600061312282613b56565b61312c8185613ba9565b93508360208202850161313e85613b11565b8060005b8581101561317a578484038952815161315b858261308c565b945061316683613b82565b925060208a01995050600181019050613142565b50829750879550505050505092915050565b600061319782613b61565b6131a18185613bba565b9350836020820285016131b385613b21565b8060005b858110156131ef57848403895281516131d085826130a0565b94506131db83613b8f565b925060208a019950506001810190506131b7565b50829750879550505050505092915050565b600061320c82613b6c565b6132168185613bcb565b935061322183613b31565b8060005b8381101561325257815161323988826130b4565b975061324483613b9c565b925050600181019050613225565b5085935050505092915050565b61326881613cf6565b82525050565b600061327982613b77565b6132838185613bdc565b9350613293818560208601613d3b565b61329c81613ed2565b840191505092915050565b60006132b282613b77565b6132bc8185613bed565b93506132cc818560208601613d3b565b6132d581613ed2565b840191505092915050565b600081546132ed81613d6e565b6132f78186613bed565b94506001821660008114613312576001811461332457613357565b60ff1983168652602086019350613357565b61332d85613b41565b60005b8381101561334f57815481890152600182019150602081019050613330565b808801955050505b50505092915050565b600061336d602583613bed565b915061337882613ee3565b604082019050919050565b6000613390600c83613bed565b915061339b82613f32565b602082019050919050565b60006133b3602383613bed565b91506133be82613f5b565b604082019050919050565b60006133d6600d83613bed565b91506133e182613faa565b602082019050919050565b60006133f9603083613bed565b915061340482613fd3565b604082019050919050565b600060c083016000830151613427600086018261356c565b50602083015161343a602086018261356c565b5060408301518482036040860152613452828261326e565b915050606083015161346760608601826130f9565b50608083015161347a608086018261356c565b5060a083015184820360a0860152613492828261326e565b9150508091505092915050565b6000610100830160008301516134b8600086018261356c565b50602083015184820360208601526134d0828261326e565b915050604083015184820360408601526134ea828261326e565b91505060608301516134ff606086018261356c565b50608083015161351260808601826130db565b5060a083015161352560a086018261356c565b5060c083015184820360c086015261353d828261326e565b91505060e083015161355260e086018261356c565b508091505092915050565b61356681613cac565b82525050565b61357581613cda565b82525050565b61358481613cda565b82525050565b600060608201905061359f6000830186613108565b6135ac6020830185613108565b6135b9604083018461357b565b949350505050565b600060208201905081810360008301526135db8184613117565b905092915050565b600060208201905081810360008301526135fd8184613201565b905092915050565b6000604082019050818103600083015261361f8185613201565b90508181036020830152613633818461318c565b90509392505050565b600060408201905081810360008301526136568185613201565b9050818103602083015261366a8184613201565b90509392505050565b6000602082019050818103600083015261368d81846132a7565b905092915050565b600060208201905081810360008301526136ae81613383565b9050919050565b600060208201905081810360008301526136ce816133c9565b9050919050565b600060208201905081810360008301526136ee816133ec565b9050919050565b600060208201905061370a600083018461355d565b92915050565b6000602082019050613725600083018461357b565b92915050565b600060e082019050613740600083018a61357b565b61374d6020830189613108565b818103604083015261375f81886132a7565b905061376e606083018761357b565b61377b608083018661357b565b61378860a083018561357b565b61379560c083018461357b565b98975050505050505050565b600060e0820190506137b6600083018a61357b565b81810360208301526137c881896132a7565b905081810360408301526137dc81886132a7565b90506137eb606083018761325f565b6137f86080830186613108565b61380560a083018561357b565b81810360c083015261381781846132e0565b905098975050505050505050565b60006101008201905061383b600083018b61357b565b818103602083015261384d818a6132a7565b9050818103604083015261386181896132a7565b9050613870606083018861357b565b61387d60808301876130ea565b61388a60a083018661357b565b81810360c083015261389c81856132a7565b90506138ab60e083018461357b565b9998505050505050505050565b600060c0820190506138cd600083018961357b565b81810360208301526138df81886132a7565b90506138ee604083018761357b565b6138fb606083018661357b565b613908608083018561357b565b61391560a083018461357b565b979650505050505050565b6000606082019050613935600083018661357b565b613942602083018561357b565b61394f60408301846130cc565b949350505050565b600060a08201905061396c600083018861357b565b613979602083018761357b565b818103604083015261398b81866132a7565b905061399a6060830185613108565b81810360808301526139ac81846132e0565b90509695505050505050565b600060c0820190506139cd600083018961357b565b6139da602083018861357b565b81810360408301526139ec81876132a7565b90506139fb6060830186613108565b613a08608083018561357b565b81810360a0830152613a1a81846132a7565b9050979650505050505050565b6000608082019050613a3c600083018661357b565b613a49602083018561357b565b8181036040830152613a5a81613360565b9050613a69606083018461357b565b949350505050565b6000608082019050613a86600083018661357b565b613a93602083018561357b565b8181036040830152613aa4816133a6565b9050613ab3606083018461357b565b949350505050565b6000613ac5613ad6565b9050613ad18282613da0565b919050565b6000604051905090565b600067ffffffffffffffff821115613afb57613afa613ea3565b5b613b0482613ed2565b9050602081019050919050565b6000819050602082019050919050565b6000819050602082019050919050565b6000819050602082019050919050565b60008190508160005260206000209050919050565b600081519050919050565b600081519050919050565b600081519050919050565b600081519050919050565b6000602082019050919050565b6000602082019050919050565b6000602082019050919050565b600082825260208201905092915050565b600082825260208201905092915050565b600082825260208201905092915050565b600082825260208201905092915050565b600082825260208201905092915050565b6000613c0982613cda565b9150613c1483613cda565b9250827fffffffffffffffffffffffffffffffffffffffffffffffffffffffffffffffff03821115613c4957613c48613e45565b5b828201905092915050565b6000613c5f82613cda565b9150613c6a83613cda565b925082821015613c7d57613c7c613e45565b5b828203905092915050565b6000613c9382613cba565b9050919050565b6000613ca582613cba565b9050919050565b600061ffff82169050919050565b600073ffffffffffffffffffffffffffffffffffffffff82169050919050565b6000819050919050565b6000613cef82613d08565b9050919050565b6000613d0182613cda565b9050919050565b6000613d1382613d1a565b9050919050565b6000613d2582613cba565b9050919050565b82818337600083830152505050565b60005b83811015613d59578082015181840152602081019050613d3e565b83811115613d68576000848401525b50505050565b60006002820490506001821680613d8657607f821691505b60208210811415613d9a57613d99613e74565b5b50919050565b613da982613ed2565b810181811067ffffffffffffffff82111715613dc857613dc7613ea3565b5b80604052505050565b6000613ddc82613cac565b915061ffff821415613df157613df0613e45565b5b600182019050919050565b6000613e0782613cda565b91507fffffffffffffffffffffffffffffffffffffffffffffffffffffffffffffffff821415613e3a57613e39613e45565b5b600182019050919050565b7f4e487b7100000000000000000000000000000000000000000000000000000000600052601160045260246000fd5b7f4e487b7100000000000000000000000000000000000000000000000000000000600052602260045260246000fd5b7f4e487b7100000000000000000000000000000000000000000000000000000000600052604160045260246000fd5b6000601f19601f8301169050919050565b7f556e466f6c6c6f77696e672074686520617574686f722077697468206e65772060008201527f636f756e74000000000000000000000000000000000000000000000000000000602082015250565b7f5573657220437265617465640000000000000000000000000000000000000000600082015250565b7f466f6c6c6f77696e672074686520617574686f722077697468206e657720636f60008201527f756e740000000000000000000000000000000000000000000000000000000000602082015250565b7f4372656174696e67205573657200000000000000000000000000000000000000600082015250565b7f4f6e6c792074686520636f6e7472616374206f776e65722063616e206465737460008201527f726f792074686520636f6e747261637400000000000000000000000000000000602082015250565b61402b81613c88565b811461403657600080fd5b50565b61404281613cda565b811461404d57600080fd5b5056fe68747470733a2f2f6769746875622e636f6d2f5072617665656e50696e2f53696d706c652d536f6369616c2d4e6574776f726ba264697066735822122019de71456c67487ed314a6213ecb15aaf8474f7e7026d553433f41eaa89f102f64736f6c63430008010033",
  "immutableReferences": {},
  "source": "pragma solidity ^0.8.0;\r\n\r\nimport './owned.sol';\r\n\r\ncontract SocialNetwork is owned{\r\n    /*Add code */\r\n    string public networkName; /* State variable -> this value gets stored on block chain*/\r\n    // we cannot know the length of any map and cannot iterate over it, we can only fetch individually\r\n    mapping(uint => Post) public posts;/* Key Value Store, gets written to block chain itself */\r\n    mapping(uint => User) public users;\r\n    mapping(address => uint) public addressToUid;\r\n    mapping(uint => mapping(uint => Comment)) public comments;\r\n\r\n    uint public postCount = 0;\r\n    uint16 public userCount = 0;\r\n\r\n    struct User{\r\n        uint id;\r\n        address userAddress;\r\n        string name;        \r\n        mapping(uint => bool) followerIds;\r\n        mapping(uint => bool) myPostIds; //not user's id\r\n        mapping(uint => bool) followingIds;\r\n        uint followersCount;\r\n        uint followingCount;\r\n        uint tipObtained;\r\n        uint tipDonated;\r\n    } \r\n\r\n    struct Post{\r\n        uint pid;\r\n        string content;\r\n        string url;\r\n        uint tipAmount;\r\n        address payable author;\r\n        uint authorId;\r\n        string authorName;\r\n        uint commentsCount;\r\n    }\r\n\r\n    struct Comment{\r\n        uint postId;\r\n        uint cid;\r\n        string comment;\r\n        address author;\r\n        uint authorId;\r\n        string authorName;\r\n    }\r\n\r\n    constructor () {\r\n        networkName = \"ETH - SocialNetwork\";\r\n    }\r\n\r\n    //events for creating user, following a user, unfollowing a user\r\n    event AutoCreateUser(address indexed sender, string message);\r\n    event FollowOrUnFollowUser(address indexed sender, uint senderId, uint author, string message, uint count);\r\n\r\n    function autoCreateUser(string memory _uname) public {        \r\n        require(bytes(_uname).length > 0);\r\n        userCount++;\r\n        User storage _user = users[userCount];\r\n        emit AutoCreateUser(msg.sender, \"Creating User\");            \r\n        _user.id = userCount;\r\n        _user.name = _uname;\r\n        _user.userAddress = msg.sender;\r\n        _user.followersCount = 0;\r\n        _user.followingCount = 0;\r\n        _user.tipObtained = 0;\r\n        _user.tipDonated = 0;\r\n        addressToUid[msg.sender] = userCount;\r\n        emit AutoCreateUser(msg.sender, \"User Created\");\r\n    }\r\n\r\n    function getUserInfo() public view returns (uint, string memory, uint, uint, uint, uint){     \r\n        uint _userId = addressToUid[msg.sender];\r\n        require(_userId > 0);   \r\n        User storage _user = users[_userId];\r\n        return (_user.id, _user.name, _user.followersCount, _user.followingCount, _user.tipObtained, _user.tipDonated);\r\n    }\r\n\r\n    function followAuthor(uint _authorId) public checkAddress{\r\n        uint senderId = addressToUid[msg.sender];\r\n        require(senderId != _authorId);\r\n        uint followingCount = users[senderId].followingCount;\r\n        uint authorsFollowersCount = users[_authorId].followersCount;\r\n        users[senderId].followingIds[_authorId] = true;\r\n        users[_authorId].followerIds[senderId] = true;\r\n        users[senderId].followingCount = followingCount+1;\r\n        users[_authorId].followersCount = authorsFollowersCount+1;\r\n        emit FollowOrUnFollowUser(msg.sender, senderId, _authorId, \"Following the author with new count\", followingCount+1);\r\n    }\r\n\r\n    function unFollowAuthor(uint _authorId) public checkAddress{\r\n        uint senderId = addressToUid[msg.sender];\r\n        require(senderId != _authorId);\r\n        uint followingCount = users[senderId].followingCount;\r\n        uint authorsFollowersCount = users[_authorId].followersCount;\r\n        users[senderId].followingIds[_authorId] = false;\r\n        users[senderId].followingCount = followingCount-1;\r\n        users[_authorId].followerIds[senderId] = false;\r\n        users[_authorId].followersCount = authorsFollowersCount-1;\r\n        emit FollowOrUnFollowUser(msg.sender, senderId, _authorId, \"UnFollowing the author with new count\", followingCount -1);\r\n    }\r\n\r\n    event FetchMyPosts(address indexed addr, uint[] myPostIds);\r\n\r\n    event FetchMyNetworkIds(address indexed sender, uint[] followingIds, uint[] followerIds);\r\n\r\n    function getMyPosts(uint _id) public returns (uint[] memory, Post[] memory){        \r\n        uint myPostCount = 0;\r\n        uint counter = 0;\r\n\r\n        User storage _user = users[_id];\r\n        for (uint i = 1; i <= postCount; i++){\r\n            if(_user.myPostIds[i]){\r\n                myPostCount++;\r\n            }\r\n        }\r\n        \r\n        uint[] memory postIds = new uint[](myPostCount);\r\n        Post[] memory myPosts = new Post[](myPostCount);\r\n        \r\n        for (uint i = 1; i <= postCount; i++){\r\n            if(_user.myPostIds[i]){\r\n                postIds[counter] = i;\r\n                myPosts[counter++] = posts[i];\r\n            }\r\n        }\r\n        emit FetchMyPosts(msg.sender,postIds);\r\n        return (postIds, myPosts);\r\n    }\r\n\r\n    function getAllFollowingIds() public returns (uint[] memory, uint[] memory){\r\n        uint myId = addressToUid[msg.sender];\r\n        require(myId > 0 && myId <= userCount);\r\n        User storage _user = users[myId];\r\n        uint[] memory followingIds = new uint[](_user.followingCount);\r\n        uint[] memory followerIds = new uint[](_user.followersCount);\r\n        uint counter = 0;\r\n        for (uint i = 1; i <= userCount; i++){\r\n            if(_user.followingIds[i]){\r\n                followingIds[counter++] = i;\r\n            }\r\n        }\r\n        counter = 0;\r\n        for (uint i = 1; i <= userCount; i++){\r\n            if(_user.followerIds[i]){\r\n                followerIds[counter++] = i;\r\n            }\r\n        }\r\n        emit FetchMyNetworkIds(msg.sender,followingIds,followerIds);\r\n        return (followingIds,followerIds);\r\n    }\r\n\r\n    function getUserData(uint _uid) public view returns (uint, string memory, uint, uint, uint, uint){     \r\n        require(_uid > 0);   \r\n        User storage _user = users[_uid];\r\n        return (_user.id, _user.name, _user.followersCount, _user.followingCount, _user.tipObtained, _user.tipDonated);\r\n    }\r\n\r\n    event PostCreated(address indexed id, uint pid, string content, string url, uint tipAmount, address author, uint authorId, string authorName);\r\n\r\n    function createPost(string memory _content, string memory _url) public{ \r\n        //require valid content\r\n        require(bytes(_content).length > 0); //if false it stops execution and gas used will be refunded back to caller, else continues execution\r\n        \r\n        /* Here _content is a local var and underscore is just a conventions for local vars*/\r\n        postCount++;        \r\n        uint userId = addressToUid[msg.sender];\r\n        posts[postCount] = Post(postCount, _content, \"https://github.com/PraveenPin/Simple-Social-Network\", 0, payable(msg.sender), userId, users[userId].name, 0); /* Instantiates Post, adds it into map */        \r\n        //adding the post id to the user\r\n        users[userId].myPostIds[postCount] = true;\r\n\r\n        //Trigger event from solidity smart contracts\r\n        //these posts can be open for subscription by consumers\r\n        emit PostCreated(msg.sender,postCount, _content, _url, 0, msg.sender, userId, users[userId].name);\r\n    }\r\n\r\n    event PostTipped(uint pid, uint tipAmount, address author);\r\n\r\n    function tipAPost(uint _id) public payable {\r\n        require(_id > 0 && _id <= postCount);\r\n        Post memory _post = posts[_id];\r\n        address payable _author = _post.author;\r\n        //paying the author by sending ether\r\n        payable(address(_author)).transfer(msg.value);\r\n        //here the tip should be ether, so we use function meta data\r\n        _post.tipAmount = _post.tipAmount + msg.value;\r\n        posts[_id] = _post;\r\n        \r\n        //add tip amount to user donation\r\n        users[addressToUid[msg.sender]].tipDonated += msg.value;\r\n        //add tip amount to author's obtained tip\r\n        users[_post.authorId].tipObtained += msg.value;\r\n        emit PostTipped(postCount, _post.tipAmount, _author);\r\n    }\r\n\r\n    //functions, events to create and delete comments\r\n    event CommentDeleted(uint pid, uint cid, string deletedComment, address commentAuthor, string authorName);\r\n    event CommentCreated(uint pid, uint cid, string comment, address commentedUser, string authorName);\r\n\r\n    function createComment(uint _pid, string memory _comment) public {\r\n        require(_pid > 0 && _pid <= postCount);\r\n        Post memory _post = posts[_pid];\r\n        uint commentsCount = _post.commentsCount;\r\n        commentsCount++;\r\n        User storage _user = users[addressToUid[msg.sender]];\r\n        comments[_pid][commentsCount] = Comment(_pid, commentsCount, _comment, msg.sender, _user.id, _user.name);\r\n        posts[_pid].commentsCount = commentsCount;\r\n        emit CommentCreated(_pid, commentsCount, _comment, msg.sender, _user.name);\r\n    }\r\n\r\n    function fetchAllComments(uint _postId) public view returns (Comment[] memory){\r\n        require(_postId > 0 && _postId <= postCount);\r\n        Post memory _post = posts[_postId];\r\n        uint commentsCount = _post.commentsCount;\r\n        Comment[] memory postComments = new Comment[](commentsCount);\r\n        uint counter = 0;\r\n        for(uint i=1; i<= commentsCount; i++){\r\n            postComments[counter++] = comments[_postId][i];\r\n        }\r\n        return postComments;\r\n    }\r\n\r\n    //self destruct event \r\n    event DestroyContract(address sender, address caller, uint balance);\r\n\r\n    function destroyContract() public onlyOwner{\r\n        emit DestroyContract(msg.sender, owner, owner.balance);\r\n        selfdestruct(payable(msg.sender));\r\n    }\r\n\r\n}",
  "sourcePath": "C:/Users/praveen/Desktop/Eth-Project/Simple-Social-Network/src/contracts/SocialNetwork.sol",
  "compiler": {
    "name": "solc",
    "version": "0.8.1+commit.df193b15.Emscripten.clang"
  },
  "schemaVersion": "3.4.1",
  "updatedAt": "2021-06-09T04:04:41.245Z",
  "networkType": "ethereum",
  "devdoc": {
    "kind": "dev",
    "methods": {},
    "version": 1
  },
  "userdoc": {
    "kind": "user",
    "methods": {},
    "version": 1
  }
}