{
  "contractName": "SocialNetwork",
  "abi": [
    {
      "inputs": [],
      "stateMutability": "nonpayable",
      "type": "constructor"
    },
    {
      "anonymous": false,
      "inputs": [
        {
          "indexed": false,
          "internalType": "string[]",
          "name": "tags",
          "type": "string[]"
        },
        {
          "components": [
            {
              "internalType": "uint256",
              "name": "pid",
              "type": "uint256"
            },
            {
              "internalType": "string",
              "name": "content",
              "type": "string"
            },
            {
              "internalType": "string",
              "name": "url",
              "type": "string"
            },
            {
              "internalType": "uint256",
              "name": "tipAmount",
              "type": "uint256"
            },
            {
              "internalType": "address payable",
              "name": "author",
              "type": "address"
            },
            {
              "internalType": "uint256",
              "name": "authorId",
              "type": "uint256"
            },
            {
              "internalType": "string",
              "name": "authorName",
              "type": "string"
            },
            {
              "internalType": "uint256",
              "name": "commentsCount",
              "type": "uint256"
            }
          ],
          "indexed": false,
          "internalType": "struct SocialNetwork.Post[]",
          "name": "posts",
          "type": "tuple[]"
        }
      ],
      "name": "AllPostsOfATag",
      "type": "event"
    },
    {
      "anonymous": false,
      "inputs": [
        {
          "indexed": true,
          "internalType": "address",
          "name": "sender",
          "type": "address"
        },
        {
          "indexed": false,
          "internalType": "string",
          "name": "message",
          "type": "string"
        }
      ],
      "name": "AutoCreateUser",
      "type": "event"
    },
    {
      "anonymous": false,
      "inputs": [
        {
          "indexed": false,
          "internalType": "uint256",
          "name": "pid",
          "type": "uint256"
        },
        {
          "indexed": false,
          "internalType": "uint256",
          "name": "cid",
          "type": "uint256"
        },
        {
          "indexed": false,
          "internalType": "string",
          "name": "comment",
          "type": "string"
        },
        {
          "indexed": false,
          "internalType": "address",
          "name": "commentedUser",
          "type": "address"
        },
        {
          "indexed": false,
          "internalType": "string",
          "name": "authorName",
          "type": "string"
        }
      ],
      "name": "CommentCreated",
      "type": "event"
    },
    {
      "anonymous": false,
      "inputs": [
        {
          "indexed": false,
          "internalType": "uint256",
          "name": "pid",
          "type": "uint256"
        },
        {
          "indexed": false,
          "internalType": "uint256",
          "name": "cid",
          "type": "uint256"
        },
        {
          "indexed": false,
          "internalType": "string",
          "name": "deletedComment",
          "type": "string"
        },
        {
          "indexed": false,
          "internalType": "address",
          "name": "commentAuthor",
          "type": "address"
        },
        {
          "indexed": false,
          "internalType": "string",
          "name": "authorName",
          "type": "string"
        }
      ],
      "name": "CommentDeleted",
      "type": "event"
    },
    {
      "anonymous": false,
      "inputs": [
        {
          "indexed": false,
          "internalType": "address",
          "name": "sender",
          "type": "address"
        },
        {
          "indexed": false,
          "internalType": "address",
          "name": "caller",
          "type": "address"
        },
        {
          "indexed": false,
          "internalType": "uint256",
          "name": "balance",
          "type": "uint256"
        }
      ],
      "name": "DestroyContract",
      "type": "event"
    },
    {
      "anonymous": false,
      "inputs": [
        {
          "indexed": true,
          "internalType": "address",
          "name": "sender",
          "type": "address"
        },
        {
          "indexed": false,
          "internalType": "uint256[]",
          "name": "followingIds",
          "type": "uint256[]"
        },
        {
          "indexed": false,
          "internalType": "uint256[]",
          "name": "followerIds",
          "type": "uint256[]"
        }
      ],
      "name": "FetchMyNetworkIds",
      "type": "event"
    },
    {
      "anonymous": false,
      "inputs": [
        {
          "indexed": true,
          "internalType": "address",
          "name": "addr",
          "type": "address"
        },
        {
          "indexed": false,
          "internalType": "uint256[]",
          "name": "myPostIds",
          "type": "uint256[]"
        }
      ],
      "name": "FetchMyPosts",
      "type": "event"
    },
    {
      "anonymous": false,
      "inputs": [
        {
          "indexed": true,
          "internalType": "address",
          "name": "sender",
          "type": "address"
        },
        {
          "indexed": false,
          "internalType": "uint256",
          "name": "senderId",
          "type": "uint256"
        },
        {
          "indexed": false,
          "internalType": "uint256",
          "name": "author",
          "type": "uint256"
        },
        {
          "indexed": false,
          "internalType": "string",
          "name": "message",
          "type": "string"
        },
        {
          "indexed": false,
          "internalType": "uint256",
          "name": "count",
          "type": "uint256"
        }
      ],
      "name": "FollowOrUnFollowUser",
      "type": "event"
    },
    {
      "anonymous": false,
      "inputs": [
        {
          "indexed": true,
          "internalType": "address",
          "name": "id",
          "type": "address"
        },
        {
          "indexed": false,
          "internalType": "uint256",
          "name": "pid",
          "type": "uint256"
        },
        {
          "indexed": false,
          "internalType": "string",
          "name": "content",
          "type": "string"
        },
        {
          "indexed": false,
          "internalType": "string",
          "name": "url",
          "type": "string"
        },
        {
          "indexed": false,
          "internalType": "uint256",
          "name": "tipAmount",
          "type": "uint256"
        },
        {
          "indexed": false,
          "internalType": "address",
          "name": "author",
          "type": "address"
        },
        {
          "indexed": false,
          "internalType": "uint256",
          "name": "authorId",
          "type": "uint256"
        },
        {
          "indexed": false,
          "internalType": "string",
          "name": "authorName",
          "type": "string"
        }
      ],
      "name": "PostCreated",
      "type": "event"
    },
    {
      "anonymous": false,
      "inputs": [
        {
          "indexed": false,
          "internalType": "string[]",
          "name": "tags",
          "type": "string[]"
        },
        {
          "indexed": false,
          "internalType": "uint256",
          "name": "postId",
          "type": "uint256"
        }
      ],
      "name": "PostTagsCreated",
      "type": "event"
    },
    {
      "anonymous": false,
      "inputs": [
        {
          "indexed": false,
          "internalType": "uint256",
          "name": "pid",
          "type": "uint256"
        },
        {
          "indexed": false,
          "internalType": "uint256",
          "name": "tipAmount",
          "type": "uint256"
        },
        {
          "indexed": false,
          "internalType": "address",
          "name": "author",
          "type": "address"
        }
      ],
      "name": "PostTipped",
      "type": "event"
    },
    {
      "anonymous": false,
      "inputs": [
        {
          "indexed": false,
          "internalType": "string",
          "name": "tag",
          "type": "string"
        }
      ],
      "name": "emitWord",
      "type": "event"
    },
    {
      "inputs": [],
      "name": "networkName",
      "outputs": [
        {
          "internalType": "string",
          "name": "",
          "type": "string"
        }
      ],
      "stateMutability": "view",
      "type": "function",
      "constant": true
    },
    {
      "inputs": [],
      "name": "postCount",
      "outputs": [
        {
          "internalType": "uint256",
          "name": "",
          "type": "uint256"
        }
      ],
      "stateMutability": "view",
      "type": "function",
      "constant": true
    },
    {
      "inputs": [],
      "name": "userCount",
      "outputs": [
        {
          "internalType": "uint16",
          "name": "",
          "type": "uint16"
        }
      ],
      "stateMutability": "view",
      "type": "function",
      "constant": true
    },
    {
      "inputs": [
        {
          "internalType": "address",
          "name": "_userAddress",
          "type": "address"
        }
      ],
      "name": "getUserIdFromAddress",
      "outputs": [
        {
          "internalType": "uint256",
          "name": "",
          "type": "uint256"
        }
      ],
      "stateMutability": "view",
      "type": "function",
      "constant": true
    },
    {
      "inputs": [
        {
          "internalType": "uint256",
          "name": "_postId",
          "type": "uint256"
        }
      ],
      "name": "getPostFromPostId",
      "outputs": [
        {
          "components": [
            {
              "internalType": "uint256",
              "name": "pid",
              "type": "uint256"
            },
            {
              "internalType": "string",
              "name": "content",
              "type": "string"
            },
            {
              "internalType": "string",
              "name": "url",
              "type": "string"
            },
            {
              "internalType": "uint256",
              "name": "tipAmount",
              "type": "uint256"
            },
            {
              "internalType": "address payable",
              "name": "author",
              "type": "address"
            },
            {
              "internalType": "uint256",
              "name": "authorId",
              "type": "uint256"
            },
            {
              "internalType": "string",
              "name": "authorName",
              "type": "string"
            },
            {
              "internalType": "uint256",
              "name": "commentsCount",
              "type": "uint256"
            }
          ],
          "internalType": "struct SocialNetwork.Post",
          "name": "",
          "type": "tuple"
        }
      ],
      "stateMutability": "view",
      "type": "function",
      "constant": true
    },
    {
      "inputs": [
        {
          "internalType": "string",
          "name": "_uname",
          "type": "string"
        }
      ],
      "name": "autoCreateUser",
      "outputs": [],
      "stateMutability": "nonpayable",
      "type": "function"
    },
    {
      "inputs": [],
      "name": "getUserInfo",
      "outputs": [
        {
          "internalType": "uint256",
          "name": "",
          "type": "uint256"
        },
        {
          "internalType": "string",
          "name": "",
          "type": "string"
        },
        {
          "internalType": "uint256",
          "name": "",
          "type": "uint256"
        },
        {
          "internalType": "uint256",
          "name": "",
          "type": "uint256"
        },
        {
          "internalType": "uint256",
          "name": "",
          "type": "uint256"
        },
        {
          "internalType": "uint256",
          "name": "",
          "type": "uint256"
        }
      ],
      "stateMutability": "view",
      "type": "function",
      "constant": true
    },
    {
      "inputs": [
        {
          "internalType": "uint256",
          "name": "_authorId",
          "type": "uint256"
        }
      ],
      "name": "followAuthor",
      "outputs": [],
      "stateMutability": "nonpayable",
      "type": "function"
    },
    {
      "inputs": [
        {
          "internalType": "uint256",
          "name": "_authorId",
          "type": "uint256"
        }
      ],
      "name": "unFollowAuthor",
      "outputs": [],
      "stateMutability": "nonpayable",
      "type": "function"
    },
    {
      "inputs": [
        {
          "internalType": "uint256",
          "name": "_id",
          "type": "uint256"
        }
      ],
      "name": "getMyPosts",
      "outputs": [
        {
          "internalType": "uint256[]",
          "name": "",
          "type": "uint256[]"
        },
        {
          "components": [
            {
              "internalType": "uint256",
              "name": "pid",
              "type": "uint256"
            },
            {
              "internalType": "string",
              "name": "content",
              "type": "string"
            },
            {
              "internalType": "string",
              "name": "url",
              "type": "string"
            },
            {
              "internalType": "uint256",
              "name": "tipAmount",
              "type": "uint256"
            },
            {
              "internalType": "address payable",
              "name": "author",
              "type": "address"
            },
            {
              "internalType": "uint256",
              "name": "authorId",
              "type": "uint256"
            },
            {
              "internalType": "string",
              "name": "authorName",
              "type": "string"
            },
            {
              "internalType": "uint256",
              "name": "commentsCount",
              "type": "uint256"
            }
          ],
          "internalType": "struct SocialNetwork.Post[]",
          "name": "",
          "type": "tuple[]"
        }
      ],
      "stateMutability": "nonpayable",
      "type": "function"
    },
    {
      "inputs": [],
      "name": "getAllFollowingIds",
      "outputs": [
        {
          "internalType": "uint256[]",
          "name": "",
          "type": "uint256[]"
        },
        {
          "internalType": "uint256[]",
          "name": "",
          "type": "uint256[]"
        }
      ],
      "stateMutability": "nonpayable",
      "type": "function"
    },
    {
      "inputs": [
        {
          "internalType": "uint256",
          "name": "_uid",
          "type": "uint256"
        }
      ],
      "name": "getUserData",
      "outputs": [
        {
          "internalType": "uint256",
          "name": "",
          "type": "uint256"
        },
        {
          "internalType": "string",
          "name": "",
          "type": "string"
        },
        {
          "internalType": "uint256",
          "name": "",
          "type": "uint256"
        },
        {
          "internalType": "uint256",
          "name": "",
          "type": "uint256"
        },
        {
          "internalType": "uint256",
          "name": "",
          "type": "uint256"
        },
        {
          "internalType": "uint256",
          "name": "",
          "type": "uint256"
        }
      ],
      "stateMutability": "view",
      "type": "function",
      "constant": true
    },
    {
      "inputs": [
        {
          "internalType": "string",
          "name": "_content",
          "type": "string"
        },
        {
          "internalType": "string",
          "name": "_url",
          "type": "string"
        }
      ],
      "name": "createPost",
      "outputs": [],
      "stateMutability": "nonpayable",
      "type": "function"
    },
    {
      "inputs": [
        {
          "internalType": "uint256",
          "name": "_id",
          "type": "uint256"
        }
      ],
      "name": "tipAPost",
      "outputs": [],
      "stateMutability": "payable",
      "type": "function",
      "payable": true
    },
    {
      "inputs": [
        {
          "internalType": "uint256",
          "name": "_pid",
          "type": "uint256"
        },
        {
          "internalType": "string",
          "name": "_comment",
          "type": "string"
        }
      ],
      "name": "createComment",
      "outputs": [],
      "stateMutability": "nonpayable",
      "type": "function"
    },
    {
      "inputs": [
        {
          "internalType": "uint256",
          "name": "_postId",
          "type": "uint256"
        }
      ],
      "name": "fetchAllComments",
      "outputs": [
        {
          "components": [
            {
              "internalType": "uint256",
              "name": "postId",
              "type": "uint256"
            },
            {
              "internalType": "uint256",
              "name": "cid",
              "type": "uint256"
            },
            {
              "internalType": "string",
              "name": "comment",
              "type": "string"
            },
            {
              "internalType": "address",
              "name": "author",
              "type": "address"
            },
            {
              "internalType": "uint256",
              "name": "authorId",
              "type": "uint256"
            },
            {
              "internalType": "string",
              "name": "authorName",
              "type": "string"
            }
          ],
          "internalType": "struct SocialNetwork.Comment[]",
          "name": "",
          "type": "tuple[]"
        }
      ],
      "stateMutability": "view",
      "type": "function",
      "constant": true
    },
    {
      "inputs": [
        {
          "internalType": "string",
          "name": "_content",
          "type": "string"
        },
        {
          "internalType": "uint256",
          "name": "_postId",
          "type": "uint256"
        }
      ],
      "name": "createTag",
      "outputs": [],
      "stateMutability": "nonpayable",
      "type": "function"
    },
    {
      "inputs": [
        {
          "internalType": "bytes1",
          "name": "_char",
          "type": "bytes1"
        }
      ],
      "name": "checkEmptyCharacter",
      "outputs": [
        {
          "internalType": "bool",
          "name": "",
          "type": "bool"
        }
      ],
      "stateMutability": "pure",
      "type": "function",
      "constant": true
    },
    {
      "inputs": [
        {
          "internalType": "string",
          "name": "tag",
          "type": "string"
        }
      ],
      "name": "getPostsFromTag",
      "outputs": [
        {
          "components": [
            {
              "internalType": "uint256",
              "name": "pid",
              "type": "uint256"
            },
            {
              "internalType": "string",
              "name": "content",
              "type": "string"
            },
            {
              "internalType": "string",
              "name": "url",
              "type": "string"
            },
            {
              "internalType": "uint256",
              "name": "tipAmount",
              "type": "uint256"
            },
            {
              "internalType": "address payable",
              "name": "author",
              "type": "address"
            },
            {
              "internalType": "uint256",
              "name": "authorId",
              "type": "uint256"
            },
            {
              "internalType": "string",
              "name": "authorName",
              "type": "string"
            },
            {
              "internalType": "uint256",
              "name": "commentsCount",
              "type": "uint256"
            }
          ],
          "internalType": "struct SocialNetwork.Post[]",
          "name": "",
          "type": "tuple[]"
        }
      ],
      "stateMutability": "nonpayable",
      "type": "function"
    },
    {
      "inputs": [],
      "name": "destroyContract",
      "outputs": [],
      "stateMutability": "nonpayable",
      "type": "function"
    }
  ],
  "bytecode": "0x608060405260006008556000600960006101000a81548161ffff021916908361ffff1602179055503480156200003457600080fd5b50336000806101000a81548173ffffffffffffffffffffffffffffffffffffffff021916908373ffffffffffffffffffffffffffffffffffffffff1602179055506040518060400160405280601381526020017f455448202d20536f6369616c4e6574776f726b0000000000000000000000000081525060019080519060200190620000c2929190620000c9565b50620001de565b828054620000d79062000179565b90600052602060002090601f016020900481019282620000fb576000855562000147565b82601f106200011657805160ff191683800117855562000147565b8280016001018555821562000147579182015b828111156200014657825182559160200191906001019062000129565b5b5090506200015691906200015a565b5090565b5b80821115620001755760008160009055506001016200015b565b5090565b600060028204905060018216806200019257607f821691505b60208210811415620001a957620001a8620001af565b5b50919050565b7f4e487b7100000000000000000000000000000000000000000000000000000000600052602260045260246000fd5b61515680620001ee6000396000f3fe60806040526004361061011f5760003560e01c8063392338f5116100a05780636dc2cc71116100645780636dc2cc71146103e35780638751682a146104205780639cb481b214610449578063ad2c48ef14610486578063d70d88fd146104af5761011f565b8063392338f5146102fb578063392cfec71461032457806340a179851461034d5780634a00eb4f146103765780635d8d1585146103b35761011f565b806317906c2e116100e757806317906c2e1461020c5780631c6aff1d146102375780631fef580c146102745780632fc95d71146102b65780633223e4b8146102d25761011f565b806307973ccf14610124578063092a5cce1461014f578063096568b4146101665780630c1d50cb146101a3578063107bf28c146101e1575b600080fd5b34801561013057600080fd5b506101396104db565b6040516101469190614804565b60405180910390f35b34801561015b57600080fd5b506101646104ef565b005b34801561017257600080fd5b5061018d60048036038101906101889190613dc6565b610628565b60405161019a9190614671565b60405180910390f35b3480156101af57600080fd5b506101ca60048036038101906101c59190613dc6565b610b69565b6040516101d89291906146d7565b60405180910390f35b3480156101ed57600080fd5b506101f6611066565b6040516102039190614760565b60405180910390f35b34801561021857600080fd5b506102216110f4565b60405161022e919061481f565b60405180910390f35b34801561024357600080fd5b5061025e60048036038101906102599190613c9c565b6110fa565b60405161026b9190614745565b60405180910390f35b34801561028057600080fd5b5061029b60048036038101906102969190613dc6565b61113d565b6040516102ad969594939291906148be565b60405180910390f35b6102d060048036038101906102cb9190613dc6565b61122a565b005b3480156102de57600080fd5b506102f960048036038101906102f49190613dc6565b6116c5565b005b34801561030757600080fd5b50610322600480360381019061031d9190613d06565b6118b8565b005b34801561033057600080fd5b5061034b60048036038101906103469190613dc6565b611bcf565b005b34801561035957600080fd5b50610374600480360381019061036f9190613def565b611dc2565b005b34801561038257600080fd5b5061039d60048036038101906103989190613dc6565b61229e565b6040516103aa91906147e2565b60405180910390f35b3480156103bf57600080fd5b506103c861251b565b6040516103da969594939291906148be565b60405180910390f35b3480156103ef57600080fd5b5061040a60048036038101906104059190613cc5565b61264c565b6040516104179190614693565b60405180910390f35b34801561042c57600080fd5b5061044760048036038101906104429190613d72565b612dac565b005b34801561045557600080fd5b50610470600480360381019061046b9190613c73565b61302f565b60405161047d919061481f565b60405180910390f35b34801561049257600080fd5b506104ad60048036038101906104a89190613cc5565b6130b1565b005b3480156104bb57600080fd5b506104c46132ba565b6040516104d292919061470e565b60405180910390f35b600960009054906101000a900461ffff1681565b3373ffffffffffffffffffffffffffffffffffffffff1660008054906101000a900473ffffffffffffffffffffffffffffffffffffffff1673ffffffffffffffffffffffffffffffffffffffff161461057d576040517f08c379a0000000000000000000000000000000000000000000000000000000008152600401610574906147c2565b60405180910390fd5b7f1ec0eba9b0e9e969285026819e2b9903c774ac2ea3e68a8123cb3528b39489423360008054906101000a900473ffffffffffffffffffffffffffffffffffffffff1660008054906101000a900473ffffffffffffffffffffffffffffffffffffffff1673ffffffffffffffffffffffffffffffffffffffff1631604051610607939291906145d3565b60405180910390a13373ffffffffffffffffffffffffffffffffffffffff16ff5b606060008211801561063c57506008548211155b61064557600080fd5b600060026000848152602001908152602001600020604051806101000160405290816000820154815260200160018201805461068090614f57565b80601f01602080910402602001604051908101604052809291908181526020018280546106ac90614f57565b80156106f95780601f106106ce576101008083540402835291602001916106f9565b820191906000526020600020905b8154815290600101906020018083116106dc57829003601f168201915b5050505050815260200160028201805461071290614f57565b80601f016020809104026020016040519081016040528092919081815260200182805461073e90614f57565b801561078b5780601f106107605761010080835404028352916020019161078b565b820191906000526020600020905b81548152906001019060200180831161076e57829003601f168201915b50505050508152602001600382015481526020016004820160009054906101000a900473ffffffffffffffffffffffffffffffffffffffff1673ffffffffffffffffffffffffffffffffffffffff1673ffffffffffffffffffffffffffffffffffffffff1681526020016005820154815260200160068201805461080e90614f57565b80601f016020809104026020016040519081016040528092919081815260200182805461083a90614f57565b80156108875780601f1061085c57610100808354040283529160200191610887565b820191906000526020600020905b81548152906001019060200180831161086a57829003601f168201915b50505050508152602001600782015481525050905060008160e00151905060008167ffffffffffffffff8111156108e7577f4e487b7100000000000000000000000000000000000000000000000000000000600052604160045260246000fd5b60405190808252806020026020018201604052801561092057816020015b61090d613a16565b8152602001906001900390816109055790505b509050600080600190505b838111610b5c576005600088815260200190815260200160002060008281526020019081526020016000206040518060c0016040529081600082015481526020016001820154815260200160028201805461098590614f57565b80601f01602080910402602001604051908101604052809291908181526020018280546109b190614f57565b80156109fe5780601f106109d3576101008083540402835291602001916109fe565b820191906000526020600020905b8154815290600101906020018083116109e157829003601f168201915b505050505081526020016003820160009054906101000a900473ffffffffffffffffffffffffffffffffffffffff1673ffffffffffffffffffffffffffffffffffffffff1673ffffffffffffffffffffffffffffffffffffffff16815260200160048201548152602001600582018054610a7790614f57565b80601f0160208091040260200160405190810160405280929190818152602001828054610aa390614f57565b8015610af05780601f10610ac557610100808354040283529160200191610af0565b820191906000526020600020905b815481529060010190602001808311610ad357829003601f168201915b505050505081525050838380610b0590614fb4565b945081518110610b3e577f4e487b7100000000000000000000000000000000000000000000000000000000600052603260045260246000fd5b60200260200101819052508080610b5490614fb4565b91505061092b565b5081945050505050919050565b60608060008060006003600087815260200190815260200160002090506000600190505b6008548111610be05781600401600082815260200190815260200160002060009054906101000a900460ff1615610bcd578380610bc990614fb4565b9450505b8080610bd890614fb4565b915050610b8d565b5060008367ffffffffffffffff811115610c23577f4e487b7100000000000000000000000000000000000000000000000000000000600052604160045260246000fd5b604051908082528060200260200182016040528015610c515781602001602082028036833780820191505090505b50905060008467ffffffffffffffff811115610c96577f4e487b7100000000000000000000000000000000000000000000000000000000600052604160045260246000fd5b604051908082528060200260200182016040528015610ccf57816020015b610cbc613a62565b815260200190600190039081610cb45790505b5090506000600190505b60085481116110075783600401600082815260200190815260200160002060009054906101000a900460ff1615610ff45780838681518110610d44577f4e487b7100000000000000000000000000000000000000000000000000000000600052603260045260246000fd5b602002602001018181525050600260008281526020019081526020016000206040518061010001604052908160008201548152602001600182018054610d8990614f57565b80601f0160208091040260200160405190810160405280929190818152602001828054610db590614f57565b8015610e025780601f10610dd757610100808354040283529160200191610e02565b820191906000526020600020905b815481529060010190602001808311610de557829003601f168201915b50505050508152602001600282018054610e1b90614f57565b80601f0160208091040260200160405190810160405280929190818152602001828054610e4790614f57565b8015610e945780601f10610e6957610100808354040283529160200191610e94565b820191906000526020600020905b815481529060010190602001808311610e7757829003601f168201915b50505050508152602001600382015481526020016004820160009054906101000a900473ffffffffffffffffffffffffffffffffffffffff1673ffffffffffffffffffffffffffffffffffffffff1673ffffffffffffffffffffffffffffffffffffffff16815260200160058201548152602001600682018054610f1790614f57565b80601f0160208091040260200160405190810160405280929190818152602001828054610f4390614f57565b8015610f905780601f10610f6557610100808354040283529160200191610f90565b820191906000526020600020905b815481529060010190602001808311610f7357829003601f168201915b50505050508152602001600782015481525050828680610faf90614fb4565b975081518110610fe8577f4e487b7100000000000000000000000000000000000000000000000000000000600052603260045260246000fd5b60200260200101819052505b8080610fff90614fb4565b915050610cd9565b503373ffffffffffffffffffffffffffffffffffffffff167fd2365500f72e0836a24bca0665a95120d4f6169769a291786d75fa886cd572e08360405161104e91906146b5565b60405180910390a28181965096505050505050915091565b6001805461107390614f57565b80601f016020809104026020016040519081016040528092919081815260200182805461109f90614f57565b80156110ec5780601f106110c1576101008083540402835291602001916110ec565b820191906000526020600020905b8154815290600101906020018083116110cf57829003601f168201915b505050505081565b60085481565b6000602060f81b827effffffffffffffffffffffffffffffffffffffffffffffffffffffffffffff191614156111335760019050611138565b600090505b919050565b600060606000806000806000871161115457600080fd5b6000600360008981526020019081526020016000209050806000015481600201826006015483600701548460080154856009015484805461119490614f57565b80601f01602080910402602001604051908101604052809291908181526020018280546111c090614f57565b801561120d5780601f106111e25761010080835404028352916020019161120d565b820191906000526020600020905b8154815290600101906020018083116111f057829003601f168201915b505050505094509650965096509650965096505091939550919395565b60008111801561123c57506008548111155b61124557600080fd5b600060026000838152602001908152602001600020604051806101000160405290816000820154815260200160018201805461128090614f57565b80601f01602080910402602001604051908101604052809291908181526020018280546112ac90614f57565b80156112f95780601f106112ce576101008083540402835291602001916112f9565b820191906000526020600020905b8154815290600101906020018083116112dc57829003601f168201915b5050505050815260200160028201805461131290614f57565b80601f016020809104026020016040519081016040528092919081815260200182805461133e90614f57565b801561138b5780601f106113605761010080835404028352916020019161138b565b820191906000526020600020905b81548152906001019060200180831161136e57829003601f168201915b50505050508152602001600382015481526020016004820160009054906101000a900473ffffffffffffffffffffffffffffffffffffffff1673ffffffffffffffffffffffffffffffffffffffff1673ffffffffffffffffffffffffffffffffffffffff1681526020016005820154815260200160068201805461140e90614f57565b80601f016020809104026020016040519081016040528092919081815260200182805461143a90614f57565b80156114875780601f1061145c57610100808354040283529160200191611487565b820191906000526020600020905b81548152906001019060200180831161146a57829003601f168201915b5050505050815260200160078201548152505090506000816080015190508073ffffffffffffffffffffffffffffffffffffffff166108fc349081150290604051600060405180830381858888f193505050501580156114eb573d6000803e3d6000fd5b503482606001516114fc9190614be4565b826060018181525050816002600085815260200190815260200160002060008201518160000155602082015181600101908051906020019061153f929190613abd565b50604082015181600201908051906020019061155c929190613abd565b506060820151816003015560808201518160040160006101000a81548173ffffffffffffffffffffffffffffffffffffffff021916908373ffffffffffffffffffffffffffffffffffffffff16021790555060a0820151816005015560c08201518160060190805190602001906115d4929190613abd565b5060e082015181600701559050503460036000600460003373ffffffffffffffffffffffffffffffffffffffff1673ffffffffffffffffffffffffffffffffffffffff16815260200190815260200160002054815260200190815260200160002060090160008282546116479190614be4565b9250508190555034600360008460a00151815260200190815260200160002060080160008282546116789190614be4565b925050819055507f857a474f7d18ba7614a11cc88bce5fd9cf05678441e1cb7c7eac53fecf3a8abd6008548360600151836040516116b893929190614926565b60405180910390a1505050565b600073ffffffffffffffffffffffffffffffffffffffff163373ffffffffffffffffffffffffffffffffffffffff1614156116ff57600080fd5b6000600460003373ffffffffffffffffffffffffffffffffffffffff1673ffffffffffffffffffffffffffffffffffffffff1681526020019081526020016000205490508181141561175057600080fd5b600060036000838152602001908152602001600020600701549050600060036000858152602001908152602001600020600601549050600160036000858152602001908152602001600020600501600086815260200190815260200160002060006101000a81548160ff021916908315150217905550600160036000868152602001908152602001600020600301600085815260200190815260200160002060006101000a81548160ff0219169083151502179055506001826118139190614be4565b600360008581526020019081526020016000206007018190555060018161183a9190614be4565b60036000868152602001908152602001600020600601819055503373ffffffffffffffffffffffffffffffffffffffff167f1284e19801ce3def7f6b0025adef283c3cd9ee9bf4a717df2e7af6153517726b848660018661189b9190614be4565b6040516118aa93929190614a08565b60405180910390a250505050565b60008251116118c657600080fd5b600860008154809291906118d990614fb4565b91905055506000600460003373ffffffffffffffffffffffffffffffffffffffff1673ffffffffffffffffffffffffffffffffffffffff16815260200190815260200160002054905060405180610100016040528060085481526020018481526020016040518060600160405280603381526020016150ee603391398152602001600081526020013373ffffffffffffffffffffffffffffffffffffffff1681526020018281526020016003600084815260200190815260200160002060020180546119a490614f57565b80601f01602080910402602001604051908101604052809291908181526020018280546119d090614f57565b8015611a1d5780601f106119f257610100808354040283529160200191611a1d565b820191906000526020600020905b815481529060010190602001808311611a0057829003601f168201915b505050505081526020016000815250600260006008548152602001908152602001600020600082015181600001556020820151816001019080519060200190611a67929190613abd565b506040820151816002019080519060200190611a84929190613abd565b506060820151816003015560808201518160040160006101000a81548173ffffffffffffffffffffffffffffffffffffffff021916908373ffffffffffffffffffffffffffffffffffffffff16021790555060a0820151816005015560c0820151816006019080519060200190611afc929190613abd565b5060e082015181600701559050506001600360008381526020019081526020016000206004016000600854815260200190815260200160002060006101000a81548160ff0219169083151502179055503373ffffffffffffffffffffffffffffffffffffffff167f2fab7d22c558b3256207695703b5c832f1a661de05ca9d69c2638097841b60a2600854858560003387600360008a8152602001908152602001600020600201604051611bb6979695949392919061483a565b60405180910390a2611bca83600854612dac565b505050565b600073ffffffffffffffffffffffffffffffffffffffff163373ffffffffffffffffffffffffffffffffffffffff161415611c0957600080fd5b6000600460003373ffffffffffffffffffffffffffffffffffffffff1673ffffffffffffffffffffffffffffffffffffffff16815260200190815260200160002054905081811415611c5a57600080fd5b600060036000838152602001908152602001600020600701549050600060036000858152602001908152602001600020600601549050600060036000858152602001908152602001600020600501600086815260200190815260200160002060006101000a81548160ff021916908315150217905550600182611cdd9190614e05565b6003600085815260200190815260200160002060070181905550600060036000868152602001908152602001600020600301600085815260200190815260200160002060006101000a81548160ff021916908315150217905550600181611d449190614e05565b60036000868152602001908152602001600020600601819055503373ffffffffffffffffffffffffffffffffffffffff167f1284e19801ce3def7f6b0025adef283c3cd9ee9bf4a717df2e7af6153517726b8486600186611da59190614e05565b604051611db4939291906149be565b60405180910390a250505050565b600082118015611dd457506008548211155b611ddd57600080fd5b6000600260008481526020019081526020016000206040518061010001604052908160008201548152602001600182018054611e1890614f57565b80601f0160208091040260200160405190810160405280929190818152602001828054611e4490614f57565b8015611e915780601f10611e6657610100808354040283529160200191611e91565b820191906000526020600020905b815481529060010190602001808311611e7457829003601f168201915b50505050508152602001600282018054611eaa90614f57565b80601f0160208091040260200160405190810160405280929190818152602001828054611ed690614f57565b8015611f235780601f10611ef857610100808354040283529160200191611f23565b820191906000526020600020905b815481529060010190602001808311611f0657829003601f168201915b50505050508152602001600382015481526020016004820160009054906101000a900473ffffffffffffffffffffffffffffffffffffffff1673ffffffffffffffffffffffffffffffffffffffff1673ffffffffffffffffffffffffffffffffffffffff16815260200160058201548152602001600682018054611fa690614f57565b80601f0160208091040260200160405190810160405280929190818152602001828054611fd290614f57565b801561201f5780601f10611ff45761010080835404028352916020019161201f565b820191906000526020600020905b81548152906001019060200180831161200257829003601f168201915b50505050508152602001600782015481525050905060008160e001519050808061204890614fb4565b915050600060036000600460003373ffffffffffffffffffffffffffffffffffffffff1673ffffffffffffffffffffffffffffffffffffffff16815260200190815260200160002054815260200190815260200160002090506040518060c001604052808681526020018381526020018581526020013373ffffffffffffffffffffffffffffffffffffffff168152602001826000015481526020018260020180546120f390614f57565b80601f016020809104026020016040519081016040528092919081815260200182805461211f90614f57565b801561216c5780601f106121415761010080835404028352916020019161216c565b820191906000526020600020905b81548152906001019060200180831161214f57829003601f168201915b5050505050815250600560008781526020019081526020016000206000848152602001908152602001600020600082015181600001556020820151816001015560408201518160020190805190602001906121c8929190613abd565b5060608201518160030160006101000a81548173ffffffffffffffffffffffffffffffffffffffff021916908373ffffffffffffffffffffffffffffffffffffffff1602179055506080820151816004015560a0820151816005019080519060200190612236929190613abd565b509050508160026000878152602001908152602001600020600701819055507f091c43fe8acad66152ac39b09b3cdf1e435cf052695a5020ae486ec31b653769858386338560020160405161228f95949392919061495d565b60405180910390a15050505050565b6122a6613a62565b6000821180156122b857506008548211155b6122c157600080fd5b6002600083815260200190815260200160002060405180610100016040529081600082015481526020016001820180546122fa90614f57565b80601f016020809104026020016040519081016040528092919081815260200182805461232690614f57565b80156123735780601f1061234857610100808354040283529160200191612373565b820191906000526020600020905b81548152906001019060200180831161235657829003601f168201915b5050505050815260200160028201805461238c90614f57565b80601f01602080910402602001604051908101604052809291908181526020018280546123b890614f57565b80156124055780601f106123da57610100808354040283529160200191612405565b820191906000526020600020905b8154815290600101906020018083116123e857829003601f168201915b50505050508152602001600382015481526020016004820160009054906101000a900473ffffffffffffffffffffffffffffffffffffffff1673ffffffffffffffffffffffffffffffffffffffff1673ffffffffffffffffffffffffffffffffffffffff1681526020016005820154815260200160068201805461248890614f57565b80601f01602080910402602001604051908101604052809291908181526020018280546124b490614f57565b80156125015780601f106124d657610100808354040283529160200191612501565b820191906000526020600020905b8154815290600101906020018083116124e457829003601f168201915b505050505081526020016007820154815250509050919050565b600060606000806000806000600460003373ffffffffffffffffffffffffffffffffffffffff1673ffffffffffffffffffffffffffffffffffffffff1681526020019081526020016000205490506000811161257657600080fd5b600060036000838152602001908152602001600020905080600001548160020182600601548360070154846008015485600901548480546125b690614f57565b80601f01602080910402602001604051908101604052809291908181526020018280546125e290614f57565b801561262f5780601f106126045761010080835404028352916020019161262f565b820191906000526020600020905b81548152906001019060200180831161261257829003601f168201915b505050505094509750975097509750975097505050909192939495565b60606000612659836135f9565b9050600061269b6040518060400160405280600181526020017f20000000000000000000000000000000000000000000000000000000000000008152506135f9565b9050600060016126b4838561362790919063ffffffff16565b6126be9190614be4565b67ffffffffffffffff8111156126fd577f4e487b7100000000000000000000000000000000000000000000000000000000600052604160045260246000fd5b60405190808252806020026020018201604052801561273057816020015b606081526020019060019003908161271b5790505b50905060005b81518110156127b15761275a61275584866136cf90919063ffffffff16565b6136e9565b828281518110612793577f4e487b7100000000000000000000000000000000000000000000000000000000600052603260045260246000fd5b602002602001018190525080806127a990614fb4565b915050612736565b5060008060085467ffffffffffffffff8111156127f7577f4e487b7100000000000000000000000000000000000000000000000000000000600052604160045260246000fd5b60405190808252806020026020018201604052801561283057816020015b61281d613a62565b8152602001906001900390816128155790505b50905060005b8351811015612d65576000600685838151811061287c577f4e487b7100000000000000000000000000000000000000000000000000000000600052603260045260246000fd5b602002602001015160405161289191906145bc565b90815260200160405180910390208054806020026020016040519081016040528092919081815260200182805480156128e957602002820191906000526020600020905b8154815260200190600101908083116128d5575b5050505050905060005b8151811015612cc45760076000838381518110612939577f4e487b7100000000000000000000000000000000000000000000000000000000600052603260045260246000fd5b6020026020010151815260200190815260200160002060009054906101000a900460ff16612cb1576001600760008484815181106129a0577f4e487b7100000000000000000000000000000000000000000000000000000000600052603260045260246000fd5b6020026020010151815260200190815260200160002060006101000a81548160ff02191690831515021790555060026000838381518110612a0a577f4e487b7100000000000000000000000000000000000000000000000000000000600052603260045260246000fd5b602002602001015181526020019081526020016000206040518061010001604052908160008201548152602001600182018054612a4690614f57565b80601f0160208091040260200160405190810160405280929190818152602001828054612a7290614f57565b8015612abf5780601f10612a9457610100808354040283529160200191612abf565b820191906000526020600020905b815481529060010190602001808311612aa257829003601f168201915b50505050508152602001600282018054612ad890614f57565b80601f0160208091040260200160405190810160405280929190818152602001828054612b0490614f57565b8015612b515780601f10612b2657610100808354040283529160200191612b51565b820191906000526020600020905b815481529060010190602001808311612b3457829003601f168201915b50505050508152602001600382015481526020016004820160009054906101000a900473ffffffffffffffffffffffffffffffffffffffff1673ffffffffffffffffffffffffffffffffffffffff1673ffffffffffffffffffffffffffffffffffffffff16815260200160058201548152602001600682018054612bd490614f57565b80601f0160208091040260200160405190810160405280929190818152602001828054612c0090614f57565b8015612c4d5780601f10612c2257610100808354040283529160200191612c4d565b820191906000526020600020905b815481529060010190602001808311612c3057829003601f168201915b50505050508152602001600782015481525050848680612c6c90614fb4565b975081518110612ca5577f4e487b7100000000000000000000000000000000000000000000000000000000600052603260045260246000fd5b60200260200101819052505b8080612cbc90614fb4565b9150506128f3565b5060005b8151811015612d5057600060076000848481518110612d10577f4e487b7100000000000000000000000000000000000000000000000000000000600052603260045260246000fd5b6020026020010151815260200190815260200160002060006101000a81548160ff0219169083151502179055508080612d4890614fb4565b915050612cc8565b50508080612d5d90614fb4565b915050612836565b507f78f8657510ed0fb279bbb3d026b4e3a69002f8518b8d1170b5d1621f35c6d5cb8382604051612d9792919061460a565b60405180910390a18095505050505050919050565b6000612db7836135f9565b90506000612df96040518060400160405280600181526020017f20000000000000000000000000000000000000000000000000000000000000008152506135f9565b905060006001612e12838561362790919063ffffffff16565b612e1c9190614be4565b67ffffffffffffffff811115612e5b577f4e487b7100000000000000000000000000000000000000000000000000000000600052604160045260246000fd5b604051908082528060200260200182016040528015612e8e57816020015b6060815260200190600190039081612e795790505b50905060005b8151811015612f0f57612eb8612eb384866136cf90919063ffffffff16565b6136e9565b828281518110612ef1577f4e487b7100000000000000000000000000000000000000000000000000000000600052603260045260246000fd5b60200260200101819052508080612f0790614fb4565b915050612e94565b5060005b8151811015612fee576000828281518110612f57577f4e487b7100000000000000000000000000000000000000000000000000000000600052603260045260246000fd5b602002602001015190506000600682604051612f7391906145bc565b908152602001604051809103902090508087908060018154018082558091505060019003906000526020600020016000909190919091505580600683604051612fbc91906145bc565b9081526020016040518091039020908054612fd8929190613b43565b5050508080612fe690614fb4565b915050612f13565b507fff7bdb826be905156c9c48f1c8f3c42d75db8c0de8b9ce184021dde9c4d516f48185604051613020929190614641565b60405180910390a15050505050565b60008073ffffffffffffffffffffffffffffffffffffffff163373ffffffffffffffffffffffffffffffffffffffff16141561306a57600080fd5b600460008373ffffffffffffffffffffffffffffffffffffffff1673ffffffffffffffffffffffffffffffffffffffff168152602001908152602001600020549050919050565b60008151116130bf57600080fd5b6009600081819054906101000a900461ffff16809291906130df90614f89565b91906101000a81548161ffff021916908361ffff16021790555050600060036000600960009054906101000a900461ffff1661ffff16815260200190815260200160002090503373ffffffffffffffffffffffffffffffffffffffff167f86bccb58d5cc5d9545f467598d37d93ecb638f74090cce7c33c9d02ea467172b604051613169906147a2565b60405180910390a2600960009054906101000a900461ffff1661ffff168160000181905550818160020190805190602001906131a6929190613abd565b50338160010160006101000a81548173ffffffffffffffffffffffffffffffffffffffff021916908373ffffffffffffffffffffffffffffffffffffffff16021790555060008160060181905550600081600701819055506000816008018190555060008160090181905550600960009054906101000a900461ffff1661ffff16600460003373ffffffffffffffffffffffffffffffffffffffff1673ffffffffffffffffffffffffffffffffffffffff168152602001908152602001600020819055503373ffffffffffffffffffffffffffffffffffffffff167f86bccb58d5cc5d9545f467598d37d93ecb638f74090cce7c33c9d02ea467172b6040516132ae90614782565b60405180910390a25050565b6060806000600460003373ffffffffffffffffffffffffffffffffffffffff1673ffffffffffffffffffffffffffffffffffffffff1681526020019081526020016000205490506000811180156133255750600960009054906101000a900461ffff1661ffff168111155b61332e57600080fd5b60006003600083815260200190815260200160002090506000816007015467ffffffffffffffff81111561338b577f4e487b7100000000000000000000000000000000000000000000000000000000600052604160045260246000fd5b6040519080825280602002602001820160405280156133b95781602001602082028036833780820191505090505b5090506000826006015467ffffffffffffffff811115613402577f4e487b7100000000000000000000000000000000000000000000000000000000600052604160045260246000fd5b6040519080825280602002602001820160405280156134305781602001602082028036833780820191505090505b509050600080600190505b600960009054906101000a900461ffff1661ffff1681116134e45784600501600082815260200190815260200160002060009054906101000a900460ff16156134d1578084838061348b90614fb4565b9450815181106134c4577f4e487b7100000000000000000000000000000000000000000000000000000000600052603260045260246000fd5b6020026020010181815250505b80806134dc90614fb4565b91505061343b565b50600090506000600190505b600960009054906101000a900461ffff1661ffff1681116135995784600301600082815260200190815260200160002060009054906101000a900460ff1615613586578083838061354090614fb4565b945081518110613579577f4e487b7100000000000000000000000000000000000000000000000000000000600052603260045260246000fd5b6020026020010181815250505b808061359190614fb4565b9150506134f0565b503373ffffffffffffffffffffffffffffffffffffffff167f7ebbc67615cdacc372a2a97e3016a3233043ce2d9e92b32fbe3390c0c7286e1284846040516135e292919061470e565b60405180910390a282829650965050505050509091565b613601613b95565b600060208301905060405180604001604052808451815260200182815250915050919050565b600080826000015161364b856000015186602001518660000151876020015161378b565b6136559190614be4565b90505b8360000151846020015161366c9190614be4565b81116136c857818061367d90614fb4565b92505082600001516136b78560200151836136989190614e05565b86600001516136a79190614e05565b838660000151876020015161378b565b6136c19190614be4565b9050613658565b5092915050565b6136d7613b95565b6136e28383836138cc565b5092915050565b60606000826000015167ffffffffffffffff811115613731577f4e487b7100000000000000000000000000000000000000000000000000000000600052604160045260246000fd5b6040519080825280601f01601f1916602001820160405280156137635781602001600182028036833780820191505090505b50905060006020820190506137818185602001518660000151613997565b8192505050919050565b60008084905060008685116138b3576020851161385557600060018660206137b39190614e05565b60086137bf9190614dab565b60026137cb9190614c8d565b6137d59190614e05565b1960001b905060008186511690506000878a8a6137f29190614be4565b6137fc9190614e05565b905060008386511690505b8281146138475781861061382e578a8a6138219190614be4565b96505050505050506138c4565b858061383990614fb4565b965050838651169050613807565b8596505050505050506138c4565b60008585209050600091505b858861386d9190614e05565b82116138b157600086842090508082141561388e57839450505050506138c4565b60018461389b9190614be4565b93505081806138a990614fb4565b925050613861565b505b86866138bf9190614be4565b925050505b949350505050565b6138d4613b95565b60006138f2856000015186602001518660000151876020015161378b565b905084602001518360200181815250508460200151816139129190614e05565b8360000181815250508460000151856020015161392f9190614be4565b81141561394657600085600001818152505061398c565b8360000151836000015161395a9190614be4565b8560000181815161396b9190614e05565b915081815250508360000151816139829190614be4565b8560200181815250505b829150509392505050565b5b602081106139d657815183526020836139b19190614be4565b92506020826139c09190614be4565b91506020816139cf9190614e05565b9050613998565b600060018260206139e79190614e05565b6101006139f49190614c8d565b6139fe9190614e05565b90508019835116818551168181178652505050505050565b6040518060c00160405280600081526020016000815260200160608152602001600073ffffffffffffffffffffffffffffffffffffffff16815260200160008152602001606081525090565b60405180610100016040528060008152602001606081526020016060815260200160008152602001600073ffffffffffffffffffffffffffffffffffffffff1681526020016000815260200160608152602001600081525090565b828054613ac990614f57565b90600052602060002090601f016020900481019282613aeb5760008555613b32565b82601f10613b0457805160ff1916838001178555613b32565b82800160010185558215613b32579182015b82811115613b31578251825591602001919060010190613b16565b5b509050613b3f9190613baf565b5090565b828054828255906000526020600020908101928215613b845760005260206000209182015b82811115613b83578254825591600101919060010190613b68565b5b509050613b919190613baf565b5090565b604051806040016040528060008152602001600081525090565b5b80821115613bc8576000816000905550600101613bb0565b5090565b6000613bdf613bda84614a83565b614a52565b905082815260208101848484011115613bf757600080fd5b613c02848285614f15565b509392505050565b600081359050613c19816150a8565b92915050565b600081359050613c2e816150bf565b92915050565b600082601f830112613c4557600080fd5b8135613c55848260208601613bcc565b91505092915050565b600081359050613c6d816150d6565b92915050565b600060208284031215613c8557600080fd5b6000613c9384828501613c0a565b91505092915050565b600060208284031215613cae57600080fd5b6000613cbc84828501613c1f565b91505092915050565b600060208284031215613cd757600080fd5b600082013567ffffffffffffffff811115613cf157600080fd5b613cfd84828501613c34565b91505092915050565b60008060408385031215613d1957600080fd5b600083013567ffffffffffffffff811115613d3357600080fd5b613d3f85828601613c34565b925050602083013567ffffffffffffffff811115613d5c57600080fd5b613d6885828601613c34565b9150509250929050565b60008060408385031215613d8557600080fd5b600083013567ffffffffffffffff811115613d9f57600080fd5b613dab85828601613c34565b9250506020613dbc85828601613c5e565b9150509250929050565b600060208284031215613dd857600080fd5b6000613de684828501613c5e565b91505092915050565b60008060408385031215613e0257600080fd5b6000613e1085828601613c5e565b925050602083013567ffffffffffffffff811115613e2d57600080fd5b613e3985828601613c34565b9150509250929050565b6000613e4f83836140ae565b905092915050565b6000613e638383614383565b905092915050565b6000613e778383614413565b905092915050565b6000613e8b838361459e565b60208301905092915050565b613ea081614ecd565b82525050565b613eaf81614e4b565b82525050565b613ebe81614e39565b82525050565b613ecd81614e39565b82525050565b6000613ede82614b08565b613ee88185614b73565b935083602082028501613efa85614ab3565b8060005b85811015613f365784840389528151613f178582613e43565b9450613f2283614b3f565b925060208a01995050600181019050613efe565b50829750879550505050505092915050565b6000613f5382614b13565b613f5d8185614b84565b935083602082028501613f6f85614ac3565b8060005b85811015613fab5784840389528151613f8c8582613e57565b9450613f9783614b4c565b925060208a01995050600181019050613f73565b50829750879550505050505092915050565b6000613fc882614b1e565b613fd28185614b95565b935083602082028501613fe485614ad3565b8060005b8581101561402057848403895281516140018582613e6b565b945061400c83614b59565b925060208a01995050600181019050613fe8565b50829750879550505050505092915050565b600061403d82614b29565b6140478185614ba6565b935061405283614ae3565b8060005b8381101561408357815161406a8882613e7f565b975061407583614b66565b925050600181019050614056565b5085935050505092915050565b61409981614e5d565b82525050565b6140a881614edf565b82525050565b60006140b982614b34565b6140c38185614bb7565b93506140d3818560208601614f24565b6140dc8161508a565b840191505092915050565b60006140f282614b34565b6140fc8185614bc8565b935061410c818560208601614f24565b6141158161508a565b840191505092915050565b600061412b82614b34565b6141358185614bd9565b9350614145818560208601614f24565b80840191505092915050565b6000815461415e81614f57565b6141688186614bc8565b945060018216600081146141835760018114614195576141c8565b60ff19831686526020860193506141c8565b61419e85614af3565b60005b838110156141c0578154818901526001820191506020810190506141a1565b808801955050505b50505092915050565b60006141de602583614bc8565b91507f556e466f6c6c6f77696e672074686520617574686f722077697468206e65772060008301527f636f756e740000000000000000000000000000000000000000000000000000006020830152604082019050919050565b6000614244600c83614bc8565b91507f55736572204372656174656400000000000000000000000000000000000000006000830152602082019050919050565b6000614284602383614bc8565b91507f466f6c6c6f77696e672074686520617574686f722077697468206e657720636f60008301527f756e7400000000000000000000000000000000000000000000000000000000006020830152604082019050919050565b60006142ea600d83614bc8565b91507f4372656174696e672055736572000000000000000000000000000000000000006000830152602082019050919050565b600061432a603083614bc8565b91507f4f6e6c792074686520636f6e7472616374206f776e65722063616e206465737460008301527f726f792074686520636f6e7472616374000000000000000000000000000000006020830152604082019050919050565b600060c08301600083015161439b600086018261459e565b5060208301516143ae602086018261459e565b50604083015184820360408601526143c682826140ae565b91505060608301516143db6060860182613eb5565b5060808301516143ee608086018261459e565b5060a083015184820360a086015261440682826140ae565b9150508091505092915050565b60006101008301600083015161442c600086018261459e565b506020830151848203602086015261444482826140ae565b9150506040830151848203604086015261445e82826140ae565b9150506060830151614473606086018261459e565b5060808301516144866080860182613ea6565b5060a083015161449960a086018261459e565b5060c083015184820360c08601526144b182826140ae565b91505060e08301516144c660e086018261459e565b508091505092915050565b6000610100830160008301516144ea600086018261459e565b506020830151848203602086015261450282826140ae565b9150506040830151848203604086015261451c82826140ae565b9150506060830151614531606086018261459e565b5060808301516145446080860182613ea6565b5060a083015161455760a086018261459e565b5060c083015184820360c086015261456f82826140ae565b91505060e083015161458460e086018261459e565b508091505092915050565b61459881614e95565b82525050565b6145a781614ec3565b82525050565b6145b681614ec3565b82525050565b60006145c88284614120565b915081905092915050565b60006060820190506145e86000830186613ec4565b6145f56020830185613ec4565b61460260408301846145ad565b949350505050565b600060408201905081810360008301526146248185613ed3565b905081810360208301526146388184613fbd565b90509392505050565b6000604082019050818103600083015261465b8185613ed3565b905061466a60208301846145ad565b9392505050565b6000602082019050818103600083015261468b8184613f48565b905092915050565b600060208201905081810360008301526146ad8184613fbd565b905092915050565b600060208201905081810360008301526146cf8184614032565b905092915050565b600060408201905081810360008301526146f18185614032565b905081810360208301526147058184613fbd565b90509392505050565b600060408201905081810360008301526147288185614032565b9050818103602083015261473c8184614032565b90509392505050565b600060208201905061475a6000830184614090565b92915050565b6000602082019050818103600083015261477a81846140e7565b905092915050565b6000602082019050818103600083015261479b81614237565b9050919050565b600060208201905081810360008301526147bb816142dd565b9050919050565b600060208201905081810360008301526147db8161431d565b9050919050565b600060208201905081810360008301526147fc81846144d1565b905092915050565b6000602082019050614819600083018461458f565b92915050565b600060208201905061483460008301846145ad565b92915050565b600060e08201905061484f600083018a6145ad565b818103602083015261486181896140e7565b9050818103604083015261487581886140e7565b9050614884606083018761409f565b6148916080830186613ec4565b61489e60a08301856145ad565b81810360c08301526148b08184614151565b905098975050505050505050565b600060c0820190506148d360008301896145ad565b81810360208301526148e581886140e7565b90506148f460408301876145ad565b61490160608301866145ad565b61490e60808301856145ad565b61491b60a08301846145ad565b979650505050505050565b600060608201905061493b60008301866145ad565b61494860208301856145ad565b6149556040830184613e97565b949350505050565b600060a08201905061497260008301886145ad565b61497f60208301876145ad565b818103604083015261499181866140e7565b90506149a06060830185613ec4565b81810360808301526149b28184614151565b90509695505050505050565b60006080820190506149d360008301866145ad565b6149e060208301856145ad565b81810360408301526149f1816141d1565b9050614a0060608301846145ad565b949350505050565b6000608082019050614a1d60008301866145ad565b614a2a60208301856145ad565b8181036040830152614a3b81614277565b9050614a4a60608301846145ad565b949350505050565b6000604051905081810181811067ffffffffffffffff82111715614a7957614a7861505b565b5b8060405250919050565b600067ffffffffffffffff821115614a9e57614a9d61505b565b5b601f19601f8301169050602081019050919050565b6000819050602082019050919050565b6000819050602082019050919050565b6000819050602082019050919050565b6000819050602082019050919050565b60008190508160005260206000209050919050565b600081519050919050565b600081519050919050565b600081519050919050565b600081519050919050565b600081519050919050565b6000602082019050919050565b6000602082019050919050565b6000602082019050919050565b6000602082019050919050565b600082825260208201905092915050565b600082825260208201905092915050565b600082825260208201905092915050565b600082825260208201905092915050565b600082825260208201905092915050565b600082825260208201905092915050565b600081905092915050565b6000614bef82614ec3565b9150614bfa83614ec3565b9250827fffffffffffffffffffffffffffffffffffffffffffffffffffffffffffffffff03821115614c2f57614c2e614ffd565b5b828201905092915050565b6000808291508390505b6001851115614c8457808604811115614c6057614c5f614ffd565b5b6001851615614c6f5780820291505b8081029050614c7d8561509b565b9450614c44565b94509492505050565b6000614c9882614ec3565b9150614ca383614ec3565b9250614cd07fffffffffffffffffffffffffffffffffffffffffffffffffffffffffffffffff8484614cd8565b905092915050565b600082614ce85760019050614da4565b81614cf65760009050614da4565b8160018114614d0c5760028114614d1657614d45565b6001915050614da4565b60ff841115614d2857614d27614ffd565b5b8360020a915084821115614d3f57614d3e614ffd565b5b50614da4565b5060208310610133831016604e8410600b8410161715614d7a5782820a905083811115614d7557614d74614ffd565b5b614da4565b614d878484846001614c3a565b92509050818404811115614d9e57614d9d614ffd565b5b81810290505b9392505050565b6000614db682614ec3565b9150614dc183614ec3565b9250817fffffffffffffffffffffffffffffffffffffffffffffffffffffffffffffffff0483118215151615614dfa57614df9614ffd565b5b828202905092915050565b6000614e1082614ec3565b9150614e1b83614ec3565b925082821015614e2e57614e2d614ffd565b5b828203905092915050565b6000614e4482614ea3565b9050919050565b6000614e5682614ea3565b9050919050565b60008115159050919050565b60007fff0000000000000000000000000000000000000000000000000000000000000082169050919050565b600061ffff82169050919050565b600073ffffffffffffffffffffffffffffffffffffffff82169050919050565b6000819050919050565b6000614ed882614ef1565b9050919050565b6000614eea82614ec3565b9050919050565b6000614efc82614f03565b9050919050565b6000614f0e82614ea3565b9050919050565b82818337600083830152505050565b60005b83811015614f42578082015181840152602081019050614f27565b83811115614f51576000848401525b50505050565b60006002820490506001821680614f6f57607f821691505b60208210811415614f8357614f8261502c565b5b50919050565b6000614f9482614e95565b915061ffff821415614fa957614fa8614ffd565b5b600182019050919050565b6000614fbf82614ec3565b91507fffffffffffffffffffffffffffffffffffffffffffffffffffffffffffffffff821415614ff257614ff1614ffd565b5b600182019050919050565b7f4e487b7100000000000000000000000000000000000000000000000000000000600052601160045260246000fd5b7f4e487b7100000000000000000000000000000000000000000000000000000000600052602260045260246000fd5b7f4e487b7100000000000000000000000000000000000000000000000000000000600052604160045260246000fd5b6000601f19601f8301169050919050565b60008160011c9050919050565b6150b181614e39565b81146150bc57600080fd5b50565b6150c881614e69565b81146150d357600080fd5b50565b6150df81614ec3565b81146150ea57600080fd5b5056fe68747470733a2f2f6769746875622e636f6d2f5072617665656e50696e2f53696d706c652d536f6369616c2d4e6574776f726ba26469706673582212201142cee0e323d1f1f68309cc5d41700afeb58d62af07eddf6b94f0545ab10c7964736f6c63430008000033",
  "immutableReferences": {},
  "source": "pragma solidity ^0.8.0;\r\n\r\nimport './owned.sol';\r\nimport \"./StringsLib.sol\";\r\npragma abicoder v2;\r\n\r\ncontract SocialNetwork is owned{\r\n    /*Add code */\r\n    using strings for *;\r\n\r\n    string public networkName; /* State variable -> this value gets stored on block chain*/\r\n    // we cannot know the length of any map and cannot iterate over it, we can only fetch individually\r\n    mapping(uint => Post) posts;/* Key Value Store, gets written to block chain itself */\r\n    mapping(uint => User) users;\r\n    mapping(address => uint) addressToUid;\r\n    mapping(uint => mapping(uint => Comment)) comments;\r\n    mapping(string => uint[]) postsFromTags;\r\n    mapping(uint256 => bool) helperMap;\r\n\r\n    uint public postCount = 0;\r\n    uint16 public userCount = 0;\r\n\r\n    struct User{\r\n        uint id;\r\n        address userAddress;\r\n        string name;        \r\n        mapping(uint => bool) followerIds;\r\n        mapping(uint => bool) myPostIds; //not user's id\r\n        mapping(uint => bool) followingIds;\r\n        uint followersCount;\r\n        uint followingCount;\r\n        uint tipObtained;\r\n        uint tipDonated;\r\n    } \r\n\r\n    struct Post{\r\n        uint pid;\r\n        string content;\r\n        string url;\r\n        uint tipAmount;\r\n        address payable author;\r\n        uint authorId;\r\n        string authorName;\r\n        uint commentsCount;\r\n    }\r\n\r\n    struct Comment{\r\n        uint postId;\r\n        uint cid;\r\n        string comment;\r\n        address author;\r\n        uint authorId;\r\n        string authorName;\r\n    }\r\n\r\n    constructor () public {\r\n        networkName = \"ETH - SocialNetwork\";\r\n    }\r\n\r\n    //events for creating user, following a user, unfollowing a user\r\n    event AutoCreateUser(address indexed sender, string message);\r\n    event FollowOrUnFollowUser(address indexed sender, uint senderId, uint author, string message, uint count);\r\n\r\n    function getUserIdFromAddress(address _userAddress) public checkAddress view returns (uint){\r\n        return addressToUid[_userAddress];\r\n    }\r\n\r\n    function getPostFromPostId(uint _postId) public view returns (Post memory){\r\n        require(_postId > 0 && _postId <= postCount);\r\n        return posts[_postId];\r\n    }\r\n\r\n    function autoCreateUser(string memory _uname) public {        \r\n        require(bytes(_uname).length > 0);\r\n        userCount++;\r\n        User storage _user = users[userCount];\r\n        emit AutoCreateUser(msg.sender, \"Creating User\");            \r\n        _user.id = userCount;\r\n        _user.name = _uname;\r\n        _user.userAddress = msg.sender;\r\n        _user.followersCount = 0;\r\n        _user.followingCount = 0;\r\n        _user.tipObtained = 0;\r\n        _user.tipDonated = 0;\r\n        addressToUid[msg.sender] = userCount;\r\n        emit AutoCreateUser(msg.sender, \"User Created\");\r\n    }\r\n\r\n    function getUserInfo() public view returns (uint, string memory, uint, uint, uint, uint){     \r\n        uint _userId = addressToUid[msg.sender];\r\n        require(_userId > 0);   \r\n        User storage _user = users[_userId];\r\n        return (_user.id, _user.name, _user.followersCount, _user.followingCount, _user.tipObtained, _user.tipDonated);\r\n    }\r\n\r\n    function followAuthor(uint _authorId) public checkAddress{\r\n        uint senderId = addressToUid[msg.sender];\r\n        require(senderId != _authorId);\r\n        uint followingCount = users[senderId].followingCount;\r\n        uint authorsFollowersCount = users[_authorId].followersCount;\r\n        users[senderId].followingIds[_authorId] = true;\r\n        users[_authorId].followerIds[senderId] = true;\r\n        users[senderId].followingCount = followingCount+1;\r\n        users[_authorId].followersCount = authorsFollowersCount+1;\r\n        emit FollowOrUnFollowUser(msg.sender, senderId, _authorId, \"Following the author with new count\", followingCount+1);\r\n    }\r\n\r\n    function unFollowAuthor(uint _authorId) public checkAddress{\r\n        uint senderId = addressToUid[msg.sender];\r\n        require(senderId != _authorId);\r\n        uint followingCount = users[senderId].followingCount;\r\n        uint authorsFollowersCount = users[_authorId].followersCount;\r\n        users[senderId].followingIds[_authorId] = false;\r\n        users[senderId].followingCount = followingCount-1;\r\n        users[_authorId].followerIds[senderId] = false;\r\n        users[_authorId].followersCount = authorsFollowersCount-1;\r\n        emit FollowOrUnFollowUser(msg.sender, senderId, _authorId, \"UnFollowing the author with new count\", followingCount -1);\r\n    }\r\n\r\n    event FetchMyPosts(address indexed addr, uint[] myPostIds);\r\n\r\n    event FetchMyNetworkIds(address indexed sender, uint[] followingIds, uint[] followerIds);\r\n\r\n    function getMyPosts(uint _id) public returns (uint[] memory, Post[] memory){        \r\n        uint myPostCount = 0;\r\n        uint counter = 0;\r\n\r\n        User storage _user = users[_id];\r\n        for (uint i = 1; i <= postCount; i++){\r\n            if(_user.myPostIds[i]){\r\n                myPostCount++;\r\n            }\r\n        }\r\n        \r\n        uint[] memory postIds = new uint[](myPostCount);\r\n        Post[] memory myPosts = new Post[](myPostCount);\r\n        \r\n        for (uint i = 1; i <= postCount; i++){\r\n            if(_user.myPostIds[i]){\r\n                postIds[counter] = i;\r\n                myPosts[counter++] = posts[i];\r\n            }\r\n        }\r\n        emit FetchMyPosts(msg.sender,postIds);\r\n        return (postIds, myPosts);\r\n    }\r\n\r\n    function getAllFollowingIds() public returns (uint[] memory, uint[] memory){\r\n        uint myId = addressToUid[msg.sender];\r\n        require(myId > 0 && myId <= userCount);\r\n        User storage _user = users[myId];\r\n        uint[] memory followingIds = new uint[](_user.followingCount);\r\n        uint[] memory followerIds = new uint[](_user.followersCount);\r\n        uint counter = 0;\r\n        for (uint i = 1; i <= userCount; i++){\r\n            if(_user.followingIds[i]){\r\n                followingIds[counter++] = i;\r\n            }\r\n        }\r\n        counter = 0;\r\n        for (uint i = 1; i <= userCount; i++){\r\n            if(_user.followerIds[i]){\r\n                followerIds[counter++] = i;\r\n            }\r\n        }\r\n        emit FetchMyNetworkIds(msg.sender,followingIds,followerIds);\r\n        return (followingIds,followerIds);\r\n    }\r\n\r\n    function getUserData(uint _uid) public view returns (uint, string memory, uint, uint, uint, uint){     \r\n        require(_uid > 0);   \r\n        User storage _user = users[_uid];\r\n        return (_user.id, _user.name, _user.followersCount, _user.followingCount, _user.tipObtained, _user.tipDonated);\r\n    }\r\n\r\n    event PostCreated(address indexed id, uint pid, string content, string url, uint tipAmount, address author, uint authorId, string authorName);\r\n\r\n    function createPost(string memory _content, string memory _url) public{ \r\n        //require valid content\r\n        require(bytes(_content).length > 0); //if false it stops execution and gas used will be refunded back to caller, else continues execution\r\n        \r\n        /* Here _content is a local var and underscore is just a conventions for local vars*/\r\n        postCount++;        \r\n        uint userId = addressToUid[msg.sender];\r\n        posts[postCount] = Post(postCount, _content, \"https://github.com/PraveenPin/Simple-Social-Network\", 0, payable(msg.sender), userId, users[userId].name, 0); /* Instantiates Post, adds it into map */        \r\n        //adding the post id to the user\r\n        users[userId].myPostIds[postCount] = true;\r\n        //Trigger event from solidity smart contracts\r\n        //these posts can be open for subscription by consumers\r\n        emit PostCreated(msg.sender,postCount, _content, _url, 0, msg.sender, userId, users[userId].name);        \r\n        createTag(_content, postCount);\r\n    }\r\n\r\n    event PostTipped(uint pid, uint tipAmount, address author);\r\n\r\n    function tipAPost(uint _id) public payable {\r\n        require(_id > 0 && _id <= postCount);\r\n        Post memory _post = posts[_id];\r\n        address payable _author = _post.author;\r\n        //paying the author by sending ether\r\n        payable(address(_author)).transfer(msg.value);\r\n        //here the tip should be ether, so we use function meta data\r\n        _post.tipAmount = _post.tipAmount + msg.value;\r\n        posts[_id] = _post;\r\n        \r\n        //add tip amount to user donation\r\n        users[addressToUid[msg.sender]].tipDonated += msg.value;\r\n        //add tip amount to author's obtained tip\r\n        users[_post.authorId].tipObtained += msg.value;\r\n        emit PostTipped(postCount, _post.tipAmount, _author);\r\n    }\r\n\r\n    //functions, events to create and delete comments\r\n    event CommentDeleted(uint pid, uint cid, string deletedComment, address commentAuthor, string authorName);\r\n    event CommentCreated(uint pid, uint cid, string comment, address commentedUser, string authorName);\r\n\r\n    function createComment(uint _pid, string memory _comment) public {\r\n        require(_pid > 0 && _pid <= postCount);\r\n        Post memory _post = posts[_pid];\r\n        uint commentsCount = _post.commentsCount;\r\n        commentsCount++;\r\n        User storage _user = users[addressToUid[msg.sender]];\r\n        comments[_pid][commentsCount] = Comment(_pid, commentsCount, _comment, msg.sender, _user.id, _user.name);\r\n        posts[_pid].commentsCount = commentsCount;\r\n        emit CommentCreated(_pid, commentsCount, _comment, msg.sender, _user.name);\r\n    }\r\n\r\n    function fetchAllComments(uint _postId) public view returns (Comment[] memory){\r\n        require(_postId > 0 && _postId <= postCount);\r\n        Post memory _post = posts[_postId];\r\n        uint commentsCount = _post.commentsCount;\r\n        Comment[] memory postComments = new Comment[](commentsCount);\r\n        uint counter = 0;\r\n        for(uint i=1; i<= commentsCount; i++){\r\n            postComments[counter++] = comments[_postId][i];\r\n        }\r\n        return postComments;\r\n    }\r\n\r\n    //event for tag creation\r\n    event PostTagsCreated(string[] tags, uint postId);\r\n    event AllPostsOfATag(string[] tags, Post[] posts);\r\n    event emitWord(string tag);\r\n\r\n    function createTag(string memory _content, uint _postId) public {       \r\n        \r\n        strings.slice memory s  = _content.toSlice();\r\n        strings.slice memory delim = \" \".toSlice();\r\n        string[] memory parts = new string[](s.count(delim) + 1);\r\n        for(uint i = 0; i < parts.length; i++) {\r\n            parts[i] = s.split(delim).toString();\r\n        }\r\n\r\n        for(uint i = 0; i<parts.length;i++){\r\n            string memory tag = parts[i];\r\n            uint[] storage postIds = postsFromTags[tag];\r\n            postIds.push(_postId);\r\n            postsFromTags[tag] = postIds;\r\n            // bool found = false;\r\n            // for(uint j=0; j<postIds.length; i++){\r\n            //     if(!found && postIds[j] == _postId){\r\n            //         found = true;\r\n            //         break;\r\n            //     }\r\n            // }\r\n            // if(!found){\r\n            // }\r\n        }\r\n\r\n\r\n        emit PostTagsCreated(parts, _postId);\r\n    }\r\n\r\n    function checkEmptyCharacter(bytes1 _char) public pure returns (bool){\r\n        if(_char == 0x20){\r\n            return true;\r\n        }\r\n        return false;\r\n    }\r\n\r\n    function getPostsFromTag(string memory tag) public returns (Post[] memory){\r\n        strings.slice memory s  = tag.toSlice();\r\n        strings.slice memory delim = \" \".toSlice();\r\n        string[] memory tags = new string[](s.count(delim) + 1);\r\n        for(uint i = 0; i < tags.length; i++) {\r\n            tags[i] = s.split(delim).toString();\r\n        }\r\n\r\n        uint counter = 0;\r\n        Post[] memory postsOfTag = new Post[](postCount);\r\n        for(uint j = 0; j < tags.length;j++){\r\n            uint[] memory postIds = postsFromTags[tags[j]];\r\n            for(uint i=0;i< postIds.length;i++){\r\n                if(!helperMap[postIds[i]]){\r\n                    helperMap[postIds[i]] = true;\r\n                    postsOfTag[counter++] = posts[postIds[i]];\r\n                }\r\n            }\r\n            \r\n            //nullify helper map\r\n            for(uint i=0;i< postIds.length;i++){\r\n                helperMap[postIds[i]] = false;\r\n            }\r\n        }\r\n\r\n        emit AllPostsOfATag(tags, postsOfTag);\r\n        return postsOfTag;\r\n    }\r\n\r\n    //self destruct event \r\n    event DestroyContract(address sender, address caller, uint balance);\r\n\r\n    function destroyContract() public onlyOwner{\r\n        emit DestroyContract(msg.sender, owner, owner.balance);\r\n        selfdestruct(payable(msg.sender));\r\n    }\r\n\r\n}",
  "sourcePath": "C:/Users/praveen/Desktop/Eth-Project/Simple-Social-Network/src/contracts/SocialNetwork.sol",
  "compiler": {
    "name": "solc",
    "version": "0.8.0+commit.c7dfd78e.Emscripten.clang"
  },
  "schemaVersion": "3.4.1",
  "updatedAt": "2021-06-14T17:36:04.293Z",
  "networkType": "ethereum",
  "devdoc": {
    "kind": "dev",
    "methods": {},
    "version": 1
  },
  "userdoc": {
    "kind": "user",
    "methods": {},
    "version": 1
  }
}