{
  "contractName": "SocialNetwork",
  "abi": [
    {
      "inputs": [],
      "stateMutability": "nonpayable",
      "type": "constructor"
    },
    {
      "anonymous": false,
      "inputs": [
        {
          "indexed": false,
          "internalType": "string",
          "name": "tag",
          "type": "string"
        },
        {
          "components": [
            {
              "internalType": "uint256",
              "name": "pid",
              "type": "uint256"
            },
            {
              "internalType": "string",
              "name": "content",
              "type": "string"
            },
            {
              "internalType": "string",
              "name": "url",
              "type": "string"
            },
            {
              "internalType": "uint256",
              "name": "tipAmount",
              "type": "uint256"
            },
            {
              "internalType": "address payable",
              "name": "author",
              "type": "address"
            },
            {
              "internalType": "uint256",
              "name": "authorId",
              "type": "uint256"
            },
            {
              "internalType": "string",
              "name": "authorName",
              "type": "string"
            },
            {
              "internalType": "uint256",
              "name": "commentsCount",
              "type": "uint256"
            }
          ],
          "indexed": false,
          "internalType": "struct SocialNetwork.Post[]",
          "name": "posts",
          "type": "tuple[]"
        }
      ],
      "name": "AllPostsOfATag",
      "type": "event"
    },
    {
      "anonymous": false,
      "inputs": [
        {
          "indexed": true,
          "internalType": "address",
          "name": "sender",
          "type": "address"
        },
        {
          "indexed": false,
          "internalType": "string",
          "name": "message",
          "type": "string"
        }
      ],
      "name": "AutoCreateUser",
      "type": "event"
    },
    {
      "anonymous": false,
      "inputs": [
        {
          "indexed": false,
          "internalType": "uint256",
          "name": "pid",
          "type": "uint256"
        },
        {
          "indexed": false,
          "internalType": "uint256",
          "name": "cid",
          "type": "uint256"
        },
        {
          "indexed": false,
          "internalType": "string",
          "name": "comment",
          "type": "string"
        },
        {
          "indexed": false,
          "internalType": "address",
          "name": "commentedUser",
          "type": "address"
        },
        {
          "indexed": false,
          "internalType": "string",
          "name": "authorName",
          "type": "string"
        }
      ],
      "name": "CommentCreated",
      "type": "event"
    },
    {
      "anonymous": false,
      "inputs": [
        {
          "indexed": false,
          "internalType": "uint256",
          "name": "pid",
          "type": "uint256"
        },
        {
          "indexed": false,
          "internalType": "uint256",
          "name": "cid",
          "type": "uint256"
        },
        {
          "indexed": false,
          "internalType": "string",
          "name": "deletedComment",
          "type": "string"
        },
        {
          "indexed": false,
          "internalType": "address",
          "name": "commentAuthor",
          "type": "address"
        },
        {
          "indexed": false,
          "internalType": "string",
          "name": "authorName",
          "type": "string"
        }
      ],
      "name": "CommentDeleted",
      "type": "event"
    },
    {
      "anonymous": false,
      "inputs": [
        {
          "indexed": false,
          "internalType": "address",
          "name": "sender",
          "type": "address"
        },
        {
          "indexed": false,
          "internalType": "address",
          "name": "caller",
          "type": "address"
        },
        {
          "indexed": false,
          "internalType": "uint256",
          "name": "balance",
          "type": "uint256"
        }
      ],
      "name": "DestroyContract",
      "type": "event"
    },
    {
      "anonymous": false,
      "inputs": [
        {
          "indexed": true,
          "internalType": "address",
          "name": "sender",
          "type": "address"
        },
        {
          "indexed": false,
          "internalType": "uint256[]",
          "name": "followingIds",
          "type": "uint256[]"
        },
        {
          "indexed": false,
          "internalType": "uint256[]",
          "name": "followerIds",
          "type": "uint256[]"
        }
      ],
      "name": "FetchMyNetworkIds",
      "type": "event"
    },
    {
      "anonymous": false,
      "inputs": [
        {
          "indexed": true,
          "internalType": "address",
          "name": "addr",
          "type": "address"
        },
        {
          "indexed": false,
          "internalType": "uint256[]",
          "name": "myPostIds",
          "type": "uint256[]"
        }
      ],
      "name": "FetchMyPosts",
      "type": "event"
    },
    {
      "anonymous": false,
      "inputs": [
        {
          "indexed": true,
          "internalType": "address",
          "name": "sender",
          "type": "address"
        },
        {
          "indexed": false,
          "internalType": "uint256",
          "name": "senderId",
          "type": "uint256"
        },
        {
          "indexed": false,
          "internalType": "uint256",
          "name": "author",
          "type": "uint256"
        },
        {
          "indexed": false,
          "internalType": "string",
          "name": "message",
          "type": "string"
        },
        {
          "indexed": false,
          "internalType": "uint256",
          "name": "count",
          "type": "uint256"
        }
      ],
      "name": "FollowOrUnFollowUser",
      "type": "event"
    },
    {
      "anonymous": false,
      "inputs": [
        {
          "indexed": true,
          "internalType": "address",
          "name": "id",
          "type": "address"
        },
        {
          "indexed": false,
          "internalType": "uint256",
          "name": "pid",
          "type": "uint256"
        },
        {
          "indexed": false,
          "internalType": "string",
          "name": "content",
          "type": "string"
        },
        {
          "indexed": false,
          "internalType": "string",
          "name": "url",
          "type": "string"
        },
        {
          "indexed": false,
          "internalType": "uint256",
          "name": "tipAmount",
          "type": "uint256"
        },
        {
          "indexed": false,
          "internalType": "address",
          "name": "author",
          "type": "address"
        },
        {
          "indexed": false,
          "internalType": "uint256",
          "name": "authorId",
          "type": "uint256"
        },
        {
          "indexed": false,
          "internalType": "string",
          "name": "authorName",
          "type": "string"
        }
      ],
      "name": "PostCreated",
      "type": "event"
    },
    {
      "anonymous": false,
      "inputs": [
        {
          "indexed": false,
          "internalType": "string[]",
          "name": "tags",
          "type": "string[]"
        },
        {
          "indexed": false,
          "internalType": "uint256",
          "name": "postId",
          "type": "uint256"
        }
      ],
      "name": "PostTagsCreated",
      "type": "event"
    },
    {
      "anonymous": false,
      "inputs": [
        {
          "indexed": false,
          "internalType": "uint256",
          "name": "pid",
          "type": "uint256"
        },
        {
          "indexed": false,
          "internalType": "uint256",
          "name": "tipAmount",
          "type": "uint256"
        },
        {
          "indexed": false,
          "internalType": "address",
          "name": "author",
          "type": "address"
        }
      ],
      "name": "PostTipped",
      "type": "event"
    },
    {
      "anonymous": false,
      "inputs": [
        {
          "indexed": false,
          "internalType": "string",
          "name": "tag",
          "type": "string"
        }
      ],
      "name": "emitWord",
      "type": "event"
    },
    {
      "inputs": [],
      "name": "networkName",
      "outputs": [
        {
          "internalType": "string",
          "name": "",
          "type": "string"
        }
      ],
      "stateMutability": "view",
      "type": "function",
      "constant": true
    },
    {
      "inputs": [],
      "name": "postCount",
      "outputs": [
        {
          "internalType": "uint256",
          "name": "",
          "type": "uint256"
        }
      ],
      "stateMutability": "view",
      "type": "function",
      "constant": true
    },
    {
      "inputs": [],
      "name": "userCount",
      "outputs": [
        {
          "internalType": "uint16",
          "name": "",
          "type": "uint16"
        }
      ],
      "stateMutability": "view",
      "type": "function",
      "constant": true
    },
    {
      "inputs": [
        {
          "internalType": "address",
          "name": "_userAddress",
          "type": "address"
        }
      ],
      "name": "getUserIdFromAddress",
      "outputs": [
        {
          "internalType": "uint256",
          "name": "",
          "type": "uint256"
        }
      ],
      "stateMutability": "view",
      "type": "function",
      "constant": true
    },
    {
      "inputs": [
        {
          "internalType": "uint256",
          "name": "_postId",
          "type": "uint256"
        }
      ],
      "name": "getPostFromPostId",
      "outputs": [
        {
          "components": [
            {
              "internalType": "uint256",
              "name": "pid",
              "type": "uint256"
            },
            {
              "internalType": "string",
              "name": "content",
              "type": "string"
            },
            {
              "internalType": "string",
              "name": "url",
              "type": "string"
            },
            {
              "internalType": "uint256",
              "name": "tipAmount",
              "type": "uint256"
            },
            {
              "internalType": "address payable",
              "name": "author",
              "type": "address"
            },
            {
              "internalType": "uint256",
              "name": "authorId",
              "type": "uint256"
            },
            {
              "internalType": "string",
              "name": "authorName",
              "type": "string"
            },
            {
              "internalType": "uint256",
              "name": "commentsCount",
              "type": "uint256"
            }
          ],
          "internalType": "struct SocialNetwork.Post",
          "name": "",
          "type": "tuple"
        }
      ],
      "stateMutability": "view",
      "type": "function",
      "constant": true
    },
    {
      "inputs": [
        {
          "internalType": "string",
          "name": "_uname",
          "type": "string"
        }
      ],
      "name": "autoCreateUser",
      "outputs": [],
      "stateMutability": "nonpayable",
      "type": "function"
    },
    {
      "inputs": [],
      "name": "getUserInfo",
      "outputs": [
        {
          "internalType": "uint256",
          "name": "",
          "type": "uint256"
        },
        {
          "internalType": "string",
          "name": "",
          "type": "string"
        },
        {
          "internalType": "uint256",
          "name": "",
          "type": "uint256"
        },
        {
          "internalType": "uint256",
          "name": "",
          "type": "uint256"
        },
        {
          "internalType": "uint256",
          "name": "",
          "type": "uint256"
        },
        {
          "internalType": "uint256",
          "name": "",
          "type": "uint256"
        }
      ],
      "stateMutability": "view",
      "type": "function",
      "constant": true
    },
    {
      "inputs": [
        {
          "internalType": "uint256",
          "name": "_authorId",
          "type": "uint256"
        }
      ],
      "name": "followAuthor",
      "outputs": [],
      "stateMutability": "nonpayable",
      "type": "function"
    },
    {
      "inputs": [
        {
          "internalType": "uint256",
          "name": "_authorId",
          "type": "uint256"
        }
      ],
      "name": "unFollowAuthor",
      "outputs": [],
      "stateMutability": "nonpayable",
      "type": "function"
    },
    {
      "inputs": [
        {
          "internalType": "uint256",
          "name": "_id",
          "type": "uint256"
        }
      ],
      "name": "getMyPosts",
      "outputs": [
        {
          "internalType": "uint256[]",
          "name": "",
          "type": "uint256[]"
        },
        {
          "components": [
            {
              "internalType": "uint256",
              "name": "pid",
              "type": "uint256"
            },
            {
              "internalType": "string",
              "name": "content",
              "type": "string"
            },
            {
              "internalType": "string",
              "name": "url",
              "type": "string"
            },
            {
              "internalType": "uint256",
              "name": "tipAmount",
              "type": "uint256"
            },
            {
              "internalType": "address payable",
              "name": "author",
              "type": "address"
            },
            {
              "internalType": "uint256",
              "name": "authorId",
              "type": "uint256"
            },
            {
              "internalType": "string",
              "name": "authorName",
              "type": "string"
            },
            {
              "internalType": "uint256",
              "name": "commentsCount",
              "type": "uint256"
            }
          ],
          "internalType": "struct SocialNetwork.Post[]",
          "name": "",
          "type": "tuple[]"
        }
      ],
      "stateMutability": "nonpayable",
      "type": "function"
    },
    {
      "inputs": [],
      "name": "getAllFollowingIds",
      "outputs": [
        {
          "internalType": "uint256[]",
          "name": "",
          "type": "uint256[]"
        },
        {
          "internalType": "uint256[]",
          "name": "",
          "type": "uint256[]"
        }
      ],
      "stateMutability": "nonpayable",
      "type": "function"
    },
    {
      "inputs": [
        {
          "internalType": "uint256",
          "name": "_uid",
          "type": "uint256"
        }
      ],
      "name": "getUserData",
      "outputs": [
        {
          "internalType": "uint256",
          "name": "",
          "type": "uint256"
        },
        {
          "internalType": "string",
          "name": "",
          "type": "string"
        },
        {
          "internalType": "uint256",
          "name": "",
          "type": "uint256"
        },
        {
          "internalType": "uint256",
          "name": "",
          "type": "uint256"
        },
        {
          "internalType": "uint256",
          "name": "",
          "type": "uint256"
        },
        {
          "internalType": "uint256",
          "name": "",
          "type": "uint256"
        }
      ],
      "stateMutability": "view",
      "type": "function",
      "constant": true
    },
    {
      "inputs": [
        {
          "internalType": "string",
          "name": "_content",
          "type": "string"
        },
        {
          "internalType": "string",
          "name": "_url",
          "type": "string"
        }
      ],
      "name": "createPost",
      "outputs": [],
      "stateMutability": "nonpayable",
      "type": "function"
    },
    {
      "inputs": [
        {
          "internalType": "uint256",
          "name": "_id",
          "type": "uint256"
        }
      ],
      "name": "tipAPost",
      "outputs": [],
      "stateMutability": "payable",
      "type": "function",
      "payable": true
    },
    {
      "inputs": [
        {
          "internalType": "uint256",
          "name": "_pid",
          "type": "uint256"
        },
        {
          "internalType": "string",
          "name": "_comment",
          "type": "string"
        }
      ],
      "name": "createComment",
      "outputs": [],
      "stateMutability": "nonpayable",
      "type": "function"
    },
    {
      "inputs": [
        {
          "internalType": "uint256",
          "name": "_postId",
          "type": "uint256"
        }
      ],
      "name": "fetchAllComments",
      "outputs": [
        {
          "components": [
            {
              "internalType": "uint256",
              "name": "postId",
              "type": "uint256"
            },
            {
              "internalType": "uint256",
              "name": "cid",
              "type": "uint256"
            },
            {
              "internalType": "string",
              "name": "comment",
              "type": "string"
            },
            {
              "internalType": "address",
              "name": "author",
              "type": "address"
            },
            {
              "internalType": "uint256",
              "name": "authorId",
              "type": "uint256"
            },
            {
              "internalType": "string",
              "name": "authorName",
              "type": "string"
            }
          ],
          "internalType": "struct SocialNetwork.Comment[]",
          "name": "",
          "type": "tuple[]"
        }
      ],
      "stateMutability": "view",
      "type": "function",
      "constant": true
    },
    {
      "inputs": [
        {
          "internalType": "string",
          "name": "_content",
          "type": "string"
        },
        {
          "internalType": "uint256",
          "name": "_postId",
          "type": "uint256"
        }
      ],
      "name": "createTag",
      "outputs": [],
      "stateMutability": "nonpayable",
      "type": "function"
    },
    {
      "inputs": [
        {
          "internalType": "bytes1",
          "name": "_char",
          "type": "bytes1"
        }
      ],
      "name": "checkEmptyCharacter",
      "outputs": [
        {
          "internalType": "bool",
          "name": "",
          "type": "bool"
        }
      ],
      "stateMutability": "pure",
      "type": "function",
      "constant": true
    },
    {
      "inputs": [
        {
          "internalType": "string",
          "name": "tag",
          "type": "string"
        }
      ],
      "name": "getPostsFromTag",
      "outputs": [
        {
          "components": [
            {
              "internalType": "uint256",
              "name": "pid",
              "type": "uint256"
            },
            {
              "internalType": "string",
              "name": "content",
              "type": "string"
            },
            {
              "internalType": "string",
              "name": "url",
              "type": "string"
            },
            {
              "internalType": "uint256",
              "name": "tipAmount",
              "type": "uint256"
            },
            {
              "internalType": "address payable",
              "name": "author",
              "type": "address"
            },
            {
              "internalType": "uint256",
              "name": "authorId",
              "type": "uint256"
            },
            {
              "internalType": "string",
              "name": "authorName",
              "type": "string"
            },
            {
              "internalType": "uint256",
              "name": "commentsCount",
              "type": "uint256"
            }
          ],
          "internalType": "struct SocialNetwork.Post[]",
          "name": "",
          "type": "tuple[]"
        }
      ],
      "stateMutability": "nonpayable",
      "type": "function"
    },
    {
      "inputs": [],
      "name": "destroyContract",
      "outputs": [],
      "stateMutability": "nonpayable",
      "type": "function"
    }
  ],
  "bytecode": "0x608060405260006008556000600960006101000a81548161ffff021916908361ffff1602179055503480156200003457600080fd5b50336000806101000a81548173ffffffffffffffffffffffffffffffffffffffff021916908373ffffffffffffffffffffffffffffffffffffffff1602179055506040518060400160405280601381526020017f455448202d20536f6369616c4e6574776f726b0000000000000000000000000081525060019080519060200190620000c2929190620000c9565b50620001de565b828054620000d79062000179565b90600052602060002090601f016020900481019282620000fb576000855562000147565b82601f106200011657805160ff191683800117855562000147565b8280016001018555821562000147579182015b828111156200014657825182559160200191906001019062000129565b5b5090506200015691906200015a565b5090565b5b80821115620001755760008160009055506001016200015b565b5090565b600060028204905060018216806200019257607f821691505b60208210811415620001a957620001a8620001af565b5b50919050565b7f4e487b7100000000000000000000000000000000000000000000000000000000600052602260045260246000fd5b614f9080620001ee6000396000f3fe60806040526004361061011f5760003560e01c8063392338f5116100a05780636dc2cc71116100645780636dc2cc71146103e35780638751682a146104205780639cb481b214610449578063ad2c48ef14610486578063d70d88fd146104af5761011f565b8063392338f5146102fb578063392cfec71461032457806340a179851461034d5780634a00eb4f146103765780635d8d1585146103b35761011f565b806317906c2e116100e757806317906c2e1461020c5780631c6aff1d146102375780631fef580c146102745780632fc95d71146102b65780633223e4b8146102d25761011f565b806307973ccf14610124578063092a5cce1461014f578063096568b4146101665780630c1d50cb146101a3578063107bf28c146101e1575b600080fd5b34801561013057600080fd5b506101396104db565b604051610146919061463e565b60405180910390f35b34801561015b57600080fd5b506101646104ef565b005b34801561017257600080fd5b5061018d60048036038101906101889190613c00565b610628565b60405161019a9190614474565b60405180910390f35b3480156101af57600080fd5b506101ca60048036038101906101c59190613c00565b610b69565b6040516101d89291906144da565b60405180910390f35b3480156101ed57600080fd5b506101f6611066565b6040516102039190614563565b60405180910390f35b34801561021857600080fd5b506102216110f4565b60405161022e9190614659565b60405180910390f35b34801561024357600080fd5b5061025e60048036038101906102599190613ad6565b6110fa565b60405161026b9190614548565b60405180910390f35b34801561028057600080fd5b5061029b60048036038101906102969190613c00565b61113d565b6040516102ad969594939291906146f8565b60405180910390f35b6102d060048036038101906102cb9190613c00565b61122a565b005b3480156102de57600080fd5b506102f960048036038101906102f49190613c00565b6116c5565b005b34801561030757600080fd5b50610322600480360381019061031d9190613b40565b6118b8565b005b34801561033057600080fd5b5061034b60048036038101906103469190613c00565b611bcf565b005b34801561035957600080fd5b50610374600480360381019061036f9190613c29565b611dc2565b005b34801561038257600080fd5b5061039d60048036038101906103989190613c00565b61229e565b6040516103aa919061461c565b60405180910390f35b3480156103bf57600080fd5b506103c861251b565b6040516103da969594939291906146f8565b60405180910390f35b3480156103ef57600080fd5b5061040a60048036038101906104059190613aff565b61264c565b6040516104179190614496565b60405180910390f35b34801561042c57600080fd5b5061044760048036038101906104429190613bac565b612be6565b005b34801561045557600080fd5b50610470600480360381019061046b9190613aad565b612e69565b60405161047d9190614659565b60405180910390f35b34801561049257600080fd5b506104ad60048036038101906104a89190613aff565b612eeb565b005b3480156104bb57600080fd5b506104c46130f4565b6040516104d2929190614511565b60405180910390f35b600960009054906101000a900461ffff1681565b3373ffffffffffffffffffffffffffffffffffffffff1660008054906101000a900473ffffffffffffffffffffffffffffffffffffffff1673ffffffffffffffffffffffffffffffffffffffff161461057d576040517f08c379a0000000000000000000000000000000000000000000000000000000008152600401610574906145fc565b60405180910390fd5b7f1ec0eba9b0e9e969285026819e2b9903c774ac2ea3e68a8123cb3528b39489423360008054906101000a900473ffffffffffffffffffffffffffffffffffffffff1660008054906101000a900473ffffffffffffffffffffffffffffffffffffffff1673ffffffffffffffffffffffffffffffffffffffff16316040516106079392919061440d565b60405180910390a13373ffffffffffffffffffffffffffffffffffffffff16ff5b606060008211801561063c57506008548211155b61064557600080fd5b600060026000848152602001908152602001600020604051806101000160405290816000820154815260200160018201805461068090614d91565b80601f01602080910402602001604051908101604052809291908181526020018280546106ac90614d91565b80156106f95780601f106106ce576101008083540402835291602001916106f9565b820191906000526020600020905b8154815290600101906020018083116106dc57829003601f168201915b5050505050815260200160028201805461071290614d91565b80601f016020809104026020016040519081016040528092919081815260200182805461073e90614d91565b801561078b5780601f106107605761010080835404028352916020019161078b565b820191906000526020600020905b81548152906001019060200180831161076e57829003601f168201915b50505050508152602001600382015481526020016004820160009054906101000a900473ffffffffffffffffffffffffffffffffffffffff1673ffffffffffffffffffffffffffffffffffffffff1673ffffffffffffffffffffffffffffffffffffffff1681526020016005820154815260200160068201805461080e90614d91565b80601f016020809104026020016040519081016040528092919081815260200182805461083a90614d91565b80156108875780601f1061085c57610100808354040283529160200191610887565b820191906000526020600020905b81548152906001019060200180831161086a57829003601f168201915b50505050508152602001600782015481525050905060008160e00151905060008167ffffffffffffffff8111156108e7577f4e487b7100000000000000000000000000000000000000000000000000000000600052604160045260246000fd5b60405190808252806020026020018201604052801561092057816020015b61090d613850565b8152602001906001900390816109055790505b509050600080600190505b838111610b5c576005600088815260200190815260200160002060008281526020019081526020016000206040518060c0016040529081600082015481526020016001820154815260200160028201805461098590614d91565b80601f01602080910402602001604051908101604052809291908181526020018280546109b190614d91565b80156109fe5780601f106109d3576101008083540402835291602001916109fe565b820191906000526020600020905b8154815290600101906020018083116109e157829003601f168201915b505050505081526020016003820160009054906101000a900473ffffffffffffffffffffffffffffffffffffffff1673ffffffffffffffffffffffffffffffffffffffff1673ffffffffffffffffffffffffffffffffffffffff16815260200160048201548152602001600582018054610a7790614d91565b80601f0160208091040260200160405190810160405280929190818152602001828054610aa390614d91565b8015610af05780601f10610ac557610100808354040283529160200191610af0565b820191906000526020600020905b815481529060010190602001808311610ad357829003601f168201915b505050505081525050838380610b0590614dee565b945081518110610b3e577f4e487b7100000000000000000000000000000000000000000000000000000000600052603260045260246000fd5b60200260200101819052508080610b5490614dee565b91505061092b565b5081945050505050919050565b60608060008060006003600087815260200190815260200160002090506000600190505b6008548111610be05781600401600082815260200190815260200160002060009054906101000a900460ff1615610bcd578380610bc990614dee565b9450505b8080610bd890614dee565b915050610b8d565b5060008367ffffffffffffffff811115610c23577f4e487b7100000000000000000000000000000000000000000000000000000000600052604160045260246000fd5b604051908082528060200260200182016040528015610c515781602001602082028036833780820191505090505b50905060008467ffffffffffffffff811115610c96577f4e487b7100000000000000000000000000000000000000000000000000000000600052604160045260246000fd5b604051908082528060200260200182016040528015610ccf57816020015b610cbc61389c565b815260200190600190039081610cb45790505b5090506000600190505b60085481116110075783600401600082815260200190815260200160002060009054906101000a900460ff1615610ff45780838681518110610d44577f4e487b7100000000000000000000000000000000000000000000000000000000600052603260045260246000fd5b602002602001018181525050600260008281526020019081526020016000206040518061010001604052908160008201548152602001600182018054610d8990614d91565b80601f0160208091040260200160405190810160405280929190818152602001828054610db590614d91565b8015610e025780601f10610dd757610100808354040283529160200191610e02565b820191906000526020600020905b815481529060010190602001808311610de557829003601f168201915b50505050508152602001600282018054610e1b90614d91565b80601f0160208091040260200160405190810160405280929190818152602001828054610e4790614d91565b8015610e945780601f10610e6957610100808354040283529160200191610e94565b820191906000526020600020905b815481529060010190602001808311610e7757829003601f168201915b50505050508152602001600382015481526020016004820160009054906101000a900473ffffffffffffffffffffffffffffffffffffffff1673ffffffffffffffffffffffffffffffffffffffff1673ffffffffffffffffffffffffffffffffffffffff16815260200160058201548152602001600682018054610f1790614d91565b80601f0160208091040260200160405190810160405280929190818152602001828054610f4390614d91565b8015610f905780601f10610f6557610100808354040283529160200191610f90565b820191906000526020600020905b815481529060010190602001808311610f7357829003601f168201915b50505050508152602001600782015481525050828680610faf90614dee565b975081518110610fe8577f4e487b7100000000000000000000000000000000000000000000000000000000600052603260045260246000fd5b60200260200101819052505b8080610fff90614dee565b915050610cd9565b503373ffffffffffffffffffffffffffffffffffffffff167fd2365500f72e0836a24bca0665a95120d4f6169769a291786d75fa886cd572e08360405161104e91906144b8565b60405180910390a28181965096505050505050915091565b6001805461107390614d91565b80601f016020809104026020016040519081016040528092919081815260200182805461109f90614d91565b80156110ec5780601f106110c1576101008083540402835291602001916110ec565b820191906000526020600020905b8154815290600101906020018083116110cf57829003601f168201915b505050505081565b60085481565b6000602060f81b827effffffffffffffffffffffffffffffffffffffffffffffffffffffffffffff191614156111335760019050611138565b600090505b919050565b600060606000806000806000871161115457600080fd5b6000600360008981526020019081526020016000209050806000015481600201826006015483600701548460080154856009015484805461119490614d91565b80601f01602080910402602001604051908101604052809291908181526020018280546111c090614d91565b801561120d5780601f106111e25761010080835404028352916020019161120d565b820191906000526020600020905b8154815290600101906020018083116111f057829003601f168201915b505050505094509650965096509650965096505091939550919395565b60008111801561123c57506008548111155b61124557600080fd5b600060026000838152602001908152602001600020604051806101000160405290816000820154815260200160018201805461128090614d91565b80601f01602080910402602001604051908101604052809291908181526020018280546112ac90614d91565b80156112f95780601f106112ce576101008083540402835291602001916112f9565b820191906000526020600020905b8154815290600101906020018083116112dc57829003601f168201915b5050505050815260200160028201805461131290614d91565b80601f016020809104026020016040519081016040528092919081815260200182805461133e90614d91565b801561138b5780601f106113605761010080835404028352916020019161138b565b820191906000526020600020905b81548152906001019060200180831161136e57829003601f168201915b50505050508152602001600382015481526020016004820160009054906101000a900473ffffffffffffffffffffffffffffffffffffffff1673ffffffffffffffffffffffffffffffffffffffff1673ffffffffffffffffffffffffffffffffffffffff1681526020016005820154815260200160068201805461140e90614d91565b80601f016020809104026020016040519081016040528092919081815260200182805461143a90614d91565b80156114875780601f1061145c57610100808354040283529160200191611487565b820191906000526020600020905b81548152906001019060200180831161146a57829003601f168201915b5050505050815260200160078201548152505090506000816080015190508073ffffffffffffffffffffffffffffffffffffffff166108fc349081150290604051600060405180830381858888f193505050501580156114eb573d6000803e3d6000fd5b503482606001516114fc9190614a1e565b826060018181525050816002600085815260200190815260200160002060008201518160000155602082015181600101908051906020019061153f9291906138f7565b50604082015181600201908051906020019061155c9291906138f7565b506060820151816003015560808201518160040160006101000a81548173ffffffffffffffffffffffffffffffffffffffff021916908373ffffffffffffffffffffffffffffffffffffffff16021790555060a0820151816005015560c08201518160060190805190602001906115d49291906138f7565b5060e082015181600701559050503460036000600460003373ffffffffffffffffffffffffffffffffffffffff1673ffffffffffffffffffffffffffffffffffffffff16815260200190815260200160002054815260200190815260200160002060090160008282546116479190614a1e565b9250508190555034600360008460a00151815260200190815260200160002060080160008282546116789190614a1e565b925050819055507f857a474f7d18ba7614a11cc88bce5fd9cf05678441e1cb7c7eac53fecf3a8abd6008548360600151836040516116b893929190614760565b60405180910390a1505050565b600073ffffffffffffffffffffffffffffffffffffffff163373ffffffffffffffffffffffffffffffffffffffff1614156116ff57600080fd5b6000600460003373ffffffffffffffffffffffffffffffffffffffff1673ffffffffffffffffffffffffffffffffffffffff1681526020019081526020016000205490508181141561175057600080fd5b600060036000838152602001908152602001600020600701549050600060036000858152602001908152602001600020600601549050600160036000858152602001908152602001600020600501600086815260200190815260200160002060006101000a81548160ff021916908315150217905550600160036000868152602001908152602001600020600301600085815260200190815260200160002060006101000a81548160ff0219169083151502179055506001826118139190614a1e565b600360008581526020019081526020016000206007018190555060018161183a9190614a1e565b60036000868152602001908152602001600020600601819055503373ffffffffffffffffffffffffffffffffffffffff167f1284e19801ce3def7f6b0025adef283c3cd9ee9bf4a717df2e7af6153517726b848660018661189b9190614a1e565b6040516118aa93929190614842565b60405180910390a250505050565b60008251116118c657600080fd5b600860008154809291906118d990614dee565b91905055506000600460003373ffffffffffffffffffffffffffffffffffffffff1673ffffffffffffffffffffffffffffffffffffffff1681526020019081526020016000205490506040518061010001604052806008548152602001848152602001604051806060016040528060338152602001614f28603391398152602001600081526020013373ffffffffffffffffffffffffffffffffffffffff1681526020018281526020016003600084815260200190815260200160002060020180546119a490614d91565b80601f01602080910402602001604051908101604052809291908181526020018280546119d090614d91565b8015611a1d5780601f106119f257610100808354040283529160200191611a1d565b820191906000526020600020905b815481529060010190602001808311611a0057829003601f168201915b505050505081526020016000815250600260006008548152602001908152602001600020600082015181600001556020820151816001019080519060200190611a679291906138f7565b506040820151816002019080519060200190611a849291906138f7565b506060820151816003015560808201518160040160006101000a81548173ffffffffffffffffffffffffffffffffffffffff021916908373ffffffffffffffffffffffffffffffffffffffff16021790555060a0820151816005015560c0820151816006019080519060200190611afc9291906138f7565b5060e082015181600701559050506001600360008381526020019081526020016000206004016000600854815260200190815260200160002060006101000a81548160ff0219169083151502179055503373ffffffffffffffffffffffffffffffffffffffff167f2fab7d22c558b3256207695703b5c832f1a661de05ca9d69c2638097841b60a2600854858560003387600360008a8152602001908152602001600020600201604051611bb69796959493929190614674565b60405180910390a2611bca83600854612be6565b505050565b600073ffffffffffffffffffffffffffffffffffffffff163373ffffffffffffffffffffffffffffffffffffffff161415611c0957600080fd5b6000600460003373ffffffffffffffffffffffffffffffffffffffff1673ffffffffffffffffffffffffffffffffffffffff16815260200190815260200160002054905081811415611c5a57600080fd5b600060036000838152602001908152602001600020600701549050600060036000858152602001908152602001600020600601549050600060036000858152602001908152602001600020600501600086815260200190815260200160002060006101000a81548160ff021916908315150217905550600182611cdd9190614c3f565b6003600085815260200190815260200160002060070181905550600060036000868152602001908152602001600020600301600085815260200190815260200160002060006101000a81548160ff021916908315150217905550600181611d449190614c3f565b60036000868152602001908152602001600020600601819055503373ffffffffffffffffffffffffffffffffffffffff167f1284e19801ce3def7f6b0025adef283c3cd9ee9bf4a717df2e7af6153517726b8486600186611da59190614c3f565b604051611db4939291906147f8565b60405180910390a250505050565b600082118015611dd457506008548211155b611ddd57600080fd5b6000600260008481526020019081526020016000206040518061010001604052908160008201548152602001600182018054611e1890614d91565b80601f0160208091040260200160405190810160405280929190818152602001828054611e4490614d91565b8015611e915780601f10611e6657610100808354040283529160200191611e91565b820191906000526020600020905b815481529060010190602001808311611e7457829003601f168201915b50505050508152602001600282018054611eaa90614d91565b80601f0160208091040260200160405190810160405280929190818152602001828054611ed690614d91565b8015611f235780601f10611ef857610100808354040283529160200191611f23565b820191906000526020600020905b815481529060010190602001808311611f0657829003601f168201915b50505050508152602001600382015481526020016004820160009054906101000a900473ffffffffffffffffffffffffffffffffffffffff1673ffffffffffffffffffffffffffffffffffffffff1673ffffffffffffffffffffffffffffffffffffffff16815260200160058201548152602001600682018054611fa690614d91565b80601f0160208091040260200160405190810160405280929190818152602001828054611fd290614d91565b801561201f5780601f10611ff45761010080835404028352916020019161201f565b820191906000526020600020905b81548152906001019060200180831161200257829003601f168201915b50505050508152602001600782015481525050905060008160e001519050808061204890614dee565b915050600060036000600460003373ffffffffffffffffffffffffffffffffffffffff1673ffffffffffffffffffffffffffffffffffffffff16815260200190815260200160002054815260200190815260200160002090506040518060c001604052808681526020018381526020018581526020013373ffffffffffffffffffffffffffffffffffffffff168152602001826000015481526020018260020180546120f390614d91565b80601f016020809104026020016040519081016040528092919081815260200182805461211f90614d91565b801561216c5780601f106121415761010080835404028352916020019161216c565b820191906000526020600020905b81548152906001019060200180831161214f57829003601f168201915b5050505050815250600560008781526020019081526020016000206000848152602001908152602001600020600082015181600001556020820151816001015560408201518160020190805190602001906121c89291906138f7565b5060608201518160030160006101000a81548173ffffffffffffffffffffffffffffffffffffffff021916908373ffffffffffffffffffffffffffffffffffffffff1602179055506080820151816004015560a08201518160050190805190602001906122369291906138f7565b509050508160026000878152602001908152602001600020600701819055507f091c43fe8acad66152ac39b09b3cdf1e435cf052695a5020ae486ec31b653769858386338560020160405161228f959493929190614797565b60405180910390a15050505050565b6122a661389c565b6000821180156122b857506008548211155b6122c157600080fd5b6002600083815260200190815260200160002060405180610100016040529081600082015481526020016001820180546122fa90614d91565b80601f016020809104026020016040519081016040528092919081815260200182805461232690614d91565b80156123735780601f1061234857610100808354040283529160200191612373565b820191906000526020600020905b81548152906001019060200180831161235657829003601f168201915b5050505050815260200160028201805461238c90614d91565b80601f01602080910402602001604051908101604052809291908181526020018280546123b890614d91565b80156124055780601f106123da57610100808354040283529160200191612405565b820191906000526020600020905b8154815290600101906020018083116123e857829003601f168201915b50505050508152602001600382015481526020016004820160009054906101000a900473ffffffffffffffffffffffffffffffffffffffff1673ffffffffffffffffffffffffffffffffffffffff1673ffffffffffffffffffffffffffffffffffffffff1681526020016005820154815260200160068201805461248890614d91565b80601f01602080910402602001604051908101604052809291908181526020018280546124b490614d91565b80156125015780601f106124d657610100808354040283529160200191612501565b820191906000526020600020905b8154815290600101906020018083116124e457829003601f168201915b505050505081526020016007820154815250509050919050565b600060606000806000806000600460003373ffffffffffffffffffffffffffffffffffffffff1673ffffffffffffffffffffffffffffffffffffffff1681526020019081526020016000205490506000811161257657600080fd5b600060036000838152602001908152602001600020905080600001548160020182600601548360070154846008015485600901548480546125b690614d91565b80601f01602080910402602001604051908101604052809291908181526020018280546125e290614d91565b801561262f5780601f106126045761010080835404028352916020019161262f565b820191906000526020600020905b81548152906001019060200180831161261257829003601f168201915b505050505094509750975097509750975097505050909192939495565b6060600060068360405161266091906143f6565b90815260200160405180910390208054806020026020016040519081016040528092919081815260200182805480156126b857602002820191906000526020600020905b8154815260200190600101908083116126a4575b50505050509050600080825167ffffffffffffffff811115612703577f4e487b7100000000000000000000000000000000000000000000000000000000600052604160045260246000fd5b60405190808252806020026020018201604052801561273c57816020015b61272961389c565b8152602001906001900390816127215790505b50905060005b8351811015612b155760076000858381518110612788577f4e487b7100000000000000000000000000000000000000000000000000000000600052603260045260246000fd5b6020026020010151815260200190815260200160002060009054906101000a900460ff16612b025782806127bb90614dee565b9350506001600760008684815181106127fd577f4e487b7100000000000000000000000000000000000000000000000000000000600052603260045260246000fd5b6020026020010151815260200190815260200160002060006101000a81548160ff02191690831515021790555060026000858381518110612867577f4e487b7100000000000000000000000000000000000000000000000000000000600052603260045260246000fd5b6020026020010151815260200190815260200160002060405180610100016040529081600082015481526020016001820180546128a390614d91565b80601f01602080910402602001604051908101604052809291908181526020018280546128cf90614d91565b801561291c5780601f106128f15761010080835404028352916020019161291c565b820191906000526020600020905b8154815290600101906020018083116128ff57829003601f168201915b5050505050815260200160028201805461293590614d91565b80601f016020809104026020016040519081016040528092919081815260200182805461296190614d91565b80156129ae5780601f10612983576101008083540402835291602001916129ae565b820191906000526020600020905b81548152906001019060200180831161299157829003601f168201915b50505050508152602001600382015481526020016004820160009054906101000a900473ffffffffffffffffffffffffffffffffffffffff1673ffffffffffffffffffffffffffffffffffffffff1673ffffffffffffffffffffffffffffffffffffffff16815260200160058201548152602001600682018054612a3190614d91565b80601f0160208091040260200160405190810160405280929190818152602001828054612a5d90614d91565b8015612aaa5780601f10612a7f57610100808354040283529160200191612aaa565b820191906000526020600020905b815481529060010190602001808311612a8d57829003601f168201915b50505050508152602001600782015481525050828281518110612af6577f4e487b7100000000000000000000000000000000000000000000000000000000600052603260045260246000fd5b60200260200101819052505b8080612b0d90614dee565b915050612742565b5060005b8351811015612ba157600060076000868481518110612b61577f4e487b7100000000000000000000000000000000000000000000000000000000600052603260045260246000fd5b6020026020010151815260200190815260200160002060006101000a81548160ff0219169083151502179055508080612b9990614dee565b915050612b19565b507fa6d192aadf255c7ae56e790b2e16703aa516fcce47e4293edccc845459075c918582604051612bd3929190614585565b60405180910390a1809350505050919050565b6000612bf183613433565b90506000612c336040518060400160405280600181526020017f2000000000000000000000000000000000000000000000000000000000000000815250613433565b905060006001612c4c838561346190919063ffffffff16565b612c569190614a1e565b67ffffffffffffffff811115612c95577f4e487b7100000000000000000000000000000000000000000000000000000000600052604160045260246000fd5b604051908082528060200260200182016040528015612cc857816020015b6060815260200190600190039081612cb35790505b50905060005b8151811015612d4957612cf2612ced848661350990919063ffffffff16565b613523565b828281518110612d2b577f4e487b7100000000000000000000000000000000000000000000000000000000600052603260045260246000fd5b60200260200101819052508080612d4190614dee565b915050612cce565b5060005b8151811015612e28576000828281518110612d91577f4e487b7100000000000000000000000000000000000000000000000000000000600052603260045260246000fd5b602002602001015190506000600682604051612dad91906143f6565b908152602001604051809103902090508087908060018154018082558091505060019003906000526020600020016000909190919091505580600683604051612df691906143f6565b9081526020016040518091039020908054612e1292919061397d565b5050508080612e2090614dee565b915050612d4d565b507fff7bdb826be905156c9c48f1c8f3c42d75db8c0de8b9ce184021dde9c4d516f48185604051612e5a929190614444565b60405180910390a15050505050565b60008073ffffffffffffffffffffffffffffffffffffffff163373ffffffffffffffffffffffffffffffffffffffff161415612ea457600080fd5b600460008373ffffffffffffffffffffffffffffffffffffffff1673ffffffffffffffffffffffffffffffffffffffff168152602001908152602001600020549050919050565b6000815111612ef957600080fd5b6009600081819054906101000a900461ffff1680929190612f1990614dc3565b91906101000a81548161ffff021916908361ffff16021790555050600060036000600960009054906101000a900461ffff1661ffff16815260200190815260200160002090503373ffffffffffffffffffffffffffffffffffffffff167f86bccb58d5cc5d9545f467598d37d93ecb638f74090cce7c33c9d02ea467172b604051612fa3906145dc565b60405180910390a2600960009054906101000a900461ffff1661ffff16816000018190555081816002019080519060200190612fe09291906138f7565b50338160010160006101000a81548173ffffffffffffffffffffffffffffffffffffffff021916908373ffffffffffffffffffffffffffffffffffffffff16021790555060008160060181905550600081600701819055506000816008018190555060008160090181905550600960009054906101000a900461ffff1661ffff16600460003373ffffffffffffffffffffffffffffffffffffffff1673ffffffffffffffffffffffffffffffffffffffff168152602001908152602001600020819055503373ffffffffffffffffffffffffffffffffffffffff167f86bccb58d5cc5d9545f467598d37d93ecb638f74090cce7c33c9d02ea467172b6040516130e8906145bc565b60405180910390a25050565b6060806000600460003373ffffffffffffffffffffffffffffffffffffffff1673ffffffffffffffffffffffffffffffffffffffff16815260200190815260200160002054905060008111801561315f5750600960009054906101000a900461ffff1661ffff168111155b61316857600080fd5b60006003600083815260200190815260200160002090506000816007015467ffffffffffffffff8111156131c5577f4e487b7100000000000000000000000000000000000000000000000000000000600052604160045260246000fd5b6040519080825280602002602001820160405280156131f35781602001602082028036833780820191505090505b5090506000826006015467ffffffffffffffff81111561323c577f4e487b7100000000000000000000000000000000000000000000000000000000600052604160045260246000fd5b60405190808252806020026020018201604052801561326a5781602001602082028036833780820191505090505b509050600080600190505b600960009054906101000a900461ffff1661ffff16811161331e5784600501600082815260200190815260200160002060009054906101000a900460ff161561330b57808483806132c590614dee565b9450815181106132fe577f4e487b7100000000000000000000000000000000000000000000000000000000600052603260045260246000fd5b6020026020010181815250505b808061331690614dee565b915050613275565b50600090506000600190505b600960009054906101000a900461ffff1661ffff1681116133d35784600301600082815260200190815260200160002060009054906101000a900460ff16156133c0578083838061337a90614dee565b9450815181106133b3577f4e487b7100000000000000000000000000000000000000000000000000000000600052603260045260246000fd5b6020026020010181815250505b80806133cb90614dee565b91505061332a565b503373ffffffffffffffffffffffffffffffffffffffff167f7ebbc67615cdacc372a2a97e3016a3233043ce2d9e92b32fbe3390c0c7286e12848460405161341c929190614511565b60405180910390a282829650965050505050509091565b61343b6139cf565b600060208301905060405180604001604052808451815260200182815250915050919050565b600080826000015161348585600001518660200151866000015187602001516135c5565b61348f9190614a1e565b90505b836000015184602001516134a69190614a1e565b81116135025781806134b790614dee565b92505082600001516134f18560200151836134d29190614c3f565b86600001516134e19190614c3f565b83866000015187602001516135c5565b6134fb9190614a1e565b9050613492565b5092915050565b6135116139cf565b61351c838383613706565b5092915050565b60606000826000015167ffffffffffffffff81111561356b577f4e487b7100000000000000000000000000000000000000000000000000000000600052604160045260246000fd5b6040519080825280601f01601f19166020018201604052801561359d5781602001600182028036833780820191505090505b50905060006020820190506135bb81856020015186600001516137d1565b8192505050919050565b60008084905060008685116136ed576020851161368f57600060018660206135ed9190614c3f565b60086135f99190614be5565b60026136059190614ac7565b61360f9190614c3f565b1960001b905060008186511690506000878a8a61362c9190614a1e565b6136369190614c3f565b905060008386511690505b82811461368157818610613668578a8a61365b9190614a1e565b96505050505050506136fe565b858061367390614dee565b965050838651169050613641565b8596505050505050506136fe565b60008585209050600091505b85886136a79190614c3f565b82116136eb5760008684209050808214156136c857839450505050506136fe565b6001846136d59190614a1e565b93505081806136e390614dee565b92505061369b565b505b86866136f99190614a1e565b925050505b949350505050565b61370e6139cf565b600061372c85600001518660200151866000015187602001516135c5565b9050846020015183602001818152505084602001518161374c9190614c3f565b836000018181525050846000015185602001516137699190614a1e565b8114156137805760008560000181815250506137c6565b836000015183600001516137949190614a1e565b856000018181516137a59190614c3f565b915081815250508360000151816137bc9190614a1e565b8560200181815250505b829150509392505050565b5b6020811061381057815183526020836137eb9190614a1e565b92506020826137fa9190614a1e565b91506020816138099190614c3f565b90506137d2565b600060018260206138219190614c3f565b61010061382e9190614ac7565b6138389190614c3f565b90508019835116818551168181178652505050505050565b6040518060c00160405280600081526020016000815260200160608152602001600073ffffffffffffffffffffffffffffffffffffffff16815260200160008152602001606081525090565b60405180610100016040528060008152602001606081526020016060815260200160008152602001600073ffffffffffffffffffffffffffffffffffffffff1681526020016000815260200160608152602001600081525090565b82805461390390614d91565b90600052602060002090601f016020900481019282613925576000855561396c565b82601f1061393e57805160ff191683800117855561396c565b8280016001018555821561396c579182015b8281111561396b578251825591602001919060010190613950565b5b50905061397991906139e9565b5090565b8280548282559060005260206000209081019282156139be5760005260206000209182015b828111156139bd5782548255916001019190600101906139a2565b5b5090506139cb91906139e9565b5090565b604051806040016040528060008152602001600081525090565b5b80821115613a025760008160009055506001016139ea565b5090565b6000613a19613a14846148bd565b61488c565b905082815260208101848484011115613a3157600080fd5b613a3c848285614d4f565b509392505050565b600081359050613a5381614ee2565b92915050565b600081359050613a6881614ef9565b92915050565b600082601f830112613a7f57600080fd5b8135613a8f848260208601613a06565b91505092915050565b600081359050613aa781614f10565b92915050565b600060208284031215613abf57600080fd5b6000613acd84828501613a44565b91505092915050565b600060208284031215613ae857600080fd5b6000613af684828501613a59565b91505092915050565b600060208284031215613b1157600080fd5b600082013567ffffffffffffffff811115613b2b57600080fd5b613b3784828501613a6e565b91505092915050565b60008060408385031215613b5357600080fd5b600083013567ffffffffffffffff811115613b6d57600080fd5b613b7985828601613a6e565b925050602083013567ffffffffffffffff811115613b9657600080fd5b613ba285828601613a6e565b9150509250929050565b60008060408385031215613bbf57600080fd5b600083013567ffffffffffffffff811115613bd957600080fd5b613be585828601613a6e565b9250506020613bf685828601613a98565b9150509250929050565b600060208284031215613c1257600080fd5b6000613c2084828501613a98565b91505092915050565b60008060408385031215613c3c57600080fd5b6000613c4a85828601613a98565b925050602083013567ffffffffffffffff811115613c6757600080fd5b613c7385828601613a6e565b9150509250929050565b6000613c898383613ee8565b905092915050565b6000613c9d83836141bd565b905092915050565b6000613cb1838361424d565b905092915050565b6000613cc583836143d8565b60208301905092915050565b613cda81614d07565b82525050565b613ce981614c85565b82525050565b613cf881614c73565b82525050565b613d0781614c73565b82525050565b6000613d1882614942565b613d2281856149ad565b935083602082028501613d34856148ed565b8060005b85811015613d705784840389528151613d518582613c7d565b9450613d5c83614979565b925060208a01995050600181019050613d38565b50829750879550505050505092915050565b6000613d8d8261494d565b613d9781856149be565b935083602082028501613da9856148fd565b8060005b85811015613de55784840389528151613dc68582613c91565b9450613dd183614986565b925060208a01995050600181019050613dad565b50829750879550505050505092915050565b6000613e0282614958565b613e0c81856149cf565b935083602082028501613e1e8561490d565b8060005b85811015613e5a5784840389528151613e3b8582613ca5565b9450613e4683614993565b925060208a01995050600181019050613e22565b50829750879550505050505092915050565b6000613e7782614963565b613e8181856149e0565b9350613e8c8361491d565b8060005b83811015613ebd578151613ea48882613cb9565b9750613eaf836149a0565b925050600181019050613e90565b5085935050505092915050565b613ed381614c97565b82525050565b613ee281614d19565b82525050565b6000613ef38261496e565b613efd81856149f1565b9350613f0d818560208601614d5e565b613f1681614ec4565b840191505092915050565b6000613f2c8261496e565b613f368185614a02565b9350613f46818560208601614d5e565b613f4f81614ec4565b840191505092915050565b6000613f658261496e565b613f6f8185614a13565b9350613f7f818560208601614d5e565b80840191505092915050565b60008154613f9881614d91565b613fa28186614a02565b94506001821660008114613fbd5760018114613fcf57614002565b60ff1983168652602086019350614002565b613fd88561492d565b60005b83811015613ffa57815481890152600182019150602081019050613fdb565b808801955050505b50505092915050565b6000614018602583614a02565b91507f556e466f6c6c6f77696e672074686520617574686f722077697468206e65772060008301527f636f756e740000000000000000000000000000000000000000000000000000006020830152604082019050919050565b600061407e600c83614a02565b91507f55736572204372656174656400000000000000000000000000000000000000006000830152602082019050919050565b60006140be602383614a02565b91507f466f6c6c6f77696e672074686520617574686f722077697468206e657720636f60008301527f756e7400000000000000000000000000000000000000000000000000000000006020830152604082019050919050565b6000614124600d83614a02565b91507f4372656174696e672055736572000000000000000000000000000000000000006000830152602082019050919050565b6000614164603083614a02565b91507f4f6e6c792074686520636f6e7472616374206f776e65722063616e206465737460008301527f726f792074686520636f6e7472616374000000000000000000000000000000006020830152604082019050919050565b600060c0830160008301516141d560008601826143d8565b5060208301516141e860208601826143d8565b50604083015184820360408601526142008282613ee8565b91505060608301516142156060860182613cef565b50608083015161422860808601826143d8565b5060a083015184820360a08601526142408282613ee8565b9150508091505092915050565b60006101008301600083015161426660008601826143d8565b506020830151848203602086015261427e8282613ee8565b915050604083015184820360408601526142988282613ee8565b91505060608301516142ad60608601826143d8565b5060808301516142c06080860182613ce0565b5060a08301516142d360a08601826143d8565b5060c083015184820360c08601526142eb8282613ee8565b91505060e083015161430060e08601826143d8565b508091505092915050565b60006101008301600083015161432460008601826143d8565b506020830151848203602086015261433c8282613ee8565b915050604083015184820360408601526143568282613ee8565b915050606083015161436b60608601826143d8565b50608083015161437e6080860182613ce0565b5060a083015161439160a08601826143d8565b5060c083015184820360c08601526143a98282613ee8565b91505060e08301516143be60e08601826143d8565b508091505092915050565b6143d281614ccf565b82525050565b6143e181614cfd565b82525050565b6143f081614cfd565b82525050565b60006144028284613f5a565b915081905092915050565b60006060820190506144226000830186613cfe565b61442f6020830185613cfe565b61443c60408301846143e7565b949350505050565b6000604082019050818103600083015261445e8185613d0d565b905061446d60208301846143e7565b9392505050565b6000602082019050818103600083015261448e8184613d82565b905092915050565b600060208201905081810360008301526144b08184613df7565b905092915050565b600060208201905081810360008301526144d28184613e6c565b905092915050565b600060408201905081810360008301526144f48185613e6c565b905081810360208301526145088184613df7565b90509392505050565b6000604082019050818103600083015261452b8185613e6c565b9050818103602083015261453f8184613e6c565b90509392505050565b600060208201905061455d6000830184613eca565b92915050565b6000602082019050818103600083015261457d8184613f21565b905092915050565b6000604082019050818103600083015261459f8185613f21565b905081810360208301526145b38184613df7565b90509392505050565b600060208201905081810360008301526145d581614071565b9050919050565b600060208201905081810360008301526145f581614117565b9050919050565b6000602082019050818103600083015261461581614157565b9050919050565b60006020820190508181036000830152614636818461430b565b905092915050565b600060208201905061465360008301846143c9565b92915050565b600060208201905061466e60008301846143e7565b92915050565b600060e082019050614689600083018a6143e7565b818103602083015261469b8189613f21565b905081810360408301526146af8188613f21565b90506146be6060830187613ed9565b6146cb6080830186613cfe565b6146d860a08301856143e7565b81810360c08301526146ea8184613f8b565b905098975050505050505050565b600060c08201905061470d60008301896143e7565b818103602083015261471f8188613f21565b905061472e60408301876143e7565b61473b60608301866143e7565b61474860808301856143e7565b61475560a08301846143e7565b979650505050505050565b600060608201905061477560008301866143e7565b61478260208301856143e7565b61478f6040830184613cd1565b949350505050565b600060a0820190506147ac60008301886143e7565b6147b960208301876143e7565b81810360408301526147cb8186613f21565b90506147da6060830185613cfe565b81810360808301526147ec8184613f8b565b90509695505050505050565b600060808201905061480d60008301866143e7565b61481a60208301856143e7565b818103604083015261482b8161400b565b905061483a60608301846143e7565b949350505050565b600060808201905061485760008301866143e7565b61486460208301856143e7565b8181036040830152614875816140b1565b905061488460608301846143e7565b949350505050565b6000604051905081810181811067ffffffffffffffff821117156148b3576148b2614e95565b5b8060405250919050565b600067ffffffffffffffff8211156148d8576148d7614e95565b5b601f19601f8301169050602081019050919050565b6000819050602082019050919050565b6000819050602082019050919050565b6000819050602082019050919050565b6000819050602082019050919050565b60008190508160005260206000209050919050565b600081519050919050565b600081519050919050565b600081519050919050565b600081519050919050565b600081519050919050565b6000602082019050919050565b6000602082019050919050565b6000602082019050919050565b6000602082019050919050565b600082825260208201905092915050565b600082825260208201905092915050565b600082825260208201905092915050565b600082825260208201905092915050565b600082825260208201905092915050565b600082825260208201905092915050565b600081905092915050565b6000614a2982614cfd565b9150614a3483614cfd565b9250827fffffffffffffffffffffffffffffffffffffffffffffffffffffffffffffffff03821115614a6957614a68614e37565b5b828201905092915050565b6000808291508390505b6001851115614abe57808604811115614a9a57614a99614e37565b5b6001851615614aa95780820291505b8081029050614ab785614ed5565b9450614a7e565b94509492505050565b6000614ad282614cfd565b9150614add83614cfd565b9250614b0a7fffffffffffffffffffffffffffffffffffffffffffffffffffffffffffffffff8484614b12565b905092915050565b600082614b225760019050614bde565b81614b305760009050614bde565b8160018114614b465760028114614b5057614b7f565b6001915050614bde565b60ff841115614b6257614b61614e37565b5b8360020a915084821115614b7957614b78614e37565b5b50614bde565b5060208310610133831016604e8410600b8410161715614bb45782820a905083811115614baf57614bae614e37565b5b614bde565b614bc18484846001614a74565b92509050818404811115614bd857614bd7614e37565b5b81810290505b9392505050565b6000614bf082614cfd565b9150614bfb83614cfd565b9250817fffffffffffffffffffffffffffffffffffffffffffffffffffffffffffffffff0483118215151615614c3457614c33614e37565b5b828202905092915050565b6000614c4a82614cfd565b9150614c5583614cfd565b925082821015614c6857614c67614e37565b5b828203905092915050565b6000614c7e82614cdd565b9050919050565b6000614c9082614cdd565b9050919050565b60008115159050919050565b60007fff0000000000000000000000000000000000000000000000000000000000000082169050919050565b600061ffff82169050919050565b600073ffffffffffffffffffffffffffffffffffffffff82169050919050565b6000819050919050565b6000614d1282614d2b565b9050919050565b6000614d2482614cfd565b9050919050565b6000614d3682614d3d565b9050919050565b6000614d4882614cdd565b9050919050565b82818337600083830152505050565b60005b83811015614d7c578082015181840152602081019050614d61565b83811115614d8b576000848401525b50505050565b60006002820490506001821680614da957607f821691505b60208210811415614dbd57614dbc614e66565b5b50919050565b6000614dce82614ccf565b915061ffff821415614de357614de2614e37565b5b600182019050919050565b6000614df982614cfd565b91507fffffffffffffffffffffffffffffffffffffffffffffffffffffffffffffffff821415614e2c57614e2b614e37565b5b600182019050919050565b7f4e487b7100000000000000000000000000000000000000000000000000000000600052601160045260246000fd5b7f4e487b7100000000000000000000000000000000000000000000000000000000600052602260045260246000fd5b7f4e487b7100000000000000000000000000000000000000000000000000000000600052604160045260246000fd5b6000601f19601f8301169050919050565b60008160011c9050919050565b614eeb81614c73565b8114614ef657600080fd5b50565b614f0281614ca3565b8114614f0d57600080fd5b50565b614f1981614cfd565b8114614f2457600080fd5b5056fe68747470733a2f2f6769746875622e636f6d2f5072617665656e50696e2f53696d706c652d536f6369616c2d4e6574776f726ba264697066735822122033ee1e5969d2cf4a551752635e77ac97cc393bc156d8c0d9f0b808dd1f30f41b64736f6c63430008000033",
  "immutableReferences": {},
  "source": "pragma solidity ^0.8.0;\r\n\r\nimport './owned.sol';\r\nimport \"./StringsLib.sol\";\r\npragma abicoder v2;\r\n\r\ncontract SocialNetwork is owned{\r\n    /*Add code */\r\n    using strings for *;\r\n\r\n    string public networkName; /* State variable -> this value gets stored on block chain*/\r\n    // we cannot know the length of any map and cannot iterate over it, we can only fetch individually\r\n    mapping(uint => Post) posts;/* Key Value Store, gets written to block chain itself */\r\n    mapping(uint => User) users;\r\n    mapping(address => uint) addressToUid;\r\n    mapping(uint => mapping(uint => Comment)) comments;\r\n    mapping(string => uint[]) postsFromTags;\r\n    mapping(uint256 => bool) helperMap;\r\n\r\n    uint public postCount = 0;\r\n    uint16 public userCount = 0;\r\n\r\n    struct User{\r\n        uint id;\r\n        address userAddress;\r\n        string name;        \r\n        mapping(uint => bool) followerIds;\r\n        mapping(uint => bool) myPostIds; //not user's id\r\n        mapping(uint => bool) followingIds;\r\n        uint followersCount;\r\n        uint followingCount;\r\n        uint tipObtained;\r\n        uint tipDonated;\r\n    } \r\n\r\n    struct Post{\r\n        uint pid;\r\n        string content;\r\n        string url;\r\n        uint tipAmount;\r\n        address payable author;\r\n        uint authorId;\r\n        string authorName;\r\n        uint commentsCount;\r\n    }\r\n\r\n    struct Comment{\r\n        uint postId;\r\n        uint cid;\r\n        string comment;\r\n        address author;\r\n        uint authorId;\r\n        string authorName;\r\n    }\r\n\r\n    constructor () public {\r\n        networkName = \"ETH - SocialNetwork\";\r\n    }\r\n\r\n    //events for creating user, following a user, unfollowing a user\r\n    event AutoCreateUser(address indexed sender, string message);\r\n    event FollowOrUnFollowUser(address indexed sender, uint senderId, uint author, string message, uint count);\r\n\r\n    function getUserIdFromAddress(address _userAddress) public checkAddress view returns (uint){\r\n        return addressToUid[_userAddress];\r\n    }\r\n\r\n    function getPostFromPostId(uint _postId) public view returns (Post memory){\r\n        require(_postId > 0 && _postId <= postCount);\r\n        return posts[_postId];\r\n    }\r\n\r\n    function autoCreateUser(string memory _uname) public {        \r\n        require(bytes(_uname).length > 0);\r\n        userCount++;\r\n        User storage _user = users[userCount];\r\n        emit AutoCreateUser(msg.sender, \"Creating User\");            \r\n        _user.id = userCount;\r\n        _user.name = _uname;\r\n        _user.userAddress = msg.sender;\r\n        _user.followersCount = 0;\r\n        _user.followingCount = 0;\r\n        _user.tipObtained = 0;\r\n        _user.tipDonated = 0;\r\n        addressToUid[msg.sender] = userCount;\r\n        emit AutoCreateUser(msg.sender, \"User Created\");\r\n    }\r\n\r\n    function getUserInfo() public view returns (uint, string memory, uint, uint, uint, uint){     \r\n        uint _userId = addressToUid[msg.sender];\r\n        require(_userId > 0);   \r\n        User storage _user = users[_userId];\r\n        return (_user.id, _user.name, _user.followersCount, _user.followingCount, _user.tipObtained, _user.tipDonated);\r\n    }\r\n\r\n    function followAuthor(uint _authorId) public checkAddress{\r\n        uint senderId = addressToUid[msg.sender];\r\n        require(senderId != _authorId);\r\n        uint followingCount = users[senderId].followingCount;\r\n        uint authorsFollowersCount = users[_authorId].followersCount;\r\n        users[senderId].followingIds[_authorId] = true;\r\n        users[_authorId].followerIds[senderId] = true;\r\n        users[senderId].followingCount = followingCount+1;\r\n        users[_authorId].followersCount = authorsFollowersCount+1;\r\n        emit FollowOrUnFollowUser(msg.sender, senderId, _authorId, \"Following the author with new count\", followingCount+1);\r\n    }\r\n\r\n    function unFollowAuthor(uint _authorId) public checkAddress{\r\n        uint senderId = addressToUid[msg.sender];\r\n        require(senderId != _authorId);\r\n        uint followingCount = users[senderId].followingCount;\r\n        uint authorsFollowersCount = users[_authorId].followersCount;\r\n        users[senderId].followingIds[_authorId] = false;\r\n        users[senderId].followingCount = followingCount-1;\r\n        users[_authorId].followerIds[senderId] = false;\r\n        users[_authorId].followersCount = authorsFollowersCount-1;\r\n        emit FollowOrUnFollowUser(msg.sender, senderId, _authorId, \"UnFollowing the author with new count\", followingCount -1);\r\n    }\r\n\r\n    event FetchMyPosts(address indexed addr, uint[] myPostIds);\r\n\r\n    event FetchMyNetworkIds(address indexed sender, uint[] followingIds, uint[] followerIds);\r\n\r\n    function getMyPosts(uint _id) public returns (uint[] memory, Post[] memory){        \r\n        uint myPostCount = 0;\r\n        uint counter = 0;\r\n\r\n        User storage _user = users[_id];\r\n        for (uint i = 1; i <= postCount; i++){\r\n            if(_user.myPostIds[i]){\r\n                myPostCount++;\r\n            }\r\n        }\r\n        \r\n        uint[] memory postIds = new uint[](myPostCount);\r\n        Post[] memory myPosts = new Post[](myPostCount);\r\n        \r\n        for (uint i = 1; i <= postCount; i++){\r\n            if(_user.myPostIds[i]){\r\n                postIds[counter] = i;\r\n                myPosts[counter++] = posts[i];\r\n            }\r\n        }\r\n        emit FetchMyPosts(msg.sender,postIds);\r\n        return (postIds, myPosts);\r\n    }\r\n\r\n    function getAllFollowingIds() public returns (uint[] memory, uint[] memory){\r\n        uint myId = addressToUid[msg.sender];\r\n        require(myId > 0 && myId <= userCount);\r\n        User storage _user = users[myId];\r\n        uint[] memory followingIds = new uint[](_user.followingCount);\r\n        uint[] memory followerIds = new uint[](_user.followersCount);\r\n        uint counter = 0;\r\n        for (uint i = 1; i <= userCount; i++){\r\n            if(_user.followingIds[i]){\r\n                followingIds[counter++] = i;\r\n            }\r\n        }\r\n        counter = 0;\r\n        for (uint i = 1; i <= userCount; i++){\r\n            if(_user.followerIds[i]){\r\n                followerIds[counter++] = i;\r\n            }\r\n        }\r\n        emit FetchMyNetworkIds(msg.sender,followingIds,followerIds);\r\n        return (followingIds,followerIds);\r\n    }\r\n\r\n    function getUserData(uint _uid) public view returns (uint, string memory, uint, uint, uint, uint){     \r\n        require(_uid > 0);   \r\n        User storage _user = users[_uid];\r\n        return (_user.id, _user.name, _user.followersCount, _user.followingCount, _user.tipObtained, _user.tipDonated);\r\n    }\r\n\r\n    event PostCreated(address indexed id, uint pid, string content, string url, uint tipAmount, address author, uint authorId, string authorName);\r\n\r\n    function createPost(string memory _content, string memory _url) public{ \r\n        //require valid content\r\n        require(bytes(_content).length > 0); //if false it stops execution and gas used will be refunded back to caller, else continues execution\r\n        \r\n        /* Here _content is a local var and underscore is just a conventions for local vars*/\r\n        postCount++;        \r\n        uint userId = addressToUid[msg.sender];\r\n        posts[postCount] = Post(postCount, _content, \"https://github.com/PraveenPin/Simple-Social-Network\", 0, payable(msg.sender), userId, users[userId].name, 0); /* Instantiates Post, adds it into map */        \r\n        //adding the post id to the user\r\n        users[userId].myPostIds[postCount] = true;\r\n        //Trigger event from solidity smart contracts\r\n        //these posts can be open for subscription by consumers\r\n        emit PostCreated(msg.sender,postCount, _content, _url, 0, msg.sender, userId, users[userId].name);        \r\n        createTag(_content, postCount);\r\n    }\r\n\r\n    event PostTipped(uint pid, uint tipAmount, address author);\r\n\r\n    function tipAPost(uint _id) public payable {\r\n        require(_id > 0 && _id <= postCount);\r\n        Post memory _post = posts[_id];\r\n        address payable _author = _post.author;\r\n        //paying the author by sending ether\r\n        payable(address(_author)).transfer(msg.value);\r\n        //here the tip should be ether, so we use function meta data\r\n        _post.tipAmount = _post.tipAmount + msg.value;\r\n        posts[_id] = _post;\r\n        \r\n        //add tip amount to user donation\r\n        users[addressToUid[msg.sender]].tipDonated += msg.value;\r\n        //add tip amount to author's obtained tip\r\n        users[_post.authorId].tipObtained += msg.value;\r\n        emit PostTipped(postCount, _post.tipAmount, _author);\r\n    }\r\n\r\n    //functions, events to create and delete comments\r\n    event CommentDeleted(uint pid, uint cid, string deletedComment, address commentAuthor, string authorName);\r\n    event CommentCreated(uint pid, uint cid, string comment, address commentedUser, string authorName);\r\n\r\n    function createComment(uint _pid, string memory _comment) public {\r\n        require(_pid > 0 && _pid <= postCount);\r\n        Post memory _post = posts[_pid];\r\n        uint commentsCount = _post.commentsCount;\r\n        commentsCount++;\r\n        User storage _user = users[addressToUid[msg.sender]];\r\n        comments[_pid][commentsCount] = Comment(_pid, commentsCount, _comment, msg.sender, _user.id, _user.name);\r\n        posts[_pid].commentsCount = commentsCount;\r\n        emit CommentCreated(_pid, commentsCount, _comment, msg.sender, _user.name);\r\n    }\r\n\r\n    function fetchAllComments(uint _postId) public view returns (Comment[] memory){\r\n        require(_postId > 0 && _postId <= postCount);\r\n        Post memory _post = posts[_postId];\r\n        uint commentsCount = _post.commentsCount;\r\n        Comment[] memory postComments = new Comment[](commentsCount);\r\n        uint counter = 0;\r\n        for(uint i=1; i<= commentsCount; i++){\r\n            postComments[counter++] = comments[_postId][i];\r\n        }\r\n        return postComments;\r\n    }\r\n\r\n    //event for tag creation\r\n    event PostTagsCreated(string[] tags, uint postId);\r\n    event AllPostsOfATag(string tag, Post[] posts);\r\n    event emitWord(string tag);\r\n\r\n    function createTag(string memory _content, uint _postId) public {       \r\n        \r\n        strings.slice memory s  = _content.toSlice();\r\n        strings.slice memory delim = \" \".toSlice();\r\n        string[] memory parts = new string[](s.count(delim) + 1);\r\n        for(uint i = 0; i < parts.length; i++) {\r\n            parts[i] = s.split(delim).toString();\r\n        }\r\n\r\n        for(uint i = 0; i<parts.length;i++){\r\n            string memory tag = parts[i];\r\n            uint[] storage postIds = postsFromTags[tag];\r\n            postIds.push(_postId);\r\n            postsFromTags[tag] = postIds;\r\n            // bool found = false;\r\n            // for(uint j=0; j<postIds.length; i++){\r\n            //     if(!found && postIds[j] == _postId){\r\n            //         found = true;\r\n            //         break;\r\n            //     }\r\n            // }\r\n            // if(!found){\r\n            // }\r\n        }\r\n\r\n\r\n        emit PostTagsCreated(parts, _postId);\r\n    }\r\n\r\n    function checkEmptyCharacter(bytes1 _char) public pure returns (bool){\r\n        if(_char == 0x20){\r\n            return true;\r\n        }\r\n        return false;\r\n    }\r\n\r\n    function getPostsFromTag(string memory tag) public returns (Post[] memory){\r\n        uint[] memory postIds = postsFromTags[tag];\r\n        uint counter = 0;\r\n        Post[] memory postsOfTag = new Post[](postIds.length);\r\n        for(uint i=0;i< postIds.length;i++){\r\n            if(!helperMap[postIds[i]]){\r\n                counter++;\r\n                helperMap[postIds[i]] = true;\r\n                postsOfTag[i] = posts[postIds[i]];\r\n            }\r\n        }\r\n\r\n        //nullify helper map\r\n        for(uint i=0;i< postIds.length;i++){\r\n            helperMap[postIds[i]] = false;\r\n        }\r\n        emit AllPostsOfATag(tag, postsOfTag);\r\n        return postsOfTag;\r\n    }\r\n\r\n    //self destruct event \r\n    event DestroyContract(address sender, address caller, uint balance);\r\n\r\n    function destroyContract() public onlyOwner{\r\n        emit DestroyContract(msg.sender, owner, owner.balance);\r\n        selfdestruct(payable(msg.sender));\r\n    }\r\n\r\n}",
  "sourcePath": "C:/Users/praveen/Desktop/Eth-Project/Simple-Social-Network/src/contracts/SocialNetwork.sol",
  "compiler": {
    "name": "solc",
    "version": "0.8.0+commit.c7dfd78e.Emscripten.clang"
  },
  "schemaVersion": "3.4.1",
  "updatedAt": "2021-06-14T11:46:45.542Z",
  "networkType": "ethereum",
  "devdoc": {
    "kind": "dev",
    "methods": {},
    "version": 1
  },
  "userdoc": {
    "kind": "user",
    "methods": {},
    "version": 1
  }
}